:020000040800F2
:100000000050002001DB0008A1DB0008A1DB000894
:10001000A1DB0008A1DB0008A1DB00080000000054
:10002000000000000000000000000000A1DB00084C
:10003000A1DB000800000000A1DB00082F8E0008F3
:10004000A1DB0008A1DB0008A1DB0008A1DB0008A0
:10005000A1DB0008A1DB0008A15900089F59000896
:10006000A1DB00083D8E0008A1DB0008A1DB000831
:10007000A1DB0008A1DB00080DBE0008A1DB000821
:10008000A3590008A1DB0008A1DB0008A1DB0008E0
:10009000A1DB0008A1DB0008A1DB00089D590008D6
:1000A000A1DB0008D9BB0008A1DB0008E9BB000800
:1000B000CDBB0008BDBB0008ADBB00086949000806
:1000C0006D4900086149000865490008A1DB000886
:1000D000A1DB000801BE0008F5BD0008E9BD00086D
:1000E000418E0008A1DB0008A1DB00080000000031
:1000F0000000000000000000000000000000000000
:0C01000000000000000000005FF808F1A3
:100110002DE9F04F834B844C9FB0C4F898300023F6
:10012000C4F89C3006F00CFF18B906F02BFF09F05C
:10013000CDFA09F071FB94F8A0307C4D43F0010337
:1001400084F8A03000230B930C930D934FF4E0132D
:100150000E93774BA87B99461A6842F480321A6056
:100160009A6942F010029A61D9F8003003F4003322
:100170000C930B9B01330B930C9B1BB90B9BB3F59F
:10018000A06FF1D1D9F80030694913F4003301D0E0
:10019000022317E00A6842F001020A600B93D9F8C3
:1001A000003003F002030C930B9B01330B930C9B69
:1001B0001BB90B9BB3F5A06FF1D1D9F800309A07AA
:1001C00041D501230D935B4B5B491A6842F0100245
:1001D0001A601A6822F003021A601A6842F00202DA
:1001E0001A60D9F80430C9F80430D9F80430C9F8D5
:1001F0000430D9F8043043F48063C9F804304F4B1D
:100200001A68043B22F070425A604D4A1160D9F8D6
:10021000041021F47C11C9F80410596841F0004120
:100220005960D96821F40041D9609B681B0449BF1B
:10023000444B4FF4E01313604FF480130E930D9B67
:10024000012B01D118E0FEE7022B1BD168B10E9BF8
:10025000B3F5801F02D14FF4A01305E00E9BB3F558
:10026000E01F02D14FF400130E930E99D9F8043019
:100270000B4343F4803303E0D9F8043043F46013B4
:10028000C9F80430D9F8003043F08073C9F8003061
:10029000D9F80010264B8F01FAD5596821F00301D7
:1002A0005960596841F002015960D9F8043020487A
:1002B00003F00C03082BF8D14368234903F00C0327
:1002C000042B03D0082B03D01B4B12E0136810E063
:1002D00043684668C3F38343F60303F1020301D482
:1002E0001A4805E0406810F4003F106818BF400845
:1002F00043430B60D9F804301548C3F30313034498
:1003000093F878000B68C3400B60EB7B003318BF99
:10031000012384F8A1301368074A93421AD10122BD
:100320001CE000BF73920008B80000208422002067
:10033000001002400020024000127A000410014028
:1003400030000020001BB7004800002000093D00DD
:10035000CC2F0108984A934202D10222974B1A707F
:10036000DFF8B0A2964BDFF8B0B2CAF80C30D9F87B
:100370001830944E43F00103C9F81830D9F82430EE
:100380000027C4F8A430D9F82430584643F08073CD
:10039000C9F82430D9F818304FF0100843F01C0386
:1003A000C9F818301EAB03934FF6FF73039A8DF80C
:1003B0004E7022F82C3D1146039205F01EFB30468C
:1003C000039905F01AFB8048039905F016FB0223F8
:1003D0001EAA8DF847304FF4007322F8343D069280
:1003E00006998DF846805846CBF8103005F005FB8D
:1003F000764A0398536843F0007353600AF0A4FDF3
:10040000734A139B3946B3FBF2F3724A7248136086
:1004100018220FF09AFB714B4FF47A721B68DFF8C9
:10042000CCC1B3FBF2F36E4A013B5360F0238AF870
:100430002330072397601360AB686A4A039FDFF895
:10044000DCA113609AE80F0087E80F00D9F8183094
:10045000CDF810C043F00803C9F81830D9F81830A7
:10046000139843F00803C9F818300823336114A91E
:10047000C6F8108005F0C1FA159816A905F0BDFA66
:10048000584BCDF814B01B68564F13F0080FDDF829
:1004900010C013D09CF88E31012B0FD8524A9CF813
:1004A0008F31D2F8A42012F0805B00F00D8505E0BA
:1004B0004E4B002283F88F2109F07FFB642008F067
:1004C000ACFCA0224A4800210FF03FFBD9F81C30B9
:1004D000002243F00703C9F81C30D9F8183043F460
:1004E000006343F00C03C9F818303F4B4FF000088D
:1004F00003F1A80102F8018001320E2AF5D1FF2292
:1005000083F8B62083F8B72083F8B82083F8B920A1
:10051000384A394B41461A6038483C223E680FF051
:1005200014FB4146C6F380170520354BDFF8CCE0BD
:10053000CA5C0C234B4303F80E2047B91E3A012A2C
:100540009FBFFF2200F1FF3003F80E20C0B201313F
:100550000529EAD12B4B95F805A018702A4BB10656
:10056000C4F8BC3003F1C003C4F8C030274B1E4AA6
:1005700003EBCA035B7848BF0123C2F8C4302448A8
:1005800000211C2284F8BAA00FF0DFFA16F4005301
:10059000DFF88CB006F400680AD1B8F1000F41D042
:1005A00095F882110BF10C02012908BF5A463BE075
:1005B000CDF810B039E000BF001BB7001A2C0020A6
:1005C0000005FA05000C0140001001400000014048
:1005D00040420F00BC1B0020F41A002048000020FD
:1005E00010E000E05C220020B800002084220020FF
:1005F000581C0020742400200C1B0020B808002088
:10060000F34E0108B5080020942200204C45010853
:100610008001002000ED00E0000801405430010896
:10062000CC2F01080BF10C020492BC4ABAF10E0F58
:100630001192049A5288ADF84820049A1288ADF8B5
:100640004A20069AC4F8E02004D00AF0EF0ABAF172
:10065000080F02D1012284F8DA200120069308F065
:100660006FFB069BC6F34002003318BF012384F8DA
:10067000C830C6F3C03384F8CD0084F8CE2084F8A7
:10068000D07084F8CB30B8F1000F07D095F8828194
:1006900008F1FF37D7F1000848EB0708C6F300431D
:1006A00084F8D130C6F3402384F8D230D4F8C43073
:1006B000B5F84401003318BF012384F8D330C6F3E2
:1006C000005384F8D430B5F84631A4F8DE00A4F81D
:1006D000D830F004B5F8523148BF9148A4F8D6306C
:1006E000C6F3804306F00101C6F3C00284F8CF30A0
:1006F00048BFB0F84C61B5F8503148BF8948A4F8FC
:10070000DC3048BFA0F8DE60B3F5FA7F84BF002379
:10071000A4F8DE3095F8D231834884F8E430002321
:1007200084F8E530437094F8DA3084F8CC80002BFC
:1007300084F8C91084F8CA200CBF0023022301B931
:1007400002B101330BEB830BDBF898304FF0000B59
:100750009A1E1A3306920793069B33F8024F0693AC
:100760004FF6FF739C4200F08B816E4FE3B297F817
:10077000CD20240AE5B2B8461AB19A1E012A40F2E9
:100780007A8197F8D02032B168491A018958684AAD
:10079000914200F0708197F8D10030B163491A019D
:1007A0008958634A914200F0668197F8CE2052B191
:1007B0005E49059E01EB03114A68B24203D10A89E2
:1007C000102A00F0588197F8CB2052B15749059E66
:1007D00001EB03114A68B24203D10A89022A00F0F0
:1007E0004A8197F8CC2052B150494C4E01EB03118D
:1007F0004A68B24203D10A89022A00F03C81D7F844
:10080000E0608EB1494A02EB031EDEF80410326844
:10081000914209D1BEF80820B188914200F02B81A5
:10082000F188914200F02781022C02D197F8C8206C
:1008300003E0012C04D197F8C920002A00F01B81A5
:1008400097F8D320394C1E0162B1364A92F8DA206B
:1008500042B9A3F10802012A04D8A25935498A42B3
:1008600008BF042597F8D42034445AB12D4A92F891
:10087000DA203AB910B10C3B012B01E0043B032B09
:1008800040F2E280012D5DD1DFF8A0A0FF2387F8C0
:100890002C3187F82D310AEB060303F1080C5A7B43
:1008A00058681B894FF00008ADF84C3013A902239B
:1008B00087F83081C7F83C418DF84F30CDF820C023
:1008C0008DF84E2087F8E880C7F8EC80C7F8F080F4
:1008D000C7F8F480C7F8288187F82E8187F82F8120
:1008E00005F08BF8DDF820C05AF806009CF80210DD
:1008F000424604F0FEFF204641462A460BF0D0F95E
:100900000D4B0E49C7F840310D4BC7F84881C7F869
:10091000443120460A1D0BF00BFAACE0000C0140FC
:1009200084220020B80000209D0100206C440108B2
:1009300000040040002C01402D560008F801002062
:100940000D570008022D49D15FFA8BF24FF01C0CB5
:100950000CFB02FCB94B002703EB0C0808934FF08B
:10096000010388F83031B64B88F831B19A19517BC0
:10097000506802F1080A12898DF84E1088F8327119
:1009800013A988F83A71C8F83C41CDF824C0ADF8F5
:100990004C208DF84F5005F030F8A94B9AF8021012
:1009A00098593A4604F0A5FF2046394601220BF03B
:1009B00077F9A449089BDDF824C0C8F84011A24982
:1009C0006344C8F8441103F5A071C8F84871204683
:1009D0000A1D0BF0ADF90BF1010B4CE0032D31D1E9
:1009E00097F8CF20954B97F8E660984D2AB12046AE
:1009F00008214FF6FF72002318E0B3F8DC20B3F8AB
:100A0000DE30B2F5FA7F0BD991492046B1FBF2F204
:100A1000082192B205F0E4F88E4B45F826000AE072
:100A20008D492046B1FBF2F2012192B205F0D8F8CF
:100A30008A4B45F82600C36097F8E630013387F803
:100A4000E63018E0042D16D1B7F8D620824B2046A8
:100A500093FBF2F20121B7F8D83092B297F8E55043
:100A600005F0BEF897F8E53008EB85080133C8F8C3
:100A7000100287F8E530069B079A93427FF46CAE2C
:100A8000774F3B6813F4802F6C4B02D1012283F81F
:100A9000302293F8A020734D42F0040283F8A02086
:100AA0002B784FF48052022B34BF142310238DF87F
:100AB0004E304FF002038DF84F30D9F81830ADF8B2
:100AC0004C2043F00403C9F8183034BF002401243B
:100AD000654813A904F091FF644B0CB1644A00E02F
:100AE000644A00201A6008F0ADF9634B634C93E848
:100AF0000300039B4FF0030883E80300D9F8183084
:100B0000139843F00803C9F8183014A904F075FFCE
:100B1000D9F81C30204643F48043C9F81C30D9F87A
:100B20001030039943F48043C9F8103018238DF82E
:100B30004E304FF42043ADF84C304FF0040A8DF89E
:100B40004F8004F05AFF4FF48043204603994FF43E
:100B50008056ADF84C308DF84EA004F04EFF1023B7
:100B6000039920468DF84E30ADF84C6004F045FFF7
:100B7000D9F81030424A43F48043C9F81030D9F80C
:100B80001030322023F48043C9F81030138803F466
:100B9000415343F4457343EA08031380938B23F4D2
:100BA00000631B041B0C93830723138213889BB2DF
:100BB00043F0400313809F2326618DF840300023CB
:100BC0008DF841308DF842308DF8433008F025F92A
:100BD00052466661039810A909F09EFD26619DF8B2
:100BE0004E309DF84D201B0243EA02439DF84F20F2
:100BF0001343244A934212D0322008F00EF9666162
:100C0000F52009F0BFFDFF2009F0BCFD702826612A
:100C100005D12B78022B04BF124B83F800802B7870
:100C2000032B0CBF1F20022008F05EF82B78032B4B
:100C30002AD0012005F08EFB2BE000BFB800002079
:100C40006C4401082D59000805560008F81C0020C6
:100C500000127A002D57000840420F001D5700086F
:100C60005C2200201A2C002000080140042C0020E7
:100C70009D880008B188000874300108000C01400C
:100C80000038004015202000022008F059F8002804
:100C9000CFD095F80080A64D4FF0100A28460021CD
:100CA00052463C680EF051FF4FF6FF73ADF84030EE
:100CB000022304F4004704F400664FF000091C40CE
:100CC0008DF842308DF843900DD09A4810A9ADF8B8
:100CD00040A009F0C9FB04232B700124072385F8E9
:100CE0000190AC70EB7077B10223924810A9ADF877
:100CF000403009F0B9FB0123E2182B71AB710723D7
:100D00006C71EB71D4B2B8F1010F0FD9202389486F
:100D100010A9ADF8403009F0A7FB052301222B7282
:100D2000AA72631C07226C72EA72DCB27EB10223E3
:100D3000814810A9ADF8403009F096FB0923012243
:100D40002B73AA73631C07226C73EA73DCB27B4FAC
:100D50007B487B68002643F440437B607B6943F01B
:100D600001037B61BB6943F40073BB610AF074F853
:100D7000744B012C1393744B0397149394BF334615
:100D8000802318934FF4807319934FF48063A7F670
:100D9000F8771A93202313A91B9338464FF4005376
:100DA00016941C93159617961D960AF037F83B6813
:100DB000664A43F001033B605368012C23F470231F
:100DC00094BF0021012123F4807343EA012353607F
:100DD00091685F4B013C0B4043F4602343F00203F6
:100DE0009360D36AE4B223F4700343EA0454D462F8
:100DF0000123AA199178002951D0A85D591C09280E
:100E0000C9B2D278514F10D9A0F10A04D7F80CC05A
:100E100004EB44044FF0070E0EFA04FE2CEA0E0E0B
:100E2000A2404EEA0202FA600CE03C6900EB400C82
:100E30004FF0070E0EFA0CFE24EA0E0402FA0CF232
:100E400022433A61062B414C0CD8013B676B03EB04
:100E500083031F229A4027EA020200FA03F3134396
:100E600063631BE00C2B0CD8DA1F276B02EB8202AA
:100E70001F23934027EA030700FA02F33B4323634F
:100E80000CE0A3F10D02E76A02EB82021F239340FC
:100E900027EA030700FA02F33B43E3620B460436FA
:100EA000102EA6D1294B9A6842F480729A609A68F3
:100EB00042F001029A609A6842F008029A609968CA
:100EC000224A0F0746D5FAE7013B092B3FF6F6AA5F
:100ED000039BDAF86400C6F8148019461860059878
:100EE00004F08BFD059B3C201A460823136107F094
:100EF00094FFC6F810805E4695F88F319E42BFF68B
:100F0000D7AA059BDFF830A04FF00808CAF8108078
:100F10007820C3F8148007F075FF059BCAF8148089
:100F20007820C3F8108007F06DFF0136E4E700BFBA
:100F3000D429002000080140000C014000100240AC
:100F4000080002404C240140E42900200024014014
:100F5000FDF7F1FF936843F004039360B34B9A6885
:100F600012F0040BFAD19A6842F4A0029A60B04BD6
:100F7000B3F85801002841F04982B3F95A21002AF8
:100F800041F04482B3F95C31002B41F03F82A94B20
:100F9000A94F1B68A64C13F4003F23D0C820B4F817
:100FA000405707F03AFFAE2005F0CFF908B104F042
:100FB000BBFF87F83102C82007F02FFFA7F838528F
:100FC0009E4D9F4B00210C222846C7F834320EF06C
:100FD000BCFD0223EB7007F0CDF807F0F7FE994B4C
:100FE0000344AB60B4F860310021059394F8673195
:100FF0000C220693944B95481B6894F85E51B3F805
:10100000563094F868410793914E0EF09EFD0021F2
:10101000102290480EF099FD8F4B96F8009003F146
:101020001802B9F1010F94BF99469146DFF8088282
:101030004FF0000A51460C2287F83AA208F50F70CB
:1010400088F83BA20EF081FD2320C7F8489207F0F4
:10105000E4FE752001210DF12B0203F0AFFAB0B1CF
:101060007E4B5046C8F840327D4B0121C8F84432CF
:101070000FAA432388F83C3203F0A0FA9DF83C30D5
:1010800003F07E038DF83C30002848D150E098F8FA
:101090004C3273BB039B039A9B69DFF8EC9143F0DE
:1010A0000803936110238DF84E304FF4805A0323C8
:1010B000484613A98DF84F30ADF84CA004F09DFCC4
:1010C000684AC9F810A0138823F040031B041B0CC6
:1010D0001380138823F038031B041B0C43F0080310
:1010E000138013889BB243F040031380012388F8D8
:1010F0004C327520012113AA03F02CF89DF84C30D6
:10110000702B5AD1052387F83A32432387F83C32B3
:10111000554BC7F84032554BC7F844324DE0682B69
:1011200006D1012388F83A321D2388F83C3244E086
:101130009DF82B3003F07E03682B8DF82B3037D1D0
:101140000223062087F83A320146D7F8403213AA24
:1011500098479DF8511001F001029DF84F1001F0E1
:1011600001014B0043EA82019DF84D2002F001038A
:101170000B430AD05BB2012B01D1002302E0022B0A
:101180000FD1012387F83B3217E02B4B0C20D3F80B
:101190004032012110AA98479DF8403013F00F0308
:1011A00003D1032007F098FE07E0042BE9D1E4E720
:1011B000702B04BF042387F83A32002387F84D329E
:1011C00097F83A321C49022B0BD1224A284810606A
:1011D000284850602848D060012281F84D2200F054
:1011E00002BE012B0DD11B4A244881F84D321060FC
:1011F000204804235060224890601F48D06000F0CF
:10120000F2BD043B012B0CD8124B1E4A1A60194A3E
:101210005A60194ADA60012381F84D32072300F041
:10122000E2BD012007F058FEA3E000BF002401400A
:10123000842200205C220020B8000020301C002006
:101240000A240020404B4C0030080020302A0020A7
:101250001A2C0020542B0020E42F0108BD45000863
:101260004948000800380040554100088141000805
:10127000654300082140000890C1793DA141000864
:10128000E93F0008A1420008000C0140012C41F098
:101290006F80B74D2B689B0702D5B64B1B689847EC
:1012A000B54B05981B689847B44B069C1E78B44B09
:1012B00003F11802012E94BF1E461646B14A0023C0
:1012C00013709046002C41F05C80AF4A4FF000094B
:1012D0001EABC2F8C06203F82C9D1E200A21012219
:1012E00003F08AF8002801F050809DF84C30482B1C
:1012F00041F01381A54BA64A1A60A64A5A600323FF
:1013000088F80030A44B0222DA702B6843F00803FF
:101310002B60A24B93F8542112B19B4981F84D22C6
:1013200093F855210AB19E490A7093F856310BB1D2
:1013300088F800302B689B4D13F0080F01F02780D0
:10134000BDF91C80642698FBF6F420460BF0DAFD0C
:10135000814606FB148000B20BF0D4FD92490BF0DD
:1013600025FE014648460BF019FD90490BF01EFE84
:101370002860854C102294F8A0300A2543F002031F
:1013800084F8A0308A4B5A6108221A61884E1920CD
:10139000F368013D83F01003F360F36883F0080302
:1013A000F36007F03AFD012007F04CFD192007F02B
:1013B00034FD002007F046FD15F0FF05E6D10823B7
:1013C000336110256A4B35611A68994612F0080F8F
:1013D00007D06E4B75611B689847764B01223561CB
:1013E0001A70D7F8C432744D187B0BF08BFD73491B
:1013F0000BF0DCFD08F060F9064628880BF082FD52
:1014000031460BF0D3FD0FF0D3FFA7F8C8022888B0
:101410000BF078FD01466A480BF07CFE69490BF041
:1014200079FE554BC7F8CC026449D8680BF0BEFD75
:1014300065490BF0BBFD594D644EB5F84E310022A5
:10144000A7F8D832624BC7F8D0021A809A70306879
:1014500087F8E022B5F8942105F5C371C7F8D412D6
:1014600000F17903C7F8DC121FFA82FEDFF88081F1
:101470005849D8F800C0DFF87CA10CF5967C21F81B
:101480001BE04AF82BC00BF1010BBBF1120FCDF89A
:101490001480EBD1DFF860C100F1C908DCF800C0AE
:1014A0001CF4805F08BFB5F89AE1A1F806E018784F
:1014B000D8B9987893F803E0704516D238B101385E
:1014C00000EB800000EB800000F5617E07E00EF18C
:1014D000010E0EEB8E0E0EEB8E0E0EF5617E587821
:1014E0001FFA8EFE043021F810E004334345DED1AC
:1014F0001CF0080F00F0048195F88E11062900F207
:10150000F880DFE801F004070E7B96B6B60045F2DE
:10151000F05301E042F6F823A4F82C3309F03CFC28
:10152000E6E042F6F8231201A4F82C330A2392FBDA
:10153000F3F20023A2F5B062274941F823200133DA
:10154000122BF9D1254A264940201160254A1370F3
:1015500007F01AFC002800F0CC8001234FF0070AA6
:1015600090F9000040218DE808041F4A1F4BBAE0A3
:1015700014080020302A0020542B00201A2C0020B0
:1015800014300108192C0020B80000209404002019
:101590002D61000895600008410000208422002091
:1015A000182C0020200500208988883C000020415C
:1015B000000C0140D80400201800002035FA8E3CB1
:1015C0000AE81C4100401C46BD3786353008002023
:1015D000C01F0020602200202C1E00202C000020B4
:1015E000CF9C0008082A00204DA10008A086010019
:1015F000EC1F00209C0300205C22002042F6F82310
:10160000814AA4F82C33814B40201A60804B102271
:101610001A7007F0B9FB00286BD001234FF00008C7
:1016200090F9000040218DE808017A4A4FF4E13337
:1016300059E042F6F823784AA4F82C33734B402043
:101640001A60734B08221A7007F09EFB002850D0D6
:1016500001234FF0000C90F9000040218DE80810A4
:101660006E4A4FF4E13307F09CFC6D4BC3F8300336
:101670003BE042F6F823A4F82C33654B0C22DFF84C
:10168000D8E168481A7006294FF000038EF8003040
:1016900003700CD064494FF4E1380B70634B1B218D
:1016A0001970634B1A70634B05221A700AE05E488A
:1016B000DFF8A88103705D4B212018705C4B1A7015
:1016C0005C4B19705C4A514B40201A6007F05CFB80
:1016D00078B101234FF0000E90F900008DE808402A
:1016E0004346564A402107F05CFC003018BF0120F9
:1016F00030B9AB68524A23F00803AB60434B1A6021
:10170000504A1368069213F4804F414A1FBF1221BA
:1017100011704D483D4918BF086042F2010119405F
:1017200099B144F620619804A4F82C1341BF082114
:1017300011704648354948BF0860D90741BF0C21A0
:1017400011704348314948BF086011781B06A1F168
:101750000401517040F19080DFF8C4B04FF00008F0
:10176000DFF8FCA0414615220BF55670C4F834A3EF
:1017700084F83983C4F83C83C4F840830EF0E5F95B
:10178000AAF105034046C4F870330AF0B7F8059B88
:1017900002201B68C4F8443307F0F6FA70B39BF8D4
:1017A000393390F805E02B490C2202FB031292F822
:1017B000B120724504D00133DBB2042BF3D90023EE
:1017C00084F8393395F8EB3194F83923002B4FF036
:1017D0000C0303FB021314BF4FF0030E4FF0010E76
:1017E000002290F9000093F8B130CDF800E00192AA
:1017F000022107F0D6FBC4F8740398BBAB6823F052
:101800008003AB6031E000BFCB9C00082C000020BF
:10181000082A0020A1A00008C79C000855A00008C5
:10182000B8000020251F0020241F0020261F0020B4
:10183000291E0020271F00200D9C0008359F00084E
:10184000219D00085C220020FD9C0008119D0008DD
:10185000019D0008CC2F01082A1E002090D0030013
:101860007424002001200AF049F8306800F5C5739F
:10187000C4F878330AF092F8049B039AC7F87C33D3
:10188000039B4FF028089B69A94843F0010393612B
:10189000049B0FA91B888DF83E80ADF83C300323D4
:1018A0008DF83F30039304F0A8F8049BA0485A88B1
:1018B0000FA9ADF83C208DF83E8004F09EF8049B03
:1018C0000120197A04F084F8049B9A495A684FF071
:1018D00000084A614FF0100B4FF0010A13A8139251
:1018E0008DF850808DF851B08DF852A008F07EFD33
:1018F000049B10A85A7A039B8DF840208DF8413044
:101900008DF842808DF843A008F0E8FE059B4FF06B
:10191000FF321B68884E3C3BC7F88033D9F8003053
:1019200043EA0B03C9F80030844B1A60069B1B681E
:10193000580540F17981D6F88473814B04201F60EB
:1019400007F022FA0421C6F88803049007F012FA7F
:101950007C4A86F88C0303900820176007F014FA7D
:10196000794B0821186007F005FADFF8FC9186F83A
:101970008D03414648462C220EF0E7F84FF07C03D9
:1019800089F800304FF07D038E2289F80120E02293
:1019900089F8032089F82B30DFF8D091414648467A
:1019A0002C220EF0D2F84FF07C0389F800304FF073
:1019B0007D038A2289F801205846A02289F8032055
:1019C00089F82B30C6F8907307F0DEF95946C6F84F
:1019D000940307F0CFF986F898032020C6F89C738B
:1019E00007F0D2F92021C6F8A00307F0C3F986F862
:1019F000A403384606F09AFA384603F0CFFDDDF826
:101A00000CC0524F604606F057FB3A78834682423C
:101A1000DFF8349122D0049BC0B1FBB193F90000F0
:101A200002230093464B04211B6842465B78B3EBCC
:101A3000080318BF012301934FF4165307F0B1FABE
:101A4000C6F8A80350B187F800A007E0D6F8A803AD
:101A500007F062F9C6F8A8B387F800B094F88D03D0
:101A600006F02AFB3A4F06463B7883421BD088B1EA
:101A7000D9F80030BBB10022012693F900000821FB
:101A80004FF496430096019207F08BFA314B1860A1
:101A900040B908E0DFF8BC80D8F8000007F03CF956
:101AA000C8F800603E7094F8980306F005FB2A4BD6
:101AB000214E1A7882468242984679D0002857D023
:101AC000D6F89423002A73D0D37992F90000002B22
:101AD0004FF00202214F08BF03230092002257F863
:101AE00023300192102107F05CFA1D4B0746186065
:101AF00000285DD094F84A30022B0BD096F896203F
:101B0000022A01D14C3605E023B1002A06F14C0629
:101B100018BF0026134B1E6046B1304600214C22F0
:101B20000EF013F80223376086F84A3001233DE0B7
:101B3000000C014000040140B80000204C080020C7
:101B40004C05002088050020D0050020400500201D
:101B500051050020C0050020D6050020D43D010815
:101B6000D8050020DC050020580500208C05002049
:101B7000A74F3368D7F800904B4507D1484607F088
:101B8000CBF8304651464C220DF0DFFFE36C4B455D
:101B900007D1484607F0C0F89E4800214C220DF0BE
:101BA000D4FF386807F0B8F800233B6088F80030AD
:101BB00094F8A40306F080FA974FDFF8CC823B78C4
:101BC000064683422CD000B3D8F8A03343B3D8F8EC
:101BD0009C2393F9000052780323002A0CBF0822AB
:101BE0000922009301924FF461432021002207F063
:101BF000D8F98A4B186098B1894A012313703B7059
:101C0000884B1A68884B1A600AE0DFF81082D8F80F
:101C1000000007F081F8824BC8F800601E703E702B
:101C200006F064FA03F084FC804B814E1B78022B93
:101C300066D1804A00271388322023F040031B041A
:101C40001B0C138013884FF4805823F038031B04B7
:101C50001B0C138013889BB243F0400313809F2317
:101C60008DF840308DF841708DF842708DF84370DA
:101C700007F0D3F88DF84D706F4F0422C7F8148029
:101C800013A810A908F048FDC7F810809DF84E3041
:101C90009DF84D201B0243EA02429DF84F3013434A
:101CA000664A934219D00AD8A2F51A42033A9342DF
:101CB0000CD002F51A420232934209D01BE0604A6E
:101CC000934205D00132934207D014E0202300E074
:101CD000802333804FF4807302E04FF480733380AD
:101CE0007380B38832881B02B3605343F3600123CF
:101CF00084F8AC3304E0002333807380B360F36076
:101D0000F76827B3FF0AB8464FF00009B9450BDA68
:101D100009EB070676100DF14C0AF002514610222D
:101D200004F0B8F80F2806DC09F088FE454A4FEAAF
:101D3000C82313600BE000235AF82320013240F03F
:101D400032830133042BF7D13746B046DEE73E4EEF
:101D5000336813F4002318BF012384F8AD3307F070
:101D600035F83A4B4FF47A7218606B79052B04BF43
:101D70004FF4C873A4F8AE33354B1A80354BC822E4
:101D80001A80354A137843F008031370334A1378E6
:101D900023F00203137040F60203326813406BB164
:101DA0002F49304B1960304B032119702F4B012103
:101DB00019702F4900230B802E490B80930304D503
:101DC0002D4B02221A7106F0C1F9AB683360012372
:101DD00084F8303294F8A03063F07F0384F8A030A8
:101DE0001FB0BDE8F08F254A2549904613700B6857
:101DF00043F001030B60234B00221A70082D00F200
:101E0000C480DFE805F049C249677D9C67B3B30031
:101E1000D805002004010020E4050020E80500208A
:101E2000EC050020EC1F0020F00500201A2C0020FB
:101E30000800002000380040000C014018BA2000C3
:101E40001740EF00F80800205C2200208C040020DE
:101E5000142C0020162C002054080020212C0020D7
:101E6000FC230020CC290020B31F002040000020CC
:101E7000B41F0020B61F0020301C002041000020AD
:101E800014080020182C0020B8000020012D40F27A
:101E90008780754B00251D703378012B1AD84FF0C1
:101EA00000091EAB03F82C9D53204946012202F085
:101EB000A3FA78B19DF84C30E52B0BD16B4B6C4AF3
:101EC00087F84E921A606B4A5A60674B04221A7068
:101ED00002235EE097F83A32022B11D1634B664A37
:101EE0001A60664A5A60664A92F83B22002A0CBF82
:101EF0006F226E221A725C4B01221A70032348E093
:101F00003378012B1BD800221EAB03F82C2D1C208C
:101F10000D21012202F070FA88B19DF84C302A2B75
:101F200001D01A2B0BD1514A564987F84F32116014
:101F300055494D4B516002221A70042329E00021BB
:101F40001EAB03F82C1D1820012202F055FA68B1CF
:101F50009DF84C30FB2B09D1444B4C4A1A604C4A3B
:101F60005A60414B01221A70052312E097F83A3269
:101F7000043B012B8AD83D4B464A1A603F4A5A60BF
:101F8000394B01221A70082303E0012D08D90025DE
:101F900031E7414A88F80130136843F002031360C7
:101FA0003378012B05D108F013FC3C4B4FF4005261
:101FB0005A61042C3FF66AA901A353F824F000BF2C
:101FC000D51F000893120008CB200008D51F000879
:101FD000D32200080A2006F020FF7720A02101224A
:101FE00010AB02F009FA00286FD01E2101227720E1
:101FF00002F0A6FB4FF42F6006F004FF0025A5F1C8
:1020000060010024C9B2022213AB77208DF84C4046
:102010008DF84D4002F0F0F99DF84D309DF84C20C0
:1020200043EA0222164B03F514716A520235102D51
:10203000E5D1B3F85E12012501F00F0001F47F41F4
:10204000A3F85E12234623F001023A44B2F850226C
:10205000002A18BF0025DE0703D5D2B2544008225B
:102060001EE084EA1224FAE7182C0020302A00200F
:102070000949000871460008CD430008694000087E
:10208000B800002053480008D1450008E548000882
:102090002B4600085143000814080020001001409E
:1020A000260448BF84F4C054013A4FEA4404F7D1EF
:1020B0000133102BC7D10143BD4AA7F85E1225B9E1
:1020C000C4F30333984200F03D8197F86052B84C56
:1020D000002D40F02082B74E08F07AFB4FF028091F
:1020E0004FF48048304610A9ADF840808DF84290FA
:1020F00003F083FC4FF4005333614846AE4906F0C9
:1021000035FF0E21022003F063FC0823CDF84C803C
:1021100013A84FF001088DF851308DF850508DF80C
:10212000528008F063F98DF83C900FA84FF0030936
:102130008DF83D908DF83E508DF83F8008F0CEFA36
:10214000142006F06AFED0217720424610AB02F040
:1021500053F93146002800F0A0809DF84030A4F8E3
:102160008492552B84F87B3240F09780D1214246EF
:1021700010AB772002F040F99DF84030772003F053
:102180000F021B0984F87C2284F87D32162213ABDF
:10219000AA2102F031F99DF84C209DF84D3043EA18
:1021A0000223A4F864329DF84E209DF84F3043EA94
:1021B0000223A4F866329DF850209DF8513043EA7E
:1021C0000223A4F868329DF852209DF8533043EA68
:1021D0000223A4F86A329DF854209DF8553043EA52
:1021E0000223A4F86C329DF856209DF8573043EA3C
:1021F0000223A4F86E329DF858209DF8593043EA26
:102200000223A4F870329DF85A209DF85B3043EA0F
:102210000223A4F872329DF85C209DF85D3043EAF9
:102220000223A4F874329DF85E209DF85F3043EAE3
:102230000223A4F876329DF860209DF8613043EACD
:102240000223A4F8783241F27073A4F8883246F67B
:102250007813A4F88A32594BC4F88C32584BC4F81E
:102260009032584BC4F89432574BC4F89832574BBD
:10227000C4F89C3294F8603243B902F0DBFA42F6BB
:10228000E06006F0BFFDB568C5F38035504B012214
:102290001D70474B83F860223DE14E4A136823F4DA
:1022A0008043136000234C4A434D02EBC304606833
:1022B000A84208D112F93300282804D10020606018
:1022C00002F8330002E00133032BECD14FF400534A
:1022D0004B61374D95F8A042002C5CD1142006F0DC
:1022E0009CFD05F2A1237620D021012202F084F882
:1022F00095F8A132582B7EF4CCAF05F529738821CF
:102300001822762002F078F87620F421312202F0AB
:1023100017FA012385F8A032304BA5F88842C5F89A
:1023200090322F4BC5F88C3245F6D813A5F88A3277
:102330002C4BC5F894322C4BC5F898322B4BC5F872
:102340009C3228E042F21073A2F88832A2F88A3256
:10235000274B0324C2F88C32264BC2F89032264B0E
:10236000C2F89432254BC2F89832254BC2F89C3201
:10237000244B254A9C70136843F004031360FEF756
:1023800088BF022C09D1FEF7A0BF8146C5E000231B
:102390002B60FEF7EEBF0424EAE7012C7EF6B9AF0E
:1023A0001C46FEF78BBF06F101094646CDE400BF8F
:1023B000B8000020001001400D4100083548000819
:1023C00089450008114800083D4500080D3F0008F8
:1023D0000000002000040140F41A00204D3D0008D8
:1023E0004F3D0008F9470008A94400088D3B00084C
:1023F000094800082D450008014800081D4500084F
:10240000513D00084100002014080020474B0022E5
:102410001A7000B20AF076FD45490AF0C7FD454C36
:102420000646B4F95A010AF06DFD41490AF0BEFDB5
:102430000546B4F95C010AF065FD3D490AF0B6FDB8
:102440000446304607F038F98046304607F0C0F8B9
:102450000646284607F030F90746284607F0B8F840
:102460000546204607F028F98246204607F0B0F8D6
:102470004146814650460AF099FD4146059048463E
:102480000AF094FD5146069030460AF08FFD494609
:10249000079030460AF08AFD3946089050460AF007
:1024A00085FD254C4946206007F100400AF07EFD7D
:1024B00029466060A56007980AF078FD01460698F5
:1024C0000AF06CFC2946E06008980AF06FFD0146AE
:1024D00005980AF061FC3946206106F100400AF0D7
:1024E00065FD2946606105980AF060FD014608987F
:1024F0000AF052FC2946A06106980AF057FD0146F1
:1025000007980AF04BFC4146E06138460AF04EFD60
:102510002062FEF73CBD02242AE7012C7EF6F9AECC
:10252000002488F80090FEF7D0BE00BF0100002014
:1025300035FA8E3C84220020A40400202DE9F04FBF
:10254000A24C87B02368C3B9A14D2B78013B042B63
:1025500000F22E85DFE813F01004100410041305B8
:10256000F4049A4B186806F0EAFD9A4B05461B687E
:102570001B7843B1012B00F07881206806F0E2FD62
:102580000028EED1E0E72428934E0CD006D80A2884
:1025900000F0E5800D2800F0E28051E12A2806D005
:1025A0002C2804D04CE133707370B37059E18B4B1D
:1025B000717896F800800020874A5854B8F1000FCF
:1025C00026D1197882F80380472921D159785029DA
:1025D0001ED19978472907D1D978472904D119798B
:1025E000412901D10121D17099787C4A522903D126
:1025F000D1784D2900F0D4849978784A472907D1B9
:10260000D178532904D11279562A04BF0322F270DB
:10261000F278714F022A3AD0032A4FD0012A40F0B3
:102620008C80A8F10202072A00F28780DFE802F01E
:1026300004080F131A25852A08F0F4F870607CE06E
:102640001B78532B79D173685B42736075E008F097
:10265000E9F8B06071E01B78572B6ED1B3685B422C
:10266000B3606AE01B78302B5D4B1A788CBF42F068
:10267000020222F002021A705FE0002008F032F934
:1026800030735AE0002008F02DF9F08155E0B8F1E0
:10269000070F07D0B8F1080F4FD1012008F022F939
:1026A00078824AE0012008F01DF941F218435843AE
:1026B0004FF47A73B0FBF3F038823EE0B8F1020FCA
:1026C00008D0B8F1030F0AD1002008F00BF9454BF0
:1026D000187032E0002008F005F938752DE02CD98B
:1026E000A8F1040292103B7D0132D2B2013B02EB11
:1026F0008303DBB2102B20D8A8F10301C2F1010241
:1027000001EB8202D2B2012A0BD0042A11D100209F
:102710005F1E08F0E7F8344B0022D855334BDA55EA
:1027200007E0334A5F1E0020D35508F0DBF8314B39
:10273000D855314A136801331360274A2A2D18BF30
:10274000917808F101084FF000030CBF01214D40C2
:1027500086F8008073700CBF5175957081E0737DB1
:10276000002B6AD0254B13F8012D25495A708B4256
:10277000F9D11A4AB07813785278402B85BF373B8D
:102780001B011B01DBB298BF03F0F003402A8CBF92
:10279000373A303AD2B21344DBB298420E4A49D1AA
:1027A00021230B70174916480B6801330B60D3784F
:1027B000012B2DD0022B3FD17223118A0370124BB3
:1027C000528A1980114B1A8036E000BF2C04002079
:1027D000F003002028040020F8050020F01F00204E
:1027E0005408002074080020A50800209508002047
:1027F0007508002085080020E01A0020240400202D
:1028000010040020EC1A0020620800206408002058
:10281000672101709D4909788F070ED59C49506842
:10282000086090684860107B9A490870D1899A4A7C
:10283000118002E03F230B7000230022727510E02C
:1028400073780E2B9FBF954A591C5170944A934937
:1028500098BFD554737D1BB98A7855408D7000E0C0
:102860000023DD077FF589AE53E18C4B9A7D082A62
:102870003FF683AEDFE802F0050C1319242F4A60FF
:102880006A00B5287FF479AE0022DA75012202E0F1
:10289000622802D000229A756FE60222FBE703222B
:1028A0009A7518765876987667E604229A755A7E55
:1028B000997E0244D2B25A760A449A76D8765CE679
:1028C00005229A755A7E997E0244D2B25A760A44FB
:1028D0009A76988351E606229A755A7E997E02442A
:1028E000D2B25A760A449A769A8B02EB0025ADB2A0
:1028F000B5F5AC7F82BF694A0121D17500229D8365
:10290000DA83002D7FF439AE0722C4E75A7E997E20
:102910000244D2B25A760A449A76DA8BB2F5AC7F88
:102920003EBF5E49891881F820000132998B92B22E
:102930009142DA83E8D920E608229A755B7E8342C9
:102940003FF41BAE554B0122DA750EE000225549CB
:102950009A7511F8012D4A70534A9142F9D1987E27
:102960004E4AA84206D03F230B70504A53680133A9
:10297000536002E64E4D286801302860D07D10B1CA
:102980003E230B70F9E521200870D07E06284DD03B
:1029900004D8022814D0032830D0EEE5122864D0E1
:1029A00030287FF4EAAD4920087092F82410414A9B
:1029B000102988BF1021117010783F49002283E050
:1029C000502008703249506A4860906A0860116B64
:1029D0004FF47A7091FBF0F12F48018092F8781152
:1029E0002A4A19B1117841F0020102E0117821F070
:1029F00002011170012283F879217AE053200870D6
:102A000092F8251011F0010105D092F82420D01E73
:102A10004242424100E00A4683F87821002A68D108
:102A20001A490A7822F002020A7062E04F20087008
:102A300092F82B1011F0010105D092F82A20D11E36
:102A40004A424A4100E00A4683F8782122B90F49F8
:102A50000A7822F002020A7093F84F100D4A1170A2
:102A6000B3F84C10154A118043E056200870506BA3
:102A70001349088042F21070916B91FBF0F11148FC
:102A80000180012182F87A1133E000BF5408002050
:102A9000580800205508002060080020F805002094
:102AA000F01F00202404002010040020F003002068
:102AB000EC1A0020740800201806002038000020BE
:102AC000620800206408002082420ED20E7AB64DC1
:102AD00056554E7AB54D5655CE7AB54D565511F8D8
:102AE0000C6FB44D56550132EEE7B3490A68013216
:102AF0000A6093F87931B14A002B3FF43EAD92F869
:102B00007A31002B3FF439AD002382F8793182F815
:102B10007A31AB4BDFF8E082DA681A61A94A1268B1
:102B2000DA60A94A136843F020031360A74B1A78B0
:102B3000012A0CBF002201221A7098F800309A076F
:102B40007FF51BADA24A1278042A7FF616ADA14A82
:102B5000127802F0040202F0FF011AB923F0010317
:102B600088F8003098F80070944E17F0010F9A4DD5
:102B700024D119B3BB0721D5984B28686A6818601F
:102B80005A600AF0BFF9002181460AF0CBFB08B178
:102B9000484601E009F1004091490AF0BBFA914929
:102BA0000AF004FA06F088FD8F4B47F00107186021
:102BB0008E4B88F800701B88A6F87C3196F87E2131
:102BC000531C052293FBF2F202EB82029A1A96F84A
:102BD0007F3186F87E21029392000023DFF8F8917E
:102BE0009900DFF828A2039159F82310DFF820E2BA
:102BF00091FBFAFC0EF1080040F823C07C484EF827
:102C0000231000FB0C1142F2107091FBF0F00EF15A
:102C1000100680B226F813004FF014080EF11406C7
:102C200008FB03680EF13C0B58F802705BF8236058
:102C300048F80210F61B0E4405214BF8236096FB62
:102C4000F1F60AFB0C6602990EF1440E01294EF8CA
:102C50002360C84606D10238B0F5797F9CBF03993E
:102C600041F809600BB90123B8E7DFF85891534FD9
:102C7000D9F80000D7F8CC31C01A0AF03FF95D4905
:102C80000AF048FAD9F800304FF07E51C7F8CC313D
:102C900006460AF029FB08B94FF07E56564BC7F896
:102CA000D0611B78DFF86C9113F00103534E13D001
:102CB00004AA0092494B05AA01920CCB98E80300A4
:102CC00008F02AFE049A6421B2FBF1F2059BA9F8F0
:102CD000002093FBF1F301E0A9F80030338097F86E
:102CE000D431364E002B3BD0D6F8D0114FF07E5069
:102CF0000AF010FA8246D6F8D8312868C01A0AF0CD
:102D000001F951460AF052F90AF016FBD6F8DC3107
:102D10001FFA80F968680FFA89F9C01A0AF0F2F808
:102D2000314B19680AF042F951460AF03FF90AF0AE
:102D300003FBB6F9E22100B28118B6F9E0210220C6
:102D400009EB020391FBF0F193FBF0F389B29BB224
:102D5000A6F8E611A6F8E431A6F8E211A6F8E031EB
:102D6000012387F8D431D8F80430C7F8DC31D8F81B
:102D70000030C7F8D83100E4214E3268177817B117
:102D8000012F49D014E1012B00F212816A781D4B0A
:102D90000C2101FB02335A781B4B206853F8221098
:102DA00006F0CAF996E000BF7508002085080020EB
:102DB00095080020A5080020E01A0020F805002052
:102DC000F0030020EC1F0020140800206A080020F7
:102DD00055080020212C0020580800206C080020F5
:102DE0008096184B35FA8E3C040000207C090020A8
:102DF000806967FF00007A445408002068080020BA
:102E0000280400207C300108D43D010880969800F9
:102E100078070020660800202068DFF8C08106F0EF
:102E20000FF9002800F0C4802A78634B022A3FD0B3
:102E3000032A4CD0012A40F0BB80604A10689A698E
:102E4000821AC72A40F2B480596904292ED85C4AF4
:102E50000C24964604FB0121D8F800404E78A76860
:102E6000986100235749D8B251F82320BA4204D0C0
:102E70000133092BF6D1002300E00346B34205D00D
:102E8000204651F8261006F057F991E06B780C2196
:102E900001FB03E2566816F8011B19B1204606F043
:102EA00054F9F8E76B6901336B6181E0022074E04B
:102EB0005A78434B0C2101FB02335A78414BD8F826
:102EC000000053F8221006F037F9032065E032685D
:102ED00092780AB9042060E01A7F02B91F772B7F2D
:102EE000354F012B0FD17B69B22B08D8364A2068A9
:102EF000D15C06F02AF97B6901337B6103E0002392
:102F00007B6102233B772B7F2B4F022B14D17A69F5
:102F10000F2A0FD833682C495B78206803EB031322
:102F20000B44134493F8B41006F00FF97B69013396
:102F30007B6101E003233B772B7F022B38D9C9E764
:102F4000AB681D490133AB60204B1B68DB784BB18C
:102F50004B7805220133DBB2B3FBF2F202EB8202C3
:102F60009B1A4B70154B00221B680120EB60184B1D
:102F70001A70184A137823F0020313700DE00F4BF8
:102F8000EA681B689B1A40F6C412934210D9124A91
:102F90000520136823F02003136008F0AFFC07E05E
:102FA0001279432A7FF428AB0222F270FFF724BB88
:102FB00007B0BDE8F08F00BFF0030020EC1F002039
:102FC0007C300108D43D0108FA35010828040020AE
:102FD0005508002054080020140800202C0400206C
:102FE00070B54D28A0B0044600F0E48400F2C08023
:102FF000342800F0B98351D8222800F0938323D8D5
:10300000032800F0788114D8012800F06981022893
:1030100040F09785042008F0C7F8432008F0B6F880
:103020004C2008F0B3F8462008F0B0F84C2000F02F
:10303000E6BC042800F06981052840F082851A204A
:1030400008F0B2F8002473E1282800F0728415D843
:10305000242800F05984262840F07385D74C062098
:1030600008F0A2F8B4F8580108F0B8F8B4F85A011A
:1030700008F0B4F8B4F85C0100F05FBD2C2800F053
:103080006B84322800F0B5842A2840F05A8501204C
:1030900008F08AF8C94B587900F0B1BC402800F01C
:1030A000B18421D83A2800F039820BD8362800F0B4
:1030B000E584382840F04585042008F075F8BF4CB9
:1030C00000F028BC3B2800F00D833D2840F03985F6
:1030D000BA4C022008F068F894F8DE0108F056F8BF
:1030E00094F8DD0100F08BBC462800F0E0840BD89A
:1030F000422800F09584452840F02385132008F0ED
:1031000053F8002400F0F9BC492800F031824B2824
:1031100000F04184472840F0148508F02DF885B26E
:1031200008F02AF8044608F027F886B208F024F8D8
:1031300005EB042506EB0020ADB205EB004484202E
:1031400008F032F8204608F052F89D4BDD6804F193
:103150008003AB428CBF2D1B802508F06FFC2046FE
:103160002A46694602F096FE0024054600F0BDBCE2
:10317000702800F02D8266D8692800F0AA813BD81B
:10318000662800F0FC802CD8642800F0E9806528CF
:1031900040F0D7848B4C0B2008F006F8208808F00C
:1031A0001DF8608880B208F019F86368C3F3C000A6
:1031B000C3F38002800040EA4200C3F340021043A0
:1031C000C3F3401240EAC20003F01003184308F0B2
:1031D00005F8002008F00BF8784B93F8F40600F09F
:1031E0000EBC672800F00081682840F0AA841020F7
:1031F00007F0DAFF002464E16C2800F07D8116D826
:103200006A2800F01A836B2840F09B846D4C0520DF
:1032100007F0CAFFB4F8560007F0E0FFB4F8580012
:1032200007F0DCFF94F85A0000F00100E7E36E2895
:1032300000F07A8100F2A281062007F0B5FF00209D
:1032400007F0D5FF68E1782800F0DA8018D87428F4
:1032500000F0AF820AD8722800F0AF82732840F0E5
:103260007084082007F0A0FF0124DFE2762800F038
:10327000038300F29E822F2007F096FF524C29E232
:10328000A42800F01A8314D87C2800F04484A028D5
:1032900040F057840C2007F087FF4C4B186807F06C
:1032A000A6FF4B4B186807F0A2FF4A4B186800F0C6
:1032B0002FBCF12800F0DF80FE2800F02181F028EB
:1032C00040F03F843F4C042007F06EFF236AB3F8C0
:1032D0005A0007F083FF236AB3F8580000F02DBCB2
:1032E000032007F061FF002007F050FF204607F0A1
:1032F0004DFF0E2083E307F057FF022007F046FF43
:10330000022007F043FF012079E3062007F04CFF7D
:10331000412007F03BFF462007F038FF4E2007F022
:1033200035FF412007F032FF2B4B187800F005BC29
:103330002A4B185D013407F029FF0B2CF8D100242B
:10334000274B185D013407F021FF082CF8D1002429
:10335000244B185D013407F019FF072CF8D1EEE378
:10336000072007F021FFE72007F010FF134B5879E3
:1033700007F00CFF002007F009FF0420C8E312202B
:1033800007F012FF002007F029FF002007F026FFBA
:10339000002007F023FF00200A4C07F01FFF002049
:1033A00007F01CFF002007F019FF208907F016FF27
:1033B000608907F013FFA089BFE300BF84220020CB
:1033C000080000201008002003370108E8F7FF1F5D
:1033D000ECF7FF1FF0F7FF1F1A2C0020D54701085C
:1033E000E1470108EA470108102007F0DDFE00244C
:1033F000C04B185D013407F0C9FE102CF8D19EE3D4
:10340000702007F0D1FE00260E247443BA4D013619
:103410002B6A2344B3F8190107F0E0FE2B6A23441A
:10342000B3F81B0107F0DAFE2B6A2344B3F81D0141
:1034300007F0D4FE2B6A234493F81F0107F0A6FE81
:103440002B6A234493F8200107F0A0FE2B6A234443
:1034500093F8210107F09AFE2B6A234493F8220186
:1034600007F094FE2B6A1C44D4F8230107F0BFFE3A
:10347000082EC9D163E3702007F096FE9F4C04F13B
:10348000700594F8D00007F081FE94F8D10007F0A1
:103490007DFE94F8D20007F079FE94F8D30007F08F
:1034A00075FE94F8D40007F071FE94F8D50007F08B
:1034B0006DFE073494F8CF0007F068FEAC42E0D10F
:1034C0003DE38F4B185D013407F060FE102CF8D1FE
:1034D00035E38C4D00242878400000F0FE0007F012
:1034E00063FE2B789C4280F02A83874B33F81400CC
:1034F00007F074FE0134F4E7062007F055FE05E0FE
:10350000082007F051FE002007F068FE002007F0B9
:1035100065FE002007F062FE00200EE3042007F0A5
:1035200043FE754BD86BF3E2072007F03DFE774B67
:103530001888FF28A8BFFF20C0B207F027FE744BF1
:10354000186880F3100080B207F048FE002007F0F2
:1035500045FE6A4B93F883216E4B186822B10A230B
:10356000584380F3100001E000F30F0080B2E4E262
:10357000022007F019FE614B9889DEE25E4C0B20B9
:1035800007F012FE236C2546187807F0FFFD236C28
:103590000026587807F0FAFD2B6C574C3344187905
:1035A000013607F0F3FD032EF6D1236CD87907F02E
:1035B000EDFD236C987807F0E9FD236CD87807F0CF
:1035C000E5FD236C588907F009FE236C187A16E292
:1035D000494C1E2007F0E8FD236A00251B78022BCA
:1035E00065D1236A05F1080253F822004A4909F01F
:1035F000DDFC0DF0DDFE80F30800C0B207F0C6FD73
:10360000236A464903EB8503D86A09F0CFFC0DF025
:10361000CFFE80F30800C0B207F0B8FD236A05F1C1
:103620000E0253F822003E4909F0C0FC0DF0C0FE26
:1036300080F30800C0B2013507F0A8FD032DD0D1FA
:10364000072D236A21D1586C334909F0AFFC0DF0E6
:10365000AFFE80F30800C0B207F098FD236A2E4940
:10366000986C09F0A3FC0DF0A3FE80F30800C0B233
:1036700007F08CFD236A93F84C0009F03FFC0DF035
:1036800097FE80F30800C0B20BE02B44587807F097
:103690007DFD236A2B44D87A07F078FD236A2B44FA
:1036A000587D013507F072FD0A2DC9D147E2236A22
:1036B0002B44587807F06AFD236A2B44D87A07F028
:1036C00065FD236A2B44587D013507F05FFD0A2D07
:1036D000EDD134E214F8010F002800F0308207F039
:1036E00055FDF7E7012007F05FFD034B1B6A1878D3
:1036F00085E100BF1E080020100800208422002061
:1037000034080020082A002060220020181F002012
:10371000002A0020F0290020000020410000C842BB
:1037200000007A44502007F03FFD0025CD4B0C21CE
:103730001C6ACD4B04EB850494F87920013501FB1C
:10374000023393F8380007F021FD94F87A0007F06F
:103750001DFD94F87B0007F019FD94F87C0007F03C
:1037600015FD142DE2D1EAE1482007F01DFD0025EA
:10377000BC4B1C6A062303FB054494F8CE0007F0FB
:1037800005FD94F8C90007F001FD94F8CA0007F0A0
:10379000FDFC94F8CB0007F0F9FC94F8CC0007F09E
:1037A000F5FC013594F8CD0007F0F0FC0C2DDFD1CD
:1037B000C5E1002007F0F8FCC1E1AC4C162007F091
:1037C000F3FCB4F8940107F009FDB4F8400107F0E8
:1037D00005FDB4F8420107F001FDB4F8440107F01B
:1037E000FDFCB4F8D60107F0F9FC94F8EB0107F002
:1037F000CDFC002007F0CAFC94F8EC0107F0C6FCF1
:1038000094F8830107F0C2FC94F8900107F0BEFC25
:10381000002007F0BBFC934B0A201B6AB3F956301B
:1038200093FBF0F080B207F0D9FC73E0E0B2013412
:1038300007F0ACFC092CF9D181E18A4C102007F08B
:10384000B3FC94F8440000F0020007F09FFC94F8E9
:10385000450007F09BFCA06C07F0C9FCE06C07F08A
:10386000C6FCB4F8500007F0B9FCB4F8520007F0F9
:10387000B5FCB4F8540060E107F07EFC0646122067
:1038800007F092FC1EB9774BDD6D1C6E01E0002441
:103890002546304607F07AFC284607F0A8FC20466B
:1038A00007F0A5FC002007F0A2FC002007F096FC22
:1038B000002007F093FC0020A1E06A4D002495F859
:1038C00064002E4680000130C0B207F06DFC95F810
:1038D000640007F05BFC96F864309C4280F02F8116
:1038E000634D285D07F052FC05F11003185D07F0E9
:1038F0004DFC05F12003185D303507F047FC285DCD
:1039000007F044FC0134E6E7042007F04DFC574B78
:103910009868FDE094F8780107F038FC94F87C0191
:1039200007F034FC94F87B0107F030FC94F87D013B
:1039300065E04E4C072007F037FCB4F87E0107F035
:103940004DFCB4F8800107F049FC94F8820107F0BF
:103950001DFCB4F88401F0E0444C0C2007F024FC7A
:1039600094F88E0107F012FCB4F8980107F036FCC9
:10397000B4F8940107F032FCB4F8960107F02EFC7D
:1039800094F88F0107F002FCB4F89A0107F026FCC6
:10399000B4F89C01D1E0354C042007F005FC94F804
:1039A000D40107F0F3FB94F8D50107F0EFFBB4F86E
:1039B000D601C2E02F4C304D2078002600EB4000AD
:1039C000C0B207F0F1FB237802359E4280F0B78049
:1039D00015F8020C07F0DAFB15F8010C013600EBC4
:1039E000800000EB800000F2EE2080B207F0F6FBD2
:1039F000E9E7012007F0D8FB1C4B93F8900107F092
:103A0000C5FB9CE0082007F0CFFB0024174B2344A4
:103A100093F88601013407F0B9FB082CF6D18EE04B
:103A2000124C102007F0C0FB607907F0AFFBA068D4
:103A300007F0DDFB94F88E0107F0A8FBB4F85801FD
:103A400007F0CCFBB4F85A0107F0C8FBB4F85C01EE
:103A500007F0C4FBB4F87E0107F0C0FBB4F88001A6
:103A60006BE000BF1008002004370108842200200A
:103A700075080020082A0020222400203E4B3F4CDD
:103A800093F8A50004F12805C0EBC000C0B207F010
:103A90008BFB94F8F2010023394AD25C904252D059
:103AA0000C333C2BF8D10834AC42F2D147E00D2066
:103AB000344C07F079FB02F013FA07F067FB20881B
:103AC00007F095FBE06807F092FB2B4A92F8E500BF
:103AD00092F8E43098422ABFC31AC3F18003002051
:103AE0000344D2F8E800184412E0AC4227DA1DF88B
:103AF000040007F04BFB0134F7E7234B185D01345A
:103B000007F044FB0B2CF8D1002007F070FB0020DD
:103B100007F06DFB13E0194C082007F045FBB4F8E3
:103B2000480107F05BFBB4F84A0107F057FBB4F813
:103B30004C0107F053FBB4F84E0107F04FFB012096
:103B400018E0002016E007F021FBB4F8F40107F0BC
:103B500045FB94F8F60107F019FB94F8F70107F01C
:103B600015FB94F8F90107F011FB94F8F80107F040
:103B70000DFB98E720B070BD1008002084220020C3
:103B8000B808002008000020D54701082DE9F04FB3
:103B900087B06C4C02916C4922880E680546C2EBD6
:103BA00026135B435200C2EBE602B4F902601B131A
:103BB0005643B4F90420B4F90A0053439B1303EBB2
:103BC000E62606EB860380331B12B6F5FA384FEA79
:103BD000E67704934B6847F1FF39A8FB08AB0393E2
:103BE00008FB09F3B4F908200BEB430BE389A6614A
:103BF0000593D31708FB03F102FB0911A8FB02236D
:103C00000B44C1171F030AFB01F300FB0B33AAFB94
:103C100000011603194447EA1257020A42EA0162F8
:103C200092194FEA2123E6887B410032A2FB06016C
:103C300043F5004306FB03114B100093CB17019390
:103C4000DDE900231343B4F810E0B4F80CC06DD0E4
:103C50000FFA8EF0C1170AFB01F1AAFB002300FB4B
:103C60000B11BDF914600B44F71708FB07F106FBB5
:103C70000911A8FB06670F4479047004801841EA13
:103C8000D6315941039B0FFA8CF8C3F5801E72465A
:103C9000D317002212184FEACE764FEAC3774FEAC5
:103CA000C8034B4147EA5E07B61A67EB030740F6C5
:103CB0003543A6FB030103FB0711DDE9002309F0EF
:103CC00081FBB4F916204E1302FB06FE470B47EAB0
:103CD000C147D31707FB03EEA2FB072356437344E8
:103CE00007FB0366A2FB07233344560E46EAC316BE
:103CF0008219B4F914604FEA636741EB070371431B
:103D0000F71700FB0717A6FB00013944C60C46EA6B
:103D1000413692194FEAE1474FEA1221B4F91220D5
:103D20007B4141EA036113010B4400E000230DB124
:103D30001B0A2B60029B13B11A46049B136007B049
:103D4000BDE8F08F5C0300209009002070477047A9
:103D50006B4B6C4A2DE9F04F5E8994684FEA062A56
:103D6000B4EB0A0A9C884FF000054FEA04481C890E
:103D70004FF0000BA4FB0A6765EB0B0B04FB0B7702
:103D8000F40944EA476418EB04065C884FF0000924
:103D90004FEAE7154FEAC438DC8849EB050787B0DE
:103DA000CDE90467A4FB0A6704FB0B77340A44EAF5
:103DB000076418EB04064FEA27259C894FF0000999
:103DC00049EB0507CDE90067AAFB046704FB0B7705
:103DD000F40D44EA472414F5FA664FEAE75545F135
:103DE0000007B6F5FA6F77F10003CDE90267964652
:103DF00066DADDE90489A4FB046704FB05F34FF0F0
:103E0000050C07EB4307A6FB0C230CFB07335F10E5
:103E10004FEA3206B8EB06084FEA920646EA837686
:103E200069EB07099F10DDE90023921B63EB070391
:103E3000CDE90023DDE90267334A4FF0FF339642B4
:103E400077EB0303CDE9048927DA40F6AC5200236F
:103E5000A4185D4104FB05F3A4FB04456FF00602C2
:103E600005EB4305664202FB0566A4FB02233344CF
:103E700018EB020649EB0307CDE904670B26A4FB08
:103E8000062306FB0533DDE900455B104FEA3202ED
:103E9000A41A65EB0305CDE90045DDE902450AFBFF
:103EA0000BF3AAFB0AAB0BEB430B4FEADA7242EAC5
:103EB0004B02A41A4FEAEB7365EB0305CDE902450B
:103EC000DEF80C40009B019DA4FB032304FB05339B
:103ED0004FEA525848EAC3284FEA6359DDE9042300
:103EE000B8EB020269EB03039946D30B43EA49435B
:103EF00000B1036009B1029B0B6007B0BDE8F08F11
:103F0000080300209009002024FAFFFF2DE9F0416A
:103F1000324C334D62892B8AB4F904809A1A238972
:103F2000B4F902E05A43B4F91230D613B4F91420AC
:103F3000DB02324493FBF2F232440A26E26156433A
:103F4000A2F57A6202FB02F3B4F90EC002FB0EFE88
:103F500002FB08F2B4F90C801B130CFB03FC03FBFF
:103F600008F31B1403EB62320232E388921002F56D
:103F7000004253434CF25032B4F920704FEAEE2E17
:103F8000B4F900400EEBEC2C0CEB8404BC406D69E2
:103F90000234A5EBA4043A4162434FEAD3384EBF42
:103FA000B2FBF8F35400B4FBF8F340F6DE3448BF3C
:103FB0005B001A12524362430A4C08365C432414D5
:103FC00004EB224202F6CF62361103EB221300B15A
:103FD000036001B10E60BDE8F08100BF1C0300204A
:103FE0009009002043E3FFFF13B50C4B04465B68C8
:103FF0001B20022101AA984770B19DF804209DF86A
:10400000053043EA022303F54E5310334FF48C720C
:1040100093FBF2F32333238002B010BDF40200209F
:1040200037B5104B04465D68187806216A46A847E4
:10403000A8B19DF800209DF80130012043EA022339
:1040400023809DF802209DF8033043EA0223638019
:104050009DF804209DF8053043EA0223A38003B0B5
:1040600030BD00BFF402002013B5104B04465B685E
:104070003B2006216A469847A8B19DF800209DF88C
:104080000130012043EA022323809DF802209DF89D
:10409000033043EA022363809DF804209DF8053035
:1040A00043EA0223A38002B010BD00BFF402002047
:1040B000B0F5807F0ED0BB280ED861280ED82928F5
:1040C0000ED813280ED809280ED8002814BF0620B1
:1040D0000020704700207047012070470220704781
:1040E000032070470420704705207047054A08B533
:1040F000138801339BB21380034B187802F02AF91E
:10410000002008BD120800203814002008B54FF424
:10411000804006F09BF9012801BF044B4FF4804218
:104120005A61034B08BF187608BD00BF0004014068
:104130009009002010B5054C2368186906F086F92F
:1041400018B123681A69024B5A6110BD00030020A0
:1041500000040140F8B50E461746084C4FF4805550
:10416000656140F0800006F00DFB384600213246C4
:1041700006F0D2FA25610120F8BD00BF000C014015
:1041800070B50E46054C4FF48055656106F0FAFA9D
:10419000304606F0F7FA2561012070BD000C0140A1
:1041A00070B5FFF785FF104C0546192004F035FE69
:1041B000A36815200021984710B9022004F08CFE56
:1041C00045F01801A368C9B216209847A3680021DA
:1041D00017209847A36801213D209847A3683E20F7
:1041E0000121BDE870401847F4020020F0B5274DCA
:1041F00085B06B7E002B46D1254C2368002B42D026
:104200001A68244E12B1B1690A43B2619A8898685B
:10421000ADF8002002228DF80320694604228DF8B3
:10422000022001F0EAFBB369002743F00103B36108
:1042300023680126187B197D01F0CAFB2368164903
:1042400093F9150004F092FE2368144A1B69536128
:10425000029308230DEB03008DF80D308DF80C70E0
:104260008DF80E6006F0C2F8236801A85B7D8DF81A
:1042700006708DF8043003238DF805308DF8076043
:1042800006F02CFA6E7605B0F0BD00BF9009002054
:1042900000030020001002403541000800040140E6
:1042A00037B50446FFF7A2FF254B1A68254B9A4203
:1042B0000ED14FF40053ADF8043002238DF80730CF
:1042C000042321480DEB03018DF8063001F095FB26
:1042D0002046FFF7EDFE05461C4C8021A3686B20AD
:1042E0009847642004F099FDA36807216820984747
:1042F000642004F092FDA36800216B20984764209D
:1043000004F08BFDA36801216B209847A368182156
:104310001B209847A36810211C209847A3682946B2
:104320001A209847A368002119209847A3681221F2
:1043300037209847A36801213820984703B030BD43
:1043400030000020001BB70000100140F4020020E4
:1043500008B5FFF74BFF024B4FF480521A8008BD9F
:104360001800002070B50446FFF740FF2046FFF715
:104370009FFE0546144C8021A3686B20984764205B
:1043800004F04BFDA368002119209847A36803217E
:104390006B2098470F2004F040FDA36829461A209F
:1043A0009847A36818211B209847A36810211C2058
:1043B0009847A368022137209847A3683820012135
:1043C000BDE87040184700BFF402002008B5FFF7B1
:1043D0000DFF074B5B7813B1012B03D008BD4FF4E1
:1043E000006201E04FF48052024B1A8008BD00BF0A
:1043F000F20200201800002010B54000204CC0B28E
:1044000020702048204C01702048002101700120BC
:1044100020701F4C23601F4C23601F4B1A701F4AD3
:104420001F4B107019701F49086811461A4630B3A7
:1044300083889C0515D40388DB050DD447F23053DF
:104440000488A40502D5013BFAD112E08BB10388A0
:104450009BB243F48073038083889BB243F4407320
:10446000838047F23053087810B1013BFBD100E064
:1044700013B9BDE8104039E6107880F0010010BD96
:104480003E1400203C1400203A1400204414002064
:1044900040140020481400203D1400204C1400203B
:1044A0004D1400203414002007B5F7216B46062276
:1044B0007620FFF7A1FF9DF800309DF801101B0347
:1044C00043EA01139DF80210094A43EA11135360AD
:1044D0009DF803309DF804101B0343EA01139DF877
:1044E000051043EA1113136003B05DF804FB00BF2D
:1044F0009009002007B5002101AB03227720FFF7C8
:104500007BFF9DF805309DF804001B0243EA004341
:104510009DF80600184303B05DF804FB08B5FFF7EB
:10452000E9FF014BD86008BD9009002008B5FFF7EE
:10453000E1FF014B986008BD900900200F4B13B5B7
:104540001B780F4C0BB1237EB3B1032201AB772054
:10455000F621FFF751FF9DF805309DF804201B025E
:1045600043EA02439DF806201343064AB2F920208D
:10457000C2F10802D340636102B010BD0000002008
:10458000900900201C0300200A4B13B51B780A4C2D
:104590000BB1237E63B1022201AB7720F621FFF736
:1045A0002BFF9DF804209DF8053043EA0223238267
:1045B00002B010BD000000209009002030B5054673
:1045C0000C46134629462246BDE83040682013E7D2
:1045D00013B50622044601211C206B46FFF70CFF91
:1045E00008B39DF801309DF80020042143EA02221F
:1045F00042F38D0292FBF1F29DF8023022809DF889
:10460000032042EA032242F38D0292FBF1F29DF86D
:10461000043062809DF8052042EA032343F38D03B2
:1046200093FBF1F3A38002B010BD13B5062204463C
:10463000022118206B46FFF7DFFEB8B19DF800306D
:104640009DF801209B0803EB022323809DF8023094
:104650009DF803209B0803EB022363809DF8043040
:104660009DF805209B0803EB0223A38002B010BD38
:10467000314B2DE9F3411B780546002B3BD000243C
:1046800026462746A04601345320322108226B4695
:10469000E4B2FFF7B1FE08B9002049E09DF801201F
:1046A0009DF80030202C03EB02231BB29DF8032061
:1046B00098449DF8023003EB02231BB21F449DF87F
:1046C00005209DF8043003EB02231BB21E449DF825
:1046D000073003F07F0301D0002BD4D198FBF4F80E
:1046E00097FBF4F796FBF4F6144BA5F800806F8067
:1046F000AE809C761CE05320322106226B46FFF7E9
:104700007BFE0028C8D09DF801209DF8003003EB07
:1047100002232B809DF803209DF8023003EB022337
:104720006B809DF805209DF8043003EB0223AB80DD
:1047300002B0BDE8F08100BF060300209009002010
:1047400013B502AB03F8012D4000214AC0B210702E
:10475000204A00201170204901220A701F49087068
:104760001F490B601F490B601F4B20491A700A70CC
:104770001F4B204A187010681A4630B383889C0576
:1047800015D40388DB050DD447F230530488A40503
:1047900002D5013BFAD112E08BB103889BB243F4FE
:1047A0008073038083889BB243F44073838047F215
:1047B0003053087810B1013BFBD100E013B9FFF78B
:1047C00095FC02E0107880F0010002B010BD00BF3F
:1047D0003E1400203C140020441400203A14002011
:1047E00048140020401400203D1400204C140020E8
:1047F0004D140020341400207620F42131229FE74C
:104800007720482101229BE777205821012297E752
:10481000064B002193F82020054B92013432197683
:104820007720F42102F0FC028AE700BF1C0300207D
:1048300090090020034B00221A767720F4212E22C3
:104840007EE700BF9009002003460A46682019460B
:1048500076E713B500222A211C20FFF771FF0E21F5
:1048600002221C20FFF76CFF0F2103221C20FFF700
:1048700067FF2B2112221C20FFF762FF164A022439
:104880009369164843F0040393612023ADF8043084
:1048900004230DEB03018DF806308DF8074001F07D
:1048A000ACF822462C211C20FFF74AFF2D210122C3
:1048B0001C20FFF745FF2E2100221C20FFF740FFA0
:1048C0002A2105221C20FFF73BFF054B4FF4807285
:1048D0001A8002B010BD00BF001002400008014065
:1048E0001800002008B50F2108221820FFF728FF24
:1048F0000E2218201021FFF723FF024B4FF48052A5
:104900001A8008BD1800002008B5134B53201B78EF
:104910002D2108227BB1FFF713FF31210A225320FA
:10492000FFF70EFF2C210C225320FFF709FF532025
:104930003821902209E0FFF703FF31210A2253209A
:10494000FFF7FEFE53202C210A22FFF7F9FE40F26A
:104950000912024B1A8008BD06030020180000202F
:1049600001F000BE01F024BF01F0FCBD01F020BF4A
:104970000B88584080EA0010C0B21B0A83EA10136B
:1049800043EA002383EAC0030B807047034A13788D
:10499000591C134411705878704700BFB8090020A3
:1049A00038B5FFF7F3FF0446FFF7F0FF44EA0020B5
:1049B00084B2FFF7EBFF0546FFF7E8FF45EA00206A
:1049C00044EA004038BD421E002012F8013FA3F126
:1049D0003001092904D80A2101FB00303038F4E7FE
:1049E000704738B51648FFF7EEFF6422B0FBF2F3CC
:1049F00002FB1302134B124C534322782146A2F1BF
:104A00003005092D04F10104F7D92E2A0DD142F207
:104A1000107411F8012F303AD5B2092D05D802FBD8
:104A200004330A22B4FBF2F4F3E706220333B3FBA8
:104A3000F2F36422B0FBF2F0034A02FB003038BD0F
:104A4000C7090020A086010040420F0038B5164C6F
:104A5000224612F80F5F1034A5F12D035D425D412F
:104A6000002D08BF14462046FFF7ADFF64235843CE
:104A700023461A4613F8011BA1F13004092CF8D97A
:104A80002E290DD15378303BD9B2092908D80A21F3
:104A900001FB03009378303BDAB2092A98BFC018B3
:104AA00005B1404238BD00BFB809002010B5002450
:104AB000054B9A8C944206DA186A044B195D04F08F
:104AC00044FB0134F4E710BDB80900202521002083
:104AD0002DE9F74F774C002394F82910024684F80B
:104AE0002630092900F29680DFE801F00505172B32
:104AF00021333B4E627BFE2A40F08C80022384F8F7
:104B00002930002384F859304FF0FF3384F85820BF
:104B100084F8563084F857307CE01046664984F8B3
:104B20002A3084F85920FFF723FF042306E01046BB
:104B3000614984F85A20FFF71BFF032384F82930CA
:104B400068E010465C4984F85B20FFF711FF0523FD
:104B5000F4E71046584984F85C20FFF709FF062364
:104B6000ECE7544B104603F1560184F85D200093A6
:104B7000FFF7FEFE94F85920009B0AB90823DDE7F1
:104B8000072283F8292045E094F82A1010464B1C90
:104B90002144DBB281F85E20474984F82A30009333
:104BA000FFF7E6FE94F85920009B9A4232D1E5E7E0
:104BB000DFF800C194F85D3040490192C85C0CF107
:104BC0005601CDF800C0FFF7D3FEDDF800C094F821
:104BD0002A30019A092163448CF8291083F85E2059
:104BE00018E0344B94F82A100120194483F8260069
:104BF00083F8290081F85F2093F85D90D3F8626014
:104C0000D3F86650D3F86A70D3F86E8093F87AA020
:104C100093F87BB094F82610264A012908D192F81F
:104C20005A3082F82B30D38D03B913860133E385D4
:104C3000002384F82830002939D0B9F1180F03D0A7
:104C4000B9F1210F1AD032E0642397FBF3F795FBFB
:104C5000F3F51B4B1B4A1F601B4B1560A3F800B0FC
:104C60004FF47A7398FBF3F8184B0122A3F80080F5
:104C7000174B92451A7017D9012216E0642395FB51
:104C8000F3F596FBF3F60E4B0E4A1D604FF47A7364
:104C900097FBF3F70D4B16601F800D4B01221A7026
:104CA000002EE9D1002DE7D100220A4B1A7003B083
:104CB000BDE8F08FB80900200E0A00209C380108DA
:104CC000F4040020FC2B002008050020040500202F
:104CD0006804002069040020642330B5B1FBF3F4BC
:104CE00003FB14130A214A43054D9BB205FB032322
:104CF0003C22B3FBF2F3A4B205FB0433584330BDAE
:104D0000A086010044280ED15C4B01225C4983F847
:104D1000962400230B805B490B7048705A490A7037
:104D20005A4A1370704748280AD1544B022283F81C
:104D30009624574B00221A80524A537848330BE08E
:104D400041280BD14D4B032283F89624514B00226E
:104D50001A804C4A53784133537070472A2801D146
:104D6000042212E00A2814D1464B5A781B789A4242
:104D70000AD1494B01221A70434B454A93F900303E
:104D800012885343454A138000223C4B83F89624F3
:104D90007047582805D13D4B00221A700122404B24
:104DA0004AE0232801D1002230E04028FBD04E28E1
:104DB00007D1384A00231380314A4FF47A711180A9
:104DC00008E0452809D1334B5A221A802C4A4FF467
:104DD0007A731380314A138017E0532808D12D4B82
:104DE000B4221A80264B00221A804FF47A720AE00D
:104DF00057280DD1274B4FF487721A80204B4FF460
:104E00007A721A800022254B1A8001221F4B13E070
:104E10001A4B93F89634013B032B2DD8DFE803F0AF
:104E200002041724164A13E0164A2D285378034427
:104E3000537003D1144BFF221A707047144A138821
:104E400003EB830300EB4300303810807047114AB6
:104E5000138803EB830300EB4303303B1380094AC1
:104E60005378184450707047064A137803EB830355
:104E700000EB430030381070704700BFB8090020C5
:104E80000E0500201A0000203A00002073040020C4
:104E9000601A00201005002069040020040500208D
:104EA0006D04002010B5424B93F897241C461AB9A4
:104EB00024287BD1012204E0012A05D1542875D190
:104EC000022283F8972410BD022A16D1472808D061
:104ED00053284FF00002F4D04128F2D083F89724F1
:104EE00005E0122384F89834032384F897340023D0
:104EF00084F8990484F89A3410BD032A56D193F8A3
:104F00009A3413B984F89B0404E094F89B2442403B
:104F100084F89B2494F89814254A04398B4240D194
:104F200092F89B34002B38D1137092F89934472BA8
:104F300033D1FFF735FD07F01BFC00221D4B07F0B6
:104F4000A7FD0CF09BF907F08BFE1B4B1860FFF7D9
:104F500027FD07F00DFC0022164B07F099FD0CF021
:104F60008DF907F07DFE154B1860FFF70FFDFFF779
:104F700017FD07F0C7FF124908F0CCF808F0DCF97C
:104F8000104B1880FFF702FD0F4BC0F38700042879
:104F9000188082BF0D4B01221A70002384F89734C9
:104FA00010BD591C134482F89A14587010BD00BFEC
:104FB000B809002000005940FC2B0020F404002018
:104FC0000000C842040500200805002069040020F4
:104FD000A94B2428D3F89C2470B502F101020546A0
:104FE000C3F89C241C4600F0388105D80A280ED04E
:104FF0000D2840F053810AE02A2808D02C2840F0E0
:105000004D8193F8A03483F02C0384F8A03494F8F5
:10501000A124994B0E2A00F210811A440021D17369
:1050200093F8A224002A72D0DA7BA2F14103052B67
:1050300001D8373A05E0A2F16103052B94BF573A36
:10504000303A237C1201A3F141010529D2B201D8E3
:10505000373B05E0A3F16101052994BF573B303B85
:105060001A4494F8A014D2B29142834B49D193F8D8
:10507000A324002A00F0E180B3F8A424D3F8B014EC
:105080000132A3F8A424D3F8AC2493F8B404C3F8F1
:10509000A8247A4A1160D8B1012840F0CC80D3F816
:1050A000BC24D3F8C814C3F8B824D3F8C424C3F874
:1050B000C024734A1160734AD3F8CC141160D3F83A
:1050C000D424C3F8D024D3F8DC24C3F8D824B5E022
:1050D000D3F8E0146C4A1160D3F8BC24D3F8C81498
:1050E000C3F8B824664A1160D3F8CC14654A11603D
:1050F000664AB3F8E4141180D3F8EC24C3F8E8242A
:1051000099E0B3F8F0240132A3F8F02495E093F885
:10511000F224CAB90E3319465D4A11F8010F00286E
:1051200000F0D28012F8016F8642F6D0594A13F887
:10513000010F002800F0CC8012F8011F8142F6D048
:10514000022384F8B43478E093F8B414022974D0BC
:10515000DB7B002B71D042EA4112013A282A6CD83D
:10516000DFE802F015232C343951585F646B6B6B08
:105170006B6B6B6B6B6B6B6B6B6B6B6B6B6B6B6B7F
:105180006B6B6B6B151E232C343941464B00FFF7BC
:105190005DFCC4F8BC0403F013FEC4F8AC044CE09E
:1051A000A3F141025342534131E0FFF71AFCC4F826
:1051B000C80403F005FEC4F8B0043EE0532B3CD114
:1051C000D4F8C8345B42C4F8C83436E0FFF709FCB1
:1051D000C4F8CC0431E0572B2FD1D4F8CC345B4247
:1051E000C4F8CC3429E0FFF731FCC4F8D40424E03F
:1051F000FFF72CFCC4F8DC041FE02748FFF7E3FBB3
:10520000C4F8C40419E0302B94BF0023012384F8B0
:10521000A33412E020480BF0B1FDC0B2A4F8E404BE
:105220000BE0FFF713FCC4F8EC0406E0FFF70EFCFC
:10523000C4F8E00401E0012000E0002094F8F2341A
:10524000013384F8F234002384F8A134A5F12A0351
:105250005D425D4184F8A25470BD0020022283F8B3
:10526000A10483F8F20483F8A00483F8B42483F83B
:10527000A20483F8A30470BDB8090020FC04002038
:10528000F0040020F804002000050020060500209E
:10529000D3480108D9480108C709002094F8A1346F
:1052A0000D4A0D2B94F8A2049FBF591C9B1882F83D
:1052B000A114DD73084A28B992F8A0345D4082F841
:1052C000A05470BD002070BD012384F8B434B5E74C
:1052D00084F8B404B2E700BFB80900202DE9F04318
:1052E000874B89B093F8F3241E46002A00F005810D
:1052F000844CD3F8F42421688A1A952A40F2FD8060
:1053000093F8F824C3F8F414013283F8F8247E4BA0
:105310007E4A197812787E4B09B932B903E022B976
:105320001A7812B901221A70E7E01B78002B00F0FE
:10533000E48096F8F954092D41D8206807F0DEFD85
:105340006F4BD3F8FC1407F027FD724907F0EAFF12
:10535000A8B3002300930123ADF80430ADF8063064
:1053600002238DF818306C4B02AF03F1100E3A4651
:1053700018685968083303C273451746F7D16F465A
:10538000664B0DF1180E3A4603CA72451860596013
:10539000174603F10803F6D11278DC211A70604B2E
:1053A000162219200135DA7105F01AFB05F000FB11
:1053B00086F8F954206807F0A1FDC6F8FC04594CA2
:1053C000642322684FF47A7003FB02F16268564D41
:1053D0005343B4F908202D7842438DF81D500492B0
:1053E0006D466A46039300234FF000084FF0000912
:1053F000ADF81430ADF81630ADF81A308DF81C3019
:10540000464BCDE900890291ADF818000DF118085E
:10541000174603CF4745186059603A4603F1080321
:10542000F6D1386818211860BA883D4F9A801E203E
:10543000F97105F0D5FA05F0BBFAB084FFF736FB39
:10544000AE4622686423616803FB02F0B4F90820C9
:1054500059434FF47A735A4300230093ADF8143044
:10546000ADF81630ADF81830ADF81A300190029151
:105470000392049207F10803724603CA424518607A
:105480005960964603F10803F6D110686821186048
:1054900021231C20FB7105F0A3FA05F089FAB084E2
:1054A000FFF704FBB4F9080007F02CFD1F4B1B4A63
:1054B00000930193002303930023ADF81030ADF85F
:1054C000123002902B4604AD1C4603CCAC42106057
:1054D0005160234602F10802F6D120684A23106089
:1054E00014200146FB7105F07BFA05F061FAB084E7
:1054F00009B0BDE8F043FFF7D9BA09B0BDE8F083C1
:10550000B8090020EC1F00206A0400206C04002071
:105510001B2C00200000C842E04801081D2000208C
:1055200015200020D42B0020080500200000204179
:1055300037B5184C94F8000502F0BEFD94F8F3342A
:105540000546834223D0E0B1D4F80435FBB1DD79C0
:1055500093F9000002230093D4F808354FF400714A
:105560005B780022003318BF012301930A4B53F8E4
:10557000253003F016FD206248B1012384F8F3348E
:1055800005E0206A03F0C8FB256284F8F35403B0F9
:1055900030BD00BFB8090020D43D010810B5094C4A
:1055A000C4F808054FF4007003F0EEFB4FF40071EF
:1055B000C4F8040503F0DEFB002384F8F93484F812
:1055C000000510BDB80900200B88584080EA001083
:1055D000C0B21B0A83EA101343EA002383EAC00324
:1055E0000B8070478379DB0748BFB1FA81F1D0F8AF
:1055F000343148BF49095A681B8909B113617047A2
:105600005361704710F80A3C0133DBB20A2B84BFA8
:1056100010F8131C044A00F80A3C82BF002322F849
:10562000113000F80A3C7047741E0020334A70B5F0
:10563000136C9068194440F68C23081A98429160C4
:10564000D060516013463BD9127893F9451010464B
:105650008A420BD1111F082908D893F8461018293F
:1056600001D8013103E083F8442002E0002183F8EF
:10567000461093F944402149A24219D191F847407C
:10568000B4B10C310024944206DA51F8046F1C4D79
:1056900025F814600134F6E70C2805D018490024D9
:1056A00021F810400130F7E7164801780131017008
:1056B00083F84520002201211A7083F8471070BD3D
:1056C00092F84710C9B140F2DA51A0F2EF248C42AF
:1056D00008D811780B2905D80B1D0131117042F83B
:1056E000230070BD002283F84720074B03F13002EE
:1056F000002143F8041F9342FAD170BDA00100209D
:10570000741E0020C40E0020AC010020024A136C5D
:105710000133194411647047A0010020024B53F873
:1057200020301B6819807047F81C0020074BA1F53A
:105730007A7153F820301A681B8959434FF47A73F1
:1057400091FBF3F189B21180704700BFF81C002073
:1057500038B50C4B0C4D99680C4B1A681C46528896
:10576000114203D003F032FB686006E003F02EFB29
:105770006B68984284BF01232B7223685A68044BDC
:105780005A6138BD000C0140C40E002034040020D2
:105790000004014090F83B3210B57BB990F83A32E2
:1057A00090F83942A34209D2B0F8401201229A403F
:1057B0000A430133A0F84022DBB2F3E710BD1FB566
:1057C0000123ADF80830ADF80410002301A9ADF8AD
:1057D0000A30ADF80C30ADF8062004F0F3FC05B04B
:1057E0005DF804FB10B5A0F5127494F83C22BAB928
:1057F000A36A616A994228D0591CA069A162C35C5E
:105800002069DBB25B0043F400738142A4F83E32AE
:105810004FF00A0384F83D3228BFA262012312E050
:1058200094F93D327BB1B4F83E1220464B08A4F8FF
:105830003E3201F00101FFF7D5FE94F83D32013B05
:1058400084F83D3201E084F83C3294F83832002B81
:105850004ED194F839320133DBB2092B84F8393256
:1058600003D12046BDE8104094E70A2B40D194F8BC
:105870003B322BB9B4F8403243F00103A4F8403274
:105880006379D9071CD5B4F84002820501D4C30757
:1058900005D4B4F844320133A4F8443210E0E36A8A
:1058A000C0F347000BB198470AE0E3696269D0543E
:1058B000E369E1680133B3FBF1F201FB1233E36109
:1058C000012284F8382294F83B220023012A84F82C
:1058D00039320DD1A27984F83B32236B12F0010FDB
:1058E0001868997A0CBF02220022BDE8104066E7D2
:1058F00010BD1FB50123ADF808300023ADF80C3002
:10590000ADF80A30084BADF804101B7801A9012B43
:1059100008BF0323ADF8062008BFADF80C3004F033
:1059200051FC05B05DF804FB9C01002038B510F86F
:105930000E2C044650F8043C52B9012200F80E2CFB
:1059400020F80C1C997A18680222BDE83840D0E78C
:1059500030F80C2C20F80A1C891A89B220F8081C8F
:10596000074A10F80F0C002522F8101004F80E5CFE
:105970001868997A2A46FFF7BCFF04F8065C38BD20
:10598000741E0020044B53F820301BB107289CBF25
:105990001B681980704700BFC8020020D8E6D7E610
:1059A000D6E6084A13689B020BD5074B00211970F5
:1059B0004FF6FE730549086803400B604FF400136F
:1059C00053607047000002401D2C00206C00024014
:1059D00001F0030301F0FC0101F1804101F5803188
:1059E00010B59B008C680F229A4024EA02028A605C
:1059F0008A68984002438A6010BDF0B5B1F800E0B3
:105A000000234EFA03F2D50725D58E784FEAD30C42
:105A1000F40648BFCC7806F00F0203F0070748BF32
:105A20002243BF0050F82C500F24BC4025EA040448
:105A3000BA402243282E40F82C2005D1C468012208
:105A40009A4024EA020205E0482E04D1C4680122EB
:105A50009A402243C2600133102BD2D1F0BD2DE910
:105A6000F04F1E464FF414734343554D85B005F176
:105A70000C0480469146E718A24610B92B44514ABF
:105A800003E0012805D1504A2B44DA631032C3F8F1
:105A900040214FF4147303FB08F34C48EC180AEB55
:105AA000030203F59C7334325344E060A163226225
:105AB000636200224FF480714FF0010BD4F8403143
:105AC0000320A161E262A262E1616263226384F861
:105AD000482284F844B284F84522A4F84E22A4F85F
