:020000040800F2
:1000000000500020EDDF00088DE000088DE00008C2
:100010008DE000088DE000088DE000080000000081
:100020000000000000000000000000008DE000085B
:100030008DE00008000000008DE0000897940008A3
:100040008DE000088DE000088DE000088DE00008DC
:100050008DE000088DE00008617700085D770008FA
:100060008DE00008A59400088DE000088DE00008F0
:100070008DE000088DE00008657B00088DE0000839
:1000800069B000088DE000088DE000088DE00008F0
:100090008DE000088DE000088DE000085977000829
:1000A0008DE00008557900088DE0000865790008AA
:1000B00049790008A954000899540008F947000834
:1000C000FD470008F1470008F54700088DE00008EB
:1000D0008DE000085D7B0008557B00084D7B000823
:1000E000A99400088DE000088DE0000800000000E1
:1000F0000000000000000000000000000000000000
:0C01000000000000000000005FF808F1A3
:100110002DE9F04F824B834C9FB0C4F898300023F8
:10012000C4F89C3009F0D0FA18B909F0EFFA0AF0D7
:10013000A3FC0AF047FD94F8A0307B4D43F0010387
:1001400084F8A03000230B930C930D934FF4E0132D
:100150000E93764BA87B99461A6842F480321A6057
:100160009A6942F010029A61D9F8003003F4003322
:100170000C930B9B01330B930C9B1BB90B9BB3F59F
:10018000A06FF1D1D9F80030684913F4003301D0E1
:10019000022317E00A6842F001020A600B93D9F8C3
:1001A000003003F002030C930B9B01330B930C9B69
:1001B0001BB90B9BB3F5A06FF1D1D9F800309A07AA
:1001C00041D501230D935A4B5A491A6842F0100247
:1001D0001A601A6822F003021A601A6842F00202DA
:1001E0001A60D9F80430C9F80430D9F80430C9F8D5
:1001F0000430D9F8043043F48063C9F804304E4B1E
:100200001A68043B22F070425A604C4A1160D9F8D7
:10021000041021F47C11C9F80410596841F0004120
:100220005960D96821F40041D9609B681B0449BF1B
:10023000434B4FF4E01313604FF480130E930D9B68
:10024000012B01D118E0FEE7022B1BD168B10E9BF8
:10025000B3F5801F02D14FF4A01305E00E9BB3F558
:10026000E01F02D14FF400130E930E99D9F8043019
:100270000B4343F4803303E0D9F8043043F46013B4
:10028000C9F80430D9F8003043F08073C9F8003061
:10029000D9F80010254B8F01FAD5596821F00301D8
:1002A0005960596841F002015960D9F804301F487B
:1002B00003F00C03082BF8D14368224903F00C0328
:1002C000042B03D0082B03D01A4B12E0136810E064
:1002D00043684668C3F38343F60303F1020301D482
:1002E000194805E0406810F4003F106818BF400846
:1002F00043430B60D9F804301448C3F30313034499
:10030000187E0B68C3400B60EB7B003318BF0123E2
:1003100084F8A1301368074A934219D101221BE0E7
:10032000B9A70008B8000020A00800200010024073
:100330000020024000127A00041001401C0000203E
:10034000001BB7004800002000093D007C35010873
:10035000984A934202D10222974B1A70DFF8B0A25A
:10036000964BDFF8B0B2CAF80C30D9F81830944E7A
:1003700043F00103C9F81830D9F824300027C4F835
:10038000A430D9F82430584643F08073C9F824309B
:10039000D9F818304FF0100843F01C03C9F8183092
:1003A0001EAB03934FF6FF73039A8DF84E7022F83D
:1003B0002C3D114603920AF084FE304603990AF060
:1003C00080FE804803990AF07CFE02231EAA8DF865
:1003D00047304FF4007322F8343D069206998DF8A9
:1003E00046805846CBF810300AF06BFE764A0398E8
:1003F000536843F00073536005F0EAFB734A139BA4
:100400003946B3FBF2F3724A7248136018220FF0B8
:1004100076FE714B4FF47A721B68DFF8CCC1B3FBE8
:10042000F2F36E4A013B5360F0238AF8233007232E
:1004300097601360AB686A4A039FDFF8DCA1136022
:100440009AE80F0087E80F00D9F81830CDF810C0EF
:1004500043F00803C9F81830D9F81830139843F05E
:100460000803C9F818300823336114A9C6F81080AE
:100470000AF027FE159816A90AF023FE584BCDF86E
:1004800014B01B68564F13F0080FDDF810C013D0DE
:100490009CF88E31012B0FD8524A9CF88F31D2F83C
:1004A000A42012F0805B00F00F8505E04E4B002287
:1004B00083F88F210AF057FD642008F0E2FFA022A4
:1004C0004A4800210FF01BFED9F81C30002243F0EF
:1004D0000703C9F81C30D9F8183043F4006343F01F
:1004E0000C03C9F818303F4B4FF0000803F5A47116
:1004F00002F8018001320E2AF5D1FF2283F856213D
:1005000083F8572183F8582183F85921384B394A09
:100510003E681A60384841463C220FF0F0FDC6F3B1
:1005200080170523354A344818F802100C2202FBC4
:1005300008F211543FB91E3901299FBFFF2103F171
:10054000FF331154DBB208F10108B8F1050FE9D10E
:100550002B4A95F805A013702A4BB106C4F85C31FC
:1005600003F1C003C4F86031274B1E4A03EBCA03F2
:100570005B7848BF0123C2F86431244800211C2263
:1005800084F85AA10FF0BBFD16F40053DFF88CB0CD
:1005900006F400680AD1B8F1000F41D095F8821135
:1005A0000BF10C02012908BF5A463BE0CDF810B010
:1005B00039E000BF001BB7003B2D00200005FA0505
:1005C000000C0140001001400000014040420F00BB
:1005D00098280020EC1400204800002010E000E0E3
:1005E000E0070020B8000020A008002060010020E3
:1005F000D4270020900A0020A01000209B52010860
:100600009D100020B0080020804B0108200200202F
:1006100000ED00E000080140A43501087C35010828
:100620000BF10C020492BC4ABAF10E0F1192049A1B
:100630005288ADF84820049A1288ADF84A20069AEC
:10064000C4F8802104D00AF0EF0ABAF1080F02D1F1
:10065000012284F87A210120069308F0A5FE069B6A
:10066000C6F34002003318BF012384F86831C6F393
:10067000C03384F86D0184F86E2184F8707184F8B9
:100680006B31B8F1000F07D095F8828108F1FF3780
:10069000D7F1000848EB0708C6F3004384F871312E
:1006A000C6F3402384F87231D4F86431B5F84401BC
:1006B000003318BF012384F87331C6F3005384F864
:1006C0007431B5F84631A4F87E01A4F87831F0040D
:1006D000B5F8523148BF9148A4F87631C6F380434B
:1006E00006F00101C6F3C00284F86F3148BFB0F8CC
:1006F0004C61B5F8503148BF8948A4F87C3148BFF7
:10070000A0F87E61B3F5FA7F84BF0023A4F87E31A0
:1007100095F8D231834884F88431002384F88531F8
:10072000437094F87A3184F86C81002B84F8691155
:1007300084F86A210CBF0023022301B902B10133FE
:100740000BEB830BDBF838304FF0000B9A1E1A339B
:1007500006920793069B33F8024F06934FF6FF73FA
:100760009C4200F090816E4FE3B297F86D21240A0D
:10077000E5B2B8461AB19A1E012A40F27F8197F875
:10078000702132B168491A018958684A914200F0D3
:10079000758197F8710130B163491A018958634A2C
:1007A000914200F06B8197F86E2152B15E49059E2F
:1007B00001EB03114A68B24203D10A89102A00F002
:1007C0005D8197F86B2152B15749059E01EB0311EA
:1007D0004A68B24203D10A89022A00F04F8197F891
:1007E0006C2152B150494C4E01EB03114A68B242A0
:1007F00003D10A89022A00F04181D7F880618EB1C5
:10080000494A02EB031EDEF804103268914209D116
:10081000BEF80820B188914200F03081F188914201
:1008200000F02C81022C02D197F8682103E0012C02
:1008300004D197F86921002A00F0208197F87321EC
:10084000394C1E0162B1364A92F87A2142B9A3F1BD
:100850000802012A04D8A25935498A4208BF042552
:1008600097F8742134445AB12D4A92F87A213AB952
:1008700010B10C3B012B01E0043B032B40F2E7805D
:10088000012D5DD1DFF8A0A0FF2387F8CC3187F8D8
:10089000CD310AEB060303F1080C5A7B58681B891B
:1008A0004FF00008ADF84C3013A9022387F8D0812F
:1008B000C7F8DC418DF84F30CDF820C08DF84E20C0
:1008C00087F88881C7F88C81C7F89081C7F8948130
:1008D000C7F8C88187F8CE8187F8CF810AF0F1FB8D
:1008E000DDF820C05AF806009CF80210424606F0D7
:1008F00084FD204641462A4607F0FEF80D4B0E497E
:10090000C7F8E0310D4BC7F8E881C7F8E43120465D
:100910000A1D07F02FF8B1E0000C0140A0080020EC
:10092000B80000203D020020A04A01080004004059
:10093000002C0140516E000898020020316F000821
:10094000022D49D15FFA8BF24FF01C0C0CFB02FC1C
:10095000BB4B002703EB0C0808934FF0010388F80A
:10096000D031B84B88F8D1B19A19517B506802F157
:10097000080A12898DF84E1088F8D27113A988F8E8
:10098000DA71C8F8DC41CDF824C0ADF84C208DF800
:100990004F500AF096FBAB4B9AF8021098593A4622
:1009A00006F02BFD20463946012207F0A5F8A6499E
:1009B000089BDDF824C0C8F8E011A4496344C8F8D6
:1009C000E41103F5F071C8F8E87120460A1D06F03D
:1009D000D1FF0BF1010B51E0032D36D197F86F31A8
:1009E000974E97F886512BB1204608214FF6FF729B
:1009F00000231CE0B6F87C21B2F5FA7F0FD9944BA6
:100A00002046B3FBF2F20821B6F87E3192B206F02E
:100A100049FD06EB8505C5F8B0028E4B0EE08E4B06
:100A20002046B3FBF2F2B6F87E31012192B206F015
:100A300039FD06EB8505894BC5F8B002C36097F810
:100A40008631013387F8863118E0042D16D1B7F8C6
:100A50007621814B204693FBF2F20121B7F87831E1
:100A600092B297F8855106F01DFD97F8853108EB95
:100A700085080133C8F8E00287F88531069B079A9C
:100A800093427FF467AE764F3B6813F4802F6C4B34
:100A900002D1012283F8002393F8A020714D42F087
:100AA000040283F8A0202B784FF48052022B34BF2D
:100AB000142310238DF84E304FF002038DF84F3081
:100AC000D9F81830ADF84C2043F00403C9F81830B9
:100AD00034BF00240124644813A90AF0F2FA634BDE
:100AE0000CB1634A00E0634A00201A6008F0DEFCA3
:100AF000614B624C93E80300039B4FF0030883E8CB
:100B00000300D9F81830139843F00803C9F81830D7
:100B100014A90AF0D6FAD9F81C30204643F48043D1
:100B2000C9F81C30D9F81030039943F48043C9F850
:100B3000103018238DF84E304FF42043ADF84C3070
:100B40004FF0040A8DF84F800AF0BBFA4FF480434F
:100B5000204603994FF48056ADF84C308DF84EA0E6
:100B60000AF0AFFA1023039920468DF84E30ADF805
:100B70004C600AF0A6FAD9F81030414A43F4804399
:100B8000C9F81030D9F81030322023F48043C9F866
:100B90001030138803F4415343F4457343EA0803C8
:100BA0001380938B23F400631B041B0C9383072394
:100BB000138213889BB243F0400313809F23266166
:100BC0008DF8403000238DF841308DF842308DF89B
:100BD000433008F056FC52466661039810A90BF0AA
:100BE00029FD26619DF84E309DF84D201B0243EAF9
:100BF00002439DF84F201343224A934212D03220E1
:100C000008F03FFC6661F5200BF04AFDFF200BF079
:100C100047FD7028266105D12B78022B04BF114BAC
:100C200083F800802B78032B0CBF1F20022008F0D4
:100C30008FFB2B78032B27D001200AF06EFC28E0D5
:100C4000B8000020A04A010835740008296E000889
:100C500000127A00516F000840420F00416F0008F7
:100C6000E00700203B2D002000080140202D00203F
:100C7000158D0008298D0008C4350108000C0140BD
:100C80000038004015202000022008F08DFB0028CD
:100C9000D2D095F80080A64D4FF0100A28460021CA
:100CA00052463C680FF02BFA4FF6FF73ADF8403018
:100CB000022304F4004704F400664FF000091C40CE
:100CC0008DF842308DF843900DD09A4810A9ADF8B8
:100CD00040A005F029F904232B700124072385F88F
:100CE0000190AC70EB7077B10223924810A9ADF877
:100CF000403005F019F90123E2182B71AB7107237D
:100D00006C71EB71D4B2B8F1010F0FD9202389486F
:100D100010A9ADF8403005F007F9052301222B7228
:100D2000AA72631C07226C72EA72DCB27EB10223E3
:100D3000814810A9ADF8403005F0F6F809230122EA
:100D40002B73AA73631C07226C73EA73DCB27B4FAC
:100D50007B487B68002643F440437B607B6943F01B
:100D600001037B61BB6943F40073BB6104F0B8FE0F
:100D7000744B012C1393744B0897149394BF334610
:100D8000802318934FF4807319934FF48063A7F670
:100D9000F8771A93202313A91B9338464FF4005376
:100DA00016941C93159617961D9604F07BFE3B68CF
:100DB000664A43F001033B605368012C23F470231F
:100DC00094BF0021012123F4807343EA012353607F
:100DD00091685F4B013C0B4043F4602343F00203F6
:100DE0009360D36AE4B223F4700343EA0454D462F8
:100DF0000123AA199178002951D0A85D591C09280E
:100E0000C9B2D278514F10D9A0F10A04D7F80CC05A
:100E100004EB44044FF0070E0EFA04FE2CEA0E0E0B
:100E2000A2404EEA0202FA600CE03C6900EB400C82
:100E30004FF0070E0EFA0CFE24EA0E0402FA0CF232
:100E400022433A61062B414C0CD8013B676B03EB04
:100E500083031F229A4027EA020200FA03F3134396
:100E600063631BE00C2B0CD8DA1F276B02EB8202AA
:100E70001F23934027EA030700FA02F33B4323634F
:100E80000CE0A3F10D02E76A02EB82021F239340FC
:100E900027EA030700FA02F33B43E3620B460436FA
:100EA000102EA6D1294B9A6842F480729A609A68F3
:100EB00042F001029A609A6842F008029A609968CA
:100EC000224A090746D5FAE7013B092B3FF6F4AA67
:100ED000039BDAF82800C6F81480194618600598B4
:100EE0000AF0EFF8059B3C201A460823136108F02E
:100EF000C8FAC6F810805E4695F88F319E42BFF65C
:100F0000D5AA059BDFF830A04FF00808CAF810807A
:100F10007820C3F8148008F0A9FA059BCAF8148059
:100F20007820C3F8108008F0A1FA0136E4E700BF8A
:100F3000F412002000080140000C014000100240A3
:100F4000080002404C24014004130020002401400A
:100F5000FDF7F1FF936843F004039360BA4B9A687E
:100F600012F0040BFAD19A6842F4A0029A60B74BCF
:100F7000B3F85801002840F05F86B3F95A21002ADF
:100F800040F05A86B3F95C31002B40F05586B04BE7
:100F9000B04C1A68AD4D12F4003F9A4623D0C820D9
:100FA000B5F8406708F06DFAAE200AF021FA08B1F2
:100FB0000AF023FA84F80103C82008F062FAA4F8C2
:100FC0000863A54EA54B00210C223046C4F804331B
:100FD0000FF095F80223F37003F050FD08F02AFAA1
:100FE0009F4B0344B3609F4FB5F860013E6895F88E
:100FF0005E11B6F9566095F8672195F8683100964C
:1010000005F02AFA10B9012008F09AFA94F8A030F5
:10101000102243F0020384F8A030934B0A265A6151
:1010200008221A61DFF840821920D8F80C3083F0CA
:101030001003C8F80C30D8F80C3083F00803C8F857
:101040000C3008F01EFA012008F030FA192008F0E0
:1010500018FA002008F02AFA731E13F0FF06E1D1F7
:1010600008234FF01009814EC8F81030C8F81090CE
:1010700033681B0709D57E4BC8F814901B68984746
:101080007C4B0122C8F810901A70D4F80C33DFF8AA
:101090002482187B0CF0ACF977490CF0FDF909F0CB
:1010A000D9FC8146B8F800000CF0A2F949460CF0D2
:1010B000F3F910F055FCA4F81003B8F800000CF098
:1010C00097F901466D480CF09BFA6D490CF098FABF
:1010D0006C4BC4F814036849D8680CF0DDF96A4910
:1010E0000CF0DAF9B5F84E310022A4F82033674B42
:1010F0005A491A809A70C4F8180384F8282338686B
:10110000B5F89421C4F81C1300F17903C4F8241332
:101110001FFA82FEDFF8A0815D49D8F800C0DFF831
:101120009C910CF5967C21F81BE049F82BC00BF143
:10113000010BBBF1120FEDD1DAF800C000F1C909C3
:101140001CF4805F08BFB5F89AE1A1F806E01878B2
:10115000D8B9987893F803E0704516D238B10138C1
:1011600000EB800000EB800000F5617E07E00EF1EF
:10117000010E0EEB8E0E0EEB8E0E0EF5617E587884
:101180001FFA8EFE043021F810E004334B45DED107
:101190001CF0080F00F0F78095F88E11062900F278
:1011A000EC80DFE801F004070E358DADAD0045F2AF
:1011B000F05301E042F6F823A4F8743305F00EF979
:1011C000DAE042F6F8231201A4F874330A2392FB02
:1011D000F3F20023A2F5B0622E4941F82320013337
:1011E000122BF9D12C4A2D49402011602C4A137042
:1011F00008F0FEF8002800F0C08001234FF0070B34
:1012000090F9000040218DE80808264A264BAEE000
:1012100042F6F823254AA4F874331F4B40201A6085
:101220001F4B10221A7008F0E3F8002800F0A58088
:1012300001234FF0000990F9000040218DE80802D9
:101240001B4A4FF4E13392E000240140A008002043
:10125000E0070020B8000020C8270020260A002050
:10126000404B4C0004100020000C0140EC07002013
:1012700028150020FC04002035FA8E3C0AE81C41A9
:1012800000401C4674140020BD3786353C140020F5
:10129000221000209412002020000020CF550008CA
:1012A00020100020555A0008A0860100CB550008E8
:1012B000A959000808000020C02A0020E4030020EB
:1012C00042F6F823594AA4F87433594B40201A6067
:1012D000584B08221A7008F08BF800284DD00123D3
:1012E0004FF0000C90F9000040218DE80810524AA0
:1012F0004FF4E13308F089F9504BC3F8780338E034
:1013000042F6F823A4F874334A4B0C22DFF86CE160
:101310004B4D4C481A7006294FF000038EF80030F0
:101320002B7003700AD0484B1B211970474B4FF4A8
:10133000E1351A70464B05221A7007E0424B212016
:101340001870424B434D1A70414B1970424A384B4A
:1013500040201A6008F04CF878B101234FF0000EDD
:1013600090F900008DE808402B463C4A402108F0E7
:101370004CF9003018BF012028B9082009F074FB8F
:10138000374A2B4B1A60DAF800302A4A13F4804FA0
:101390001FBF122111703348254918BF086042F25F
:1013A0000101194099B144F620619804A4F874131E
:1013B00041BF082111702C481D4948BF0860D9075A
:1013C00041BF0C2111702948194948BF08601178A4
:1013D0001D06A1F10401517040F187804FF0000912
:1013E000234DDFF89CB0494615222248C4F87CB34F
:1013F00085F80190C5F80490C5F808900EF07FFEBE
:101400001D4BABF1050248461A60039303F0ECFE56
:10141000D8F800200220EA6007F0EAFF039B9E460E
:1014200080BB802009F020FB58E000BFC7550008B2
:1014300020000020201000205D590008B800002086
:10144000A1130020A0130020A2130020911200205D
:10145000A313002090D003000D5500083D5800084C
:1014600021560008FD5500081156000801560008D5
:101470006C050020AD0500208C0500209212002094
:10148000900A00206B7890F805C0B04A0C2101FB4F
:1014900003214978614504D00133DBB2042BF4D930
:1014A00000236B70DEF8003090F900001B78002BF1
:1014B0006B784FF00C0505FB032214BF03210121BB
:1014C0005378002200910192022108F09EF8A04B6F
:1014D00018600028A5D0012003F086FE38689D4BD7
:1014E00000F5C5721A6003F0CFFE049B089AC4F899
:1014F0008033089B28279B69974843F00103936139
:10150000049B0FA91B888DF83E70ADF83C30032377
:101510008DF83F30039309F0D4FD049B8E485A8820
:101520000FA9ADF83C208DF83E7009F0CAFD049B70
:101530000120197A09F0B0FD049B88495A680027F8
:101540004A614FF0100B4FF0010913A813928DF868
:1015500050708DF851B08DF8529004F0A7FC049BA8
:1015600010A85A7A039B8DF840208DF841308DF8F1
:1015700042708DF843900BF03FF8D8F800304FF0F0
:10158000FF323C3BC4F884333368754D43EA0B03A8
:101590003360744B1A60DAF80030580540F141822C
:1015A000D5F88863704B04201E6007F021FF0421EA
:1015B0008246C5F88C0307F011FF6C4A85F890034A
:1015C00004900820166007F013FF694B082118608B
:1015D00007F004FFDFF8AC8185F8910339464046F7
:1015E0002C220EF08CFD4FF07D038E224FF07C0CF0
:1015F00088F80120E02288F800C088F8032088F8E5
:101600002B30DFF88481394640462C22CDF80CC0BF
:101610000EF075FD4FF07D03DDF80CC08A2288F8CE
:1016200001205846A02288F800C088F82B3088F89E
:101630000320C5F8946307F0DBFE5946C5F898030C
:1016400007F0CCFE85F89C032020C5F8A06307F0C6
:10165000CFFE2021C5F8A40307F0C0FE85F8A8033B
:101660004FF48070C5F8AC6307F0C2FE4FF4807190
:10167000C5F8B00307F0B2FE85F8B4034FF400706C
:10168000C5F8B86307F0B4FE4FF40071C5F8BC03A9
:1016900007F0A4FE374A85F8C0034FF48060177046
:1016A000C5F8C46307F0A4FE4FF48061C5F8C80311
:1016B00007F094FE049B85F8CC03184603F02AF942
:1016C0002D4E83463378DFF8A880834222D0C8B1FC
:1016D000BAF1000F1ED002239AF900000093224BAA
:1016E00004211B683A465B78DB1B18BF012301937A
:1016F0004FF4165307F089FFC5F8D00350B186F8B0
:10170000009007E0D5F8D00307F03AFEC5F8D0B353
:1017100086F800B094F8910303F0FCF8174E0546E4
:101720003378834238D088B3D8F80030A3B300228E
:10173000012593F9000008214FF49643009501928A
:1017400007F063FF0E4B186028BB25E0FC3A010848
:1017500068050020CC070020000C01400004014077
:10176000B800002048100020E807002038080020BA
:101770008408002025110020D00700200008002048
:1017800074080020080800203D080020914F3868A8
:1017900007F0F6FD3D60357094F89C0303F0BAF84D
:1017A0008D4F8E4D3B788146834258D0002837D0EC
:1017B000D5F89823002A52D0D37992F90000002B53
:1017C0004FF00202864E08BF03230092002256F813
:1017D00023300192102107F018FF824B0646186053
:1017E00000283CD094F84A30022B0BD095F8962074
:1017F000022A01D14C3505E023B1002A05F14C0540
:1018000018BF0025784B1D6045B1284600214C22A9
:101810000EF075FC02232E6085F84A3001231DE08E
:10182000704E2B68D6F80080434507D1404607F03C
:10183000A7FD284649464C220EF061FCE36C434567
:1018400007D1404607F09CFD684800214C220EF06D
:1018500056FC306807F094FD002333603B7094F829
:10186000A80303F057F8624E5C4F33780546834275
:1018700029D000B3D7F8A4332BB3D7F8A02393F91A
:10188000000052780323002A0CBF0822092200938B
:1018900001924FF461432021002207F0B6FE554B20
:1018A000186080B1544A012313703370534B1A6887
:1018B000534B1A6007E04F4F386807F061FD4E4BFD
:1018C0003D601D70357094F8B40303F023F84D4E5D
:1018D000424F33780546834223D0E0B1D7F8B03386
:1018E000FBB1DD7993F9000002230093D7F8AC3304
:1018F0004FF480715B780022003318BF01230193FD
:10190000374B53F8253007F080FE3F4B186040B14D
:101910000123337005E03C4F386807F031FD3D602E
:10192000357094F8C00302F0F5FF384F2B4D3B782B
:101930000646834224D0E0B1D5F8BC3303B3DE7948
:1019400093F9000002230093D5F8B8334FF40071E7
:101950005B780022003318BF01230193204B53F81A
:10196000263007F052FEC5F8D40348B101233B707E
:1019700006E0D5F8D40307F003FDC5F8D4633E7044
:1019800094F8CC0302F0C6FF214F144D3B78064675
:10199000834246D000283DD0D5F8C833002B40D034
:1019A000DE7993F9000002230093D5F8C4334FF495
:1019B00080615B780022003318BF01230193084B3C
:1019C00053F8263007F021FEC5F8D80348B30123A9
:1019D0003B7026E0740800208A080020B800002030
:1019E000304701088C0800209008002004010020E6
:1019F000E4100020E8100020EC100020C02A002095
:101A0000F0100020F7100020001100201C11002011
:101A10003C110020D5F8D80307F0B2FCC5F8D86314
:101A20003E70704B704D1B78022B64D16F4A0026BC
:101A30001388322023F040031B041B0C13801388EF
:101A40004FF4805723F038031B041B0C13801388BA
:101A50009BB243F0400313809F238DF840308DF8F4
:101A600041608DF842608DF8436007F00AFD8DF803
:101A70004D605F4E0422776113A810A90AF0DAFDC9
:101A800037619DF84E309DF84D201B0243EA02421B
:101A90009DF84F301343574A934219D00AD8A2F504
:101AA0001A42033A93420CD002F51A420232934290
:101AB00009D01BE0504A934205D00132934207D02F
:101AC00014E0202300E080232B804FF4807302E099
:101AD0004FF480732B806B80AB882A881B02AB602D
:101AE0005343EB60012384F8DC3304E000232B80B4
:101AF0006B80AB60EB60ED6815B3ED0A2F464FF0DD
:101B00000008A8450BDA08EB050676100DF14C0924
:101B1000F0024946102209F011FC0F2805DC03F001
:101B200003FC364BFF021F600AE0002359F8232014
:101B3000013253D10133042BF8D137463546E0E763
:101B40002F4D2B6813F4002318BF012384F8DD33D5
:101B500007F070FC2B4B18602B4B5A791E46052A58
:101B600004BF4FF4C873A4F8DE33284B4FF47A72E5
:101B70001A80274BC8221A80264A137843F008039C
:101B80001370254A137823F00203137040F6020302
:101B90002A6813406BB12149214B1960214B032165
:101BA0001970214B01211970204900230B80204915
:101BB0000B80930304D51F4B02221A7102F0C4FE5E
:101BC000B3682B60012384F8003394F8A03063F0ED
:101BD0007F0384F8A0301FB0BDE8F08F06F1010844
:101BE0002E46ABE73B2D00200C00002000380040C3
:101BF000000C014018BA20001740EF00E010002050
:101C0000E0070020B8040020A0080020342D0020A8
:101C1000362D0020F0070020382D0020180A002063
:101C2000DC0700203C080020380000203014002091
:101C300032140020C8270020424B00221A7000B244
:101C40000BF0D6FB40490BF027FC404C0646B4F99C
:101C50005A010BF0CDFB3C490BF01EFC0546B4F9D4
:101C60005C010BF0C5FB38490BF016FC044630460E
:101C700008F0F0FE8046304608F078FE064628461A
:101C800008F0E8FE0746284608F070FE05462046A4
:101C900008F0E0FE8246204608F068FE4146814694
:101CA00050460BF0F9FB4146039048460BF0F4FB1D
:101CB0005146059030460BF0EFFB49460690304602
:101CC0000BF0EAFB3946079050460BF0E5FB204C41
:101CD0004946206007F100400BF0DEFB29466060BA
:101CE000A56006980BF0D8FB014605980BF0CCFADE
:101CF0002946E06007980BF0CFFB014603980BF0F4
:101D0000C1FA3946206106F100400BF0C5FB2946B7
:101D1000606103980BF0C0FB014607980BF0B2FA24
:101D20002946A06105980BF0B7FB014606980BF019
:101D3000ABFA4146E06138460BF0AEFB2062FFF79C
:101D400026B900BF0000002035FA8E3CA008002014
:101D5000C80400202DE9F047AE4CA0B02378002B3A
:101D600000F09B81AC4E63683268D31A7C2B40F242
:101D70009481237A6260013323722425284602F07D
:101D8000B9FDA64B013518880BF032FB0146002047
:101D90000BF036FCA2490BF07FFB0BF043FDEDB2DC
:101DA00000B202F095FD272DE8D1302002F0A2FD0F
:101DB000002002F08DFD02F095FD257A15F0030557
:101DC0001FD1944B5A6841F288339A420BD91020A4
:101DD00002F090FD284602F07BFD212002F08AFDF2
:101DE000284602F075FD142002F084FD002002F068
:101DF0006FFD1C2002F07EFD002002F069FD02F064
:101E000071FD257A15F0070540F02481022002F0CB
:101E100071FD284602F05CFD032002F06BFD814B52
:101E20001B7859075DBF7B4B0520DB68284658BFF0
:101E30009B89784D5CBFB3FBF0F000B202F048FD27
:101E400023699A075BD5DFF8F491AA8A99F80030E4
:101E50004FF0640808FB02325B00B2FBF3F3EF8A39
:101E600006203F01BFB247EA0327BFB2C3F30323F3
:101E70001F4302F03FFD38B202F02AFDEB8A99F8C9
:101E8000001001339BB293FBF1F201FB1233EB82A2
:101E9000AB699B7B012B05D1392002F02BFDB5F9F5
:101EA000140019E0AD8A6E235D43152795FBF7F505
:101EB0003A20AFB202F01EFDB7FBF8F528B208FBDE
:101EC000157502F005FD3B2002F014FDA8B2451D7A
:101ED0000A2095FBF0F000B202F0FAFC282002F094
:101EE00009FD002002F0F4FC042002F003FDE36889
:101EF000988910B104F08CF800B202F0E9FCE369B3
:101F0000444F9B0640F19C8097F820309D071BD5DD
:101F1000112002F0EFFC788C4FF4F3656843424BDC
:101F200090FBF3F000B202F0D3FC192002F0E2FCC7
:101F3000788C4543642095FBF0F595FBF0F300FBAE
:101F4000135000B202F0C4FC94F82030A58C13F0BA
:101F5000020F08BF0025012002F0CCFC28B202F0DD
:101F6000B7FC092002F0C6FC002002F0B1FC2F4BA8
:101F700094F826501A88B2F5967F0AD9254B1B7A19
:101F800003F00F03072B04D842F20F75954228BFC8
:101F90001546052002F0AEFCA3695B7B0BB928B2A5
:101FA00016E0A5F120000BF023FA21490BF028FBE5
:101FB000002105460BF00EFC10B94FF07C5101E0FA
:101FC0004FF03F4128460BF05FF90BF02BFC00B2BD
:101FD00002F07EFC94F820200E4B900703D493F877
:101FE0002720012A04D1012384F8273011482DE04D
:101FF0009D69114968680BF04FFA0BF013FC0E490C
:102000000090A8680BF048FA0BF00CFC01906846B1
:102010001CE000BFD0070020C02A002008000020DC
:1020200000007A44382D0020A08601003A000020EC
:102030006666E63FF80700208096184B38000020BF
:10204000D44A92E803008DE80300684606F014FEC7
:1020500002F048FC237A282B1FD1CF4B00221A72A2
:1020600033684FF47A70B3FBF0F73C26172002F088
:1020700041FCB7FBF6F5B5FBF6F006FB105000028D
:1020800000B202F025FC182002F034FC06FB1570AB
:1020900000B202F01DFC02F025FC94F83030BE4D79
:1020A000002B00F0378107F0C5F96B6BBB4AC31AF0
:1020B0009342064640F2B780002385F83A3085F80F
:1020C0003C30AB8AB649DAB21B0A85F8562085F84F
:1020D000573085F84C2085F84D306A6E0B689A1A97
:1020E000AB6ED87B4FF47A7343439A420CD30B68A0
:1020F0006B6695F86C30013B012B9FBF102385F870
:102100003A30022385F83C30002394F8201084F8FC
:10211000543084F8553084F8583084F8593094F8A5
:10212000263089079C4A84F8873003D42D2382F80F
:10213000883077E0D4F82890E56A9A48DFF870C2D2
:1021400099FBF0FA95FBF0F00CFB0A980CFB005C95
:10215000042B8CBF3323322382F88830062202FB03
:1021600008F802FB0CFC904B4FF0640E98FBF3F167
:102170009CFBF3F203FB118803FB12C393FBFEF3FA
:102180000AEB8A0A4FB20AEB8A0A07EB8A0189B284
:1021900084F8771000EB8000090A84F8781000EBCF
:1021A000800051B201EB800292B284F87C20120AC6
:1021B00084F87D2084F87E30628C1B1284F87F3096
:1021C000242353434FF47A7293FBF2F384F8743070
:1021D000C3F3072384F87530B4F89A300A2284F8E0
:1021E00080301B0A84F88130A38C98FBFEF8B3FB87
:1021F000F2F303F5FA739BB284F882301B0A84F879
:102200008330B4F89C304FEAD97984F87980ED0FA7
:102210004FEA282884F8769084F87A8084F87B50F6
:1022200084F88930666394F89E805B4DB8F1000FA6
:102230000DD1D5F8A40007F040FA012807D90228EB
:102240005A4F01F0408206F009FD0123BB70D4F81B
:10225000A850514B002D5DD093F89E203AB140F626
:10226000B731D3F8B020B21A8A4216D852E0012210
:1022700083F89E20D3F8B420D3F8A4001278022A61
:1022800004D80430022106F0D3FC02E0022107F05A
:10229000B9F9002384F8B8303AE093F8AC20AAB931
:1022A000C3F8A82083F89E20D3F8B420D3F8A40064
:1022B0001278022A04D80430012106F0B9FC02E0A9
:1022C000012107F09FF906F0C9FC21E0013AD2B2E2
:1022D00083F8AC2093F8B81093F8B90042B90130F4
:1022E0004A1C83F8B90083F8B820D3F8A4000DE0A5
:1022F0002A4612F8017B01307D18394683F8B9006F
:10230000D3F8A40083F8B850C3F8A82007F0D8F990
:10231000C4F8B06094F8BA301F4E002B00F0B485BA
:10232000D6F8BC30002B00F0AF85D6F8C030002BBB
:1023300000F0AA85C6F8C4301B68164FC6F8C8302E
:10234000D6F8CC303B441D7A4D2D00F0D98400F2F4
:10235000CB80342D00F09C835FD8222D00F0778352
:1023600033D8032D00F0B38124D8012D00F0728101
:10237000022D40F07B85042003F004FF432009F088
:102380008FFA4C2009F08CFA462009F089FA4C208B
:102390009AE100BF403C0108D00700203F0D030038
:1023A000C02A00208096980040420F0008000020BC
:1023B000806967FF042D00F09481052D40F056855B
:1023C0001A2003F0DFFE00259DE1282D00F05A843D
:1023D00014D8242D00F04184262D40F04785062096
:1023E00003F0D0FEB4F8280203F0F2FEB4F82A029B
:1023F00003F0EEFEB4F82C0200F036BD2C2D00F0F8
:102400005384322D00F09D842A2D40F02F85012029
:1024100003F0B8FE94F8D50056E1402D00F0978403
:102420001ED83A2D00F060820AD8362D00F0BF8405
:10243000382D40F01B85042003F0A4FE00F013BCEF
:102440003B2D00F0FD823D2D40F01085022003F071
:1024500099FE94F8AE0209F023FA94F8AD0233E144
:10246000462D00F0BD840BD8422D00F07E84452D12
:1024700040F0FC84132003F085FE002500F0D5BC5D
:10248000492D00F042824B2D00F02C84472D40F066
:10249000ED8403F093FE86B203F090FE054603F050
:1024A0008DFE87B203F08AFE06EB052607EB0020BF
:1024B000B6B206EB0045842003F064FE284603F024
:1024C00091FEDB4B1E6905F18003B3428CBF761B86
:1024D000802602F029FF28463246694608F02EFF82
:1024E0000025064600F099BC702D00F0148263D8D8
:1024F000692D00F0E1813AD8662D00F02B812BD8B0
:10250000642D00F01881652D40F0B0840B2003F09D
:1025100039FEB4F8180803F05BFEB4F81A0880B26C
:1025200003F056FEE369C3F3C000C3F380028000EA
:1025300040EA4200C3F340021043C3F3401240EAB2
:10254000C20003F01003184303F042FE002003F022
:1025500049FE94F8C407B7E0672D00F01B81682D91
:1025600040F08484102003F00DFE00259CE16C2DCA
:1025700000F0B68115D86A2D00F0F2826B2D40F084
:102580007584052003F0FEFDB4F89A0003F020FEE8
:10259000B4F89C0003F01CFE94F8820800F00100DF
:1025A00092E06E2D00F0A6815FD8062003F0EAFDD0
:1025B000002003F017FE4EE3782D00F0F78018D8C6
:1025C000742D00F08A820AD8722D00F08A82732D51
:1025D00040F04C84082003F0D5FD0125B9E2762DAA
:1025E00000F0DA8200F279822F2003F0CBFD914DCA
:1025F0001EE2A42D00F0FE8214D87C2D00F023846E
:10260000A02D40F033840C2003F0BCFD8A4B1868E9
:1026100003F0E8FD894B186803F0E4FD884B186867
:1026200000F00EBCF12D00F01981FE2D00F00783A3
:10263000F02D40F01B84042003F0A4FDD4F83438BE
:10264000B3F85A0003F0C4FDD4F83438B3F8580096
:1026500000F00ABC032003F095FD002009F020F9EA
:10266000284609F01DF90E202EE00B2003F08AFD0C
:10267000D4F87C380026187809F012F9D4F87C38A0
:10268000587809F00DF9D4F87C386E4D3344187938
:10269000013609F005F9032EF5D1D5F87C38D87943
:1026A00009F0FEF8D5F87C38987809F0F9F8D5F8F3
:1026B0007C38D87809F0F4F8D5F87C38588903F0DC
:1026C00087FDD5F87C38187A09F0EAF8CEE30320C4
:1026D00003F058FD032009F0E3F8012009F0E0F8C9
:1026E00086E2062003F04EFD412009F0D9F846208D
:1026F00009F0D6F84E2009F0D3F8412009F0D0F8BF
:10270000514B1878B0E3514B585D013509F0C8F8CA
:102710000B2DF8D100254E4B585D013509F0C0F85E
:10272000082DF8D100254B4B585D013509F0B8F85C
:10273000072DF8D19AE3072003F024FDE72009F0E4
:10274000AFF894F8D50009F0ABF8002009F0A8F82C
:10275000042075E3122003F015FD002003F038FD7E
:10276000002003F035FD002003F032FD002003F0CF
:102770002FFD002003F02CFD002003F029FDB4F80C
:102780001C0803F025FDB4F81E0803F021FDB4F881
:10279000200869E3102003F0F5FC00252E4B585D5E
:1027A000013509F07DF8102DF8D15FE3702003F0BA
:1027B000E9FC00260E257543D4F8343801362B4445
:1027C000B3F8190103F004FDD4F834382B44B3F8FE
:1027D0001B0103F0FDFCD4F834382B44B3F81D0181
:1027E00003F0F6FCD4F834382B4493F81F0109F0B9
:1027F00057F8D4F834382B4493F8200109F050F8F6
:10280000D4F834382B4493F8210109F049F8D4F86E
:1028100034382B4493F8220109F042F8D4F83438C4
:102820001D44D5F8230103F0DDFC082EC2D11DE3C1
:1028300008000020513C0108E8F7FF1FECF7FF1FDC
:10284000F0F7FF1FD00700203B2D0020084E0108A5
:10285000144E01081D4E0108F20F0020702003F0F5
:1028600091FCD34D05F1700695F8D00009F018F8E9
:1028700095F8D10009F014F895F8D20009F010F895
:1028800095F8D30009F00CF895F8D40009F008F891
:1028900095F8D50009F004F8073595F8CF0008F051
:1028A000FFFFB542E0D1E1E2C24B585D013508F0CF
:1028B000F7FF102DF8D1D9E296F850080025400016
:1028C00000F0FE0003F05EFC94F850389D4280F06A
:1028D000CD82B94B33F8150003F07AFC0135F3E7EC
:1028E000062003F04FFCB0E1042003F04BFCD4F8C9
:1028F0007808A5E2072003F045FCA08AFF28A8BFBE
:10290000FF20C0B208F0CCFF9FE1022003F03AFCA8
:10291000B4F8DC00A8E21E2003F034FCD6F834380A
:1029200000251B78022B6DD1D4F8343805F108024C
:1029300053F82200A1490AF0AFFD0FF011F880F31F
:102940000800C0B208F0ACFFD4F834389C4903EB5F
:102950008503D86A0AF0A0FD0FF002F880F30800A2
:10296000C0B208F09DFFD4F8343805F10E0253F8D8
:10297000220094490AF090FD0EF0F2FF80F3080067
:10298000C0B2013508F08CFF032DCDD1072DD4F84E
:10299000343823D1586C89490AF07EFD0EF0E0FFEF
:1029A00080F30800C0B208F07BFFD4F834388349C4
:1029B000986C0AF071FD0EF0D3FF80F30800C0B2EE
:1029C00008F06EFFD4F8343893F84C000AF00CFD90
:1029D0000EF0C6FF80F30800C0B20DE02B4458781B
:1029E00008F05EFFD4F834382B44D87A08F058FF4A
:1029F000D4F834382B44587D013508F051FF0A2DA6
:102A0000C4D133E2D4F834382B44587808F048FF66
:102A1000D4F834382B44D87A08F042FFD4F834384C
:102A20002B44587D013508F03BFF0A2DEAD11DE209
:102A300015F8010F002800F0198208F031FFF7E7C0
:102A4000012003F09FFBD4F8343818783CE650207E
:102A500003F098FB0026D4F834580C2205EB8605C9
:102A600095F87930013602FB037393F84C0008F0B7
:102A700017FF95F87A0008F013FF95F87B0008F02F
:102A80000FFF95F87C0008F00BFF142EE3D1EDE169
:102A9000482003F077FB0026D4F83458062303FBC4
:102AA000065595F8CE0008F0FBFE95F8C90008F031
:102AB000F7FE95F8CA0008F0F3FE95F8CB0008F091
:102AC000EFFE95F8CC0008F0EBFE013695F8CD004E
:102AD00008F0E6FE0C2EDFD1C8E1002003F052FB27
:102AE000C4E1162003F04EFBB4F8640203F070FB5F
:102AF000B4F8100203F06CFBB4F8120203F068FBA8
:102B0000B4F8140203F064FBB4F8A60203F060FB0F
:102B100094F8BB0208F0C4FE002008F0C1FE94F84F
:102B2000BC0208F0BDFE94F8530208F0B9FE94F818
:102B3000600208F0B5FE002008F0B2FED4F8343888
:102B40000A20B3F9563093FBF0F080B203F040FB5B
:102B500089E0E8B2013508F0A3FE092DF9D185E13D
:102B6000102003F00FFB94F8200000F0020008F0A2
:102B700097FE94F8260008F093FEA06A03F032FB5B
:102B8000E06A03F02FFBA08C03F022FB608C03F0C3
:102B90001FFBB4F8800867E103F010FB0746122022
:102BA00003F0F0FA87B9D4F88468D4F888580DE0B7
:102BB000A008002008100020221000200000204162
:102BC0000000C84200007A4400252E46384608F02E
:102BD00067FE304603F006FB284603F003FB0020A7
:102BE00003F000FB002003F0F3FA002003F0F0FAFA
:102BF000002069E594F88C08002580000130C0B2FF
:102C000003F0C0FA94F88C0808F04AFE94F88C3867
:102C10009D4280F02B81D34E705D08F041FE06F19D
:102C20001003585D08F03CFE06F12003585D303675
:102C300008F036FE705D08F033FE0135E6E7082047
:102C400003F0A0FA002003F0C3FA002003F0C0FA5A
:102C5000002003F0BDFA002006E1042003F092FA00
:102C6000D4F8D800ECE094F8480208F019FE94F883
:102C70004C0208F015FE94F84B0208F011FE94F88F
:102C80004D0221E5072003F07DFAB4F84E0203F06F
:102C90009FFAB4F8500203F09BFA94F8520208F03D
:102CA000FFFDB4F85402DFE00C2003F06BFA94F857
:102CB0005E0208F0F5FDB4F8680203F089FAB4F892
:102CC000640203F085FAB4F8660203F081FA94F81E
:102CD0005F0208F0E5FDB4F86A0203F079FAB4F88F
:102CE0006C02C1E0042003F04DFA94F8A40208F04D
:102CF000D7FD94F8A50208F0D3FDB4F8A602B3E01E
:102D000096F85008002500EB4000C0B203F03AFAF4
:102D100006F26E2694F8503802369D4280F0A68066
:102D200016F8020C08F0BCFD16F8010C013500EB9A
:102D3000800000EB800000F2EE2080B203F048FA41
:102D4000E8E7012003F01EFA94F86002BCE40820D2
:102D500003F018FA0025844B2B4493F886010135C3
:102D600008F09EFD082DF6D180E0102003F00AFA4D
:102D700094F8D50008F094FDD4F8D80003F032FAA6
:102D800094F85E0208F08CFDB4F8280203F020FAF3
:102D9000B4F82A0203F01CFAB4F82C0203F018FA73
:102DA000B4F84E0203F014FAB4F850025CE094F860
:102DB000CD086D4DC0EBC000C0B203F0E3F905F1E2
:102DC000280695F8F2010023684AD25C904200F090
:102DD000B7840C333C2BF7D10835B542F1D145E02F
:102DE0000D20634D03F0CEF908F0CEFA08F058FD3F
:102DF000A88803F0F7F9286903F0F4F994F80D09AD
:102E000094F80C3998422ABFC31AC3F180030020FA
:102E10000344D4F81009184412E0B54226DA1DF82C
:102E2000050008F03DFD0135F7E7524B585D0135CF
:102E300008F036FD0B2DF8D1002003F0D3F9002067
:102E400003F0D0F912E0082003F09CF9B4F818025E
:102E500003F0BEF9B4F81A0203F0BAF9B4F81C0290
:102E600003F0B6F9B4F81E0203F0B2F9D4F8C43096
:102E7000414D987908F014FDD4F8CC300133092B7A
:102E800088BF0023C5F8CC303C4E94F8142935682F
:102E9000394B002A00F05A81D3F81829002A00F093
:102EA000558193F81C39013B012B00F24F81D4F876
:102EB0001809314F06F001FCE0B1D7F8180906F007
:102EC000F9FB97F81D3980467E2BD6F800900ED17D
:102ED00002231B2887F81C3909D1D7F8180906F0F6
:102EE000ECFB20B90123C7F8209987F8243984F82E
:102EF0001D89DCE7D7F8202933689B1A41F6583240
:102F000093421DD9032387F81C391FE11C4A32F86C
:102F1000130010B903464FF403600133B0F5C06FDE
:102F2000DBB26BD02ED9B0F5006F6DD040D9B0F5C3
:102F3000036F47D184F82539E3690F4F990648D4C8
:102F400094F8241994F82539002900F0FD8032689E
:102F5000521B012ADAD984F82539002384F8243950
:102F6000F4E000BF5D100020A0080020A0100020A9
:102F700008000020084E0108D0070020C02A0020C9
:102F8000E84D0108B0F5007F38D006D8B0F5807F55
:102F900068D0B0F5887F65D0D6E7B0F5806F74D083
:102FA000B0F5826F00F09080B0F5047FCCD11CE0CA
:102FB000B0F5E26F65D0B0F5E46F62D0B0F5E06FC8
:102FC000C2D15EE0B0F5046F5BD0B0F5026FBBD14B
:102FD000A5E097F820309A07B2D5798C24234B438B
:102FE0006421123393FBF1F1A8E084F825392369B9
:102FF000984F9B07A4D5BB8A0A219EE084F8253907
:10300000236913F4006F32E0E169924A8F0684F875
:10301000253995D592F82010880791D5D90710D574
:10302000D36A192283EAE371A1EBE37101EB510149
:10303000B1FBF2F1002BACBF41F0004141F0404147
:103040000DE0936A192283EAE371A1EBE37101EBCE
:103050005101B1FBF2F1002BB8BF41F080414FF4B8
:1030600000604BE084F82539E36913F0040F3FF466
:1030700067AF002105F0A8FD764B002283F82429D4
:103080005EE784F82539002138E084F8253994F882
:103090002639704A0133DBB2032B88BF012382F843
:1030A000263942F2107394F8261959436A4B1B785B
:1030B000DA0748BF01319F0748BF0231580748BFB0
:1030C00004314FF4806019E0E169DFF8888111F084
:1030D000200784F8253917D098F8202012F0020F25
:1030E00014BF4FF47A71002112F0010F14BF4FF496
:1030F000FA6300230B4494F82610194405F064FD8C
:10310000002384F824391BE7D8F8103019067FF51E
:1031100017AF394605F058FD88F8247910E784F890
:103120002539E3694B4F9A067FF50AAF97F82030AF
:103130009B077FF505AFBB8C6421594305F044FD27
:10314000002387F82439FBE684F8253994F82729E9
:10315000404B002A5CD03168D3F828298A1AC72A44
:1031600056D993F82C29C3F8281993F82D19013250
:1031700083F82C29394D93F82E2929B97AB92A7068
:10318000D3F83009232141E04AB92A783AB9D3F873
:103190003009582106F094FA01232B7038E02B787F
:1031A000B3B3B4F844390A25A4F83639B4F8403931
:1031B0000027A4F84839B4F842394420B3FBF5F3AA
:1031C00084F83479A4F84A3905F0ECFC0121B4F90B
:1031D000360905F0C9FC482005F0E4FC0121B4F9EA
:1031E000480905F0C1FC412005F0DCFC0121B4F9DF
:1031F0004A0905F0B9FC2A2005F0D4FC94F83409FA
:10320000394605F0B1FC2946D4F8300906F058FAE1
:1032100094F84C290F4B002A00F06A813168D3F8EA
:1032200050298A1A092A40F2638193F85429C3F875
:10323000501993F82D19013283F8542993F82E2947
:10324000074B09B972B903E062B91A7852B9012281
:103250001A704DE1D0070020382D00203A2D0020B3
:10326000392D00201B78002B00F0428194F855592D
:1032700005230135EDB2B5FBF3F303EB8303EB1A42
:1032800013F0FF0384F855591FD16F4601224FF008
:10329000030E8DF804208DF805208DF806208DF89A
:1032A0000720A44A00938DF808E003CF82F808E0D5
:1032B000106051600920322102F8013C09F020FB26
:1032C00009F007FB9C4BA3F856090A22B5FBF2F361
:1032D00002FB135313F0FF0F31D1642D2FD80023BD
:1032E00000930123ADF80430ADF8063002238DF8C9
:1032F0001830924B02AF03F1100E3A461868596825
:10330000083303C273451746F7D16F46894B0DF159
:10331000180E3A4603CA724518605960174603F101
:103320000803F6D11278DC211A70854B1622192079
:10333000DA7109F0E5FA09F0CCFAA4F856090F237E
:10334000B5FBF3F3C3EB0313ED1A15F0FF0540F0E3
:10335000CD80D4F83829642303FB02F1D4F83C294A
:103360004FF47A705343B4F94029ADF814504243F6
:10337000ADF816500492ADF81A508DF81C506A46FC
:103380006D4694F858794FF000094FF00008039308
:10339000684BCDE900890291ADF818008DF81D70D9
:1033A0000DF11809174603CF4F45186059603A468A
:1033B00003F10803F6D1386818211860BA88604F05
:1033C0009A801E20F97109F09BFA09F082FAA4F89C
:1033D000560905F0A5FBAE46D4F838296423D4F885
:1033E0003C1903FB02F0B4F9402959434FF47A73B6
:1033F0005A4300230093ADF81430ADF81630ADF801
:103400001830ADF81A30019002910392049207F13E
:103410000803724603CA4A4518605960964603F18C
:103420000803F6D110686821186021231C20FB7165
:1034300009F066FA09F04DFAA4F8560905F070FB98
:10344000D4F85C090AF0EEF91FFA80FAB4F94009E1
:1034500009F0CEFFAE463B4B4FF0000800930193BE
:103460000023ADF81230334B0290CDF80C80ADF84C
:1034700010A00DF1100C724603CA62451860596025
:10348000964603F10803F6D11068186014204A2309
:103490000146FB7109F034FA09F01BFAD4F86839D7
:1034A000D4F8642903932B46D4F8601900200292C3
:1034B000204A00900191CDF81080CDF81480CDF80D
:1034C00018801D4603CD4D45106051602B4602F11A
:1034D0000802F6D128681E23106027211C20FB71EA
:1034E00009F00EFA09F0F5F9A4F8560905F018FBF1
:1034F00094F86C29104B002A00F03A813168D3F817
:1035000070298A1AC72A40F2338193F87429C3F8C4
:10351000701993F82D19013283F8742993F82E2924
:10352000094B09B992B903E082B91A7872B901223C
:103530001A701DE1DB2A0020D0070020254E01086B
:10354000D32A0020000020413C2D00201B78002BB6
:1035500000F00E816B46884D00276968286884F862
:10356000757903C3684605F0E1F905F0CBF905F07C
:1035700019FA05F0C7F905F071FA05F0C3F905F07D
:1035800023FA05F0BFF9312005F0AEF905F0BAF9DC
:10359000B4F8582905F10801684607F0B1F9684602
:1035A00005F0C4F905F0AEF9D4F8786930460AF0B0
:1035B0005FF972495FFA80F8304609F06DFF064600
:1035C0000A2000FB08F009F013FF0146304609F01D
:1035D00059FE0AF04DF905F10E01C3B242466846A4
:1035E00007F08EF9684605F0A1F905F08BF905F0B2
:1035F0007FFA05F087F905F07BFA05F083F905F00D
:1036000081F905F0A9F905F051F92A466B4652F8FF
:10361000180F84F87579516803C3684605F086F978
:1036200005F070F905F0BEF905F06CF9412005F0E0
:103630005BF905F067F905F011FA05F063F905F09B
:10364000C3F905F05FF9D4F87C090AF011F905F126
:10365000200182B23B46684607F052F9684605F001
:1036600065F905F04FF9D4F85C090AF001F93B4619
:1036700082B205F12001684607F042F9684605F07C
:1036800055F905F03FF905F12A01D4F8802968467B
:1036900007F036F9684605F049F905F033F905F108
:1036A00020013A463B46684607F02AF9684605F08D
:1036B0003DF905F027F9452005F016F905F04CF91C
:1036C00005F0F4F854E0BB782BB1C5F8A06087F89A
:1036D0000280FEF7BCBDD5F8A030F31AB3F57A6FBF
:1036E000FEF4B5AD0123D5F8A400BB7005F0E2FFF0
:1036F0000746D5F8A40005F0DDFF7F067EF4A7ADF0
:103700008A2803D08E280DD0FEF7A1BDEB6998065C
:103710007EF59DAD95F89E30002B7EF498AD05F1B9
:103720006D0306E095F89E30002B7EF490AD05F118
:103730003803C5F8A8302D2385F8AC30FEF787BDD7
:1037400008F0AEF8B5F8F40102F042FD95F8F60184
:1037500008F0A6F895F8F70108F0A2F895F8F90135
:1037600008F09EF895F8F80108F09AF8FFF734BBD6
:1037700020B0BDE8F08700BFD43D01080000204123
:103780009148F0B50368914A9C8AA4B2E1B211F065
:10379000010F2ED0198821F400610904090C198049
:1037A000198889B241F48061198000211170517823
:1037B00099B1917811B9D178FF290ED10121917079
:1037C0001179022901BF198889B241F40061198079
:1037D000517941F001011982E1E0517901F0FE01D6
:1037E0001982D378FF2B00F0DA80784BFF21197013
:1037F000D5E08E073AD5BFF35F8F1479E4B2012C80
:1038000013D1517889B1917879B1198821F4806107
:103810000904090C1980BFF35F8F198B1988947103
:1038200089B241F4007119801BE0198BBFF35F8FDF
:1038300014796649022C0AD14C7844B1897831B1A7
:10384000198821F480610904090C1980A1E0147918
:103850005E49032C05D14C781CB18978002940F0D1
:103860009880998889B241F4806197E04D0756D5D8
:10387000012191715178002937D09178002934D0F5
:1038800011791C88022911781DD924F4806424043C
:10389000240C1C801E8A9568CCB2F6B249B26E54D4
:1038A000198889B241F4007119800168A31C137052
:1038B0000B8A0134DBB264B22B558B889BB243F484
:1038C00080638B8026E0A4B244F400741C801D8ABF
:1038D0009668CCB2EDB249B275541B8A611C49B2EC
:1038E000DBB203347354147014E09178374C09B987
:1038F000217B41B1198889B241F400711980137894
:103900000133137006E0198889B241F4807119807F
:103910000123A37001680B88DB05FCD43FE001F0B4
:10392000400101F0FF05E1B114781F8A9668E5B205
:10393000691C64B2FFB23755C9B21679117049B229
:10394000CC1CA64201BF9C8824F480642404240C6F
:1039500008BF9C8013798B4221D11C4B02351D700E
:103960001DE027061BD511784CB2661C0AD01569DC
:1039700001312C5DC9B21C821479117049B28C429C
:103980000DD106E0D17815701982517809B91179F5
:1039900029B9998821F480610904090C9980137967
:1039A00092F9004001339C4208490CD100238B70EE
:1039B0008B7933B101688B8823F440731B041B0C93
:1039C0008B8000231375F0BD042A0020EC11002029
:1039D0002DE9F04F87B06C4C02916C4922888E69BA
:1039E0000546C2EB26135B435200C2EBE602B4F974
:1039F00002601B135643B4F90420B4F90A00534380
:103A00009B1303EBE62606EB860380331B12B6F509
:103A1000FA384FEAE6770493CB6947F1FF39A8FB00
:103A200008AB039308FB09F3B4F908200BEB430B35
:103A3000E389A6610593D31708FB03F102FB091183
:103A4000A8FB02230B44C1171F030AFB01F300FB71
:103A50000B33AAFB00011603194447EA1257020A66
:103A600042EA016292194FEA2123E6887B41003243
:103A7000A2FB060143F5004306FB03114B10009324
:103A8000CB170193DDE900231343B4F810E0B4F839
:103A90000CC06DD00FFA8EF0C1170AFB01F1AAFB22
:103AA000002300FB0B11BDF914600B44F71708FB52
:103AB00007F106FB0911A8FB06670F44790470049F
:103AC000801841EAD6315941039B0FFA8CF8C3F5AF
:103AD000801E7246D317002212184FEACE764FEAA4
:103AE000C3774FEAC8034B4147EA5E07B61A67EB54
:103AF000030740F63543A6FB030103FB0711DDE98D
:103B0000002309F0D5FEB4F916204E1302FB06FE81
:103B1000470B47EAC147D31707FB03EEA2FB072376
:103B20005643734407FB0366A2FB07233344560E38
:103B300046EAC3168219B4F914604FEA636741EB91
:103B400007037143F71700FB0717A6FB0001394471
:103B5000C60C46EA413692194FEAE1474FEA122174
:103B6000B4F912207B4141EA036113010B4400E0E8
:103B700000230DB11B0A2B60029B13B11A46049B54
:103B8000136007B0BDE8F08F08150020EC1100208D
:103B9000704770476B4B6C4A2DE9F04F5E89146A91
:103BA0004FEA062AB4EB0A0A9C884FF000054FEA58
:103BB00004481C894FF0000BA4FB0A6765EB0B0B54
:103BC00004FB0B77F40944EA476418EB04065C88AD
:103BD0004FF000094FEAE7154FEAC438DC8849EB9B
:103BE000050787B0CDE90467A4FB0A6704FB0B77E0
:103BF000340A44EA076418EB04064FEA27259C8937
:103C00004FF0000949EB0507CDE90067AAFB0467FF
:103C100004FB0B77F40D44EA472414F5FA664FEAE7
:103C2000E75545F10007B6F5FA6F77F10003CDE9E6
:103C30000267964666DADDE90489A4FB046704FBA3
:103C400005F34FF0050C07EB4307A6FB0C230CFB19
:103C500007335F104FEA3206B8EB06084FEA9206C8
:103C600046EA837669EB07099F10DDE90023921B82
:103C700063EB0703CDE90023DDE90267334A4FF028
:103C8000FF33964277EB0303CDE9048927DA40F648
:103C9000AC520023A4185D4104FB05F3A4FB0445CA
:103CA0006FF0060205EB4305664202FB0566A4FBC6
:103CB0000223334418EB020649EB0307CDE90467FE
:103CC0000B26A4FB062306FB0533DDE900455B104C
:103CD0004FEA3202A41A65EB0305CDE90045DDE9A0
:103CE00002450AFB0BF3AAFB0AAB0BEB430B4FEAB3
:103CF000DA7242EA4B02A41A4FEAEB7365EB030552
:103D0000CDE90245DEF82440009B019DA4FB03237E
:103D100004FB05334FEA525848EAC3284FEA635977
:103D2000DDE90423B8EB020269EB03039946D30BE8
:103D300043EA494300B1036009B1029B0B6007B03D
:103D4000BDE8F08F9C140020EC11002024FAFFFF46
:103D50002DE9F041324C334D62892B8DB4F904804A
:103D60009A1A2389B4F902E05A43B4F91230D613EF
:103D7000B4F91420DB02324493FBF2F232440A26F7
:103D8000E2615643A2F57A6202FB02F3B4F90EC077
:103D900002FB0EFE02FB08F2B4F90C801B130CFBB5
:103DA00003FC03FB08F31B1403EB62320232E388CB
:103DB000921002F5004253434CF25032B4F9207095
:103DC0004FEAEE2EB4F900400EEBEC2C0CEB840421
:103DD000BC40ED6A0234A5EBA4043A4162434FEAC9
:103DE000D3384EBFB2FBF8F35400B4FBF8F340F6FF
:103DF000DE3448BF5B001A12524362430A4C083655
:103E00005C43241404EB224202F6CF62361103EB2A
:103E1000221300B1036001B10E60BDE8F08100BF64
:103E2000B0140020EC11002043E3FFFF13B50C4B4E
:103E300004465B681B20022101AA984770B19DF8D7
:103E400004209DF8053043EA022303F54E53103356
:103E50004FF48C7293FBF2F32333238002B010BD36
:103E60008814002037B5104B04465D681878062189
:103E70006A46A847A8B19DF800209DF801300120AE
:103E800043EA022323809DF802209DF8033043EA91
:103E9000022363809DF804209DF8053043EA022345
:103EA000A38003B030BD00BF8814002013B5104BB1
:103EB00004465B683B2006216A469847A8B19DF8F6
:103EC00000209DF80130012043EA022323809DF861
:103ED00002209DF8033043EA022363809DF804200A
:103EE0009DF8053043EA0223A38002B010BD00BF55
:103EF00088140020B0F5807F0ED0BB280ED8612832
:103F00000ED829280ED813280ED809280ED8002834
:103F100014BF062000207047002070470120704722
:103F20000220704703207047042070470520704727
:103F300010B5224C2368998A89B211F4706F1EBFA4
:103F40001F4A012082F8300011F4E06F2BD01A8B49
:103F50009A88890522F480624FEA02424FEA1242AF
:103F60009A8020D41A8892051DD41A88D0050FD5BE
:103F70001A88D105FCD41A8892B242F400721A80D1
:103F80001A889205FCD40F4B187807F0C6FA0AE09D
:103F90001A8892B242F400721A809A8822F440720F
:103FA0001204120C9A802268938A23F470631B0413
:103FB0001B0C9382024B00221A7510BD042A0020AC
:103FC000EC110020082A0020054A08B513880133A7
:103FD0009BB21380034B187807F09FFA002008BDAE
:103FE000EA0F0020082A002008B54FF4804001F0B5
:103FF0008DFF012801BF044B4FF480425A61034BEF
:1040000008BF83F8310008BD00040140EC11002016
:1040100010B5054C2368186901F078FF18B12368C2
:104020001A69024B5A6110BD94140020000401402B
:10403000F8B50E461746084C4FF48055656140F0C0
:10404000800008F02DFB38460021324608F0F2FAD5
:1040500025610120F8BD00BF000C014070B50E467F
:10406000054C4FF48055656108F01AFB304608F0A6
:1040700017FB2561012070BD000C014070B5FFF7F2
:1040800039FF104C0546192005F0FBF9A3681520EF
:104090000021984710B9022005F052FA45F01801A6
:1040A000A368C9B216209847A36800211720984733
:1040B000A36801213D209847A3683E200121BDE867
:1040C0007040184788140020F0B5284D85B095F849
:1040D0003230002B47D1264C2368002B43D01A687E
:1040E000244E12B1B1690A43B2619A889868ADF85A
:1040F000002002228DF80320694604228DF8022058
:1041000006F0DFFFB369002743F00103B3612368C2
:104110000126187B197D06F0BFFF2368164993F925
:10412000150005F057FA2368144A1B69536102937E
:1041300008230DEB03008DF80D308DF80C708DF811
:104140000E6001F0B3FE236801A85B7D8DF8067058
:104150008DF8043003238DF805308DF8076008F0E2
:104160004BFA85F8326005B0F0BD00BFEC110020BD
:104170009414002000100240114000080004014087
:1041800037B50446FFF7A0FF254B1A68254B9A4226
:104190000ED14FF40053ADF8043002238DF80730F0
:1041A000042321480DEB03018DF8063006F089FF4A
:1041B0002046FFF79FFE05461C4C8021A3686B201C
:1041C0009847642005F05DF9A368072168209847A7
:1041D000642005F056F9A36800216B2098476420FD
:1041E00005F04FF9A36801216B209847A3681821B7
:1041F0001B209847A36810211C209847A3682946D4
:104200001A209847A368002119209847A368122113
:1042100037209847A36801213820984703B030BD64
:104220001C000020001BB700001001408814002073
:1042300008B5FFF749FF024B4FF480521A8008BDC2
:104240000800002070B50446FFF73EFF2046FFF748
:1042500051FE0546144C8021A3686B2098476420CA
:1042600005F00FF9A368002119209847A3680321DE
:104270006B2098470F2005F004F9A36829461A20FF
:104280009847A36818211B209847A36810211C2079
:104290009847A368022137209847A3683820012156
:1042A000BDE87040184700BF8814002008B5FFF72C
:1042B0000BFF074B5B7813B1012B03D008BD4FF404
:1042C000006201E04FF48052024B1A8008BD00BF2B
:1042D000841400200800002010B51E4C4000C0B21D
:1042E000A36023611C4B6071E170012000212173E8
:1042F000607022712075186884F8301040B383888C
:104300009B0515D40388D9050DD447F23053028894
:10431000920502D5013BFAD112E08BB103889BB222
:1043200043F48073038083889BB243F4407383809B
:1043300047F23053227D12B1013BFBD100E013B9AB
:10434000BDE8104040E6034B93F8300080F00100D8
:1043500010BD00BFEC110020042A002007B5F72192
:104360006B4606227620FFF7B7FF9DF800309DF8D8
:1043700001101B0343EA01139DF80210094A43EAA6
:104380001113D3619DF803309DF804101B0343EA19
:1043900001139DF8051043EA1113936103B05DF812
:1043A00004FB00BFEC11002007B5002101AB032284
:1043B0007720FFF791FF9DF805309DF804001B0260
:1043C00043EA00439DF80600184303B05DF804FB80
:1043D00008B5FFF7E9FF014B586208BDEC1100205A
:1043E00008B5FFF7E1FF014B186208BDEC11002092
:1043F000104B13B51B78104C13B194F83130B3B196
:10440000032201AB7720F621FFF766FF9DF8053008
:104410009DF804201B0243EA02439DF80620134343
:10442000064AB2F92020C2F10802D340E36202B08A
:1044300010BD00BF24000020EC110020B0140020AB
:104440000B4B13B51B780B4C13B194F8313063B19F
:10445000022201AB7720F621FFF73EFF9DF80420F2
:104460009DF8053043EA0223238502B010BD00BF4A
:1044700024000020EC11002030B505460C46134600
:1044800029462246BDE83040682025E713B50622BC
:10449000044601211C206B46FFF71EFF08B39DF860
:1044A00001309DF80020042143EA022242F38D02EC
:1044B00092FBF1F29DF8023022809DF8032042EA3F
:1044C000032242F38D0292FBF1F29DF804306280E8
:1044D0009DF8052042EA032343F38D0393FBF1F398
:1044E000A38002B010BD13B5062204460221182095
:1044F0006B46FFF7F1FEB8B19DF800309DF8012042
:104500009B0803EB022323809DF802309DF80320D3
:104510009B0803EB022363809DF804309DF805207F
:104520009B0803EB0223A38002B010BD314B2DE9A1
:10453000F3411B780546002B3CD000242646274635
:10454000A04601345320322108226B46E4B2FFF723
:10455000C3FE08B900204AE09DF801209DF8003014
:10456000202C03EB02231BB29DF8032098449DF8F6
:10457000023003EB02231BB21F449DF805209DF877
:10458000043003EB02231BB21E449DF8073003F0F6
:104590007F0301D0002BD4D198FBF4F897FBF4F7FC
:1045A00096FBF4F6144BA5F800806F80AE8083F87C
:1045B00033401CE05320322106226B46FFF78CFE6D
:1045C0000028C7D09DF801209DF8003003EB02239E
:1045D0002B809DF803209DF8023003EB02236B80B3
:1045E0009DF805209DF8043003EB0223AB8002B058
:1045F000BDE8F0819A140020EC11002013B5204B87
:10460000400002ACC0B2587104F8012DD9700122EB
:1046100000211A7359701A711A751A4A1C611068B0
:104620009C6083F8301040B38288920515D40288CC
:10463000D4050DD447F230520188890502D5013ADC
:10464000FAD112E08AB1028892B242F480720280FA
:10465000828892B242F44072828047F23052197DD1
:1046600011B1013AFBD100E012B9FFF7ADFC04E053
:10467000034B93F8300080F0010002B010BD00BF82
:10468000EC110020042A00207620F4213122B5E725
:10469000772048210122B1E7772058210122ADE798
:1046A000064B002193F82020054B9201343283F809
:1046B00031107720F42102F0FC029FE7B0140020B3
:1046C000EC110020034B002283F831207720F421E5
:1046D0002E2293E7EC11002003460A466820194673
:1046E0008CE713B500222A211C20FFF787FF0E213B
:1046F00002221C20FFF782FF0F2103221C20FFF75C
:104700007DFF2B2112221C20FFF778FF164A02247E
:104710009369164843F0040393612023ADF80430F5
:1047200004230DEB03018DF806308DF8074006F0E9
:10473000C8FC22462C211C20FFF760FF2D210122FE
:104740001C20FFF75BFF2E2100221C20FFF756FFE5
:104750002A2105221C20FFF751FF054B4FF48072E0
:104760001A8002B010BD00BF0010024000080140D6
:104770000800002008B50F2108221820FFF73EFF8F
:104780000E2218201021FFF739FF024B4FF4805200
:104790001A8008BD0800002008B5134B53201B7871
:1047A0002D2108227BB1FFF729FF31210A22532056
:1047B000FFF724FF2C210C225320FFF71FFF53206B
:1047C0003821902209E0FFF719FF31210A225320F6
:1047D000FFF714FF53202C210A22FFF70FFF40F2AE
:1047E0000912024B1A8008BD9A140020080000200C
:1047F000FEF7C6BFFFF79CBBFEF7C2BFFFF798BB33
:1048000010B50A4C5E280146206805D15D2104F0F0
:1048100057FF20683E2105E05D2903D104F050FFD9
:1048200020683D21BDE8104004F04ABF8804002004
:1048300008B508480BF0E3FCC0B209280246054B56
:1048400004DC01302021C0B29954F6E700221A544A
:1048500008BD00BF2C12002008B507480BF0CFFCA4
:10486000C0B21428044B04D8421C20211954D0B2E1
:10487000F7E700221A5408BD2C1200200028114A24
:10488000B8BF404290FBF2F330B50F4C3C2504FB1F
:10489000030068430D4D90FBF2F22D682D7B25B986
:1048A00003EB830303EB830301E0C3EB031302EB8E
:1048B000830304FB02020B804FF47A7392FBF3F242
:1048C0004A8030BD80969800806967FFE807002025
:1048D00010B50446C0B2FFF793FFC4F30720BDE84C
:1048E00010408DE7024B5E21186804F0E9BE00BF5E
:1048F0008804002038B50546054C5E21206804F088
:10490000DFFE20682946BDE8384004F0D9BE00BF6C
:1049100088040020022803D0431E584258417047A3
:10492000064B1B681B7823B1054B1868C0F3C040C9
:104930007047044B1878C0F3800070474004002093
:10494000DC110020382D0020024AD37843F0010307
:10495000D3707047C8270020044AD378507023F0E2
:10496000010343F00203D370704700BFC827002043
:10497000F8B5354B1A781F46013A062A1AD8DFE8EF
:1049800002F004131916070B0F0005242F4E11E037
:10499000042503242E4E0DE0042508242D4E09E0A5
:1049A00004250A242C4E05E00125032401E00325FB
:1049B0002C462A4E002006F08FFD3B78012B08D9AB
:1049C000224B013D264953F82520264805F098FF43
:1049D00003E02448244905F093FF224806F0F8FC40
:1049E000012006F079FD21491E4805F089FF1D4888
:1049F00006F0EEFC022006F06FFD042C94BF274663
:104A000005270025E81CC0B206F066FD184B3DB92D
:104A10001A78144892FBF4F3164904FB132307E0B9
:104A20001B7810482B4493FBF4F204FB1233124919
:104A300056F8232005F064FF01350A4806F0C8FC4B
:104A4000EBB2BB42DED3F8BD522A00201C3E010867
:104A5000303E01083C3E01085C3E0108843E0108EE
:104A60001A4F01082C120020254F0108364F01086B
:104A7000502A00204A4F0108514F01082DE9F74301
:104A800004F0D8FCA64EB369C31A002BC0F28F8382
:104A900000F5433303F5A073B361A24B317F1B785C
:104AA000C3F38003591A18BF012133774BB1002992
:104AB00000F07D839C4B5A789A7001225A701A70CC
:104AC0002BE0994A29B1D37843F00203D37093784D
:104AD0005370D47804F0020101F0FF0339B9924910
:104AE0008968411A002903DB04F0010300E0012377
:104AF00003F001058C4915707BB1E4070DD50A79E7
:104B000003230132D2B2B2FBF3F303EB4303D31A14
:104B1000864ADBB20B71D35C4B70834D844F2B788C
:104B2000002B44D0EB7823F00203EB70814B03445D
:104B3000AE20AB6006F05CFC08B106F05EFC38709D
:104B4000002800F03483B02006F052FC402006F02C
:104B50004FFC002006F04CFC102006F049FC4FF4FE
:104B60008064013C0020A4B206F03DFC002CF8D18A
:104B7000204606F0B1FC6A78032A0FD16E4BB3F9D8
:104B8000003043FA04F2D10704D56C4B03EB8404E4
:104B9000606F0AE001340A2CF3D108E0072A06D03E
:104BA000664B03EB8203D3F8980006F011FC3B78C8
:104BB000002B00F0FC826B78614C072B00F2E28244
:104BC000DFE813F00800E0025100D4009202A500D3
:104BD000A002DE025B495C4A5C4B514805F090FE46
:104BE000012006F079FC4E4806F0F2FB022006F0A8
:104BF00073FC574806F0ECFB032006F06DFC042024
:104C000006F06AFC052006F067FC572006F0E9FB79
:104C1000572006F0E6FB572006F0E3FB2E2006F0B7
:104C2000E0FB552006F0DDFB332006F0DAFB3620F2
:104C300006F0D7FB302006F0D4FB472006F0D1FB6E
:104C4000542006F0CEFB532006F0CBFB2E2006F0BE
:104C5000C8FB432006F0C5FB4F2006F0C2FB4D20E9
:104C600006F0BFFB8EE23B4F3B689A0754D5DFF856
:104C7000F4800A23B8F80010DFF8EC90B1FBF3F2EF
:104C800003FB121399F8001092B29BB200912448D2
:104C9000314905F035FEFFF7DFFD012006F01CFC71
:104CA0001F4806F095FB2D4B99F800201868B8F8BE
:104CB0000030057902FB153164234B43C178022093
:104CC0004D1B5543B3FBF5F5EDB206F005FC284648
:104CD00007F0D6FD3B681B0540F15482002200928C
:104CE0001F4913460E4805F00BFEFFF7B5FD0320E4
:104CF00006F0F2FB0A4806F06BFB01F089F9054665
:104D0000042006F0E9FB284607F0BAFD3AE2114B11
:104D10001B68180600F1DC80EB7843F00203D5E055
:104D20002C120020382D0020C8270020174F010822
:104D3000B9030020404B4C00C00300201C3E01087A
:104D400010500108584F0108614F01081D4E01081D
:104D5000674F0108E00700206C4F0108DC070020C6
:104D6000844F0108E407002038000020012006F0ED
:104D7000B3FBB84BB84F1A88994612F0040F52D1C2
:104D8000B64BB749B3F90020B64805F0B9FDFFF7B7
:104D900063FD022006F0A0FBB24806F019FBDFF825
:104DA00044833968AF4891FBF8F30029B4BF4FF052
:104DB000FF32012283EAE37EAEEBE37E08FB1313AE
:104DC000002BB8BF5B420EFB02F2A74905F098FD2D
:104DD000FFF742FD032006F07FFBA24806F0F8FA39
:104DE0007B68A04893FBF8F181EAE17E08FB113370
:104DF000AEEBE17E39684FF005080029B4BF4FF0F3
:104E0000FF320122002B99490EFB02F2B8BF5B4230
:104E100005F076FDFFF720FD042006F05DFB9148CC
:104E200006F0D6FA01E04FF00208B7F90820BB8976
:104E30008F498C4805F064FDFFF70EFD404606F0F3
:104E40004BFB884806F0C4FA8A4B7F895A890A23AB
:104E5000B2FBF3F28849B7FBF3F3824805F050FD4B
:104E6000FFF7FAFC08F1010006F036FB7D4806F07A
:104E7000AFFAB9F800305F071FD4804B1A78804B27
:104E800022B11A783AB177487E490BE01A7812B10C
:104E900074487D4906E01B7813B17C4B1B781BB12D
:104EA00070487B4905F02CFDFFF7D6FC08F10200A5
:104EB00006F012FB6B4806F08BFA764B1B6813F07A
:104EC000820F40F05F81EB7823F00103EB7059E132
:104ED000604B1B8859073FF51FAF6F4B316A1B684A
:104EE000604A8B421CBF136292F824304FF00101DC
:104EF0001CBF013303F003034FF0000018BF82F81A
:104F0000243006F0F5FA96F824300025E05C06F02F
:104F100068FA0220012106F0EBFA604B3620EB5CC8
:104F20000135C3EBC30393FBF0F0C0B2062828BFE2
:104F300006206038C0B206F054FA102DEDD1584B5F
:104F400058491B78474813F0020F574B1A7814BF83
:104F500059234E2305F0D4FCFFF77EFC022006F017
:104F6000BBFA404806F034FA5049514B4D680A6884
:104F70003C4892FBF3F24F4995FBF3F305F0C0FC7C
:104F8000FFF76AFC032006F0A7FA364806F020FA7D
:104F9000494B4A491A88334805F0B2FCFFF748FCF0
:104FA000042006F099FA2F4806F012FA444B4549BE
:104FB0001A882C4805F0A4FCFFF73AFC04210A20CB
:104FC00006F096FA274806F003FA3F4B3F491A6865
:104FD000244805F095FC3E4DFFF72AFC052006F01D
:104FE0007BFA204806F0F4F96A68AB6839491D4835
:104FF00005F086FCFFF71CFC05210A2006F078FA74
:10500000184806F0E5F92B69EA683349D21A1548C1
:1050100005F076FCFFF70CFC062006F05DFA11485F
:1050200006F0D6F9AA682D490E4805F069FCFFF78D
:10503000FFFB06210A2006F05BFA0A4806F0C8F9D1
:105040002749152207480BF005F9FFF7F1FB072068
:1050500090E000BF702700200811002028110020D8
:10506000994F01082C120020A44F0108B34F0108EA
:10507000C24F0108A42A0020D34F01085D0500207B
:10508000FD100020E04F0108EF4F01085C2A0020CE
:1050900003500108E0070020A80500208D10002023
:1050A000F007002015500108F6070020F80700203F
:1050B0008096980026500108F2070020335001081E
:1050C000501000203B500108C40500204250010848
:1050D0006C05002049500108525001085950010840
:1050E000AD050020A0860100324B1B889A077FF592
:1050F00013AE012006F0F0F92F48304905F000FC0E
:10510000022037E0012006F0E7F92D4B2D495A899E
:105110004D890A23B2FBF3F22B49B5FBF3F3264882
:1051200005F0EEFB022006F0D7F9234806F050F90F
:10513000264B27491A88204805F0E2FB032006F099
:10514000CBF91D4806F044F9042006F0C5F9214BBF
:1051500021491A88184805F0D3FB052006F0BCF950
:10516000154806F035F91D4B13481D491A8805F0FE
:10517000C7FB062006F0B0F90F4806F029F901E058
:10518000FFF7F6FB1420002106F0B2F996F825503F
:10519000605D06F026F9134B1B781BB9054B1B8885
:1051A0009B0704D5013505F0030586F8255003B0AB
:1051B000BDE8F083702700202C1200206150010808
:1051C000A42A002008110020D34F0108B42A00208F
:1051D00075500108A02A00207D500108B82A00203F
:1051E0008D500108460500200449054B096800223E
:1051F00018705A6199611A77704700BFC02A002061
:105200006C050020F8B5101A0D461F4608F0F0F89E
:105210000446781B08F0ECF8174B079E196808F055
:105220003BF921460546204608F036F9294607464F
:10523000284608F031F90146384608F025F80CF008
:1052400025FC0E4908F028F908F012FB069B2946B8
:10525000186004F100400CF017FC094908F01CF933
:10526000084908F011F808F0DDFA0028BCBF00F585
:105270000C40A0303060F8BD040000202C7D8E3F33
:10528000A00CB34500A00C4670B50446407908F068
:10529000ABF81E4908F0B4F91D4D1E4E2860E07BA6
:1052A00008F0A2F8194908F0ABF9EE606860A0793F
:1052B00008F09AF8184908F0A3F9184D2860207CE6
:1052C00008F092F8114908F09BF96860A07E08F098
:1052D0008BF8134908F094F9EE60A860E07908F0C3
:1052E00083F80D4908F08CF90E4D2860607C08F0B9
:1052F0007BF8064908F084F96860E07E08F074F8ED
:10530000074908F07DF9EE60A86070BD0000C84252
:10531000BC0700200000FA4400002041AC07002038
:1053200000007A449C0700202DE9F04F5349544F68
:105330000A783B7889B09342884600F09B805149B7
:105340009A4203EB01000490059107D3D31A069308
:1053500000230793069B079D1D4453E0C3F1800380
:1053600006930792F6E7DFF82CA1DAF80030DCB2FA
:105370002A19B2F5807F444A88BFC4F58074D26888
:1053800098BF2C46934271D20222404E8DF80C20D9
:105390001A0C4FF480598DF80D201A0A8DF80E2042
:1053A0008DF80F3007F0DAF9C6F81490062007F0F0
:1053B00077F9374B0122C6F8109000201A7003A924
:1053C000C6F81490042207F035F9069EEEB1A64205
:1053D0002BD2DDF810B032460020594607F02AF9EA
:1053E000C6EB040900235E4404960693079E76B933
:1053F000264B4FF480521A61DAF800302D1B1C4402
:10540000CAF80040002DAED130E0A146EEE74E458F
:1054100010D2DDF8149032460020494607F00AF910
:105420004E44002305960793E2E7A1460DF1180BC1
:10543000002302E00DF11C0B04230DF1100C5CF8AD
:105440000360002031464A460193CDF800C007F0C2
:10545000F1F8019BDDF800C04E444CF80360DBF826
:105460000030C9EB0303CBF80030C1E7002388F814
:1054700000303B7009B0BDE8F08F00BFDD100020A8
:10548000DC100020541100200C000020000C014012
:1054900094040020E01000200148024902F010BAF4
:1054A00000080040D80100200148024902F008BA73
:1054B00000040040B0010020084BDA68D10709D48D
:1054C000DA68520708D4DB6813F0100F14BF03200A
:1054D00004207047012070470220704700200240DE
:1054E00044F6FB71084B1A68137803EB431300FB77
:1054F00003135078C0EB0030B3FBF0F39078B3FBAC
:10550000F0F080B2704700BFDC07002003788B42C8
:1055100086BF024B33F8110000207047581200205C
:105520000022134670B5234914180C44247E83EAE4
:105530000423082413F4004F4FEA430318BF83F4F5
:10554000815304F1FF3418BF83F0010314F0FF040A
:105550009BB2EFD10132192AE5D100F1190200F115
:105560001A050A440D44167E2A7E02EB062292B2E8
:105570009A421ED10F4B93F83950E2B2AA4215D28B
:10558000431C03EB4203DBB2CA1801330B44127E07
:105590001B7E03EB02239BB24FF4AF6253431B13FA
:1055A00003F5487321F814300134E6E7012381F84C
:1055B0003A3070BD58120020007888428CBF4FF4FA
:1055C000777000207047002070470020704708B5B2
:1055D000074B03EB8101C86B07F006FF054907F095
:1055E0005BFF054907F050FE08F042F980B208BDA4
:1055F000581200200000203F00005C44002070474B
:10560000024B03EB4101B1F88400704758120020AF
:10561000024B03EB4101B1F884007047581200209F
:10562000002070472DE9F84F7D4C94F89D3004EB35
:105630004303B3F8AC60B4F9BA30B6B20A2B1CBF5E
:10564000002384F8B83094F8B870A4F8B460744BB0
:10565000002F6AD1734A03F1B805C3F8BC20C3F820
:10566000C4204FF07E52C3F8C8206F4AA946C3F841
:10567000CC206E4A6E49C3F8D02040F2DC52C3F809
:105680000C211022A3F80A211822C3F8C010A3F895
:10569000082109EB07084FF09741D8F8100007F0F0
:1056A000FBFE0021824608F095F828B150464FF0E5
:1056B0007C5107F0E7FD04E050464FF07C5107F0C5
:1056C000E3FD08F011F9C5E90E01D8F804004FF028
:1056D000974107F0E1FE0021804608F07BF828B1F1
:1056E00040464FF07C5107F0CDFD04E040464FF0BE
:1056F0007C5107F0C9FD08F0F7F804370C2FC5E915
:10570000080105F10805C4D10A23A4F8BA30A6F2AD
:10571000DC531B04C4F82831C4F83431C4F82C31EC
:10572000C4F83831012384F8B830D4F80C81B4F9C6
:105730000A51C8EB0606D4F8DC30AE407343D4F807
:10574000D8704FEAE67BD4F828E107FB0B33C4F8A6
:105750002861A7FB0667D4F834211F44D4F8FC3035
:10576000D4F8F89053434FEAE27BD4F8380109FBB0
:105770000B3CC4F83821A9FB0223B61A634467EB3B
:105780000307D4F8E430D4F8E0200EFB03F34FEA2B
:10579000EE7B02FB0B3CA2FB0E23921963447B4180
:1057A000244FD4F800617F684FEAE07B00FB07FCE0
:1057B00006FB0BCCA6FB0067D4F82C11921BD4F887
:1057C000EC60C4F83C0101FB06F6D4F8E8004FEAAF
:1057D000E17BC4F8301100FB0B66A0FB01016744BC
:1057E00063EB070331448018C4F82CE15941B4F944
:1057F000082107F0D3F86A1E01239340C4F834014E
:10580000C01841EBE3712A4607F0C8F810EB080016
:1058100080B2FFF765FE084B1880BDE8F88F00BF27
:105820005812002056157D396350FABF0CE0743FC2
:105830005615FD3958130020E407002070B50546C1
:1058400003F0F8FD314CD4F84031C4F84001C31ADC
:10585000B3F5FA5FC4F8443182BF002384F84831BD
:1058600084F8493194F848312BB9A12D02BF274A59
:10587000012182F8491194F84911244A29B1D1181B
:10588000EDB201330D7682F8483194F8485194F81E
:105890004A31AB4239D11D4B93F84B31052B02D025
:1058A000062B03D02CE00020FFF73AFE637E1E2B70
:1058B00026D100200246C1B26B1E994219DA21445A
:1058C0000B7E0821DBB283EA0206F60744BF83F0B1
:1058D0001803C3F3460301F1FF3154BF5B0843F0E3
:1058E000800311F0FF01C2F34702ECD101301A46E8
:1058F000E1E723441B7E9A4202D10320FFF710FE0A
:10590000002384F8493184F8483170BD58120020D2
:1059100010B5044603F08EFD41F288310E4BE4B21F
:10592000D3F84C21C3F84C01821A8A42C3F85021A3
:1059300084BF002283F8542193F8542106490F2A8A
:10594000134418BF013283F8554112BF81F8542126
:10595000012381F8653110BD5812002010B50446AE
:1059600003F068FD41F288310E4BD3F86821C3F88B
:105970006801821A8A42C3F86C2184BF002283F82E
:10598000702193F870210749142A134418BF01327B
:1059900083F8714112BF81F87021012381F88631AB
:1059A00010BD00BF5812002038B5044603F042FD78
:1059B000274A2749D2F88831C2F88801C31AB3F5BB
:1059C0007A6F84BF002382F88C3192F88C3133B91E
:1059D000A82C3BD181F88D31A1F88E3106E0022B45
:1059E00002D181F8904101E0242B02D8D11881F82E
:1059F000914192F8901101330231DBB249008B42A0
:105A0000134D82F88C3118DAB5F88E31E0B283EAA2
:105A10000020082310F4004F4FEA400018BF80F424
:105A2000815003F1FF3318BF80F0010013F0FF0332
:105A300080B2EFD1A2F88E0138BD01318B4201BF97
:105A4000002385F88C31012385F88D3138BD00BFE6
:105A50005812002010B5044603F0ECFC40F6AC519F
:105A60000F4AD2F8B831C31A8B42C4BF002382F860
:105A7000BC3192F8BC31D11881F8BD4123B90F2C4B
:105A80000DD10749C1F8B8010133DBB2192B044924
:105A900082F8BC310CBF0123002381F8D63110BD40
:105AA000581200208A6810B50C6A036814430A690A
:105AB00023F4FF4314434A6923F0700314438A69B3
:105AC0001443CA6914434A6A14438A6A224313433B
:105AD0000360CB6843600B6883604B68C36010BD94
