:020000040800F2
:100000000050002059F00008F9F00008F9F000084D
:10001000F9F00008F9F00008F9F00008000000000D
:10002000000000000000000000000000F9F00008DF
:10003000F9F0000800000000F9F00008977C0008C3
:10004000F9F00008F9F00008F9F00008F9F00008EC
:10005000F9F00008F9F000087D8300087B830008B0
:10006000F9F00008A57C0008F9F00008F9F0000894
:10007000F9F00008F9F00008E9D00008F9F00008EC
:100080007F830008F9F00008F9F00008F9F0000893
:10009000F9F00008F9F00008F9F000087983000889
:1000A000F9F00008CDCE0008F9F00008DDCE000818
:1000B000C1CE0008B1CE0008A1CE0008C556000888
:1000C000C9560008BD560008C1560008F9F00008DE
:1000D000F9F00008DDD00008D1D00008C5D0000834
:1000E000A97C0008F9F00008F9F000080000000001
:1000F0000000000000000000000000000000000000
:0C01000000000000000000005FF808F1A3
:100110002DE9F04F804B814C9FB02360002363603A
:1001200009F0E4FB18B909F003FC0AF021FE0AF01B
:10013000C5FE237A7A4D43F00103237200230B930B
:100140000C930D934FF4E0130E93764BA87B9946D6
:100150001A6842F480321A609A6942F010029A6179
:10016000D9F8003003F400330C930B9B01330B934D
:100170000C9B1BB90B9BB3F5A06FF1D1D9F80030E4
:10018000684913F4003301D0022317E00A6842F0F3
:1001900001020A600B93D9F8003003F002030C93BC
:1001A0000B9B01330B930C9B1BB90B9BB3F5A06FFF
:1001B000F1D1D9F800309A0741D501230D935A4B5C
:1001C0005A491A6842F010021A601A6822F00302B3
:1001D0001A601A6842F002021A60D9F80430C9F8AD
:1001E0000430D9F80430C9F80430D9F8043043F4A5
:1001F0008063C9F804304E4B1A68043B22F0704209
:100200005A604C4A1160D9F8041021F47C11C9F8E5
:100210000410596841F000415960D96821F4004147
:10022000D9609B681B0449BF434B4FF4E013136034
:100230004FF480130E930D9B012B01D118E0FEE7C4
:10024000022B1BD168B10E9BB3F5801F02D14FF476
:10025000A01305E00E9BB3F5E01F02D14FF400138D
:100260000E930E99D9F804300B4343F4803303E026
:10027000D9F8043043F46013C9F80430D9F80030D9
:1002800043F08073C9F80030D9F80010254B8F0176
:10029000FAD5596821F003015960596841F002010B
:1002A0005960D9F804301F4803F00C03082BF8D12B
:1002B0004368224903F00C03042B03D0082B03D01E
:1002C0001A4B12E0136810E043684668C3F3834397
:1002D000F60303F1020301D4194805E0406810F465
:1002E000003F106818BF400843430B60D9F8043042
:1002F0001448C3F30313034493F878000B68C34016
:100300000B60EB7B003318BF012363721368074A4D
:10031000934219D101221BE0A1AA0008C8000020C5
:1003200058050020001002400020024000127A0010
:100330000410014028000020001BB70054000020DA
:1003400000093D00CC4F0108974A934202D1022296
:10035000964B1A70DFF8ACA2954BDFF8ACB2CAF836
:100360000C30D9F81830934E43F00103C9F8183017
:10037000D9F824300027E360D9F82430584643F0F8
:100380008073C9F82430D9F818304FF0100843F0C2
:100390001C03C9F818301EAB03934FF6FF73039A82
:1003A0008DF84E7022F82C3D1146039208F013F898
:1003B0003046039908F00FF87F48039908F00BF8CE
:1003C00002231EAA8DF847304FF4007322F8343D03
:1003D000069206998DF846805846CBF8103007F003
:1003E000FAFF764A0398536843F00073536006F0AF
:1003F00033FD734A139B3946B3FBF2F3714A7248DB
:100400001360182210F0E5FC704B4FF47A721B68F1
:10041000DFF8C8C1B3FBF2F36D4A013B5360F02330
:100420008AF82330072397601360AB68694A039FFB
:10043000DFF8D8A113609AE80F0087E80F00D9F819
:100440001830CDF810C043F00803C9F81830D9F8B7
:100450001830139843F00803C9F8183008233361A3
:1004600014A9C6F8108007F0B6FF159816A907F072
:10047000B2FF584BCDF814B01B68564F13F0080F5D
:10048000DDF810C012D09CF88E31012B0ED8524AE4
:100490009CF88F31D26812F0805B00F00D8505E08A
:1004A0004E4B002283F88F210AF0D2FE642007F021
:1004B000E8FBA0224A48002110F08BFCD9F81C3040
:1004C000002243F00703C9F81C30D9F8183043F470
:1004D000006343F00C03C9F818303F4B4FF000089D
:1004E00003F1B00102F8018001320E2AF5D1FF229A
:1004F00083F8BE2083F8BF2083F8C02083F8C12092
:10050000384A394B41461A6038483C223E6810F060
:1005100060FC4146C6F380170520354BDFF8CCE080
:10052000CA5C0C234B4303F80E2047B91E3A012A3C
:100530009FBFFF2200F1FF3003F80E20C0B201314F
:100540000529EAD12B4B95F805A018702A4BB10666
:10055000C4F8C43003F1C003C4F8C830274B1E4AA6
:1005600003EBCA035B7848BF0123C2F8CC302448B0
:1005700000211C2284F8C2A010F02BFC16F40053BA
:10058000DFF88CB006F400680AD1B8F1000F41D052
:1005900095F882110BF10C02012908BF5A463BE085
:1005A000CDF810B039E000BF001BB700D02D0020FF
:1005B0000005FA05000C0140001001400000014058
:1005C00040420F00F41A0020181A002054000020A6
:1005D00010E000E098040020C8000020580500202A
:1005E000D800002044070020301A00205C0D0020B5
:1005F000296A0108590D002068050020606601087D
:100600009801002000ED00E000080140545001086E
:10061000CC4F01080BF10C020492BC4ABAF10E0F48
:100620001192049A5288ADF84820049A1288ADF8C5
:100630004A20069AC4F8E82004D00AF0EF0ABAF17A
:10064000080F02D1012284F8E2200120069307F06E
:10065000ABFA069BC6F34002003318BF012384F8AF
:10066000D030C6F3C03384F8D50084F8D62084F89F
:10067000D87084F8D330B8F1000F07D095F8828194
:1006800008F1FF37D7F1000848EB0708C6F300432D
:1006900084F8D930C6F3402384F8DA30D4F8CC306B
:1006A000B5F84401003318BF012384F8DB30C6F3EA
:1006B000005384F8DC30B5F84631A4F8E600A4F81D
:1006C000E030F004B5F8523148BF9148A4F8DE306C
:1006D000C6F3804306F00101C6F3C00284F8D730A8
:1006E00048BFB0F84C61B5F8503148BF8948A4F80C
:1006F000E43048BFA0F8E660B3F5FA7F84BF00237A
:10070000A4F8E63095F8D231834884F8EC30002321
:1007100084F8ED30437094F8E23084F8D480002BF4
:1007200084F8D11084F8D2200CBF0023022301B931
:1007300002B101330BEB830BDBF898304FF0000B69
:100740009A1E1A3306920793069B33F8024F0693BC
:100750004FF6FF739C4200F090816E4FE3B297F822
:10076000D520240AE5B2B8461AB19A1E012A40F2F1
:100770007F8197F8D82032B168491A018958684AB0
:10078000914200F0758197F8D90030B163491A01A0
:100790008958634A914200F06B8197F8D62052B194
:1007A0005E49059E01EB03114A68B24203D10A89F2
:1007B000102A00F05D8197F8D32052B15749059E69
:1007C00001EB03114A68B24203D10A89022A00F000
:1007D0004F8197F8D42052B150494C4E01EB031190
:1007E0004A68B24203D10A89022A00F04181D7F84F
:1007F000E8608EB1494A02EB031EDEF8041032684D
:10080000914209D1BEF80820B188914200F03081B0
:10081000F188914200F02C81022C02D197F8D0206F
:1008200003E0012C04D197F8D120002A00F02081A8
:1008300097F8DB20394C1E0162B1364A92F8E2206B
:1008400042B9A3F10802012A04D8A25935498A42C3
:1008500008BF042597F8DC2034445AB12D4A92F899
:10086000E2203AB910B10C3B012B01E0043B032B11
:1008700040F2E780012D5DD1DFF8A0A0FF2387F8CB
:10088000343187F835310AEB060303F1080C5A7B43
:1008900058681B894FF00008ADF84C3013A90223AB
:1008A00087F83881C7F844418DF84F30CDF820C023
:1008B0008DF84E2087F8F080C7F8F480C7F8F880EC
:1008C000C7F8FC80C7F8308187F8368187F8378110
:1008D00007F081FDDDF820C05AF806009CF80210F0
:1008E000424607F0F4FC204641462A460CF0C0FB85
:1008F0000D4B0E49C7F848310D4BC7F85081C7F86A
:100900004C3120460A1D0CF0F1FAB1E0000C014018
:1009100058050020C8000020B501002080650108AE
:1009200000040040002C0140098000081002002053
:10093000E9800008022D49D15FFA8BF24FF01C0CC0
:100940000CFB02FCBA4B002703EB0C0808934FF09A
:10095000010388F83831B74B88F839B19A19517BBF
:10096000506802F1080A12898DF84E1088F83A7121
:1009700013A988F84271C8F84441CDF824C0ADF8F5
:100980004C208DF84F5007F026FDAA4B9AF8021024
:1009900098593A4607F09BFC2046394601220CF054
:1009A00067FBA549089BDDF824C0C8F84811A34996
:1009B0006344C8F84C1103F5A471C8F8507120467F
:1009C0000A1D0CF093FA0BF1010B51E0032D36D107
:1009D00097F8D730964E97F8EE502BB12046082165
:1009E0004FF6FF7200231CE0B6F8E420B2F5FA7F60
:1009F0000FD9934B2046B3FBF2F20821B6F8E6304C
:100A000092B207F0DBFD06EB8505C5F818028D4BA9
:100A10000EE08D4B2046B3FBF2F2B6F8E630012132
:100A200092B207F0CBFD06EB8505884BC5F818029E
:100A3000C36097F8EE30013387F8EE3018E0042DEC
:100A400016D1B7F8DE20804B204693FBF2F201214D
:100A5000B7F8E03092B297F8ED5007F0AFFD97F895
:100A6000ED3008EB85080133C8F8480287F8ED300F
:100A7000069B079A93427FF467AE754F3B6813F469
:100A8000802F6B4B02D1012283F868221A7A714DB4
:100A900042F004021A722B784FF48052022B34BFBA
:100AA000142310238DF84E304FF002038DF84F3091
:100AB000D9F81830ADF84C2043F00403C9F81830C9
:100AC00034BF00240124644813A907F084FC634B5D
:100AD0000CB1634A00E0634A00201A6007F0E6F8B0
:100AE000614B624C93E80300039B4FF0030883E8DB
:100AF0000300D9F81830139843F00803C9F81830E8
:100B000014A907F068FCD9F81C30204643F4804350
:100B1000C9F81C30D9F81030039943F48043C9F860
:100B2000103018238DF84E304FF42043ADF84C3080
:100B30004FF0040A8DF84F8007F04DFC4FF48043CE
:100B4000204603994FF48056ADF84C308DF84EA0F6
:100B500007F041FC1023039920468DF84E30ADF884
:100B60004C6007F038FCD9F81030414A43F4804318
:100B7000C9F81030D9F81030322023F48043C9F876
:100B80001030138803F4415343F4457343EA0803D8
:100B90001380938B23F400631B041B0C93830723A4
:100BA000138213889BB243F0400313809F23266176
:100BB0008DF8403000238DF841308DF842308DF8AB
:100BC000433007F05EF852466661039810A90CF0B6
:100BD000C7FA26619DF84E309DF84D201B0243EA6E
:100BE00002439DF84F201343224A934212D03220F1
:100BF00007F047F86661F5200CF0E8FAFF200CF0EA
:100C0000E5FA7028266105D12B78022B04BF114B21
:100C100083F800802B78032B0CBF1F20022006F0E6
:100C200097FF2B78032B27D0012008F069F828E0E4
:100C3000C80000208065010809830008E17F0008E2
:100C400000127A000981000840420F00F980000874
:100C500098040020D02D002000080140B42D002071
:100C6000357500084975000874500108000C0140F2
:100C70000038004015202000022006F095FF0028D3
:100C8000D2D095F80080A64D4FF0100A28460021DA
:100C900052463C6810F09DF84FF6FF73ADF84030B7
:100CA000022304F4004704F400664FF000091C40DE
:100CB0008DF842308DF843900DD09A4810A9ADF8C8
:100CC00040A006F075FA04232B700124072385F851
:100CD0000190AC70EB7077B10223924810A9ADF887
:100CE000403006F065FA0123E2182B71AB7107233F
:100CF0006C71EB71D4B2B8F1010F0FD92023894880
:100D000010A9ADF8403006F053FA052301222B72EA
:100D1000AA72631C07226C72EA72DCB27EB10223F3
:100D2000814810A9ADF8403006F042FA09230122AB
:100D30002B73AA73631C07226C73EA73DCB27B4FBC
:100D40007B487B68002643F440437B607B6943F02B
:100D500001037B61BB6943F40073BB6106F004F8D7
:100D6000744B012C1393744B0597149394BF334623
:100D7000802318934FF4807319934FF48063A7F680
:100D8000F8771A93202313A91B9338464FF4005386
:100D900016941C93159617961D9605F0C7FF3B6891
:100DA000664A43F001033B605368012C23F470232F
:100DB00094BF0021012123F4807343EA012353608F
:100DC00091685F4B013C0B4043F4602343F0020306
:100DD0009360D36AE4B223F4700343EA0454D46208
:100DE0000123AA199178002951D0A85D591C09281E
:100DF000C9B2D278514F10D9A0F10A04D7F80CC06B
:100E000004EB44044FF0070E0EFA04FE2CEA0E0E1B
:100E1000A2404EEA0202FA600CE03C6900EB400C92
:100E20004FF0070E0EFA0CFE24EA0E0402FA0CF242
:100E300022433A61062B414C0CD8013B676B03EB14
:100E400083031F229A4027EA020200FA03F31343A6
:100E500063631BE00C2B0CD8DA1F276B02EB8202BA
:100E60001F23934027EA030700FA02F33B4323635F
:100E70000CE0A3F10D02E76A02EB82021F2393400C
:100E800027EA030700FA02F33B43E3620B4604360A
:100E9000102EA6D1294B9A6842F480729A609A6803
:100EA00042F001029A609A6842F008029A609968DA
:100EB000224A090746D5FAE7013B092B3FF6F6AA75
:100EC000039BDAF86400C6F8148019461860059888
:100ED00007F081FA059B3C201A460823136106F0AF
:100EE000D0FEC6F810805E4695F88F319E42BFF660
:100EF000D7AA059BDFF830A04FF00808CAF8108089
:100F00007820C3F8148006F0B1FE059BCAF814805F
:100F10007820C3F8108006F0A9FE0136E4E700BF90
:100F20007319002000080140000C0140001002402D
:100F3000080002404C240140841900200024014094
:100F4000FDF7F1FF936843F004039360B34B9A6895
:100F500012F004020392F9D19A6842F4A0029A6056
:100F6000AF4BB3F85801002841F0CC80B3F95A21B7
:100F7000002A41F0C780B3F95C31002B41F0C280F8
:100F8000A84BA94C1B68A64D13F4003F23D0C820E2
:100F9000B5F83C6706F075FEAE2007F0ACFE08B170
:100FA00007F0B0FC84F86902C82006F06AFEA4F8D5
:100FB00070629E4E9E4B00210C223046C4F86C326B
:100FC0000FF007FF0223F3700AF0A8FD06F032FECF
:100FD000984B0344B36095F8673100210693964B14
:100FE0000C221B689548B3F85630B5F8607107932A
:100FF00095F85E6195F868510FF0EBFE0021102224
:101000008F480FF0E6FE8F4BDFF81C9293F800A09C
:1010100098468D4B4FF0000B03F11802BAF1010F07
:1010200094BF9A46924659460C2284F872B209F54A
:101030001D7089F873B20FF0CCFE2320C4F880A293
:1010400006F01FFE752001210DF12B0204F064F95A
:10105000B0B17E4B5846C9F878327D4B0121C9F8B2
:101060007C320FAA432389F8743204F055F99DF8B5
:101070003C3003F07E038DF83C30002848D150E02E
:1010800099F8843273BB059B059A9B69DFF8E8A148
:1010900043F00803936110238DF84E304FF4805BCA
:1010A0000323504613A98DF84F30ADF84CB007F02C
:1010B00092F9684ACAF810B0138823F040031B0461
:1010C0001B0C1380138823F038031B041B0C43F004
:1010D0000803138013889BB243F04003138001235D
:1010E00089F884327520012113AA03F0E1FE9DF8EE
:1010F0004C30702B5AD1052384F87232432384F884
:101100007432554BC4F87832544BC4F87C324DE0FD
:10111000682B06D1012389F872321D2389F87432B5
:1011200044E09DF82B3003F07E03682B8DF82B30C4
:1011300037D10223062084F872320146D4F878327F
:1011400013AA98479DF8511001F001029DF84F1025
:1011500001F001014B0043EA82019DF84D2002F0AD
:1011600001030B430AD05BB2012B01D1002302E043
:10117000022B0FD1012384F8733217E02A4B0C2085
:10118000D3F87832012110AA98479DF8403013F027
:101190000F0303D1032006F0D3FD07E0042BE9D1B0
:1011A000E4E7702B04BF042384F87232002384F830
:1011B000853294F872321C49022B0BD1204A284800
:1011C0001060284850602848D060012281F88522AC
:1011D00000F085BC012B0DD1194A244881F88532D5
:1011E0001060204804235060214890601E48D06061
:1011F00000F075BC043B012B0CD8114B1D4A1A6042
:10120000184A5A60184ADA60012381F885320723A8
:1012100000F065BC012006F093FDA2E0002401402F
:101220005805002098040020C8000020681B0020FA
:10123000DE060020404B4C00C00C0020A8290020F6
:10124000182D0020D02D0020E44F0108195300086C
:10125000A555000800380040B14E0008DD4E0008DA
:10126000C15000087D4D000890C1793DFD4E000839
:10127000454D0008FD4F0008000C0140012D40F0D5
:10128000F386BB4E33689A0702D5BA4B1B68984762
:10129000B94B38461B689847B84B069D1F78B84B2A
:1012A00003F11802012F94BF1F461746B54A0023C9
:1012B00013709046002D40F0E086B34A4FF00009CD
:1012C0001EABC2F8F87203F82C9D1E200A210122E1
:1012D00003F040FF002800F0D4869DF84C30482BE6
:1012E00040F09787A94BAA4A1A60AA4A5A6003237A
:1012F00088F80030A84B0222DA70336843F0080304
:101300003360A64B93F8542112B19F4981F885228E
:1013100093F855210AB1A2490A7093F856310BB1DE
:1013200088F8003033689F4E13F0080F00F0AB864A
:10133000BDF91C80642798FBF7F528460DF06EF880
:10134000814607FB158000B20DF068F896490DF054
:10135000B9F8014648460CF0ADFF94490DF0B2F8DB
:101360003060894D10222B7A0A2643F002032B723B
:101370008F4B5A6108221A61DFF834821920D8F89D
:101380000C30013E83F01003C8F80C30D8F80C3054
:1013900083F00803C8F80C3006F073FC012006F057
:1013A00085FC192006F06DFC002006F07FFC16F08D
:1013B000FF06E1D1082310266D4FC8F81030C8F899
:1013C00010603B681B0709D5704BC8F814601B6898
:1013D0009847784B0122C8F810601A70D4F8FC3294
:1013E000754E187B0DF01AF874490DF06BF809F082
:1013F000A5FC804630880DF011F841460DF062F8EA
:1014000010F0A2FCA4F8000330880DF007F80146A4
:101410006B480DF00BF96B490DF008F9564BC4F809
:1014200004036649D8680DF04DF867490DF04AF895
:101430005A4E6649B6F84E310022A4F81033644B78
:10144000C4F808031A809A70086884F81823B6F85C
:10145000942106F5C37EC4F80CE3C4F814E300F14C
:10146000790A1FFA82FE0691DFF88481039BD8F87F
:1014700000C05849DFF87C910CF5967C21F813E008
:1014800049F823C00133122B0393EDD15346DFF803
:101490006891D9F800C0CDF80C901CF4805F08BFAB
:1014A000B6F89AE100F1C909A1F806E01878D8B9B0
:1014B000987893F803E0704516D238B1013800EB04
:1014C000800000EB800000F5617E07E00EF1010E68
:1014D0000EEB8E0E0EEB8E0E0EF5617E58781FFA17
:1014E0008EFE043021F810E004334B45DED11CF0B1
:1014F000080F00F0048196F88E11062900F2F98099
:10150000DFE801F004070E7C97B7B70045F2F0530F
:1015100001E042F6F823A5F8643305F0C3FBE7E0E9
:1015200042F6F8231201A5F864330A2392FBF3F282
:101530000023A2F5B062284941F823200133122B81
:10154000F9D1264A264940201160264A137006F038
:101550004FFB002800F0CD8001234FF0070A90F9DF
:10156000000040218DE808041F4A204BBBE000BF6B
:10157000A4040020A8290020182D0020D02D002030
:1015800014500108D22D0020C8000020040F0020B4
:10159000D98A0008418A0008500000205805002020
:1015A000CC2D0020AC0F00208988883C0000204111
:1015B000000C0140480F00200400002035FA8E3C4A
:1015C0000AE81C4100401C46BD378635C00C00208F
:1015D0007C290020DE0C00202C1800202400002094
:1015E000D7670008DC0C0020316A0008A0860100E3
:1015F000BC2A0020E40300209804002042F6F823CF
:10160000714AA5F86433714B40201A60704B102268
:101610001A7006F0EDFA00286BD001234FF0000994
:1016200090F9000040218DE808026A4A4FF4E13346
:1016300059E042F6F823684AA5F86433634B40202A
:101640001A60634B08221A7006F0D2FA002850D0B4
:1016500001234FF0000C90F9000040218DE80810A4
:101660005E4A4FF4E13306F0D0FB5D4BC3F86803EC
:101670003BE042F6F823A5F86433554B0C22DFF823
:1016800098E158481A7006294FF000038EF8003090
:1016900003700CD054494FF4E1390B70534B1B21AC
:1016A0001970534B1A70534B05221A700AE04E48BA
:1016B000DFF8689103704D4B212018704C4B1A7065
:1016C0004C4B19704C4A414B40201A6006F090FA7E
:1016D00078B101234FF0000E90F900008DE808402A
:1016E0004B46464A402106F090FB003018BF0120CF
:1016F00028B9082009F02CFB414A344B1A60414BB1
:10170000334A1B6813F4804F1FBF122111703E48EB
:101710002E4918BF086042F20101194099B144F600
:1017200020619804A5F8641341BF0821117037485F
:10173000264948BF0860D90741BF0C2111703448C1
:10174000224948BF08601178043951701A0640F1E7
:101750009180DFF88CB04FF00009DFF8C4A0494653
:1017600015220BF56470C5F86CA385F87193C5F864
:101770007493C5F878930FF02CFBAAF10503484643
:10178000C5F8A8330BF034FAD8F800300220C5F8B9
:101790007C3306F02DFA18B9802009F0D9FA61E0FF
:1017A0009BF8711390F805E01A4B0C2202FB0132F2
:1017B00092F8B120724535D00131C9B20429F3D96C
:1017C000002285F871232FE0D36700082400002051
:1017D000DC0C002085690008CF6700083969000823
:1017E000C8000020B1180020B0180020B218002056
:1017F00029180020B3180020156700086568000844
:10180000B1C200089804002005680008A5C20008BD
:1018100009680008CC4F01082A18002090D0030066
:101820004407002085F8711396F8E7214FF00C0E5D
:10183000002A95F8712318BF03210EFB023308BF5D
:101840000121002290F9000093F8B130009101923B
:10185000022106F0DAFAC5F8AC0300289CD001207A
:101860000BF0C6F9069B186800F5C573C5F8B033D0
:101870000BF00EFA049B059AC4F8B433059B4FF0A5
:1018800028099B69B34843F001039361049B0FA9A6
:101890001B888DF83E90ADF83C3003238DF83F3027
:1018A000059306F098FD049BAA485A880FA9ADF845
:1018B0003C208DF83E9006F08EFD049B0120197AA5
:1018C00006F074FD049BA4495A680DF14C094A6165
:1018D0004FF0000B13924FF0010A102248468DF88A
:1018E00051208DF850B08DF852A005F023FC049BD8
:1018F00010A85A7A059B8DF840208DF841308DF85C
:1019000042B08DF843A00BF00DFCD8F800304FF03A
:10191000FF323C3BC4F8B8333B6843F010033B60F4
:101920008E4B1A608E4B1A68984612F4806F01D065
:1019300009F0D2FD8B4B8C4C1B78022B66D18B4A65
:1019400000271388322023F040031B041B0C138054
:1019500013884FF4805A23F038031B041B0C1380A8
:1019600013889BB243F0400313809F238DF84030CF
:101970008DF841708DF842708DF8437006F081F952
:101980008DF84D70734F0422C7F814A0484610A973
:101990000BF0E6FBC7F810A09DF84E309DF84D20E7
:1019A0001B0243EA02429DF84F301343704A9342B0
:1019B00019D00AD8A2F51A42033A93420CD002F584
:1019C0001A420232934209D01BE06A4A934205D080
:1019D0000132934207D014E0202300E080232380CB
:1019E0004FF4807302E04FF4807323806380A388F8
:1019F00022881B02A3605343E360012385F8BC33B4
:101A000004E0002323806380A360E360E76817B3EA
:101A1000FF0ABA464FF0000BBB4509DA0BEB07048F
:101A20006410E0024946102206F022FF0F2806DC6F
:101A30000BF07EF9504B4FEACA221A600BE00023EC
:101A400059F82320013240F02A830133042BF7D1C7
:101A50002746A246E0E706F0EDF8484B4FF47A72CD
:101A600018607379052B04BF4FF4C873A5F8BE3313
:101A7000434B1A80434BC8221A80434A137843F0E1
:101A800008031370414A137823F00203137040F6E1
:101A90000203D8F8002013406BB13D493D4B19605B
:101AA0003D4B032119703D4B012119703C49002326
:101AB0000B803C490B80930304D53B4B02221A71E7
:101AC00009F092FFB368039A1360012385F8683226
:101AD0002B7A63F07F032B721FB0BDE8F08F334A7F
:101AE0003349914613700B6843F001030B60314B8F
:101AF00000221A70082E00F2C280DFE806F00BC048
:101B00000B63799963B0B000012E40F2C380294B7A
:101B100000261E7098F80030012B53D84FF0000AB1
:101B20001EAB03F82CAD53205146012203F012FBEB
:101B3000002847D09DF84C30E52B43D11E4B1F4A5F
:101B400084F886A21A601E4A5A601A4B04221A7040
:101B5000022398E0000C014000040140040D002025
:101B600098040020D02D00200800002000380040FC
:101B700018BA20001740EF009C0D0020FC0E00203A
:101B8000C82D0020CA2D0020A8040020CD2D002043
:101B9000D006002094040020F4040020440000201B
:101BA000580F00205A0F0020681B00205000002012
:101BB000A4040020CC2D0020A82900206556000890
:101BC000CD53000894F87232022B11D1644B654A50
:101BD0001A60654A5A60654A92F87322002A0CBF5F
:101BE0006F226E221A72624B01221A7003234AE09E
:101BF00098F80030012B1BD800221EAB03F82C2DC7
:101C00001C200D21012203F0A5FA88B19DF84C306B
:101C10002A2B01D01A2B0BD1514A564984F887320E
:101C200011605549524B516002221A7004232AE078
:101C300000211EAB03F82C1D1820012203F08AFAA4
:101C400068B19DF84C30FB2B09D1454B4B4A1A60CB
:101C50004B4A5A60464B01221A70052313E094F850
:101C60007232043B012B3FF64FAF3D4B454A1A60A1
:101C70003D4A5A603E4B01221A70082303E0012EB0
:101C800008D9002633E7404A89F80130136843F049
:101C90000203136098F80030012B05D10BF0BCFA59
:101CA0003A4B4FF400525A61042D3FF6E7AA01A3C4
:101CB00053F825F0C91C000883120008BD1D000858
:101CC000C91C0008CB1F00080A2005F0DAFF7720A6
:101CD000A021012210AB03F03DFA00286ED01E2196
:101CE0000122772003F0DAFB4FF42F6005F0BEFFEE
:101CF0000026A6F160010025C9B2022213AB7720AD
:101D00008DF84C508DF84D5003F024FA9DF84D306D
:101D10009DF84C2043EA0222144B03F522717252C3
:101D20000236102EE5D1B3F89612012601F00F000D
:101D300001F47F41A3F896122B4623F001022244BE
:101D4000B2F88822002A18BF002613F0010F03D032
:101D5000D2B2554008221BE085EA1225FAE700BFFF
:101D6000A829002029510008C54D0008C8000020FE
:101D7000CC2D0020AF5500082D5300084156000817
:101D800087530008AD500008A40400200010014053
:101D900015F4004F18BF85F4C055013A4FEA4505C8
:101DA000F6D10133102BC8D10143BF4AA4F89612D3
:101DB00026B9C5F30333984200F0408194F8986245
:101DC000B94D002E40F02382DFF834830BF024FA63
:101DD0004FF0280A4FF48049404610A9ADF84090D2
:101DE0008DF842A006F0F7FA4FF40053C8F810300F
:101DF0005046AE4905F0EEFF0E21022006F0D6FA5D
:101E00000823CDF84C9013A84FF001098DF85130FC
:101E10008DF850608DF8529005F08CF98DF83CA04B
:101E20000FA84FF0030A8DF83DA08DF83E608DF8A5
:101E30003F900BF077F9142005F023FFD021772095
:101E40004A4610AB03F086F94146002800F0A18015
:101E50009DF84030A5F8BCA2552B85F8B33240F070
:101E60009880D1214A4610AB772003F073F99DF892
:101E70004030772003F00F021B0985F8B42285F863
:101E8000B532162213ABAA2103F064F99DF84C2059
:101E90009DF84D3043EA0223A5F89C329DF84E2070
:101EA0009DF84F3043EA0223A5F89E329DF850205A
:101EB0009DF8513043EA0223A5F8A0329DF8522044
:101EC0009DF8533043EA0223A5F8A2329DF854202E
:101ED0009DF8553043EA0223A5F8A4329DF8562018
:101EE0009DF8573043EA0223A5F8A6329DF8582002
:101EF0009DF8593043EA0223A5F8A8329DF85A20EC
:101F00009DF85B3043EA0223A5F8AA329DF85C20D5
:101F10009DF85D3043EA0223A5F8AC329DF85E20BF
:101F20009DF85F3043EA0223A5F8AE329DF86020A9
:101F30009DF8613043EA0223A5F8B03241F2707394
:101F4000A5F8C03246F67813A5F8C232584BC5F84A
:101F5000C432584BC5F8C832574BC5F8CC32574B32
:101F6000C5F8D032564BC5F8D43295F898324BB9F3
:101F700003F00EFB42F6E06005F078FED8F808604A
:101F8000C6F380364F4B01221E70474B83F89822D0
:101F90003DE14D4A136823F48043136000234B4A0C
:101FA000424E02EBC3056868B04208D112F9330013
:101FB000282804D10020686002F8330002E00133D1
:101FC000032BECD14FF400534B61374E96F8D852A7
:101FD000002D5CD1142005F054FE06F2D9237620A2
:101FE000D021012203F0B6F896F8D932582B7FF4AD
:101FF00048A906F5377388211822762003F0AAF83D
:102000007620F421312203F049FA012386F8D832F0
:102010002F4BA6F8C052C6F8C8322E4BC6F8C432B1
:1020200045F6D813A6F8C2322B4BC6F8CC322B4B50
:10203000C6F8D0322A4BC6F8D43228E042F21073E8
:10204000A2F8C032A2F8C232264B0325C2F8C4322D
:10205000254BC2F8C832254BC2F8CC32244BC2F80B
:10206000D032244BC2F8D432234B244A9D701368DB
:1020700043F004031360FFF704B9022D09D1FFF701
:102080001CB98146C5E000233360FFF76AB9042517
:10209000EAE7012D7FF635A91D46FFF707B904F1E0
:1020A000010B5446D5E400BFC8000020694E00086B
:1020B00091550008E55200086D5500089952000836
:1020C000694C00080000002000040140181A00209C
:1020D000A94A0008AB4A00085555000805520008F7
:1020E000E948000865550008895200085D55000858
:1020F00079520008AD4A000850000020A4040020D6
:1021000000100140474B00221A7000B20CF086F913
:1021100045490CF0D7F9454C0646B4F95A010CF084
:102120007DF941490CF0CEF90546B4F95C010CF09B
:1021300075F93D490CF0C6F90446304608F0FEFD3D
:102140008046304608F086FD0646284608F0F6FD33
:102150000746284608F07EFD0546204608F0EEFDBD
:102160008246204608F076FD4146814650460CF0F6
:10217000A9F94146069048460CF0A4F9514607904B
:1021800030460CF09FF94946089030460CF09AF919
:102190003946834650460CF095F9254C4946206057
:1021A00007F100400CF08EF929466060A5600898A0
:1021B0000CF088F9014607980CF07CF82946E0609D
:1021C00058460CF07FF9014606980CF071F8394634
:1021D000206106F100400CF075F92946606106980F
:1021E0000CF070F9014658460CF062F82946A061DF
:1021F00007980CF067F9014608980CF05BF8414627
:10220000E06138460CF05EF92062FEF7B9BE0225A7
:102210002AE7012D7FF675A8002588F80090FFF7C2
:102220004CB800BF1800002035FA8E3C580500203D
:10223000140F00202DE9F04FAE4CA1B02378002BF5
:1022400000F09B81AC4E63683268D31A7C2B40F25D
:102250009481237A6260013323722425284609F091
:10226000EFF8A64B013518880CF0D8F8014600208D
:102270000CF0DCF9A2490CF025F90CF0E9FAEDB20A
:1022800000B209F0CBF8272DE8D1302009F0D8F8BA
:10229000002009F0C3F809F0CBF8257A15F0030502
:1022A0001FD1944B5A6841F288339A420BD91020BF
:1022B00009F0C6F8284609F0B1F8212009F0C0F865
:1022C000284609F0ABF8142009F0BAF8002009F00C
:1022D000A5F81C2009F0B4F8002009F09FF809F0D7
:1022E000A7F8257A15F0070540F02481022009F0AF
:1022F000A7F8284609F092F8032009F0A1F8814BCD
:102300001B7859075DBF7B4B0520DB68284658BF0B
:102310009B89784D5CBFB3FBF0F000B209F07EF80A
:1023200023699A075BD5DFF8F491AA8A99F80030FF
:102330004FF0640808FB02325B00B2FBF3F3EF8A54
:1023400006203F01BFB247EA0327BFB2C3F303230E
:102350001F4309F075F838B209F060F8EB8A99F874
:10236000001001339BB293FBF1F201FB1233EB82BD
:10237000AB699B7B012B05D1392009F061F8B5F9D8
:10238000140019E0AD8A6E235D43152795FBF7F520
:102390003A20AFB209F054F8B7FBF8F528B208FBC1
:1023A000157509F03BF83B2009F04AF8A8B2451D25
:1023B0000A2095FBF0F000B209F030F8282009F06F
:1023C0003FF8002009F02AF8042009F039F8E36802
:1023D000988910B104F060FF00B209F01FF8E369BA
:1023E000444F9B0640F19C8097F820309D071BD5F9
:1023F000112009F025F8788C4FF4F3656843424BBF
:1024000090FBF3F000B209F009F8192009F018F870
:10241000788C4543642095FBF0F595FBF0F300FBC9
:10242000135000B208F0FAFF94F82030A58C13F096
:10243000020F08BF0025012009F002F828B208F0B9
:10244000EDFF092008F0FCFF002008F0E7FF2F4B0C
:1024500094F826501A88B2F5967F0AD9254B1B7A34
:1024600003F00F03072B04D842F20F75954228BFE3
:102470001546052008F0E4FFA3695B7B0BB928B281
:1024800016E0A5F120000BF0C9FF21490CF0CEF8B1
:10249000002105460CF0B4F910B94FF07C5101E071
:1024A0004FF03F4128460BF005FF0CF0D1F900B288
:1024B00008F0B4FF94F820200E4B900703D493F853
:1024C0002720012A04D1012384F8273011482DE068
:1024D0009D69114968680BF0F5FF0CF0B9F90E49D8
:1024E0000090A8680BF0EEFF0CF0B2F9019068467E
:1024F0001CE000BF88040020BC2A0020040000204B
:1025000000007A44CD2D0020A08601004600002066
:102510006666E63FB00400208096184B4400002019
:10252000D44A92E803008DE80300684608F098FF5B
:1025300008F07EFF237A282B1FD1CF4B00221A727E
:1025400033684FF47A70B3FBF0F73C26172008F09D
:1025500077FFB7FBF6F5B5FBF6F006FB105000026F
:1025600000B208F05BFF182008F06AFF06FB157048
:1025700000B208F053FF08F05BFF94F83030BE4D16
:10258000002B00F0378105F055FB6B6BBB4AC31A7B
:102590009342064640F2B780002385F83A3085F82A
:1025A0003C30AB8AB649DAB21B0A85F8562085F86A
:1025B000573085F84C2085F84D306A6E0B689A1AB2
:1025C000AB6ED87B4FF47A7343439A420CD30B68BB
:1025D0006B6695F86C30013B012B9FBF102385F88B
:1025E0003A30022385F83C30002394F8201084F818
:1025F000543084F8553084F8583084F8593094F8C1
:10260000263089079C4A84F8873003D42D2382F82A
:10261000883077E0D4F82890E56A9A48DFF870C2ED
:1026200099FBF0FA95FBF0F00CFB0A980CFB005CB0
:10263000042B8CBF3323322382F88830062202FB1E
:1026400008F802FB0CFC904B4FF0640E98FBF3F182
:102650009CFBF3F203FB118803FB12C393FBFEF315
:102660000AEB8A0A4FB20AEB8A0A07EB8A0189B29F
:1026700084F8771000EB8000090A84F8781000EBEA
:10268000800051B201EB800292B284F87C20120AE1
:1026900084F87D2084F87E30628C1B1284F87F30B1
:1026A000242353434FF47A7293FBF2F384F874308B
:1026B000C3F3072384F87530B4F89A300A2284F8FB
:1026C00080301B0A84F88130A38C98FBFEF8B3FBA2
:1026D000F2F303F5FA739BB284F882301B0A84F894
:1026E0008330B4F89C304FEAD97984F87980ED0FC3
:1026F0004FEA282884F8769084F87A8084F87B5012
:1027000084F88930666394F89E805B4DB8F1000FC1
:102710000DD1D5F8A40005F04DFC012807D90228F9
:102720005A4F01F02C8308F06BFE0123BB70D4F8E4
:10273000A850514B002D5DD093F89E203AB140F641
:10274000B731D3F8B020B21A8A4216D852E001222B
:1027500083F89E20D3F8B420D3F8A4001278022A7C
:1027600004D80430022108F035FE02E0022105F011
:1027700049FB002384F8B8303AE093F8AC20AAB9BA
:10278000C3F8A82083F89E20D3F8B420D3F8A4007F
:102790001278022A04D80430012108F01BFE02E05E
:1027A000012105F02FFB08F02BFE21E0013AD2B207
:1027B00083F8AC2093F8B81093F8B90042B901300F
:1027C0004A1C83F8B90083F8B820D3F8A4000DE0C0
:1027D0002A4612F8017B01307D18394683F8B9008A
:1027E000D3F8A40083F8B850C3F8A82005F0E5FB9F
:1027F000C4F8B06094F8BA301F4E002B00F0BC85CE
:10280000D6F8BC30002B00F0B785D6F8C030002BCE
:1028100000F0B285C6F8C4301B68164FC6F8C83041
:10282000D6F8CC303B441D7A642D00F0D48100F200
:10283000C880342D00F087835FD8222D00F062839A
:1028400033D8032D00F0938124D8012D00F05C8152
:10285000022D40F08385042009F028FE432009F072
:1028600013FE4C2009F010FE462009F00DFE4C200E
:102870007AE100BFE8550108880400203F0D0300FD
:10288000BC2A00208096980040420F0004000020DF
:10289000806967FF042D00F07481052D40F05E858E
:1028A0001A2009F003FE00257DE1282D00F0578451
:1028B00014D8242D00F04D84262D40F04F8506209D
:1028C00009F0F4FDB4F8280209F00AFEB4F82A026F
:1028D00009F006FEB4F82C0200F03EBD2C2D00F0ED
:1028E0005084322D00F099842A2D40F03785012044
:1028F00009F0DCFD94F8D50036E1422D00F09D840E
:1029000027D83A2D00F01D8217D8362D00F0B78455
:10291000382D40F02385042009F0C8FD94F84802C2
:1029200009F0B2FD94F84C0209F0AEFD94F84B02A8
:1029300009F0AAFD94F84D0216E13B2D00F0DB8270
:10294000402D40F00B85082009F0B0FD002500F077
:102950006ABC472D00F0AC8423D8452D00F0D98403
:10296000462D40F0FB840D20DC4D09F09FFD05F065
:10297000A5FF09F089FDA88809F0BBFD286909F0C9
:10298000B8FD94F8110994F8103998422ABFC31A77
:10299000C3F1800300200344D4F81409184400F064
:1029A000C7BC4B2D00F00B844D2D00F01684492D33
:1029B00040F0D484022009F079FDB4F8DC0000F086
:1029C000CBBC722D00F0E48255D86A2D00F0318323
:1029D00039D8672D00F00E8126D8652D00F09F8034
:1029E000662D40F0BB84122009F060FD002009F044
:1029F00077FD002009F074FD002009F071FD002032
:102A000009F06EFD002009F06BFD002009F068FD63
:102A1000B4F8200809F064FDB4F8220809F060FD5C
:102A2000B4F8240800F098BC682D00F06B81692D83
:102A300040F0948494F854080025400000F0FE0013
:102A400009F034FD6AE16D2D00F0748109D86B2D19
:102A500000F01A836C2D40F08184062009F026FDD9
:102A60006FE36F2D00F07E81C0F07181702D00F05A
:102A7000A98100F073BC782D00F0C88013D8752DA3
:102A800000F02D8204D8732D00F0C882742D03E06D
:102A9000762D00F00983772D40F06084002009F046
:102AA00005FD00F05BBCA42D00F0208314D87C2D24
:102AB00000F04184A02D40F051840C2009F0F6FC78
:102AC000874B186809F015FD864B186809F011FD51
:102AD000854B186800F02CBCF12D00F0D980FE2D3C
:102AE00000F02983F02D40F03984042009F0DEFC49
:102AF000D4F83838B3F85A0009F0F2FCD4F8383872
:102B0000B3F8580000F028BC032009F0CFFC0020E7
:102B100009F0BAFC284609F0B7FC0E2024E00B208F
:102B200009F0C4FCB4F81C0809F0DAFCB4F81E087B
:102B300080B209F0D5FCE369C3F3C000C3F380029F
:102B4000800040EA4200C3F340021043C3F3401246
:102B500040EAC20003F01003184309F0C1FC002052
:102B600009F0C7FC94F8C00709F08EFCF6E30320D7
:102B700009F09CFC052009F087FC002009F084FC8A
:102B8000B2E2062009F092FC412009F07DFC4620CB
:102B900009F07AFC4E2009F077FC412009F074FC22
:102BA000524B1878D8E3524B585D013509F06CFC54
:102BB0000B2DF8D100254F4B585D013509F064FC11
:102BC000082DF8D100254C4B585D013509F05CFC0F
:102BD000072DF8D1C2E3072009F068FCE72009F0CF
:102BE00053FC96F8D50009F04FFC002009F04CFC8E
:102BF00004209DE3102009F059FC00253F4B585D4F
:102C0000013509F041FC102DF8D1A7E3702009F03F
:102C10004DFC00260E257543D4F8383801362B4478
:102C2000B3F8190109F05CFCD4F838382B44B3F838
:102C30001B0109F055FCD4F838382B44B3F81D01BA
:102C400009F04EFCD4F838382B4493F81F0109F0F2
:102C50001BFCD4F838382B4493F8200109F014FCFD
:102C6000D4F838382B4493F8210109F00DFCD4F83E
:102C700038382B4493F8220109F006FCD4F8383890
:102C80001D44D5F8230109F034FC082EC2D165E3B8
:102C9000702009F00BFC1A4D05F1700695F8D00074
:102CA00009F0F2FB95F8D10009F0EEFB95F8D2009F
:102CB00009F0EAFB95F8D30009F0E6FB95F8D4009B
:102CC00009F0E2FB95F8D50009F0DEFB073595F831
:102CD000CF0009F0D9FBB542E0D13FE3040000206A
:102CE000E8F7FF1FECF7FF1FF0F7FF1FD02D0020C4
:102CF0004C6801085868010861680108AE0C0020A2
:102D000058050020102009F0D1FB0025D74B585D55
:102D1000013509F0B9FB102DF8D11FE394F85438B0
:102D20009D4280F01B83D24B33F8150009F0D8FB8D
:102D30000135F3E7062009F0B9FB002009F0D9FBC3
:102D400005E2042009F0B2FBD4F87C08F0E2072089
:102D500009F0ACFBA08AFF28A8BFFF20C0B209F091
:102D600093FBEEE10B2009F0A1FBD4F8803800269C
:102D7000187809F089FBD4F88038587809F084FB7A
:102D8000D4F88038BB4D33441879013609F07CFB08
:102D9000032EF5D1D5F88038D87909F075FBD5F830
:102DA0008038987809F070FBD5F88038D87809F029
:102DB0006BFBD5F88038588909F092FBD5F880383C
:102DC000187AD1E61E2009F071FBD4F838380025B6
:102DD0001B78022B6DD1D4F8383805F1080253F86E
:102DE0002200A5490BF06EFB0EF0AEFF80F3080049
:102DF000C0B209F049FBD4F83838A04903EB850389
:102E0000D86A0BF05FFB0EF09FFF80F30800C0B2A2
:102E100009F03AFBD4F8383805F10E0253F82200D5
:102E200097490BF04FFB0EF08FFF80F30800C0B204
:102E3000013509F029FB032DCDD1072DD4F8383801
:102E400023D1586C8C490BF03DFB0EF07DFF80F3D5
:102E50000800C0B209F018FBD4F838388649986CDD
:102E60000BF030FB0EF070FF80F30800C0B209F0E9
:102E70000BFBD4F8383893F84C000BF0CBFA0EF07B
:102E800063FF80F30800C0B20DE02B44587809F0CE
:102E9000FBFAD4F838382B44D87A09F0F5FAD4F88C
:102EA00038382B44587D013509F0EEFA0A2DC4D18B
:102EB00054E2D4F838382B44587809F0E5FAD4F8BD
:102EC00038382B44D87A09F0DFFAD4F838382B4454
:102ED000587D013509F0D8FA0A2DEAD13EE22F20BB
:102EE00009F0E4FA674D15F8010F002800F036826A
:102EF00009F0CAFAF7E7012009F0D8FAD4F838380F
:102F0000187831E6502009F0D1FA0026D4F8385864
:102F10000C2205EB860595F87930013602FB037328
:102F200093F84C0009F0B0FA95F87A0009F0ACFA81
:102F300095F87B0009F0A8FA95F87C0009F0A4FA4E
:102F4000142EE3D10AE2482009F0B0FA0026D4F8A2
:102F50003858062303FB065595F8CE0009F094FA7D
:102F600095F8C90009F090FA95F8CA0009F08CFAB2
:102F700095F8CB0009F088FA95F8CC0009F084FAAE
:102F8000013695F8CD0009F07FFA0C2EDFD1E5E18E
:102F9000162009F08BFAB6F8640209F0A1FAB6F827
:102FA000100209F09DFAB6F8120209F099FAB6F883
:102FB000140209F095FAB6F8A60209F091FA96F80B
:102FC000B70209F061FA002009F05EFA96F8B8023B
:102FD00009F05AFA96F8530209F056FA96F8600288
:102FE00009F052FA002009F04FFAD6F838380A20D2
:102FF000B3F9563093FBF0F080B209F071FA96F80D
:10300000480209F041FA96F84C0209F03DFA96F8A8
:103010004B0209F039FA96F84D02A5E5082009F0AF
:1030200045FA0125E8B2013509F02EFA092DF9D14A
:1030300094E1102009F03AFA96F8200000F002001E
:1030400009F022FA96F8260009F01EFAB06A09F093
:1030500050FAF06A09F04DFAB08C09F041FA708C20
:1030600009F03EFAB6F8840876E100BFC40C0020EF
:10307000DE0C002088040020000020410000C8422F
:1030800000007A44F9550108052009F00FFAB4F858
:103090009A0009F025FAB4F89C0009F021FA94F896
:1030A000860800F001005FE509F0E4F90746122008
:1030B00009F0FCF927B9D4F88868D4F88C5801E0F5
:1030C00000252E46384609F0DFF9304609F011FA9E
:1030D000284609F00EFA002009F00BFA002009F04A
:1030E000FFF9002009F0FCF900203DE594F8900874
:1030F000002580000130C0B209F0D8F994F890089A
:1031000009F0C2F994F890389D4280F02781D14EA1
:10311000705D09F0B9F906F11003585D09F0B4F9D2
:1031200006F12003585D303609F0AEF9705D09F004
:10313000ABF90135E6E7082009F0B8F9002009F0FD
:10314000CFF9002009F0CCF9002009F0C9F90020DE
:1031500002E1042009F0AAF9D4F8D800E8E0072039
:1031600009F0A4F9B4F84E0209F0BAF9B4F8500223
:1031700009F0B6F994F8520209F086F9B4F854024D
:10318000EAE00C2009F092F994F85E0209F07CF96B
:10319000B4F8680209F0A4F9B4F8640209F0A0F9DF
:1031A000B4F8660209F09CF994F85F0209F06CF932
:1031B000B4F86A0209F094F9B4F86C02CCE0042087
:1031C00009F074F994F8A40209F05EF994F8A502E4
:1031D00009F05AF9B4F8A602BEE094F854089E4DDE
:1031E00000EB4000C0B209F061F9002694F85438B1
:1031F00002359E4280F0B28015F8020C09F044F9C5
:1032000015F8010C013600EB800000EB800000F2A5
:10321000EE2080B209F064F9E8E7012009F046F9F0
:1032200094F86002A0E48D4B2B4493F8860101359D
:1032300009F02AF9082DF6D190E0102009F036F9AE
:1032400096F8D50009F020F9D6F8D80009F051F920
:1032500096F85E0209F018F9B6F8280209F040F96C
:10326000B6F82A0209F03CF9B6F82C0209F038F950
:10327000B6F84E0209F034F9B6F850026CE094F852
:10328000D108764DC0EBC000C0B209F00FF905F1CE
:10329000280695F8EE010023714AD25C904200F0B6
:1032A000AB850C333C2BF7D10835B542F1D155E055
:1032B00009F0E0F886B209F0DDF8054609F0DAF821
:1032C00087B209F0D7F806EB052607EB0020B6B267
:1032D00006EB0045842009F0E9F8284609F009F9D1
:1032E000604B1E6905F18003B3428CBF761B8026BC
:1032F00009F01EFD28463246694605F0B9FA064631
:103300000025B5422ADA1DF8050009F0BDF801359F
:10331000F7E7132009F0CAF80025534B585D013533
:1033200009F0B2F80B2DF8D1002009F0E2F80020E6
:1033300009F0DFF812E0082009F0B8F8B4F8180234
:1033400009F0CEF8B4F81A0209F0CAF8B4F81C0271
:1033500009F0C6F8B4F81E0209F0C2F8D4F8C43077
:10336000424D987909F090F8D4F8CC300133092B0C
:1033700088BF0023C5F8CC303D4D94F818292E683D
:103380003A4B002A00F05C81D3F81C29002A00F097
:10339000578193F82039013B012B00F25181D4F879
:1033A0001C09324F04F006FEE0B1D7F81C0904F006
:1033B000FEFD97F8213980467E2BD5F800900ED17E
:1033C00002231B2887F8203909D1D7F81C0904F0FB
:1033D000F1FD20B90123C7F8249987F8283984F82A
:1033E0002189DCE7D7F824292B689B1A41F658324B
:1033F00093421DD9032387F8203921E11D4A32F871
:10340000130010B903464FF403600133B0F5C06FE9
:10341000DBB26DD030D9B0F5006F6FD042D9B0F5C6
:10342000036F49D184F82939E369104F99064AD4CA
:1034300094F8281994F82939002900F0FF802A68A7
:10344000921B012ADAD984F82939002384F8283913
:10345000F6E000BF190D0020F606002058050020F8
:103460005C0D0020040000204C6801088804002046
:10347000BC2A00202C680108B0F5007F38D006D89F
:10348000B0F5807F68D0B0F5887F65D0D4E7B0F51F
:10349000806F74D0B0F5826F00F09080B0F5047F3B
:1034A000CAD11CE0B0F5E26F65D0B0F5E46F62D030
:1034B000B0F5E06FC0D15EE0B0F5046F5BD0B0F561
:1034C000026FB9D1A5E097F820309A07B0D5798C72
:1034D00024234B436421123393FBF1F1A8E084F8D9
:1034E00029392369984F9B07A2D5BB8A0A219EE000
:1034F00084F82939236913F4006F32E0E169924AB4
:10350000880684F8293993D592F8201089078FD539
:10351000DB0710D5D36A192283EAE371A1EBE371CB
:1035200001EB5101B1FBF2F1002BACBF41F00041C6
:1035300041F040410DE0936A192283EAE371A1EB67
:10354000E37101EB5101B1FBF2F1002BB8BF41F087
:1035500080414FF400604BE084F82939E36913F0AF
:10356000040F3FF465AF002107F000FF764B002207
:1035700083F828295CE784F82939002138E084F8A9
:10358000293994F82A39704A0133DBB2032B88BFFA
:10359000012382F82A3942F2107394F82A19594308
:1035A0006A4B1B78DF0748BF0131980748BF0231DB
:1035B0005A0748BF04314FF4806019E0E169DFF831
:1035C000888111F0200784F8293917D098F8202035
:1035D00012F0020F14BF4FF47A71002112F0010FA4
:1035E00014BF4FF4FA6300230B4494F826101944D7
:1035F00007F0BCFE002384F8283919E7D8F810300A
:103600001B067FF515AF394607F0B0FE88F828791C
:103610000EE784F82939E3694B4F99067FF508AF27
:1036200097F820309A077FF503AFBB8C642159438C
:1036300007F09CFE002387F82839F9E684F8293939
:1036400094F82B29404B002A5CD02968D3F82C2908
:103650008A1AC72A56D993F83029C3F82C1993F837
:103660003119013283F83029394E93F8322929B9BA
:103670007AB93270D3F83409232141E04AB932785B
:103680003AB9D3F83409582104F097FC0123337078
:1036900038E03378B3B3B4F848390A26A4F83A3995
:1036A000B4F844390027A4F84C39B4F8463944201A
:1036B000B3FBF6F384F83879A4F84E3903F004F834
:1036C0000121B4F93A0902F0E1FF482002F0FCFFC1
:1036D0000121B4F94C0902F0D9FF412002F0F4FFB6
:1036E0000121B4F94E0902F0D1FF2A2002F0ECFFCB
:1036F00094F83809394602F0C9FF3146D4F8340944
:1037000004F05BFC94F850290F4B002A00F09181E3
:103710002968D3F854298A1A092A40F28A8193F831
:103720005829C3F8541993F83119013283F85829EC
:1037300093F83229074B09B972B903E062B91A78D4
:1037400052B901221A7074E188040020CD2D0020A6
:10375000CF2D0020CE2D00201B78002B00F069819A
:1037600094F8593905220133DBB2B3FBF2F202EBD4
:10377000820284F859399B1A13F0FF031FD16E4659
:1037800001228DF804208DF805208DF806208DF893
:1037900007200327B84A00938DF8087003CE1772EC
:1037A000106051600920322102F8013C09F03EFE10
:1037B00009F025FEB14BA3F85A0902F043FF94F833
:1037C00059390A21B3FBF1F201FB123212F0FF0F5B
:1037D00032D1642B30D8002300930123ADF804309C
:1037E000ADF8063002238DF81830A54B02AE03F178
:1037F0001007324618685968083303C2BB421646A0
:10380000F7D16E469C4B06AF324603CABA421860E7
:103810005960164603F10803F6D11278DC211A70BC
:10382000984B16221920DA7109F000FE09F0E7FD25
:10383000A4F85A0902F006FF94F859191E23B1FBA7
:10384000F3F203FB121313F0FF0F40F085808B4B54
:10385000B3F85C390BB19BB200E00823D4F83C19F3
:10386000642202FB01F0D4F8401900264A430027E5
:1038700003920022CDE90067ADF81420ADF81620C0
:10388000ADF81A208DF81C206E466A46B4F944192A
:103890004FF47A7E0EFB01F18DF81D30764B0290CD
:1038A0000491ADF818E00DF11808174603CF47450D
:1038B000186059603A4603F10803F6D138681821B8
:1038C0001860BA886F4F9A801E20F97109F0AEFD1A
:1038D00009F095FDA4F85A0902F0B4FED4F83C2989
:1038E000642303FB02FBD4F84029B4F9449903FB99
:1038F00002FAD4F860094FF47A7303FB09F90AF06D
:10390000CDFF00238DE80808ADF81430ADF816306F
:10391000ADF818303346CDF808A0CDF80C90CDF8AE
:103920001090ADF81A0007F108021E4603CE464576
:1039300010605160334602F10802F6D1306821234D
:10394000106068211C20FB7109F070FD09F057FD23
:10395000A4F85A0902F076FE94F859191E23B1FB17
:10396000F3F203FB1213DBB20F2B444E61D1D6F8F6
:1039700060090AF06DFF1FFA80F8B6F944090AF0F1
:103980004DFD6E466A46404B00270093019300238D
:10399000ADF81230384B02900397ADF810800DF15E
:1039A000100C9646BEE80300E64518605960724662
:1039B00003F10803F5D1DEF80000DFF8C8801860D5
:1039C00014204A23014688F8073009F02FFD09F03A
:1039D00016FDA4F85A0902F035FED4F86C39D4F873
:1039E000682903933346D4F8641900200DF1800E42
:1039F000029200900191049705974EF8687D08F1B6
:103A000008021E4603CE764510605160334602F12F
:103A10000802F6D130681E23106027211C2088F888
:103A2000073009F003FD09F0EAFCA4F85A0902F096
:103A300009FE94F87029114B002A00F0FF802968D4
:103A4000D3F874298A1A092A40F2F88093F8782961
:103A5000C3F8741993F83119013283F8782993F86F
:103A600032290A4B09B99AB903E08AB91A787AB9A6
:103A700001221A70E2E000BFD72A0020880400204B
:103A800069680108CF2A002000002041D12D0020C4
:103A90001B78002B00F0D28094F879391E21013375
:103AA000DBB2B3FBF1F284F8793901FB123313F086
:103AB000FF03DF4E59D186F87A396B46DD4F7968BE
:103AC000386803C3684602F0BBFC02F0A5FC02F0B4
:103AD000F3FC02F0A1FC02F04FFD02F09DFC02F0AD
:103AE000FDFC02F099FC312002F088FC02F094FC0D
:103AF000B6F85C2907F10801684607F075F86846D2
:103B000002F09EFC02F088FCD6F87C6930460AF090
:103B1000C5FEC9495FFA80F830460AF0D3FC064674
:103B20000A2000FB08F00AF079FC014630460AF052
:103B3000BFFB0AF0B3FE07F10E01C3B2424668466E
:103B400007F052F8684602F07BFC02F065FC02F0D8
:103B500061FD02F061FC02F05DFD02F05DFC02F02F
:103B60005BFC02F083FC02F02BFC94F879191E2315
:103B7000B1FBF3F203FB1213DBB20F2BDFF8B082C1
:103B80005CD16B46AD4E00277168306888F87A7951
:103B900003C3684602F054FC02F03EFC02F08CFCC9
:103BA00002F03AFC412002F029FC02F035FC02F060
:103BB000E3FC02F031FC02F091FC02F02DFCD8F89D
:103BC00080090AF06BFE06F1080182B23B466846A6
:103BD00007F00AF8684602F033FC02F01DFCD8F842
:103BE00060090AF05BFE3B4682B206F108016846B6
:103BF00006F0FAFF684602F023FC02F00DFC06F125
:103C00001201D8F88429684606F0EEFF684602F0F3
:103C100017FC02F001FC06F108013A463B466846F3
:103C200006F0E2FF684602F00BFC02F0F5FB4520CF
:103C300002F0E4FB02F01AFC02F0C2FB94F88839AF
:103C40007B4E002B00F0F080D6F88C39002B00F072
:103C5000EB802F68D6F89039FB1A632B40F2E48092
:103C60007749D6F860090AF02DFC0AF017FE85B2F4
:103C7000412002F08BFB002002F07FFB002002F0CD
:103C80007CFB28460AF0CAFB6B490AF0CFFC0AF01D
:103C900005FE80B202F071FB02F040FB96F89459E9
:103CA00015F001052BD0F3699B063CD5B6F95C39BC
:103CB0004720052BB4BF0225032502F067FBD4F88B
:103CC0003C096426704302F047FBD4F84009704376
:103CD00002F042FB5A49D4F880090AF0F3FB0AF0DB
:103CE000DDFDC0B202F026FBB4F94409704302F0D6
:103CF00033FBB4F95C0945EA8000C0B20FE0532001
:103D000002F044FB284602F038FB284602F035FB5F
:103D1000284602F00FFB284602F00CFB012002F0BF
:103D200009FB02F0FBFA94F89459DFF80481C5B955
:103D30004F2002F02BFBD8F83C096426704302F0B8
:103D40000BFBD8F84009704302F006FB284602F04E
:103D500003FB012002F0EEFA012002F0EBFA02F080
:103D6000DDFA94F894390A210133DBB2B3FBF1F2A6
:103D700001FB1233C4F8907984F8943954E0BB788D
:103D80002BB1C5F8A06087F80280FEF7D0BCD5F84B
:103D9000A030F31AB3F57A6FFEF4C9AC0123D5F85D
:103DA000A400BB7004F003F90746D5F8A40004F0A2
:103DB000FEF87F067EF4BBAC8A2803D08E280DD097
:103DC000FEF7B5BCEB6998067EF5B1AC95F89E3070
:103DD000002B7EF4ACAC05F16D0306E095F89E3047
:103DE000002B7EF4A4AC05F13803C5F8A8302D23D0
:103DF00085F8AC30FEF79BBC08F046FBB5F8F00147
:103E000008F06EFB95F8F20108F03EFB95F8F3011F
:103E100008F03AFB95F8F50108F036FB95F8F40147
:103E200008F032FBFFF740BA21B0BDE8F08F00BFC9
:103E3000880400207C5701080000204194570108A5
:103E40000000C8422DE9F04FA24C87B02368C3B9E7
:103E5000A14D2B78013B042B00F22E85DFE813F0F7
:103E60001004100410041305F4049A4B186804F0AD
:103E70009EF89A4B05461B681B7843B1012B00F056
:103E80007881206804F096F80028EED1E0E7242835
:103E9000934E0CD006D80A2800F0E5800D2800F0DB
:103EA000E28051E12A2806D02C2804D04CE133705E
:103EB0007370B37059E18B4B717896F800800020D5
:103EC000874A5854B8F1000F26D1197882F8038038
:103ED000472921D1597850291ED19978472907D1EE
:103EE000D978472904D11979412901D10121D1700B
:103EF00099787C4A522903D1D1784D2900F0D48495
:103F00009978784A472907D1D178532904D1127971
:103F1000562A04BF0322F270F278714F022A3AD077
:103F2000032A4FD0012A40F08C80A8F10202072A10
:103F300000F28780DFE802F004080F131A25852AB3
:103F400009F0B0F970607CE01B78532B79D173686D
:103F50005B42736075E009F0A5F9B06071E01B7811
:103F6000572B6ED1B3685B42B3606AE01B78302B8D
:103F70005D4B1A788CBF42F0020222F002021A70E6
:103F80005FE0002009F0EEF930735AE0002009F0FC
:103F9000E9F9F08155E0B8F1070F07D0B8F1080F43
:103FA0004FD1012009F0DEF978824AE0012009F0C2
:103FB000D9F941F2184358434FF47A73B0FBF3F048
:103FC00038823EE0B8F1020F08D0B8F1030F0AD1F1
:103FD000002009F0C7F9454B187032E0002009F0C5
:103FE000C1F938752DE02CD9A8F1040292103B7D5F
:103FF0000132D2B2013B02EB8303DBB2102B20D89B
:10400000A8F10301C2F1010201EB8202D2B2012A3E
:104010000BD0042A11D100205F1E09F0A3F9344B04
:104020000022D855334BDA5507E0334A5F1E002093
:10403000D35509F097F9314BD855314A13680133FC
:104040001360274A2A2D18BF917808F101084FF014
:1040500000030CBF01214D4086F8008073700CBF37
:104060005175957081E0737D002B6AD0254B13F854
:10407000012D25495A708B42F9D11A4AB07813782C
:104080005278402B85BF373B1B011B01DBB298BF29
:1040900003F0F003402A8CBF373A303AD2B21344CF
:1040A000DBB298420E4A49D121230B7017491648BA
:1040B0000B6801330B60D378012B2DD0022B3FD13D
:1040C0007223118A0370124B528A1980114B1A8085
:1040D00036E000BF74040020380400207004002083
:1040E000D00F0020C02A0020A8040020180D0020B6
:1040F000490D0020390D0020190D0020290D002048
:10410000582900206C040020580400206429002055
:10411000AA0400200C0D0020672101709D49097838
:104120008F070ED59C495068086090684860107BE6
:104130009A490870D1899A4A118002E03F230B7096
:1041400000230022727510E073780E2B9FBF954AF2
:10415000591C5170944A934998BFD554737D1BB92B
:104160008A7855408D7000E00023DD077FF589AE29
:1041700053E18C4B9A7D082A3FF683AEDFE802F0CC
:10418000050C1319242F4A606A00B5287FF479AE14
:104190000022DA75012202E0622802D000229A751C
:1041A0006FE60222FBE703229A7518765876987616
:1041B00067E604229A755A7E997E0244D2B25A76F4
:1041C0000A449A76D8765CE605229A755A7E997EDC
:1041D0000244D2B25A760A449A76988351E606226D
:1041E0009A755A7E997E0244D2B25A760A449A76D9
:1041F0009A8B02EB0025ADB2B5F5AC7F82BF694A60
:104200000121D17500229D83DA83002D7FF439AE20
:104210000722C4E75A7E997E0244D2B25A760A44F3
:104220009A76DA8BB2F5AC7F3EBF5E49891881F889
:1042300020000132998B92B29142DA83E8D920E6CC
:1042400008229A755B7E83423FF41BAE554B0122D8
:10425000DA750EE0002255499A7511F8012D4A7061
:10426000534A9142F9D1987E4E4AA84206D03F2344
:104270000B70504A53680133536002E64E4D286874
:1042800001302860D07D10B13E230B70F9E521206C
:104290000870D07E06284DD004D8022814D00328F8
:1042A00030D0EEE5122864D030287FF4EAAD492002
:1042B000087092F82410414A102988BF102111700B
:1042C00010783F49002283E0502008703249506A3C
:1042D0004860906A0860116B4FF47A7091FBF0F1BE
:1042E0002F48018092F878112A4A19B1117841F0CB
:1042F000020102E0117821F002011170012283F81D
:1043000079217AE05320087092F8251011F001010C
:1043100005D092F82420D01E4242424100E00A46D5
:1043200083F87821002A68D11A490A7822F002021B
:104330000A7062E04F20087092F82B1011F0010112
:1043400005D092F82A20D11E4A424A4100E00A468E
:1043500083F8782122B90F490A7822F002020A7004
:1043600093F84F100D4A1170B3F84C10154A118094
:1043700043E056200870506B1349088042F21070D9
:10438000916B91FBF0F111480180012182F87A11C3
:1043900033E000BFA8040020B0040020AE040020D9
:1043A000AC040020D00F0020C02A00206C040020A4
:1043B000580400203804002064290020180D002033
:1043C000F00F002046000020AA0400200C0D002061
:1043D00082420ED20E7AB64D56554E7AB54D56558E
:1043E000CE7AB54D565511F80C6FB44D5655013275
:1043F000EEE7B3490A6801320A6093F87931B14AAD
:10440000002B3FF43EAD92F87A31002B3FF439ADEA
:10441000002382F8793182F87A31AB4BDFF8E08201
:10442000DA681A61A94A1268DA60A94A136843F087
:1044300020031360A74B1A78012A0CBF0022012227
:104440001A7098F800309A077FF51BADA24A1278CF
:10445000042A7FF616ADA14A127802F0040202F097
:10446000FF011AB923F0010388F8003098F80070B2
:10447000944E17F0010F9A4D24D119B3BB0721D5E3
:10448000984B28686A6818605A6009F0C7FF0021D5
:1044900081460AF0D3F908B1484601E009F100402D
:1044A00091490AF0C3F891490AF00CF806F046FC6D
:1044B0008F4B47F0010718608E4B88F800701B88FF
:1044C000A6F87C3196F87E21531C052293FBF2F26C
:1044D00002EB82029A1A96F87F3186F87E210293C7
:1044E00092000023DFF8F8919900DFF828A20391E9
:1044F00059F82310DFF820E291FBFAFC0EF10800D6
:1045000040F823C07C484EF8231000FB0C1142F207
:10451000107091FBF0F00EF1100680B226F8130037
:104520004FF014080EF1140608FB03680EF13C0B63
:1045300058F802705BF8236048F80210F61B0E442E
:1045400005214BF8236096FBF1F60AFB0C660299F5
:104550000EF1440E01294EF82360C84606D10238F8
:10456000B0F5797F9CBF039941F809600BB901232D
:10457000B8E7DFF85891534FD9F80000D7F8CC319D
:10458000C01A09F047FF5D490AF050F8D9F8003029
:104590004FF07E51C7F8CC3106460AF031F908B920
:1045A0004FF07E56564BC7F8D0611B78DFF86C9100
:1045B00013F00103534E13D004AA0092494B05AAED
:1045C00001920CCB98E8030008F020FB049A6421C8
:1045D000B2FBF1F2059BA9F8002093FBF1F301E097
:1045E000A9F80030338097F8D431364E002B3BD0F9
:1045F000D6F8D0114FF07E500AF018F88246D6F85F
:10460000D8312868C01A09F009FF514609F05AFF4D
:104610000AF01EF9D6F8DC311FFA80F968680FFA43
:1046200089F9C01A09F0FAFE314B196809F04AFFFE
:10463000514609F047FF0AF00BF9B6F9E22100B242
:104640008118B6F9E021022009EB020391FBF0F199
:1046500093FBF0F389B29BB2A6F8E611A6F8E43119
:10466000A6F8E211A6F8E031012387F8D431D8F892
:104670000430C7F8DC31D8F80030C7F8D83100E48E
:10468000214E3268177817B1012F49D014E1012B60
:1046900000F212816A781D4B0C2101FB02335A781B
:1046A0001B4B206853F8221003F07EFC96E000BFFD
:1046B000190D0020290D0020390D0020490D002082
:1046C00058290020D00F002038040020BC2A0020E8
:1046D000A40400200E0D0020AE040020CD2D0020EB
:1046E000B0040020100D00208096184B35FA8E3C47
:1046F0001C000020B00E0020806967FF00007A4493
:10470000A804002024050020700400207C5001082B
:10471000005B0108809698005011002022050020BF
:104720002068DFF8C08103F0BFFB002800F0C480E0
:104730002A78634B022A3FD0032A4CD0012A40F04A
:10474000BB80604A10689A69821AC72A40F2B48016
:10475000596904292ED85C4A0C24964604FB012191
:10476000D8F800404E78A768986100235749D8B21E
:1047700051F82320BA4204D00133092BF6D100238B
:1047800000E00346B34205D0204651F8261003F05E
:104790000BFC91E06B780C2101FB03E2566816F8E4
:1047A000011B19B1204603F008FCF8E76B690133DF
:1047B0006B6181E0022074E05A78434B0C2101FBCD
:1047C00002335A78414BD8F8000053F8221003F016
:1047D000EBFB032065E0326892780AB9042060E0C0
:1047E0001A7F02B91F772B7F354F012B0FD17B69C1
:1047F000B22B08D8364A2068D15C03F0DEFB7B6917
:1048000001337B6103E000237B6102233B772B7F35
:104810002B4F022B14D17A690F2A0FD833682C49F9
:104820005B78206803EB03130B44134493F8B41034
:1048300003F0C3FB7B6901337B6101E003233B771A
:104840002B7F022B38D9C9E7AB681D490133AB6018
:10485000204B1B68DB784BB14B7805220133DBB270
:10486000B3FBF2F202EB82029B1A4B70154B002253
:104870001B680120EB60184B1A70184A137823F05C
:10488000020313700DE00F4BEA681B689B1A40F699
:10489000C412934210D9124A0520136823F0200352
:1048A000136008F0A5F907E01279432A7FF428ABDA
:1048B0000222F270FFF724BB07B0BDE8F08F00BF03
:1048C00038040020BC2A00207C500108005B01084D
:1048D000C457010870040020AE040020A804002082
:1048E000A4040020740400202DE9F04F87B06C4C24
:1048F00002916C4922880E680546C2EB26135B4381
:104900005200C2EBE602B4F902601B135643B4F93D
:104910000420B4F90A0053439B1303EBE62606EB8D
:10492000860380331B12B6F5FA384FEAE677049314
:104930004B6847F1FF39A8FB08AB039308FB09F369
:10494000B4F908200BEB430BE389A6610593D31759
:1049500008FB03F102FB0911A8FB02230B44C1175A
:104960001F030AFB01F300FB0B33AAFB0001160334
:10497000194447EA1257020A42EA016292194FEAC1
:104980002123E6887B410032A2FB060143F5004368
:1049900006FB03114B100093CB170193DDE90023B5
:1049A0001343B4F810E0B4F80CC06DD00FFA8EF0D9
:1049B000C1170AFB01F1AAFB002300FB0B11BDF993
:1049C00014600B44F71708FB07F106FB0911A8FB5D
:1049D00006670F4479047004801841EAD6315941C2
:1049E000039B0FFA8CF8C3F5801E7246D317002282
:1049F00012184FEACE764FEAC3774FEAC8034B410D
:104A000047EA5E07B61A67EB030740F63543A6FB95
:104A1000030103FB0711DDE9002309F05FFFB4F98F
:104A200016204E1302FB06FE470B47EAC147D31779
:104A300007FB03EEA2FB07235643734407FB036601
:104A4000A2FB07233344560E46EAC3168219B4F973
:104A500014604FEA636741EB07037143F71700FBEC
:104A60000717A6FB00013944C60C46EA41369219E5
:104A70004FEAE1474FEA1221B4F912207B4141EAA3
:104A8000036113010B4400E000230DB11B0A2B60EE
:104A9000029B13B11A46049B136007B0BDE8F08F68
:104AA000A4030020E8110020704770476B4B6C4A4C
:104AB0002DE9F04F5E8994684FEA062AB4EB0A0AA2
:104AC0009C884FF000054FEA04481C894FF0000B0A
:104AD000A4FB0A6765EB0B0B04FB0B77F40944EAB4
:104AE000476418EB04065C884FF000094FEAE715AD
:104AF0004FEAC438DC8849EB050787B0CDE9046785
:104B0000A4FB0A6704FB0B77340A44EA076418EB3A
:104B100004064FEA27259C894FF0000949EB050759
:104B2000CDE90067AAFB046704FB0B77F40D44EAA8
:104B3000472414F5FA664FEAE75545F10007B6F544
:104B4000FA6F77F10003CDE90267964666DADDE990
:104B50000489A4FB046704FB05F34FF0050C07EB85
:104B60004307A6FB0C230CFB07335F104FEA32060A
:104B7000B8EB06084FEA920646EA837669EB070926
:104B80009F10DDE90023921B63EB0703CDE90023AF
:104B9000DDE90267334A4FF0FF33964277EB0303B8
:104BA000CDE9048927DA40F6AC520023A4185D4110
:104BB00004FB05F3A4FB04456FF0060205EB430577
:104BC000664202FB0566A4FB0223334418EB02068F
:104BD00049EB0307CDE904670B26A4FB062306FB7C
:104BE0000533DDE900455B104FEA3202A41A65EB9C
:104BF0000305CDE90045DDE902450AFB0BF3AAFBFD
:104C00000AAB0BEB430B4FEADA7242EA4B02A41AEF
:104C10004FEAEB7365EB0305CDE90245DEF80C4086
:104C2000009B019DA4FB032304FB05334FEA52586C
:104C300048EAC3284FEA6359DDE90423B8EB0202CE
:104C400069EB03039946D30B43EA494300B1036080
:104C500009B1029B0B6007B0BDE8F08F5003002044
:104C6000E811002024FAFFFF2DE9F041324C334DCA
:104C700062892B8AB4F904809A1A2389B4F902E074
:104C80005A43B4F91230D613B4F91420DB0232447B
:104C900093FBF2F232440A26E2615643A2F57A62AD
:104CA00002FB02F3B4F90EC002FB0EFE02FB08F297
:104CB000B4F90C801B130CFB03FC03FB08F31B145F
:104CC00003EB62320232E388921002F50042534352
:104CD0004CF25032B4F920704FEAEE2EB4F9004095
:104CE0000EEBEC2C0CEB8404BC406D690234A5EB9C
:104CF000A4043A4162434FEAD3384EBFB2FBF8F303
:104D00005400B4FBF8F340F6DE3448BF5B001A12DF
:104D1000524362430A4C08365C43241404EB22429B
:104D200002F6CF62361103EB221300B1036001B12A
:104D30000E60BDE8F08100BF64030020E811002090
:104D400043E3FFFF13B50C4B04465B681B200221B5
:104D500001AA984770B19DF804209DF8053043EAF8
:104D6000022303F54E5310334FF48C7293FBF2F38E
:104D70002333238002B010BD3C03002037B5104B15
:104D800004465D68187806216A46A847A8B19DF8D0
:104D900000209DF80130012043EA022323809DF882
:104DA00002209DF8033043EA022363809DF804202B
:104DB0009DF8053043EA0223A38003B030BD00BF55
:104DC0003C03002013B5104B04465B683B200621D2
:104DD0006A469847A8B19DF800209DF8013001204F
:104DE00043EA022323809DF802209DF8033043EA22
:104DF000022363809DF804209DF8053043EA0223D6
:104E0000A38002B010BD00BF3C030020B0F5807F3E
:104E10000ED0BB280ED861280ED829280ED813280A
:104E20000ED809280ED8002814BF0620002070478D
:104E30000020704701207047022070470320704710
:104E40000420704705207047054A08B513880133D0
:104E50009BB21380034B187803F052FF002008BD6B
:104E6000A60C00200421002008B54FF4804002F079
:104E700091F9012801BF044B4FF480425A61034B62
:104E800008BF187608BD00BF00040140E8110020EB
:104E900010B5054C2368186902F07CF918B1236835
:104EA0001A69024B5A6110BD4803002000040140FA
:104EB000F8B50E461746084C4FF48055656140F032
:104EC000800008F083F938460021324608F048F99E
:104ED00025610120F8BD00BF000C014070B50E46F1
:104EE000054C4FF48055656108F070F9304608F0C4
:104EF0006DF92561012070BD000C014070B5FFF710
:104F000085FF104C0546192002F0BBFEA368152052
:104F10000021984710B9022002F012FF45F0180155
:104F2000A368C9B216209847A368002117209847A4
:104F3000A36801213D209847A3683E200121BDE8D8
:104F4000704018473C030020F0B5274D85B06B7EBC
:104F5000002B46D1254C2368002B42D01A68244EE2
:104F600012B1B1690A43B2619A889868ADF800201D
:104F700002228DF80320694604228DF8022003F0F6
:104F80002AFAB369002743F00103B36123680126BD
:104F9000187B197D03F00AFA2368164993F9150066
:104FA00002F018FF2368144A1B6953610293082317
:104FB0000DEB03008DF80D308DF80C708DF80E6040
:104FC00002F0B8F8236801A85B7D8DF806708DF8B3
:104FD000043003238DF805308DF8076008F0A2F83F
:104FE0006E7605B0F0BD00BFE81100204803002038
:104FF00000100240914E00080004014037B50446FD
:10500000FFF7A2FF254B1A68254B9A420ED14FF4A9
:105010000053ADF8043002238DF8073004232148F3
:105020000DEB03018DF8063003F0D5F92046FFF7AC
:10503000EDFE05461C4C8021A3686B209847642038
:1050400002F01FFEA368072168209847642002F041
:1050500018FEA36800216B209847642002F011FE1F
:10506000A36801216B209847A36818211B2098474B
:10507000A36810211C209847A36829461A20984746
:10508000A368002119209847A36812213720984768
:10509000A36801213820984703B030BD28000020C4
:1050A000001BB700001001403C03002008B5FFF7CB
:1050B0004BFF024B4FF480521A8008BD04000020C1
:1050C00070B50446FFF740FF2046FFF79FFE0546F8
:1050D000144C8021A3686B209847642002F0D1FD16
:1050E000A368002119209847A36803216B209847E3
:1050F0000F2002F0C6FDA36829461A209847A3682E
:1051000018211B209847A36810211C209847A368EA
:10511000022137209847A36838200121BDE870405C
:10512000184700BF3C03002008B5FFF70DFF074BF1
:105130005B7813B1012B03D008BD4FF4006201E08E
:105140004FF48052024B1A8008BD00BF3A03002082
:105150000400002010B54000204CC0B22070204850
:10516000204C0170204800210170012020701F4C4C
:1051700023601F4C23601F4B1A701F4A1F4B107077
:1051800019701F49086811461A4630B383889C0578
:1051900015D40388DB050DD447F230530488A405E9
:1051A00002D5013BFAD112E08BB103889BB243F4E4
:1051B0008073038083889BB243F44073838047F2FB
:1051C0003053087810B1013BFBD100E013B9BDE8C2
:1051D000104039E6107880F0010010BD0A2100204F
:1051E0000821002006210020102100200C21002091
:1051F000142100200921002018210020192100205D
:105200000021002007B5F7216B4606227620FFF724
:10521000A1FF9DF800309DF801101B0343EA011324
:105220009DF80210094A43EA111353609DF80330B8
:105230009DF804101B0343EA01139DF8051043EA8F
:105240001113136003B05DF804FB00BFE8110020E8
:1052500007B5002101AB03227720FFF77BFF9DF804
:1052600005309DF804001B0243EA00439DF8060048
:10527000184303B05DF804FB08B5FFF7E9FF014BE5
:10528000D86008BDE811002008B5FFF7E1FF014B29
:10529000986008BDE81100200F4B13B51B780F4C28
:1052A0000BB1237EB3B1032201AB7720F621FFF7C8
:1052B00051FF9DF805309DF804201B0243EA02438C
:1052C0009DF806201343064AB2F92020C2F10802D5
:1052D000D340636102B010BD00000020E81100203F
:1052E000640300200A4B13B51B780A4C0BB1237ED4
:1052F00063B1022201AB7720F621FFF72BFF9DF867
:1053000004209DF8053043EA0223238202B010BD39
:1053100000000020E811002030B505460C46134679
:1053200029462246BDE83040682013E713B506221F
:10533000044601211C206B46FFF70CFF08B39DF8C3
:1053400001309DF80020042143EA022242F38D023D
:1053500092FBF1F29DF8023022809DF8032042EA90
:10536000032242F38D0292FBF1F29DF80430628039
:105370009DF8052042EA032343F38D0393FBF1F3E9
:10538000A38002B010BD13B50622044602211820E6
:105390006B46FFF7DFFEB8B19DF800309DF80120A5
:1053A0009B0803EB022323809DF802309DF8032025
:1053B0009B0803EB022363809DF804309DF80520D1
:1053C0009B0803EB0223A38002B010BD314B2DE9F3
:1053D000F3411B780546002B3BD000242646274688
:1053E000A04601345320322108226B46E4B2FFF775
:1053F000B1FE08B9002049E09DF801209DF8003079
:10540000202C03EB02231BB29DF8032098449DF847
:10541000023003EB02231BB21F449DF805209DF8C8
:10542000043003EB02231BB21E449DF8073003F047
:105430007F0301D0002BD4D198FBF4F897FBF4F74D
:1054400096FBF4F6144BA5F800806F80AE809C7636
:105450001CE05320322106226B46FFF77BFE00281A
:10546000C8D09DF801209DF8003003EB02232B806B
:105470009DF803209DF8023003EB02236B809DF81A
:1054800005209DF8043003EB0223AB8002B0BDE899
:10549000F08100BF4E030020E811002013B502ABDD
:1054A00003F8012D4000214AC0B21070204A0020AC
:1054B0001170204901220A701F4908701F490B60B2
:1054C0001F490B601F4B20491A700A701F4B204A5E
:1054D000187010681A4630B383889C0515D4038869
:1054E000DB050DD447F230530488A40502D5013BF7
:1054F000FAD112E08BB103889BB243F4807303802E
:1055000083889BB243F44073838047F2305308781A
:1055100010B1013BFBD100E013B9FFF795FC02E0AD
:10552000107880F0010002B010BD00BF0A210020F9
:105530000821002010210020062100201421002035
:105540000C21002009210020182100201921002011
:10555000002100207620F42131229FE77720482186
:1055600001229BE777205821012297E7064B002173
:1055700093F82020054B9201343219767720F421DC
:1055800002F0FC028AE700BF64030020E81100205B
:10559000034B00221A767720F4212E227EE700BFEB
:1055A000E811002003460A466820194676E713B53D
:1055B00000222A211C20FFF771FF0E2102221C204D
:1055C000FFF76CFF0F2103221C20FFF767FF2B2141
:1055D00012221C20FFF762FF164A02249369164824
:1055E00043F0040393612023ADF8043004230DEB52
:1055F00003018DF806308DF8074002F0ECFE2246DC
:105600002C211C20FFF74AFF2D2101221C20FFF72F
:1056100045FF2E2100221C20FFF740FF2A210522F2
:105620001C20FFF73BFF054B4FF480721A8002B03D
:1056300010BD00BF0010024000080140040000201F
:1056400008B50F2108221820FFF728FF0E22182086
:105650001021FFF723FF024B4FF480521A8008BD40
:105660000400002008B5134B53201B782D2108227D
:105670007BB1FFF713FF31210A225320FFF70EFF02
:105680002C210C225320FFF709FF532038219022B0
:1056900009E0FFF703FF31210A225320FFF7FEFE46
:1056A00053202C210A22FFF7F9FE40F20912024B87
:1056B0001A8008BD4E0300200400002003F028BC1F
:1056C00003F04CBD03F024BC03F048BD0000000013
:1056D0000B88584080EA0010C0B21B0A83EA1013FE
:1056E00043EA002383EAC0030B807047034A137820
:1056F000591C134411705878704700BF10120020D5
:1057000038B5FFF7F3FF0446FFF7F0FF44EA002047
:1057100084B2FFF7EBFF0546FFF7E8FF45EA0020FC
:1057200044EA004038BD421E002012F8013FA3F1B8
:105730003001092904D80A2101FB00303038F4E790
:10574000704738B51648FFF7EEFF6422B0FBF2F35E
:1057500002FB1302134B124C534322782146A2F151
:105760003005092D04F10104F7D92E2A0DD142F29A
:10577000107411F8012F303AD5B2092D05D802FB6B
:1057800004330A22B4FBF2F4F3E706220333B3FB3B
:10579000F2F36422B0FBF2F0034A02FB003038BDA2
:1057A0001F120020A086010040420F0038B5164CA1
:1057B000224612F80F5F1034A5F12D035D425D41C2
:1057C000002D08BF14462046FFF7ADFF6423584361
:1057D00023461A4613F8011BA1F13004092CF8D90D
:1057E0002E290DD15378303BD9B2092908D80A2186
:1057F00001FB03009378303BDAB2092A98BFC01846
:1058000005B1404238BD00BF101200202DE9F74F0E
:105810007A4C002394F821100246A377092900F25C
:105820009580DFE801F00505172B21333B4E627BA5
:10583000FE2A40F08B80022384F82130002384F874
:1058400051304FF0FF3384F8502084F84E3084F804
:105850004F307BE010466A4984F8223084F85120AA
:10586000FFF736FF042306E01046654984F852200E
:10587000FFF72EFF032384F8213067E010466049CC
:1058800084F85320FFF724FF0523F4E710465C4912
:1058900084F85420FFF71CFF0623ECE7574B104613
:1058A00003F14E0184F855200093FFF711FF94F89F
:1058B0005120009B0AB90823DDE7072283F8212045
:1058C00044E094F8221010464B1C2144DBB281F8CE
:1058D00056204B4984F822300093FFF7F9FE94F8E4
:1058E0005120009B9A4231D1E5E7DFF810C194F8CE
:1058F000553044490192C85C0CF14E01CDF800C00E
:10590000FFF7E6FEDDF800C094F82230019A092185
:1059100063448CF8211083F8562017E0374B94F835
:10592000221001201944987783F8210081F857202C
:1059300093F85590D3F85A50D3F85E60D3F862705C
:10594000D3F8668093F872A093F873B0A17F2B4AC6
:10595000012908D192F8523082F82330D38C03B950
:1059600013850133E384002384F82030002942D0DA
:10597000B9F11E0F39D0B9F1210F1CD0B9F1180FB0
:1059800039D1642397FBF3F796FBF3F61E4B1F4ABE
:105990001F601F4B1660A3F800B04FF47A7398FB9A
:1059A000F3F81C4B0122A3F800801B4B92451A70A0
:1059B00017D9012216E0642396FBF3F695FBF3F565
:1059C000114B124A1E604FF47A7397FBF3F7114B99
:1059D00015601F80104B01221A70002DE9D1002E96
:1059E000E7D100220D4B1A7005E00D4B1E600D4BE8
:1059F0001D600D4B1F6003B0BDE8F08F101200203A
:105A00005E120020CC580108640F0020B02D002049
:105A1000E40D0020740F0020B50E0020B60E00200B
:105A2000F00D0020EC0D0020F40D0020642330B5B3
:105A3000B1FBF3F403FB14130A214A43054D9BB257
:105A400005FB03233C22B3FBF2F3A4B205FB0433B2
:105A5000584330BDA086010044280ED15C4B012282
:105A60005C4983F88E2400230B805B490B704870DF
:105A70005A490A705A4A1370704748280AD1544B41
:105A8000022283F88E24574B00221A80524A537800
:105A900048330BE041280BD14D4B032283F88E2471
:105AA000514B00221A804C4A53784133537070474F
:105AB0002A2801D1042212E00A2814D1464B5A7830
:105AC0001B789A420AD1494B01221A70434B454A2E
:105AD00093F9003012885343454A138000223C4B0F
