:020000040800F2
:100000000050002055DF0008F5DF0008F5DF00088C
:10001000F5DF0008F5DF0008F5DF0008000000004C
:10002000000000000000000000000000F5DF0008F4
:10003000F5DF000800000000F5DF0008B3A00008AD
:10004000F5DF0008F5DF0008F5DF0008F5DF000840
:10005000F5DF0008F5DF0008DD770008D977000834
:10006000F5DF0008C1A00008F5DF0008F5DF000893
:10007000F5DF0008F5DF0008E9880008F5DF000873
:10008000D5BD0008F5DF0008F5DF0008F5DF000842
:10009000F5DF0008F5DF0008F5DF0008D577000878
:1000A000F5DF0008D9860008F5DF0008E9860008BA
:1000B000CD860008ED540008DD5400083D480008D6
:1000C000414800083548000839480008F5DF0008B5
:1000D000F5DF0008E1880008D9880008D188000809
:1000E000C5A00008F5DF0008F5DF000800000000EB
:1000F0000000000000000000000000000000000000
:0C01000000000000000000005FF808F1A3
:100110002DE9F04F824B834C9FB0C4F898300023F8
:10012000C4F89C300AF086F918B90AF0A5F90BF06A
:1001300059FB0BF0FDFB94F8A0307B4D43F001031D
:1001400084F8A03000230B930C930D934FF4E0132D
:100150000E93764BA87B99461A6842F480321A6057
:100160009A6942F010029A61D9F8003003F4003322
:100170000C930B9B01330B930C9B1BB90B9BB3F59F
:10018000A06FF1D1D9F80030684913F4003301D0E1
:10019000022317E00A6842F001020A600B93D9F8C3
:1001A000003003F002030C930B9B01330B930C9B69
:1001B0001BB90B9BB3F5A06FF1D1D9F800309A07AA
:1001C00041D501230D935A4B5A491A6842F0100247
:1001D0001A601A6822F003021A601A6842F00202DA
:1001E0001A60D9F80430C9F80430D9F80430C9F8D5
:1001F0000430D9F8043043F48063C9F804304E4B1E
:100200001A68043B22F070425A604C4A1160D9F8D7
:10021000041021F47C11C9F80410596841F0004120
:100220005960D96821F40041D9609B681B0449BF1B
:10023000434B4FF4E01313604FF480130E930D9B68
:10024000012B01D118E0FEE7022B1BD168B10E9BF8
:10025000B3F5801F02D14FF4A01305E00E9BB3F558
:10026000E01F02D14FF400130E930E99D9F8043019
:100270000B4343F4803303E0D9F8043043F46013B4
:10028000C9F80430D9F8003043F08073C9F8003061
:10029000D9F80010254B8F01FAD5596821F00301D8
:1002A0005960596841F002015960D9F804301F487B
:1002B00003F00C03082BF8D14368224903F00C0328
:1002C000042B03D0082B03D01A4B12E0136810E064
:1002D00043684668C3F38343F60303F1020301D482
:1002E000194805E0406810F4003F106818BF400846
:1002F00043430B60D9F804301448C3F30313034499
:10030000187E0B68C3400B60EB7B003318BF0123E2
:1003100084F8A1301368074A934219D101221BE0E7
:1003200025B50008FC030020AC08002000100240A6
:100330000020024000127A00041001402400002036
:10034000001BB7004000002000093D00F8360108FE
:10035000984A934202D10222974B1A70DFF8B0A25A
:10036000964BDFF8B0B2CAF80C30D9F81830944E7A
:1003700043F00103C9F81830D9F824300027C4F835
:10038000A430D9F82430584643F08073C9F824309B
:10039000D9F818304FF0100843F01C03C9F8183092
:1003A0001EAB03934FF6FF73039A8DF84E7022F83D
:1003B0002C3D114603920BF03AFD304603990BF0A9
:1003C00036FD804803990BF032FD02231EAA8DF8FA
:1003D00047304FF4007322F8343D069206998DF8A9
:1003E00046805846CBF810300BF021FD764A039832
:1003F000536843F00073536007F0A6FC734A139BE5
:100400003946B3FBF2F3724A7248136018220FF0B8
:1004100090FE714B4FF47A721B68DFF8CCC1B3FBCE
:10042000F2F36E4A013B5360F0238AF8233007232E
:1004300097601360AB686A4A039FDFF8DCA1136022
:100440009AE80F0087E80F00D9F81830CDF810C0EF
:1004500043F00803C9F81830D9F81830139843F05E
:100460000803C9F818300823336114A9C6F81080AE
:100470000BF0DDFC159816A90BF0D9FC584BCDF804
:1004800014B01B68564F13F0080FDDF810C013D0DE
:100490009CF88E31012B0FD8524A9CF88F31D2F83C
:1004A000A42012F0805B00F00F8505E04E4B002287
:1004B00083F88F210BF00DFC642009F0F0FDA022E1
:1004C0004A4800210FF035FED9F81C30002243F0D5
:1004D0000703C9F81C30D9F8183043F4006343F01F
:1004E0000C03C9F818303F4B4FF0000803F5A47116
:1004F00002F8018001320E2AF5D1FF2283F856213D
:1005000083F8572183F8582183F85921384B394A09
:100510003E681A60384841463C220FF00AFEC6F396
:1005200080170523354A344818F802100C2202FBC4
:1005300008F211543FB91E3901299FBFFF2103F171
:10054000FF331154DBB208F10108B8F1050FE9D10E
:100550002B4A95F805A013702A4BB106C4F85C31FC
:1005600003F1C003C4F86031274B1E4A03EBCA03F2
:100570005B7848BF0123C2F86431244800211C2263
:1005800084F85AA10FF0D5FD16F40053DFF88CB0B3
:1005900006F400680AD1B8F1000F41D095F8821135
:1005A0000BF10C02012908BF5A463BE0CDF810B010
:1005B00039E000BF001BB7003B2D00200005FA0505
:1005C000000C0140001001400000014040420F00BB
:1005D00018290020941300204000002010E000E0C3
:1005E000EC070020FC030020AC080020A40400203D
:1005F000D41200209C0A0020AC100020705C01087E
:10060000A9100020BC080020504D010864050020FE
:1006100000ED00E00008014020370108F83601082D
:100620000BF10C020492BC4ABAF10E0F1192049A1B
:100630005288ADF84820049A1288ADF84A20069AEC
:10064000C4F8802104D00AF0EF0ABAF1080F02D1F1
:10065000012284F87A210120069305F03FFD069BD4
:10066000C6F34002003318BF012384F86831C6F393
:10067000C03384F86D0184F86E2184F8707184F8B9
:100680006B31B8F1000F07D095F8828108F1FF3780
:10069000D7F1000848EB0708C6F3004384F871312E
:1006A000C6F3402384F87231D4F86431B5F84401BC
:1006B000003318BF012384F87331C6F3005384F864
:1006C0007431B5F84631A4F87E01A4F87831F0040D
:1006D000B5F8523148BF9148A4F87631C6F380434B
:1006E00006F00101C6F3C00284F86F3148BFB0F8CC
:1006F0004C61B5F8503148BF8948A4F87C3148BFF7
:10070000A0F87E61B3F5FA7F84BF0023A4F87E31A0
:1007100095F8D231834884F88431002384F88531F8
:10072000437094F87A3184F86C81002B84F8691155
:1007300084F86A210CBF0023022301B902B10133FE
:100740000BEB830BDBF838304FF0000B9A1E1A339B
:1007500006920793069B33F8024F06934FF6FF73FA
:100760009C4200F090816E4FE3B297F86D21240A0D
:10077000E5B2B8461AB19A1E012A40F27F8197F875
:10078000702132B168491A018958684A914200F0D3
:10079000758197F8710130B163491A018958634A2C
:1007A000914200F06B8197F86E2152B15E49059E2F
:1007B00001EB03114A68B24203D10A89102A00F002
:1007C0005D8197F86B2152B15749059E01EB0311EA
:1007D0004A68B24203D10A89022A00F04F8197F891
:1007E0006C2152B150494C4E01EB03114A68B242A0
:1007F00003D10A89022A00F04181D7F880618EB1C5
:10080000494A02EB031EDEF804103268914209D116
:10081000BEF80820B188914200F03081F188914201
:1008200000F02C81022C02D197F8682103E0012C02
:1008300004D197F86921002A00F0208197F87321EC
:10084000394C1E0162B1364A92F87A2142B9A3F1BD
:100850000802012A04D8A25935498A4208BF042552
:1008600097F8742134445AB12D4A92F87A213AB952
:1008700010B10C3B012B01E0043B032B40F2E7805D
:10088000012D5DD1DFF8A0A0FF2387F8CC3187F8D8
:10089000CD310AEB060303F1080C5A7B58681B891B
:1008A0004FF00008ADF84C3013A9022387F8D0812F
:1008B000C7F8DC418DF84F30CDF820C08DF84E20C0
:1008C00087F88881C7F88C81C7F89081C7F8948130
:1008D000C7F8C88187F8CE8187F8CF810BF0A7FAD7
:1008E000DDF820C05AF806009CF80210424606F0D7
:1008F000C2FD204641462A4607F0C0FF0D4B0E4977
:10090000C7F8E0310D4BC7F8E881C7F8E43120465D
:100910000A1D07F0F1FEB1E0000C0140AC08002018
:10092000FC03002081050020704C010800040040F9
:10093000002C0140CD6E0008DC050020AD6F0008E2
:10094000022D49D15FFA8BF24FF01C0C0CFB02FC1C
:10095000BB4B002703EB0C0808934FF0010388F80A
:10096000D031B84B88F8D1B19A19517B506802F157
:10097000080A12898DF84E1088F8D27113A988F8E8
:10098000DA71C8F8DC41CDF824C0ADF84C208DF800
:100990004F500BF04CFAAB4B9AF8021098593A466C
:1009A00006F069FD20463946012207F067FFA64997
:1009B000089BDDF824C0C8F8E011A4496344C8F8D6
:1009C000E41103F5F071C8F8E87120460A1D07F03C
:1009D00093FE0BF1010B51E0032D36D197F86F31E7
:1009E000974E97F886512BB1204608214FF6FF729B
:1009F00000231CE0B6F87C21B2F5FA7F0FD9944BA6
:100A00002046B3FBF2F20821B6F87E3192B206F02E
:100A100087FD06EB8505C5F8B0028E4B0EE08E4BC8
:100A20002046B3FBF2F2B6F87E31012192B206F015
:100A300077FD06EB8505894BC5F8B002C36097F8D2
:100A40008631013387F8863118E0042D16D1B7F8C6
:100A50007621814B204693FBF2F20121B7F87831E1
:100A600092B297F8855106F05BFD97F8853108EB57
:100A700085080133C8F8E00287F88531069B079A9C
:100A800093427FF467AE764F3B6813F4802F6C4B34
:100A900002D1012283F8002393F8A020714D42F087
:100AA000040283F8A0202B784FF48052022B34BF2D
:100AB000142310238DF84E304FF002038DF84F3081
:100AC000D9F81830ADF84C2043F00403C9F81830B9
:100AD00034BF00240124644813A90BF0A8F9634B28
:100AE0000CB1634A00E0634A00201A6009F004FB7D
:100AF000614B624C93E80300039B4FF0030883E8CB
:100B00000300D9F81830139843F00803C9F81830D7
:100B100014A90BF08CF9D9F81C30204643F480431B
:100B2000C9F81C30D9F81030039943F48043C9F850
:100B3000103018238DF84E304FF42043ADF84C3070
:100B40004FF0040A8DF84F800BF071F94FF4804399
:100B5000204603994FF48056ADF84C308DF84EA0E6
:100B60000BF065F91023039920468DF84E30ADF84F
:100B70004C600BF05CF9D9F81030414A43F48043E3
:100B8000C9F81030D9F81030322023F48043C9F866
:100B90001030138803F4415343F4457343EA0803C8
:100BA0001380938B23F400631B041B0C9383072394
:100BB000138213889BB243F0400313809F23266166
:100BC0008DF8403000238DF841308DF842308DF89B
:100BD000433009F064FA52466661039810A90BF09D
:100BE00077FC26619DF84E309DF84D201B0243EAAC
:100BF00002439DF84F201343224A934212D03220E1
:100C000009F04DFA6661F5200BF098FCFF200BF01F
:100C100095FC7028266105D12B78022B04BF114B5F
:100C200083F800802B78032B0CBF1F20022005F0D7
:100C3000D9F92B78032B27D001200BF024FB28E0D7
:100C4000FC030020704C0108B1740008A56E000878
:100C500000127A00CD6F000840420F00BD6F0008FF
:100C6000EC0700203B2D002000080140202D002033
:100C7000999A0008AD9A000840370108000C01401D
:100C80000038004015202000022005F027FA002837
:100C9000D2D095F80080A64D4FF0100A28460021CA
:100CA00052463C680FF045FA4FF6FF73ADF84030FE
:100CB000022304F4004704F400664FF000091C40CE
:100CC0008DF842308DF843900DD09A4810A9ADF8B8
:100CD00040A007F0E5F904232B700124072385F8D1
:100CE0000190AC70EB7077B10223924810A9ADF877
:100CF000403007F0D5F90123E2182B71AB710723BF
:100D00006C71EB71D4B2B8F1010F0FD9202389486F
:100D100010A9ADF8403007F0C3F9052301222B726A
:100D2000AA72631C07226C72EA72DCB27EB10223E3
:100D3000814810A9ADF8403007F0B2F9092301222B
:100D40002B73AA73631C07226C73EA73DCB27B4FAC
:100D50007B487B68002643F440437B607B6943F01B
:100D600001037B61BB6943F40073BB6106F074FF50
:100D7000744B012C1393744B0897149394BF334610
:100D8000802318934FF4807319934FF48063A7F670
:100D9000F8771A93202313A91B9338464FF4005376
:100DA00016941C93159617961D9606F037FF3B6810
:100DB000664A43F001033B605368012C23F470231F
:100DC00094BF0021012123F4807343EA012353607F
:100DD00091685F4B013C0B4043F4602343F00203F6
:100DE0009360D36AE4B223F4700343EA0454D462F8
:100DF0000123AA199178002951D0A85D591C09280E
:100E0000C9B2D278514F10D9A0F10A04D7F80CC05A
:100E100004EB44044FF0070E0EFA04FE2CEA0E0E0B
:100E2000A2404EEA0202FA600CE03C6900EB400C82
:100E30004FF0070E0EFA0CFE24EA0E0402FA0CF232
:100E400022433A61062B414C0CD8013B676B03EB04
:100E500083031F229A4027EA020200FA03F3134396
:100E600063631BE00C2B0CD8DA1F276B02EB8202AA
:100E70001F23934027EA030700FA02F33B4323634F
:100E80000CE0A3F10D02E76A02EB82021F239340FC
:100E900027EA030700FA02F33B43E3620B460436FA
:100EA000102EA6D1294B9A6842F480729A609A68F3
:100EB00042F001029A609A6842F008029A609968CA
:100EC000224A090746D5FAE7013B092B3FF6F4AA67
:100ED000039BDAF82800C6F81480194618600598B4
:100EE0000AF0A5FF059B3C201A460823136109F070
:100EF000D6F8C6F810805E4695F88F319E42BFF650
:100F0000D5AA059BDFF830A04FF00808CAF810807A
:100F10007820C3F8148009F0B7F8059BCAF814804C
:100F20007820C3F8108009F0AFF80136E4E700BF7D
:100F3000801A002000080140000C0140001002400F
:100F4000080002404C240140901A00200024014077
:100F5000FDF7F1FF936843F004039360BA4B9A687E
:100F600012F0040BFAD19A6842F4A0029A60B74BCF
:100F7000B3F85801002840F06586B3F95A21002AD9
:100F800040F06086B3F95C31002B40F05B86B04BDB
:100F9000B04C1A68AD4D12F4003F9A4623D0C820D9
:100FA000B5F8406709F07BF8AE200BF0D7F808B130
:100FB0000BF0D9F884F80103C82009F070F8A4F800
:100FC0000863A54EA54B00210C223046C4F804331B
:100FD0000FF0AFF80223F37003F072FD09F038F858
:100FE0009F4B0344B3609F4EB5F86001376895F896
:100FF0005E11B7F9567095F8672195F8683100973A
:1010000005F068FA10B9012005F0EAF894F8A0306C
:10101000102243F0020384F8A030934B0A275A6150
:1010200008221A61DFF840821920D8F80C3083F0CA
:101030001003C8F80C30D8F80C3083F00803C8F857
:101040000C3009F02CF8012009F056F8192009F0AD
:1010500026F8002009F050F87B1E13F0FF07E1D1BD
:1010600008234FF01009814FC8F81030C8F81090CD
:101070003B681B0709D57E4BC8F814901B6898473E
:101080007C4B0122C8F810901A70D4F80C33DFF8AA
:101090002482187B0CF060F977490CF0B1F90AF062
:1010A0008FFB8146B8F800000CF056F949460CF069
:1010B000A7F910F071FCA4F81003B8F800000CF0C8
:1010C0004BF901466D480CF04FFA6D490CF04CFAA3
:1010D0006C4BC4F814036849D8680CF091F96A495C
:1010E0000CF08EF9B5F84E310022A4F82033674B8E
:1010F0005A491A809A70C4F8180384F82823306873
:10110000B5F89421C4F81C1300F17903C4F8241332
:101110001FFA82FEDFF8A0815D49D8F800C0DFF831
:101120009C910CF5967C21F81BE049F82BC00BF143
:10113000010BBBF1120FEDD1DAF800C000F1C909C3
:101140001CF4805F08BFB5F89AE1A1F806E01878B2
:10115000D8B9987893F803E0704516D238B10138C1
:1011600000EB800000EB800000F5617E07E00EF1EF
:10117000010E0EEB8E0E0EEB8E0E0EF5617E587884
:101180001FFA8EFE043021F810E004334B45DED107
:101190001CF0080F00F0F78095F88E11062900F278
:1011A000EC80DFE801F004070E358DADAD0045F2AF
:1011B000F05301E042F6F823A4F8743305F04CF93B
:1011C000DAE042F6F8231201A4F874330A2392FB02
:1011D000F3F20023A2F5B0622E4941F82320013337
:1011E000122BF9D12C4A2D49402011602C4A137042
:1011F00004F098FF002800F0C08001234FF0070B97
:1012000090F9000040218DE80808264A264BAEE000
:1012100042F6F823254AA4F874331F4B40201A6085
:101220001F4B10221A7004F07DFF002800F0A580EB
:1012300001234FF0000990F9000040218DE80802D9
:101240001B4A4FF4E13392E000240140AC08002037
:10125000EC070020FC030020C8120020320A002006
:10126000404B4C0010100020000C0140F8070020FB
:10127000D01300202401002035FA8E3C0AE81C41DE
:1012800000401C461C130020BD378635301B002053
:101290002E100020841900201C000020CB780008AC
:1012A0002C100020397B0008A0860100C7780008B8
:1012B0008D7A000808000020BC2A002028070020A2
:1012C00042F6F823594AA4F87433594B40201A6067
:1012D000584B08221A7004F025FF00284DD0012336
:1012E0004FF0000C90F9000040218DE80810524AA0
:1012F0004FF4E13304F0A2FE504BC3F8780338E01A
:1013000042F6F823A4F874334A4B0C22DFF86CE160
:101310004B4D4C481A7006294FF000038EF80030F0
:101320002B7003700AD0484B1B211970474B4FF4A8
:10133000E1351A70464B05221A7007E0424B212016
:101340001870424B434D1A70414B1970424A384B4A
:1013500040201A6004F0E6FE78B101234FF0000E41
:1013600090F900008DE808402B463C4A402104F0EB
:1013700065FE003018BF012028B908200AF02AFABB
:10138000374A2B4B1A60DAF800302A4A13F4804FA0
:101390001FBF122111703348254918BF086042F25F
:1013A0000101194099B144F620619804A4F874131E
:1013B00041BF082111702C481D4948BF0860D9075A
:1013C00041BF0C2111702948194948BF08601178A4
:1013D0001D06A1F10401517040F187804FF0000912
:1013E000234DDFF89CB0494615222248C4F87CB34F
:1013F00085F80190C5F80490C5F808900EF099FEA4
:101400001D4BABF1050248461A60039303F00EFF33
:10141000D8F800200220EA6004F084FE039B9E4678
:1014200080BB80200AF0D6F958E000BFC3780008DE
:101430001C0000202C100020417A0008FC03002032
:10144000ED190020EC190020EE1900208119002070
:10145000EF19002090D003000978000821790008D6
:101460001D790008F97800080D790008FD7800085A
:1014700098010020D9010020B80100208219002025
:101480009C0A00206B7890F805C0B24A0C2101FB41
:1014900003214978614504D00133DBB2042BF4D930
:1014A00000236B70DEF8003090F900001B78002BF1
:1014B0006B784FF00C0505FB032214BF03210121BB
:1014C0005378002200910192022104F0B7FDA24B53
:1014D00018600028A5D0012003F0A8FE30689F4BBB
:1014E00000F5C5721A6003F0F1FE049B089AC4F877
:1014F0008033089B28269B69994843F00103936138
:10150000049B0FA91B888DF83E60ADF83C30032387
:101510008DF83F3003930AF08AFC049B90485A8868
:101520000FA9ADF83C208DF83E600AF080FC049BCA
:101530000120197A0AF066FC049B8A495A68002641
:101540004A614FF0100B4FF0010913A813928DF868
:1015500050608DF851B08DF8529006F063FD049BF9
:1015600010A85A7A039B8DF840208DF841308DF8F1
:1015700042608DF843900AF08DFFD8F800304FF0AC
:10158000FF323C3BC4F884333B68774D43EA0B039E
:101590003B60764B1A60DAF80030580540F147821C
:1015A000D5F88873724B04201F6004F0BBFD042142
:1015B0008246C5F88C0304F0ABFD6E4A85F89003B3
:1015C00004900820176004F0ADFD6B4B08211860F3
:1015D00004F09EFDDFF8B88185F89103314640465E
:1015E0002C220EF0A6FD4FF07D038E224FF07C0CD6
:1015F00088F80120E02288F800C088F8032088F8E5
:101600002B30DFF89081314640462C22CDF80CC0BB
:101610000EF08FFD4FF07D03DDF80CC08A2288F8B4
:1016200001205846A02288F800C088F82B3088F89E
:101630000320C5F8947304F075FD5946C5F8980366
:1016400004F066FD85F89C032020C5F8A07304F023
:1016500069FD2021C5F8A40304F05AFD85F8A8030C
:101660004FF48070C5F8AC7304F05CFD4FF48071EA
:10167000C5F8B00304F04CFD85F8B4034FF40070D6
:10168000C5F8B87304F04EFD4FF40071C5F8BC0303
:1016900004F03EFD394A85F8C0034FF480601670AF
:1016A000C5F8C47304F03EFD4FF48061C5F8C8036B
:1016B00004F02EFD049B324A85F8CC0318461670C0
:1016C00003F04AF92F4F83463B78DFF8AC80834222
:1016D00022D0C8B1BAF1000F1ED002239AF900003F
:1016E0000093234B04211B6832465B789B1B18BF79
:1016F000012301934FF4165304F0A0FCC5F8D00366
:1017000050B187F8009007E0D5F8D00304F082FCD0
:10171000C5F8D0B387F800B094F8910303F01CF932
:10172000194E0546337883423CD0A8B3D8F8003030
:10173000002B37D00022012593F9000008214FF437
:1017400096430095019204F079FC104B186040BB61
:1017500028E000BFB435010894010020F803002000
:10176000000C014000040140FC0300205410002044
:10177000F4070020440800209008002031110020C8
:1017800051110020DC0700200C08002080080020F8
:101790001408002049080020914F386804F03AFCF2
:1017A0003D60357094F89C0303F0D6F88D4F8E4D54
:1017B0003B788146834258D0002837D0D5F898230B
:1017C000002A52D0D37992F90000002B4FF0020288
:1017D000864E08BF03230092002256F82330019260
:1017E000102104F02BFC824B0646186000283CD0E8
:1017F00094F84A30022B0BD095F89620022A01D19A
:101800004C3505E023B1002A05F14C0518BF002531
:10181000784B1D6045B1284600214C220EF089FC12
:1018200002232E6085F84A3001231DE0704E2B689C
:10183000D6F80080434507D1404604F0EBFB28462C
:1018400049464C220EF075FCE36C434507D14046F7
:1018500004F0E0FB684800214C220EF06AFC30687E
:1018600004F0D8FB002333603B7094F8A80303F026
:1018700073F8624E5C4F33780546834229D000B33B
:10188000D7F8A4332BB3D7F8A02393F900005278EC
:101890000323002A0CBF08220922009301924FF46F
:1018A00061432021002204F0C9FB554B186080B130
:1018B000544A012313703370534B1A68534B1A6008
:1018C00007E04F4F386804F0A5FB4E4B3D601D709C
:1018D000357094F8B40303F03FF84D4E424F33781F
:1018E0000546834223D0E0B1D7F8B033FBB1DD79B0
:1018F00093F9000002230093D7F8AC334FF48071C2
:101900005B780022003318BF01230193374B53F853
:10191000253004F093FB3F4B186040B10123337036
:1019200005E03C4F386804F075FB3D60357094F875
:10193000C00303F011F8384F2B4D3B780646834225
:1019400024D0E0B1D5F8BC3303B3DE7993F90000BD
:1019500002230093D5F8B8334FF400715B7800226E
:10196000003318BF01230193204B53F8263004F0B5
:1019700065FBC5F8D40348B101233B7006E0D5F8F8
:10198000D40304F047FBC5F8D4633E7094F8CC034D
:1019900002F0E2FF214F144D3B780646834246D0C9
:1019A00000283DD0D5F8C833002B40D0DE7993F91C
:1019B000000002230093D5F8C4334FF480615B78B4
:1019C0000022003318BF01230193084B53F826303F
:1019D00004F034FBC5F8D80348B301233B7026E07C
:1019E0008008002096080020FC030020E84301083E
:1019F000980800209C08002048040020F0100020D7
:101A0000F4100020F8100020BC2A0020FC10002058
:101A1000031100200C110020281100204811002083
:101A2000D5F8D80304F0F6FAC5F8D8633E70704BC9
:101A3000704D1B78022B64D16F4A00261388322028
:101A400023F040031B041B0C138013884FF48057B2
:101A500023F038031B041B0C138013889BB243F044
:101A6000400313809F238DF840308DF841608DF83E
:101A700042608DF8436008F012FB8DF84D605F4EB8
:101A80000422776113A810A90AF022FD37619DF89E
:101A90004E309DF84D201B0243EA02429DF84F3024
:101AA0001343574A934219D00AD8A2F51A42033A6F
:101AB00093420CD002F51A420232934209D01BE045
:101AC000504A934205D00132934207D014E02023BC
:101AD00000E080232B804FF4807302E04FF480738A
:101AE0002B806B80AB882A881B02AB605343EB6072
:101AF000012384F8DC3304E000232B806B80AB608F
:101B0000EB60ED6815B3ED0A2F464FF00008A845CD
:101B10000BDA08EB050676100DF14C09F002494688
:101B200010220AF0C1FA0F2805DC03F01FFC364B27
:101B3000FF021F600AE0002359F82320013253D12D
:101B40000133042BF8D137463546E0E72F4D2B689B
:101B500013F4002318BF012384F8DD3308F078FA6A
:101B60002B4B18602B4B5A791E46052A04BF4FF4A5
:101B7000C873A4F8DE33284B4FF47A721A80274BCF
:101B8000C8221A80264A137843F008031370254AA6
:101B9000137823F00203137040F602032A681340FF
:101BA0006BB12149214B1960214B03211970214B45
:101BB00001211970204900230B8020490B809303D9
:101BC00004D51F4B02221A7102F0E0FEB3682B60AD
:101BD000012384F8003394F8A03063F07F0384F885
:101BE000A0301FB0BDE8F08F06F101082E46ABE72C
:101BF0003B2D00200C00002000380040000C01406C
:101C000018BA20001740EF00EC100020EC0700206D
:101C1000E0000020AC080020342D0020362D0020EC
:101C2000FC070020382D0020240A0020E8070020AF
:101C3000480800203C00002034010020360100202C
:101C4000C8120020424B00221A7000B20BF084FB35
:101C500040490BF0D5FB404C0646B4F95A010BF055
:101C60007BFB3C490BF0CCFB0546B4F95C010BF067
:101C700073FB38490BF0C4FB0446304609F0A0FD65
:101C80008046304609F028FD0646284609F098FDB2
:101C90000746284609F020FD0546204609F090FD3C
:101CA0008246204609F018FD4146814650460BF019
:101CB000A7FB4146039048460BF0A2FB5146059016
:101CC00030460BF09DFB4946069030460BF098FBE2
:101CD0003946079050460BF093FB204C4946206054
:101CE00007F100400BF08CFB29466060A560069868
:101CF0000BF086FB014605980BF07AFA2946E06066
:101D000007980BF07DFB014603980BF06FFA3946FC
:101D1000206106F100400BF073FB294660610398D7
:101D20000BF06EFB014607980BF060FA2946A061A4
:101D300005980BF065FB014606980BF059FA4146F1
:101D4000E06138460BF05CFB2062FFF720B900BF72
:101D50000000002035FA8E3CAC080020F000002086
:101D60002DE9F047AE4CA0B02378002B00F09B810A
:101D7000AC4E63683268D31A7C2B40F29481237A8C
:101D80006260013323722425284602F0D5FDA64B5C
:101D9000013518880BF0E0FA014600200BF0E4FB57
:101DA000A2490BF02DFB0BF0F1FCEDB200B202F0FA
:101DB000B1FD272DE8D1302002F0BEFD002002F059
:101DC000A9FD02F0B1FD257A15F003051FD1944B52
:101DD0005A6841F288339A420BD9102002F0ACFDC8
:101DE000284602F097FD212002F0A6FD284602F0C9
:101DF00091FD142002F0A0FD002002F08BFD1C20BC
:101E000002F09AFD002002F085FD02F08DFD257A9A
:101E100015F0070540F02481022002F08DFD2846D0
:101E200002F078FD032002F087FD814B1B785907F3
:101E30005DBF7B4B0520DB68284658BF9B89784DEA
:101E40005CBFB3FBF0F000B202F064FD23699A07B7
:101E50005BD5DFF8F491AA8A99F800304FF0640856
:101E600008FB02325B00B2FBF3F3EF8A06203F016E
:101E7000BFB247EA0327BFB2C3F303231F4302F0F5
:101E80005BFD38B202F046FDEB8A99F80010013391
:101E90009BB293FBF1F201FB1233EB82AB699B7BAC
:101EA000012B05D1392002F047FDB5F9140019E0E6
:101EB000AD8A6E235D43152795FBF7F53A20AFB247
:101EC00002F03AFDB7FBF8F528B208FB157502F0F1
:101ED00021FD3B2002F030FDA8B2451D0A2095FBF4
:101EE000F0F000B202F016FD282002F025FD0020DF
:101EF00002F010FD042002F01FFDE368988910B184
:101F000006F042F900B202F005FDE369444F9B067A
:101F100040F19C8097F820309D071BD5112002F0DE
:101F20000BFD788C4FF4F3656843424B90FBF3F064
:101F300000B202F0EFFC192002F0FEFC788C454361
:101F4000642095FBF0F595FBF0F300FB135000B215
:101F500002F0E0FC94F82030A58C13F0020F08BFCB
:101F60000025012002F0E8FC28B202F0D3FC092091
:101F700002F0E2FC002002F0CDFC2F4B94F826503A
:101F80001A88B2F5967F0AD9254B1B7A03F00F0306
:101F9000072B04D842F20F75954228BF154605203D
:101FA00002F0CAFCA3695B7B0BB928B216E0A5F16D
:101FB00020000BF0D1F921490BF0D6FA002105469B
:101FC0000BF0BCFB10B94FF07C5101E04FF03F41EA
:101FD00028460BF00DF90BF0D9FB00B202F09AFC89
:101FE00094F820200E4B900703D493F82720012A61
:101FF00004D1012384F8273011482DE09D6911494F
:1020000068680BF0FDF90BF0C1FB0E490090A86861
:102010000BF0F6F90BF0BAFB019068461CE000BF2C
:10202000DC070020BC2A00200800002000007A44C1
:10203000382D0020A08601003E0000206666E63FA5
:10204000040800208096184B3C000020D44A92E8F7
:1020500003008DE80300684607F0D0FC02F064FC42
:10206000237A282B1FD1CF4B00221A7233684FF4EA
:102070007A70B3FBF0F73C26172002F05DFCB7FB4B
:10208000F6F5B5FBF6F006FB1050000200B202F0C8
:1020900041FC182002F050FC06FB157000B202F063
:1020A00039FC02F041FC94F83030BE4D002B00F0BA
:1020B000378107F0CDFF6B6BBB4AC31A93420646CC
:1020C00040F2B780002385F83A3085F83C30AB8A7F
:1020D000B649DAB21B0A85F8562085F8573085F8DC
:1020E0004C2085F84D306A6E0B689A1AAB6ED87B1F
:1020F0004FF47A7343439A420CD30B686B6695F89E
:102100006C30013B012B9FBF102385F83A3002232E
:1021100085F83C30002394F8201084F8543084F87B
:10212000553084F8583084F8593094F826308907AF
:102130009C4A84F8873003D42D2382F8883077E0D6
:10214000D4F82890E56A9A48DFF870C299FBF0FA53
:1021500095FBF0F00CFB0A980CFB005C042B8CBF89
:102160003323322382F88830062202FB08F802FB70
:102170000CFC904B4FF0640E98FBF3F19CFBF3F2D8
:1021800003FB118803FB12C393FBFEF30AEB8A0ADD
:102190004FB20AEB8A0A07EB8A0189B284F87710FA
:1021A00000EB8000090A84F8781000EB800051B23F
:1021B00001EB800292B284F87C20120A84F87D2020
:1021C00084F87E30628C1B1284F87F3024235343C2
:1021D0004FF47A7293FBF2F384F87430C3F307235D
:1021E00084F87530B4F89A300A2284F880301B0ADB
:1021F00084F88130A38C98FBFEF8B3FBF2F303F56F
:10220000FA739BB284F882301B0A84F88330B4F8E6
:102210009C304FEAD97984F87980ED0F4FEA28286D
:1022200084F8769084F87A8084F87B5084F889303A
:10223000666394F89E805B4DB8F1000F0DD1D5F820
:10224000A40007F06BFF012807D902285A4F01F0BC
:10225000588207F0C5FB0123BB70D4F8A850514B3E
:10226000002D5DD093F89E203AB140F6B731D3F8F7
:10227000B020B21A8A4216D852E0012283F89E207A
:10228000D3F8B420D3F8A4001278022A04D804307A
:10229000022107F08FFB02E0022107F033FF002349
:1022A00084F8B8303AE093F8AC20AAB9C3F8A82073
:1022B00083F89E20D3F8B420D3F8A4001278022A21
:1022C00004D80430012107F075FB02E0012107F07A
:1022D00019FF07F085FB21E0013AD2B283F8AC2068
:1022E00093F8B81093F8B90042B901304A1C83F84A
:1022F000B90083F8B820D3F8A4000DE02A4612F8FC
:10230000017B01307D18394683F8B900D3F8A40069
:1023100083F8B850C3F8A82007F003FFC4F8B060F2
:1023200094F8BA301F4E002B00F0B485D6F8BC30BC
:10233000002B00F0AF85D6F8C030002B00F0AA8546
:10234000C6F8C4301B68164FC6F8C830D6F8CC3073
:102350003B441D7A4D2D00F0D98400F2CB80342D02
:1023600000F09C835FD8222D00F0778333D8032DB3
:1023700000F0B38124D8012D00F07281022D40F0CD
:102380007B85042006F084F8432006F06FF84C208B
:1023900006F06CF8462006F069F84C209AE100BF80
:1023A000783C0108DC0700203F0D0300BC2A002018
:1023B0008096980040420F0008000020806967FF67
:1023C000042D00F09481052D40F056851A2006F06A
:1023D0005FF800259DE1282D00F05A8414D8242DA3
:1023E00000F04184262D40F04785062006F050F885
:1023F000B4F8280206F066F8B4F82A0206F062F88B
:10240000B4F82C0200F036BD2C2D00F05384322D90
:1024100000F09D842A2D40F02F85012006F038F829
:1024200094F8D50056E1402D00F097841ED83A2D3F
:1024300000F060820AD8362D00F0BF84382D40F0BD
:102440001B85042006F024F800F013BC3B2D00F09F
:10245000FD823D2D40F01085022006F019F894F819
:10246000AE0206F003F894F8AD0233E1462D00F019
:10247000BD840BD8422D00F07E84452D40F0FC84B5
:10248000132006F005F8002500F0D5BC492D00F01A
:1024900042824B2D00F02C84472D40F0ED8405F056
:1024A000DBFF86B205F0D8FF054605F0D5FF87B201
:1024B00005F0D2FF06EB052607EB0020B6B206EBCF
:1024C0000045842005F0E4FF284606F004F8DB4BC5
:1024D0001E6905F18003B3428CBF761B802602F093
:1024E00045FF28463246694609F0DEFD00250646CE
:1024F00000F099BC702D00F0148263D8692D00F0B3
:10250000E1813AD8662D00F02B812BD8642D00F0A4
:102510001881652D40F0B0840B2005F0B9FFB4F8A8
:10252000180805F0CFFFB4F81A0880B205F0CAFF0A
:10253000E369C3F3C000C3F38002800040EA4200B5
:10254000C3F340021043C3F3401240EAC20003F059
:102550001003184305F0B6FF002005F0BCFF94F807
:10256000C407B7E0672D00F01B81682D40F084841C
:10257000102005F08DFF00259CE16C2D00F0B68148
:1025800015D86A2D00F0F2826B2D40F0758405207D
:1025900005F07EFFB4F89A0005F094FFB4F89C00B3
:1025A00005F090FF94F8820800F0010092E06E2D93
:1025B00000F0A6815FD8062005F06AFF002005F034
:1025C0008AFF4EE3782D00F0F78018D8742D00F0C4
:1025D0008A820AD8722D00F08A82732D40F04C84D2
:1025E000082005F055FF0125B9E2762D00F0DA82CA
:1025F00000F279822F2005F04BFF914D1EE2A42DB1
:1026000000F0FE8214D87C2D00F02384A02D40F031
:1026100033840C2005F03CFF8A4B186805F05BFF03
:10262000894B186805F057FF884B186800F00EBCFE
:10263000F12D00F01981FE2D00F00783F02D40F000
:102640001B84042005F024FFD4F83438B3F85A0072
:1026500005F038FFD4F83438B3F8580000F00ABC5D
:10266000032005F015FF002005F000FF284605F0C7
:10267000FDFE0E202EE00B2005F00AFFD4F87C387A
:102680000026187805F0F2FED4F87C38587805F06A
:10269000EDFED4F87C386E4D33441879013605F0E0
:1026A000E5FE032EF5D1D5F87C38D87905F0DEFEAD
:1026B000D5F87C38987805F0D9FED5F87C38D878EC
:1026C00005F0D4FED5F87C38588905F0FBFED5F826
:1026D0007C38187A05F0CAFECEE3032005F0D8FE58
:1026E000032005F0C3FE022005F0C0FE86E20620AE
:1026F00005F0CEFE412005F0B9FE462005F0B6FEFD
:102700004E2005F0B3FE412005F0B0FE514B187885
:10271000B0E3514B585D013505F0A8FE0B2DF8D103
:1027200000254E4B585D013505F0A0FE082DF8D16F
:1027300000254B4B585D013505F098FE072DF8D16B
:102740009AE3072005F0A4FEE72005F08FFE94F839
:10275000D50005F08BFE002005F088FE042075E30F
:10276000122005F095FE002005F0ACFE002005F0DB
:10277000A9FE002005F0A6FE002005F0A3FE002023
:1027800005F0A0FE002005F09DFEB4F81C0805F041
:1027900099FEB4F81E0805F095FEB4F8200869E328
:1027A000102005F075FE00252E4B585D013505F013
:1027B0005DFE102DF8D15FE3702005F069FE002664
:1027C0000E257543D4F8343801362B44B3F819017B
:1027D00005F078FED4F834382B44B3F81B0105F02B
:1027E00071FED4F834382B44B3F81D0105F06AFEAD
:1027F000D4F834382B4493F81F0105F037FED4F891
:1028000034382B4493F8200105F030FED4F83438E6
:102810002B4493F8210105F029FED4F834382B44D9
:1028200093F8220105F022FED4F834381D44D5F87F
:10283000230105F050FE082EC2D11DE30800002040
:10284000893C0108E8F7FF1FECF7FF1FF0F7FF1FB7
:10285000DC0700203B2D0020404E01084C4E0108B3
:10286000554E0108FE0F0020702005F011FED34DDB
:1028700005F1700695F8D00005F0F8FD95F8D10047
:1028800005F0F4FD95F8D20005F0F0FD95F8D300C1
:1028900005F0ECFD95F8D40005F0E8FD95F8D500BD
:1028A00005F0E4FD073595F8CF0005F0DFFDB542F2
:1028B000E0D1E1E2C24B585D013505F0D7FD102DA6
:1028C000F8D1D9E296F850080025400000F0FE004B
:1028D00005F0DEFD94F850389D4280F0CD82B94B72
:1028E00033F8150005F0EEFD0135F3E7062005F09D
:1028F000CFFDB0E1042005F0CBFDD4F87808A5E2C7
:10290000072005F0C5FDA08AFF28A8BFFF20C0B2A0
:1029100005F0ACFD9FE1022005F0BAFDB4F8DC0043
:10292000A8E21E2005F0B4FDD6F8343800251B7847
:10293000022B6DD1D4F8343805F1080253F8220087
:10294000A1490AF05DFD0FF027F880F30800C0B23E
:1029500005F08CFDD4F834389C4903EB8503D86A24
:102960000AF04EFD0FF018F880F30800C0B205F031
:102970007DFDD4F8343805F10E0253F82200944955
:102980000AF03EFD0FF008F880F30800C0B20135F0
:1029900005F06CFD032DCDD1072DD4F8343823D1AB
:1029A000586C89490AF02CFD0EF0F6FF80F3080000
:1029B000C0B205F05BFDD4F834388349986C0AF056
:1029C0001FFD0EF0E9FF80F30800C0B205F04EFDD8
:1029D000D4F8343893F84C000AF0BAFC0EF0DCFF5F
:1029E00080F30800C0B20DE02B44587805F03EFD9E
:1029F000D4F834382B44D87A05F038FDD4F834387C
:102A00002B44587D013505F031FD0A2DC4D133E248
:102A1000D4F834382B44587805F028FDD4F83438ED
:102A20002B44D87A05F022FDD4F834382B44587D55
:102A3000013505F01BFD0A2DEAD11DE215F8010F45
:102A4000002800F0198205F011FDF7E7012005F0DC
:102A50001FFDD4F8343818783CE6502005F018FDF6
:102A60000026D4F834580C2205EB860595F8793009
:102A7000013602FB037393F84C0005F0F7FC95F860
:102A80007A0005F0F3FC95F87B0005F0EFFC95F873
:102A90007C0005F0EBFC142EE3D1EDE1482005F0BD
:102AA000F7FC0026D4F83458062303FB065595F8A6
:102AB000CE0005F0DBFC95F8C90005F0D7FC95F8D1
:102AC000CA0005F0D3FC95F8CB0005F0CFFC95F8D3
:102AD000CC0005F0CBFC013695F8CD0005F0C6FC26
:102AE0000C2EDFD1C8E1002005F0D2FCC4E1162095
:102AF00005F0CEFCB4F8640205F0E4FCB4F8100272
:102B000005F0E0FCB4F8120205F0DCFCB4F81402A5
:102B100005F0D8FCB4F8A60205F0D4FC94F8BB028A
:102B200005F0A4FC002005F0A1FC94F8BC0205F01F
:102B30009DFC94F8530205F099FC94F8600205F0AE
:102B400095FC002005F092FCD4F834380A20B3F943
:102B5000563093FBF0F080B205F0B4FC89E0E8B2A7
:102B6000013505F083FC092DF9D185E1102005F030
:102B70008FFC94F8200000F0020005F077FC94F838
:102B8000260005F073FCA06A05F0A5FCE06A05F0DC
:102B9000A2FCA08C05F096FC608C05F093FCB4F8C8
:102BA000800867E105F058FC0746122005F070FC2C
:102BB00087B9D4F88468D4F888580DE0AC080020B0
:102BC000141000202E100020000020410000C842F8
:102BD00000007A4400252E46384605F047FC304672
:102BE00005F079FC284605F076FC002005F073FC22
:102BF000002005F067FC002005F064FC002069E57A
:102C000094F88C08002580000130C0B205F040FC2B
:102C100094F88C0805F02AFC94F88C389D4280F0DA
:102C20002B81D34E705D05F021FC06F11003585D39
:102C300005F01CFC06F12003585D303605F016FC4B
:102C4000705D05F013FC0135E6E7082005F020FC77
:102C5000002005F037FC002005F034FC002005F0D2
:102C600031FC002006E1042005F012FCD4F8D80065
:102C7000ECE094F8480205F0F9FB94F84C0205F0FA
:102C8000F5FB94F84B0205F0F1FB94F84D0221E5B9
:102C9000072005F0FDFBB4F84E0205F013FCB4F874
:102CA000500205F00FFC94F8520205F0DFFBB4F877
:102CB0005402DFE00C2005F0EBFB94F85E0205F017
:102CC000D5FBB4F8680205F0FDFBB4F8640205F02A
:102CD000F9FBB4F8660205F0F5FB94F85F0205F025
:102CE000C5FBB4F86A0205F0EDFBB4F86C02C1E074
:102CF000042005F0CDFB94F8A40205F0B7FB94F88E
:102D0000A50205F0B3FBB4F8A602B3E096F85008AC
:102D1000002500EB4000C0B205F0BAFB06F26E26BB
:102D200094F8503802369D4280F0A68016F8020CC6
:102D300005F09CFB16F8010C013500EB800000EB60
:102D4000800000F2EE2080B205F0BCFBE8E7012035
:102D500005F09EFB94F86002BCE4082005F098FBA7
:102D60000025844B2B4493F88601013505F07EFB4A
:102D7000082DF6D180E0102005F08AFB94F8D500EC
:102D800005F074FBD4F8D80005F0A5FB94F85E02BA
:102D900005F06CFBB4F8280205F094FBB4F82A02A5
:102DA00005F090FBB4F82C0205F08CFBB4F84E0251
:102DB00005F088FBB4F850025CE094F8CD086D4D46
:102DC000C0EBC000C0B205F063FB05F1280695F822
:102DD000F2010023684AD25C904200F0CF840C33A9
:102DE0003C2BF7D10835B542F1D145E00D20634DBC
:102DF00005F04EFB09F07EF905F038FBA88805F0D8
:102E00006AFB286905F067FB94F80D0994F80C3902
:102E100098422ABFC31AC3F1800300200344D4F8A8
:102E20001009184412E0B54226DA1DF8050005F035
:102E30001DFB0135F7E7524B585D013505F016FBD8
:102E40000B2DF8D1002005F046FB002005F043FBD8
:102E500012E0082005F01CFBB4F8180205F032FB64
:102E6000B4F81A0205F02EFBB4F81C0205F02AFB98
:102E7000B4F81E0205F026FBD4F8C430414D987911
:102E800005F0F4FAD4F8CC300133092B88BF0023C5
:102E9000C5F8CC303C4E94F814293568394B002ADB
:102EA00000F05A81D3F81829002A00F0558193F8D0
:102EB0001C39013B012B00F24F81D4F81809314F26
:102EC00007F02CF9E0B1D7F8180907F024F997F8C2
:102ED0001D3980467E2BD6F800900ED102231B2888
:102EE00087F81C3909D1D7F8180907F017F920B964
:102EF0000123C7F8209987F8243984F81D89DCE775
:102F0000D7F8202933689B1A41F6583293421DD9CD
:102F1000032387F81C391FE11C4A32F8130010B94B
:102F200003464FF403600133B0F5C06FDBB26BD0E2
:102F30002ED9B0F5006F6DD040D9B0F5036F47D1F1
:102F400084F82539E3690F4F990648D494F8241979
:102F500094F82539002900F0FD803268521B012ABF
:102F6000DAD984F82539002384F82439F4E000BF45
:102F700069100020AC080020AC10002008000020E0
:102F8000404E0108DC070020BC2A0020204E01082A
:102F9000B0F5007F38D006D8B0F5807F68D0B0F5A6
:102FA000887F65D0D6E7B0F5806F74D0B0F5826FBA
:102FB00000F09080B0F5047FCCD11CE0B0F5E26F5A
:102FC00065D0B0F5E46F62D0B0F5E06FC2D15EE0DD
:102FD000B0F5046F5BD0B0F5026FBBD1A5E097F8F8
:102FE00020309A07B2D5798C24234B4364211233C5
:102FF00093FBF1F1A8E084F825392369984F9B07EA
:10300000A4D5BB8A0A219EE084F82539236913F4EC
:10301000006F32E0E169924A8F0684F8253995D530
:1030200092F82010880791D5D90710D5D36A1922B4
:1030300083EAE371A1EBE37101EB5101B1FBF2F122
:10304000002BACBF41F0004141F040410DE0936ADC
:10305000192283EAE371A1EBE37101EB5101B1FBAA
:10306000F2F1002BB8BF41F080414FF400604BE01B
:1030700084F82539E36913F0040F3FF467AF0021AA
:1030800006F064FC764B002283F824295EE784F87E
:103090002539002138E084F8253994F82639704A1A
:1030A0000133DBB2032B88BF012382F8263942F2B9
:1030B000107394F8261959436A4B1B78DA0748BFF6
:1030C00001319F0748BF0231580748BF04314FF410
:1030D000806019E0E169DFF8888111F0200784F849
:1030E000253917D098F8202012F0020F14BF4FF4A2
:1030F0007A71002112F0010F14BF4FF4FA6300231C
:103100000B4494F82610194406F020FC002384F8A0
:1031100024391BE7D8F8103019067FF517AF394668
:1031200006F014FC88F8247910E784F82539E3695F
:103130004B4F9A067FF50AAF97F820309B077FF533
:1031400005AFBB8C6421594306F000FC002387F8CF
:103150002439FBE684F8253994F82729404B002AC6
:103160005CD03168D3F828298A1AC72A56D993F82F
:103170002C29C3F8281993F82D19013283F82C292A
:10318000394D93F82E2929B97AB92A70D3F8300924
:10319000232141E04AB92A783AB9D3F830095821B5
:1031A00006F0BFFF01232B7038E02B78B3B3B4F8DF
:1031B00044390A25A4F83639B4F840390027A4F870
:1031C0004839B4F842394420B3FBF5F384F8347934
:1031D000A4F84A3906F0A8FB0121B4F9360906F033
:1031E00085FB482006F0A0FB0121B4F9480906F050
:1031F0007DFB412006F098FB0121B4F94A0906F055
:1032000075FB2A2006F090FB94F83409394606F045
:103210006DFB2946D4F8300906F083FF94F84C2959
:103220000F4B002A00F06A813168D3F850298A1ABE
:10323000092A40F2638193F85429C3F8501993F88E
:103240002D19013283F8542993F82E29074B09B917
:1032500072B903E062B91A7852B901221A704DE1CD
:10326000DC070020382D00203A2D0020392D0020C9
:103270001B78002B00F0428194F855590523013545
:10328000EDB2B5FBF3F303EB8303EB1A13F0FF038B
:1032900084F855591FD16F4601224FF0030E8DF867
:1032A00004208DF805208DF806208DF80720A44A0B
:1032B00000938DF808E003CF82F808E010605160B9
:1032C0000920322102F8013C09F068FA09F04FFAAE
:1032D0009C4BA3F856090A22B5FBF2F302FB1353E9
:1032E00013F0FF0F31D1642D2FD800230093012359
:1032F000ADF80430ADF8063002238DF81830924B4B
:1033000002AF03F1100E3A4618685968083303C239
:1033100073451746F7D16F46894B0DF1180E3A46A3
:1033200003CA724518605960174603F10803F6D1C5
:103330001278DC211A70854B16221920DA7109F0F7
:103340002DFA09F014FAA4F856090F23B5FBF3F38C
:10335000C3EB0313ED1A15F0FF0540F0CD80D4F850
:103360003829642303FB02F1D4F83C294FF47A7026
:103370005343B4F94029ADF814504243ADF8165008
:103380000492ADF81A508DF81C506A466D4694F8B8
:1033900058794FF000094FF000080393684BCDE9CE
:1033A00000890291ADF818008DF81D700DF1180913
:1033B000174603CF4F45186059603A4603F108039A
:1033C000F6D1386818211860BA88604F9A801E209C
:1033D000F97109F0E3F909F0CAF9A4F8560906F001
:1033E00061FAAE46D4F838296423D4F83C1903FBBB
:1033F00002F0B4F9402959434FF47A735A43002339
:103400000093ADF81430ADF81630ADF81830ADF8C3
:103410001A30019002910392049207F10803724658
:1034200003CA4A4518605960964603F10803F6D16D
:1034300010686821186021231C20FB7109F0AEF987
:1034400009F095F9A4F8560906F02CFAD4F85C09AD
:103450000AF09CF91FFA80FAB4F9400909F07CFFE0
:10346000AE463B4B4FF00008009301930023ADF8AC
:103470001230334B0290CDF80C80ADF810A00DF156
:10348000100C724603CA624518605960964603F1F3
:103490000803F6D11068186014204A230146FB7116
:1034A00009F07CF909F063F9D4F86839D4F8642993
:1034B00003932B46D4F8601900200292204A009012
:1034C0000191CDF81080CDF81480CDF818801D46FC
:1034D00003CD4D45106051602B4602F10802F6D134
:1034E00028681E23106027211C20FB7109F056F963
:1034F00009F03DF9A4F8560906F0D4F994F86C29BE
:10350000104B002A00F052813168D3F870298A1AD2
:10351000092A40F24B8193F87429C3F8701993F883
:103520002D19013283F8742993F82E29094B09B912
:1035300092B903E082B91A7872B901221A7035E1A2
:10354000D72A0020DC0700205D4E0108CF2A00208A
:10355000000020413C2D00201B78002B00F026812C
:1035600094F875391E210133DBB2B3FBF1F284F814
:10357000753901FB123313F0FF038E4E57D186F8D5
:1035800076396B468C4D6968286803C3684606F037
:103590008FF806F079F806F0C7F806F075F806F02F
:1035A0001FF906F071F806F0D1F806F06DF8312039
:1035B00006F05CF806F068F8B6F8582905F108013D
:1035C000684608F053F8684606F072F806F05CF8B2
:1035D000D6F8787938460AF0FFF87849C6B2384606
:1035E00009F00EFF07460A20704309F0B5FE0146B8
:1035F000384609F0FBFD0AF0EFF805F10E01C3B201
:103600003246684608F032F8684606F051F806F08F
:103610003BF806F02FF906F037F806F02BF906F024
:1036200033F806F031F806F059F806F001F894F88E
:1036300075191E23B1FBF3F203FB1213DBB20F2B40
:103640005C4E40F0B3806B465D4C0025616820689D
:1036500086F8765903C3684606F02AF806F014F88F
:1036600006F062F806F010F8412005F0FFFF06F0C2
:103670000BF806F0B5F806F007F806F067F806F064
:1036800003F8D6F87C090AF0A7F804F1080182B221
:103690002B46684607F0EAFF684606F009F805F091
:1036A000F3FFD6F85C090AF097F82B4682B204F1D2
:1036B0000801684607F0DAFF684605F0F9FF05F0F3
:1036C000E3FF04F11201D6F88029684607F0CEFF27
:1036D000684605F0EDFF05F0D7FF04F108012A4622
:1036E0002B46684607F0C2FF684605F0E1FF05F08B
:1036F000CBFF452005F0BAFF05F0F0FF05F098FF7D
:1037000054E0BB782BB1C5F8A06087F80280FEF7C3
:10371000A4BDD5F8A030F31AB3F57A6FFEF49DADD1
:103720000123D5F8A400BB7006F0F5FC0746D5F8D8
:10373000A40006F0F0FC7F067EF48FAD8A2803D04B
:103740008E280DD0FEF789BDEB6998067EF585AD14
:1037500095F89E30002B7EF480AD05F16D0306E0F8
:1037600095F89E30002B7EF478AD05F13803C5F84E
:10377000A8302D2385F8AC30FEF76FBD04F076FE3F
:10378000B5F8F40104F09EFE95F8F60104F06EFE23
:1037900095F8F70104F06AFE95F8F90104F066FE69
:1037A00095F8F80104F062FEFFF71CBB20B0BDE8FD
:1037B000F08700BFDC0700200C3E0108000020411C
:1037C000243E01089148F0B50368914A9C8AA4B24E
:1037D000E1B211F0010F2ED0198821F40061090423
:1037E000090C1980198889B241F48061198000217F
:1037F0001170517899B1917811B9D178FF290ED112
:10380000012191701179022901BF198889B241F40F
:1038100000611980517941F001011982E1E051798B
:1038200001F0FE011982D378FF2B00F0DA80784B8B
:10383000FF211970D5E08E073AD5BFF35F8F147959
:10384000E4B2012C13D1517889B1917879B11988FA
:1038500021F480610904090C1980BFF35F8F198B73
:103860001988947189B241F4007119801BE0198B99
:10387000BFF35F8F14796649022C0AD14C7844B1AA
:10388000897831B1198821F480610904090C198003
:10389000A1E014795E49032C05D14C781CB18978DC
:1038A000002940F09880998889B241F4806197E0BE
:1038B0004D0756D5012191715178002937D0917863
:1038C000002934D011791C88022911781DD924F4DB
:1038D00080642404240C1C801E8A9568CCB2F6B245
:1038E00049B26E54198889B241F400711980016897
:1038F000A31C13700B8A0134DBB264B22B558B8886
:103900009BB243F480638B8026E0A4B244F400743D
:103910001C801D8A9668CCB2EDB249B275541B8AE0
:10392000611C49B2DBB203347354147014E0917813
:10393000374C09B9217B41B1198889B241F4007132
:10394000198013780133137006E0198889B241F4A5
:10395000807119800123A37001680B88DB05FCD4FA
:103960003FE001F0400101F0FF05E1B114781F8A4A
:103970009668E5B2691C64B2FFB23755C9B21679D0
:10398000117049B2CC1CA64201BF9C8824F480640B
:103990002404240C08BF9C8013798B4221D11C4B3A
:1039A00002351D701DE027061BD511784CB2661C30
:1039B0000AD0156901312C5DC9B21C8214791170CD
:1039C00049B28C420DD106E0D17815701982517838
:1039D00009B9117929B9998821F480610904090C80
:1039E0009980137992F9004001339C4208490CD127
:1039F00000238B708B7933B101688B8823F440737B
:103A00001B041B0C8B8000231375F0BDB02A002013
:103A1000F81100202DE9F04F87B06C4C02916C49F1
:103A200022888E690546C2EB26135B435200C2EB27
:103A3000E602B4F902601B135643B4F90420B4F94A
:103A40000A0053439B1303EBE62606EB8603803301
:103A50001B12B6F5FA384FEAE6770493CB6947F1C3
:103A6000FF39A8FB08AB039308FB09F3B4F908205E
:103A70000BEB430BE389A6610593D31708FB03F116
:103A800002FB0911A8FB02230B44C1171F030AFB09
:103A900001F300FB0B33AAFB00011603194447EAAC
:103AA0001257020A42EA016292194FEA2123E6887C
:103AB0007B410032A2FB060143F5004306FB0311E4
:103AC0004B100093CB170193DDE900231343B4F8A7
:103AD00010E0B4F80CC06DD00FFA8EF0C1170AFBDD
:103AE00001F1AAFB002300FB0B11BDF914600B448C
:103AF000F71708FB07F106FB0911A8FB06670F443F
:103B000079047004801841EAD6315941039B0FFAB9
:103B10008CF8C3F5801E7246D317002212184FEAA4
:103B2000CE764FEAC3774FEAC8034B4147EA5E07B8
:103B3000B61A67EB030740F63543A6FB030103FB08
:103B40000711DDE9002309F067FEB4F916204E13D2
:103B500002FB06FE470B47EAC147D31707FB03EEFC
:103B6000A2FB07235643734407FB0366A2FB07230C
:103B70003344560E46EAC3168219B4F914604FEA6C
:103B8000636741EB07037143F71700FB0717A6FBB9
:103B900000013944C60C46EA413692194FEAE14722
:103BA0004FEA1221B4F912207B4141EA036113016B
:103BB0000B4400E000230DB11B0A2B60029B13B1E4
:103BC0001A46049B136007B0BDE8F08FB0130020C5
:103BD000F8110020704770476B4B6C4A2DE9F04F8D
:103BE0005E89146A4FEA062AB4EB0A0A9C884FF0F1
:103BF00000054FEA04481C894FF0000BA4FB0A673C
:103C000065EB0B0B04FB0B77F40944EA476418EBF4
:103C100004065C884FF000094FEAE7154FEAC43804
:103C2000DC8849EB050787B0CDE90467A4FB0A6788
:103C300004FB0B77340A44EA076418EB04064FEAE6
:103C400027259C894FF0000949EB0507CDE900675E
:103C5000AAFB046704FB0B77F40D44EA472414F530
:103C6000FA664FEAE75545F10007B6F5FA6F77F1C6
:103C70000003CDE90267964666DADDE90489A4FB14
:103C8000046704FB05F34FF0050C07EB4307A6FBA5
:103C90000C230CFB07335F104FEA3206B8EB060823
:103CA0004FEA920646EA837669EB07099F10DDE941
:103CB0000023921B63EB0703CDE90023DDE90267D4
:103CC000334A4FF0FF33964277EB0303CDE9048983
:103CD00027DA40F6AC520023A4185D4104FB05F33B
:103CE000A4FB04456FF0060205EB4305664202FBA8
:103CF0000566A4FB0223334418EB020649EB0307D5
:103D0000CDE904670B26A4FB062306FB0533DDE99A
:103D100000455B104FEA3202A41A65EB0305CDE9BA
:103D20000045DDE902450AFB0BF3AAFB0AAB0BEBEE
:103D3000430B4FEADA7242EA4B02A41A4FEAEB73E2
:103D400065EB0305CDE90245DEF82440009B019DAB
:103D5000A4FB032304FB05334FEA525848EAC32867
:103D60004FEA6359DDE90423B8EB020269EB030370
:103D70009946D30B43EA494300B1036009B1029B62
:103D80000B6007B0BDE8F08F44130020F81100204D
:103D900024FAFFFF2DE9F041324C334D62892B8D1F
:103DA000B4F904809A1A2389B4F902E05A43B4F9A9
:103DB0001230D613B4F91420DB02324493FBF2F232
:103DC00032440A26E2615643A2F57A6202FB02F30C
:103DD000B4F90EC002FB0EFE02FB08F2B4F90C802F
:103DE0001B130CFB03FC03FB08F31B1403EB6232F5
:103DF0000232E388921002F5004253434CF25032F3
:103E0000B4F920704FEAEE2EB4F900400EEBEC2C22
:103E10000CEB8404BC40ED6A0234A5EBA4043A41E7
:103E200062434FEAD3384EBFB2FBF8F35400B4FB01
:103E3000F8F340F6DE3448BF5B001A125243624387
:103E40000A4C08365C43241404EB224202F6CF628B
:103E5000361103EB221300B1036001B10E60BDE81F
:103E6000F08100BF58130020F811002043E3FFFF4A
:103E700013B50C4B04465B681B20022101AA98472E
:103E800070B19DF804209DF8053043EA022303F544
:103E90004E5310334FF48C7293FBF2F32333238091
:103EA00002B010BD3013002037B5104B04465D68DA
:103EB000187806216A46A847A8B19DF800209DF809
:103EC0000130012043EA022323809DF802209DF85F
:103ED000033043EA022363809DF804209DF80530F7
:103EE00043EA0223A38003B030BD00BF301300209B
:103EF00013B5104B04465B683B2006216A46984781
:103F0000A8B19DF800209DF80130012043EA02236A
:103F100023809DF802209DF8033043EA022363804A
:103F20009DF804209DF8053043EA0223A38002B0E7
:103F300010BD00BF30130020B0F5807F0ED0BB282D
:103F40000ED861280ED829280ED813280ED8092893
:103F50000ED8002814BF06200020704700207047AC
:103F600001207047022070470320704704207047EB
:103F70000520704710B5224C2368998A89B211F444
:103F8000706F1EBF1F4A012082F8300011F4E06FED
:103F90002BD01A8B9A88890522F480624FEA02425C
:103FA0004FEA12429A8020D41A8892051DD41A88AA
:103FB000D0050FD51A88D105FCD41A8892B242F4E4
:103FC00000721A801A889205FCD40F4B187808F0FA
:103FD0005AF90AE01A8892B242F400721A809A885A
:103FE00022F440721204120C9A802268938A23F4FD
:103FF00070631B041B0C9382024B00221A7510BDC8
:10400000B02A0020F8110020B42A0020054A08B583
:10401000138801339BB21380034B187808F033F9EF
:10402000002008BDF60F0020B42A002008B54FF488
:10403000804004F027F8012801BF044B4FF4804270
:104040005A61034B08BF83F8310008BD00040140EA
:10405000F811002010B5054C2368186904F012F817
:1040600018B123681A69024B5A6110BD3C13002035
:1040700000040140F8B50E461746084C4FF4805531
:10408000656140F0800008F059FA38460021324658
:1040900008F01EFA25610120F8BD00BF000C0140A8
:1040A00070B50E46054C4FF48055656108F046FA30
:1040B000304608F043FA2561012070BD000C014034
:1040C00070B5FFF739FF104C0546192005F0E7FFE2
:1040D000A36815200021984710B9022002F080F84B
:1040E00045F01801A368C9B216209847A3680021BB
:1040F00017209847A36801213D209847A3683E20D8
:104100000121BDE87040184730130020F0B5284D5C
:1041100085B095F83230002B47D1264C2368002B10
:1041200043D01A68244E12B1B1690A43B2619A8829
:104130009868ADF8002002228DF803206946042219
:104140008DF8022007F073FEB369002743F00103E6
:10415000B36123680126187B197D07F053FE23689D
:10416000164993F9150005F0AFFF2368144A1B693F
:104170005361029308230DEB03008DF80D308DF889
:104180000C708DF80E6003F04DFF236801A85B7D75
:104190008DF806708DF8043003238DF805308DF806
:1041A000076008F077F985F8326005B0F0BD00BF10
:1041B000F81100203C130020001002405540000878
:1041C0000004014037B50446FFF7A0FF254B1A68ED
:1041D000254B9A420ED14FF40053ADF80430022320
:1041E0008DF80730042321480DEB03018DF80630CC
:1041F00007F01DFE2046FFF79FFE05461C4C802160
:10420000A3686B209847642005F049FFA368072145
:1042100068209847642005F042FFA36800216B20C6
:104220009847642005F03BFFA36801216B20984765
:10423000A36818211B209847A36810211C209847C9
:10424000A36829461A209847A36800211920984797
:10425000A368122137209847A36801213820984786
:1042600003B030BD24000020001BB7000010014047
:104270003013002008B5FFF749FF024B4FF480527E
:104280001A8008BD0800002070B50446FFF73EFF05
:104290002046FFF751FE0546144C8021A3686B2091
:1042A0009847642005F0FBFEA36800211920984779
:1042B000A36803216B2098470F2005F0F0FEA36848
:1042C00029461A209847A36818211B209847A368FD
:1042D00010211C209847A368022137209847A36823
:1042E00038200121BDE87040184700BF301300207E
:1042F00008B5FFF70BFF074B5B7813B1012B03D019
:1043000008BD4FF4006201E04FF48052024B1A8066
:1043100008BD00BF2C1300200800002010B51E4C63
:104320004000C0B2A36023611C4B6071E1700120AA
:1043300000212173607022712075186884F8301094
:1043400040B383889B0515D40388D9050DD447F263
:1043500030530288920502D5013BFAD112E08BB1AD
:1043600003889BB243F48073038083889BB243F439
:104370004073838047F23053227D12B1013BFBD161
:1043800000E013B9BDE8104040E6034B93F830005D
:1043900080F0010010BD00BFF8110020B02A0020FD
:1043A00007B5F7216B4606227620FFF7B7FF9DF889
:1043B00000309DF801101B0343EA01139DF8021021
:1043C000094A43EA1113D3619DF803309DF80410A4
:1043D0001B0343EA01139DF8051043EA111393618F
:1043E00003B05DF804FB00BFF811002007B5002101
:1043F00001AB03227720FFF791FF9DF805309DF870
:1044000004001B0243EA00439DF80600184303B072
:104410005DF804FB08B5FFF7E9FF014B586208BDE2
:10442000F811002008B5FFF7E1FF014B186208BD45
:10443000F8110020104B13B51B78104C13B194F8F1
:104440003130B3B1032201AB7720F621FFF766FFCD
:104450009DF805309DF804201B0243EA02439DF8B5
:1044600006201343064AB2F92020C2F10802D340C5
:10447000E36202B010BD00BF20000020F811002050
:10448000581300200B4B13B51B780B4C13B194F849
:10449000313063B1022201AB7720F621FFF73EFFF6
:1044A0009DF804209DF8053043EA0223238502B0DD
:1044B00010BD00BF20000020F811002030B50546D7
:1044C0000C46134629462246BDE83040682025E7C1
:1044D00013B50622044601211C206B46FFF71EFF80
:1044E00008B39DF801309DF80020042143EA022220
:1044F00042F38D0292FBF1F29DF8023022809DF88A
:10450000032042EA032242F38D0292FBF1F29DF86E
:10451000043062809DF8052042EA032343F38D03B3
:1045200093FBF1F3A38002B010BD13B5062204463D
:10453000022118206B46FFF7F1FEB8B19DF800305C
:104540009DF801209B0803EB022323809DF8023095
:104550009DF803209B0803EB022363809DF8043041
:104560009DF805209B0803EB0223A38002B010BD39
:10457000314B2DE9F3411B780546002B3CD000243C
:1045800026462746A04601345320322108226B4696
:10459000E4B2FFF7C3FE08B900204AE09DF801200D
:1045A0009DF80030202C03EB02231BB29DF8032062
:1045B00098449DF8023003EB02231BB21F449DF880
:1045C00005209DF8043003EB02231BB21E449DF826
:1045D000073003F07F0301D0002BD4D198FBF4F80F
:1045E00097FBF4F796FBF4F6144BA5F800806F8068
:1045F000AE8083F833401CE05320322106226B4604
:10460000FFF78CFE0028C7D09DF801209DF80030F0
:1046100003EB02232B809DF803209DF8023003EB6F
:1046200002236B809DF805209DF8043003EB0223E4
:10463000AB8002B0BDE8F08142130020F8110020E9
:1046400013B5204B400002ACC0B2587104F8012DE4
:10465000D970012200211A7359701A711A751A4AF9
:104660001C6110689C6083F8301040B3828892050A
:1046700015D40288D4050DD447F23052018889053B
:1046800002D5013AFAD112E08AB1028892B242F41C
:1046900080720280828892B242F44072828047F235
:1046A0003052197D11B1013AFBD100E012B9FFF788
:1046B000ADFC04E0034B93F8300080F0010002B041
:1046C00010BD00BFF8110020B02A00207620F42190
:1046D0003122B5E7772048210122B1E77720582120
:1046E0000122ADE7064B002193F82020054B9201F3
:1046F000343283F831107720F42102F0FC029FE776
:1047000058130020F8110020034B002283F83120B9
:104710007720F4212E2293E7F811002003460A4661
:10472000682019468CE713B500222A211C20FFF7C8
:1047300087FF0E2102221C20FFF782FF0F21032298
:104740001C20FFF77DFF2B2112221C20FFF778FF92
:10475000164A02249369164843F004039361202308
:10476000ADF8043004230DEB03018DF806308DF80D
:10477000074007F05CFB22462C211C20FFF760FF5E
:104780002D2101221C20FFF75BFF2E2100221C207F
:10479000FFF756FF2A2105221C20FFF751FF054B8A
:1047A0004FF480721A8002B010BD00BF00100240AA
:1047B000000801400800002008B50F210822182039
:1047C000FFF73EFF0E2218201021FFF739FF024BA2
:1047D0004FF480521A8008BD0800002008B5134B22
:1047E00053201B782D2108227BB1FFF729FF3121AF
:1047F0000A225320FFF724FF2C210C225320FFF71D
:104800001FFF53203821902209E0FFF719FF3121C3
:104810000A225320FFF714FF53202C210A22FFF70E
:104820000FFF40F20912024B1A8008BD421300200C
:1048300008000020FEF7C6BFFFF79CBBFEF7C2BF13
:10484000FFF798BB10B50A4C5E280146206805D1D9
:104850005D2105F066FC20683E2105E05D2903D15D
:1048600005F05FFC20683D21BDE8104005F059BC13
:10487000CC07002008B508480BF0DBFCC0B20928C3
:104880000246054B04DC01302021C0B29954F6E702
:1048900000221A5408BD00BF3812002008B507488E
:1048A0000BF0C7FCC0B21428044B04D8421C2021D2
:1048B0001954D0B2F7E700221A5408BD381200206C
:1048C0000028114AB8BF404290FBF2F330B50F4CBC
:1048D0003C2504FB030068430D4D90FBF2F22D686C
:1048E0002D7B25B903EB830303EB830301E0C3EBCB
:1048F000031302EB830304FB02020B804FF47A7371
:1049000092FBF3F24A8030BD80969800806967FF81
:10491000F407002010B50446C0B2FFF793FFC4F3BC
:104920000720BDE810408DE7024B5E21186805F0B6
:10493000F8BB00BFCC07002038B50546054C5E210A
:10494000206805F0EEFB20682946BDE8384005F0F8
:10495000E8BB00BFCC070020022803D0431E58420A
:1049600058417047064B1B681B7823B1054B1868EC
:10497000C0F3C0407047044B1878C0F38000704704
:1049800084070020E8110020382D0020024AD37847
:1049900043F00103D3707047C8120020044AD37853
:1049A000507023F0010343F00203D370704700BF3F
:1049B000C8120020F8B5354B1A781F46013A062A6E
:1049C0001AD8DFE802F004131916070B0F000524AC
:1049D0002F4E11E0042503242E4E0DE0042508245B
:1049E0002D4E09E004250A242C4E05E00125032460
:1049F00001E003252C462A4E002007F023FC3B78DB
:104A0000012B08D9224B013D264953F82520264881
:104A100006F02CFE03E02448244906F027FE224835
:104A200007F08CFB012007F00DFC21491E4806F021
:104A30001DFE1D4807F082FB022007F003FC042C3A
:104A400094BF274605270025E81CC0B207F0FAFBF3
:104A5000184B3DB91A78144892FBF4F3164904FB3D
:104A6000132307E01B7810482B4493FBF4F204FB5C
:104A70001233124956F8232006F0F8FD01350A4892
:104A800007F05CFBEBB2BB42DED3F8BD1629002079
:104A9000543E0108683E0108743E0108943E010836
:104AA000BC3E0108524F0108381200205D4F01083A
:104AB0006E4F010814290020824F0108894F010818
:104AC0002DE9F74305F0C4FAA64EB369C31A002BCB
:104AD000C0F28F8300F5433303F5A073B361A24B9B
:104AE000317F1B78C3F38003591A18BF0121337734
:104AF0004BB1002900F07D839C4B5A789A700122BB
:104B00005A701A702BE0994A29B1D37843F0020306
:104B1000D37093785370D47804F0020101F0FF034E
:104B200039B992498968411A002903DB04F001036D
:104B300000E0012303F001058C4915707BB1E40707
:104B40000DD50A7903230132D2B2B2FBF3F303EBA2
:104B50004303D31A864ADBB20B71D35C4B70834D8F
:104B6000844F2B78002B44D0EB7823F00203EB70BA
:104B7000814B0344AE20AB6007F0F0FA08B107F0B8
:104B8000F2FA3870002800F03483B02007F0E6FA1B
:104B9000402007F0E3FA002007F0E0FA102007F0C9
:104BA000DDFA4FF48064013C0020A4B207F0D1FA92
:104BB000002CF8D1204607F045FB6A78032A0FD174
:104BC0006E4BB3F9003043FA04F2D10704D56C4BB5
:104BD00003EB8404606F0AE001340A2CF3D108E08F
:104BE000072A06D0664B03EB8203D3F8980007F040
:104BF000A5FA3B78002B00F0FC826B78614C072B08
:104C000000F2E282DFE813F00800E0025100D40075
:104C10009202A500A002DE025B495C4A5C4B51484F
:104C200006F024FD012007F00DFB4E4807F086FA40
:104C3000022007F007FB574807F080FA032007F02F
:104C400001FB042007F0FEFA052007F0FBFA5720CD
:104C500007F07DFA572007F07AFA572007F077FA25
:104C60002E2007F074FA552007F071FA332007F070
:104C70006EFA362007F06BFA302007F068FA47200A
:104C800007F065FA542007F062FA532007F05FFA44
:104C90002E2007F05CFA432007F059FA4F2007F066
:104CA00056FA4D2007F053FA8EE23B4F3B689A07C5
:104CB00054D5DFF8F4800A23B8F80010DFF8EC9040
:104CC000B1FBF3F203FB121399F8001092B29BB2FE
:104CD00000912448314906F0C9FCFFF7DFFD0120AF
:104CE00007F0B0FA1F4807F029FA2D4B99F8002079
:104CF0001868B8F80030057902FB153164234B437E
:104D0000C17802204D1B5543B3FBF5F5EDB207F01A
:104D100099FA284607F002FD3B681B0540F15482D2
:104D2000002200921F4913460E4806F09FFCFFF731
:104D3000B5FD032007F086FA0A4807F0FFF903F0F3
:104D400023FA0546042007F07DFA284607F0E6FC22
:104D50003AE2114B1B68180600F1DC80EB7843F057
:104D60000203D5E038120020382D0020C8120020A0
:104D70004F4F0108FD060020404B4C000407002067
:104D8000543E010848500108904F0108994F01080E
:104D9000554E01089F4F0108EC070020A44F010861
:104DA000E8070020BC4F0108F00700203C0000206D
:104DB000012007F047FAB84BB84F1A88994612F00D
:104DC000040F52D1B64BB749B3F90020B64806F0EC
:104DD0004DFCFFF763FD022007F034FAB24807F0FC
:104DE000ADF9DFF844833968AF4891FBF8F3002947
:104DF000B4BF4FF0FF32012283EAE37EAEEBE37EE5
:104E000008FB1313002BB8BF5B420EFB02F2A7494D
:104E100006F02CFCFFF742FD032007F013FAA2482E
:104E200007F08CF97B68A04893FBF8F181EAE17EFA
:104E300008FB1133AEEBE17E39684FF0050800291D
:104E4000B4BF4FF0FF320122002B99490EFB02F252
:104E5000B8BF5B4206F00AFCFFF720FD042007F014
:104E6000F1F9914807F06AF901E04FF00208B7F94B
:104E70000820BB898F498C4806F0F8FBFFF70EFD30
:104E8000404607F0DFF9884807F058F98A4B7F89D8
:104E90005A890A23B2FBF3F28849B7FBF3F382483D
:104EA00006F0E4FBFFF7FAFC08F1010007F0CAF98D
:104EB0007D4807F043F9B9F800305F071FD4804BF5
:104EC0001A78804B22B11A783AB177487E490BE0C4
:104ED0001A7812B174487D4906E01B7813B17C4BF7
:104EE0001B781BB170487B4906F0C0FBFFF7D6FC6E
:104EF00008F1020007F0A6F96B4807F01FF9764B9E
:104F00001B6813F0820F40F05F81EB7823F0010300
:104F1000EB7059E1604B1B8859073FF51FAF6F4B92
:104F2000316A1B68604A8B421CBF136292F82430BE
:104F30004FF001011CBF013303F003034FF00000E9
:104F400018BF82F8243007F089F996F8243000253C
:104F5000E05C07F0FCF80220012107F07FF9604BCC
:104F60003620EB5C0135C3EBC30393FBF0F0C0B21A
:104F7000062828BF06206038C0B207F0E8F8102DD8
:104F8000EDD1584B58491B78474813F0020F574B47
:104F90001A7814BF59234E2306F068FBFFF77EFCF6
:104FA000022007F04FF9404807F0C8F85049514B2C
:104FB0004D680A683C4892FBF3F24F4995FBF3F3C6
:104FC00006F054FBFFF76AFC032007F03BF9364874
:104FD00007F0B4F8494B4A491A88334806F046FBB3
:104FE000FFF748FC042007F02DF92F4807F0A6F83A
:104FF000444B45491A882C4806F038FBFFF73AFC29
:1050000004210A2007F02AF9274807F097F83F4BB8
:105010003F491A68244806F029FB3E4DFFF72AFC59
:10502000052007F00FF9204807F088F86A68AB6898
:1050300039491D4806F01AFBFFF71CFC05210A2020
:1050400007F00CF9184807F079F82B69EA6833493A
:10505000D21A154806F00AFBFFF70CFC062007F0F1
:10506000F1F8114807F06AF8AA682D490E4806F0D1
:10507000FDFAFFF7FFFB06210A2007F0EFF80A48C8
:1050800007F05CF82749152207480BF0FDF8FFF7F9
:10509000F1FB072090E000BF7012002014110020E7
:1050A00034110020D14F010838120020DC4F0108D4
:1050B000EB4F0108FA4F01086C2900200B50010842
:1050C000890100200911002018500108275001080B
:1050D000242900203B500108EC070020D4010020C7
:1050E00099100020FC0700204D5001080208002004
:1050F00004080020809698005E500108FE070020FA
:105100006B5001085C10002073500108F001002072
:105110007A50010898010020815001088A50010846
:1051200091500108D9010020A0860100324B1B8854
:105130009A077FF513AE012007F084F82F48304915
:1051400006F094FA022037E0012007F07BF82D4B9F
:105150002D495A894D890A23B2FBF3F22B49B5FB3D
:10516000F3F3264806F082FA022007F06BF8234892
:1051700006F0E4FF264B27491A88204806F076FA05
:10518000032007F05FF81D4806F0D8FF042007F061
:1051900059F8214B21491A88184806F067FA05206A
:1051A00007F050F8154806F0C9FF1D4B13481D497C
:1051B0001A8806F05BFA062007F044F80F4806F05C
:1051C000BDFF01E0FFF7F6FB1420002107F046F8D1
:1051D00096F82550605D06F0BAFF134B1B781BB99B
:1051E000054B1B889B0704D5013505F0030586F8A0
:1051F000255003B0BDE8F083701200203812002063
:10520000995001086C290020141100200B5001084E
:10521000162D0020AD50010868290020B550010866
:105220001A2D0020C5500108720100200449054BC9
:105230000968002218705A6199611A77704700BF97
:10524000BC2A002098010020F8B5101A0D461F4610
:1052500008F082F80446781B08F07EF8174B079E8A
:10526000196808F0CDF821460546204608F0C8F830
:1052700029460746284608F0C3F80146384607F095
:10528000B7FF0CF01FFC0E4908F0BAF808F0A4FABA
:10529000069B2946186004F100400CF011FC0949F6
:1052A00008F0AEF8084907F0A3FF08F06FFA0028ED
:1052B000BCBF00F50C40A0303060F8BD04000020F9
:1052C0002C7D8E3FA00CB34500A00C4670B5044663
:1052D000407908F03DF81E4908F046F91D4D1E4E74
:1052E0002860E07B08F034F8194908F03DF9EE60D9
:1052F0006860A07908F02CF8184908F035F9184DC5
:105300002860207C08F024F8114908F02DF9686025
:10531000A07E08F01DF8134908F026F9EE60A86099
:10532000E07908F015F80D4908F01EF90E4D2860D7
:10533000607C08F00DF8064908F016F96860E07E18
:1053400008F006F8074908F00FF9EE60A86070BD94
:105350000000C842E80300200000FA440000204199
:10536000D803002000007A44C80300202DE9F04F44
:105370005349544F0A783B7889B09342884600F0ED
:105380009B8051499A4203EB01000490059107D399
:10539000D31A069300230793069B079D1D4453E0F1
:1053A000C3F1800306930792F6E7DFF82CA1DAF841
:1053B0000030DCB22A19B2F5807F444A88BFC4F5B8
:1053C0008074D26898BF2C46934271D20222404E1C
:1053D0008DF80C201A0C4FF480598DF80D201A0A04
:1053E0008DF80E208DF80F3007F006F9C6F81490EE
:1053F000062007F0A3F8374B0122C6F810900020D2
:105400001A7003A9C6F81490042207F061F8069EEA
:10541000EEB1A6422BD2DDF810B03246002059463C
:1054200007F056F8C6EB040900235E440496069381
:10543000079E76B9264B4FF480521A61DAF8003095
:105440002D1B1C44CAF80040002DAED130E0A1460F
:10545000EEE74E4510D2DDF8149032460020494662
:1054600007F036F84E44002305960793E2E7A1467D
:105470000DF1180B002302E00DF11C0B04230DF1BC
:10548000100C5CF80360002031464A460193CDF8C9
:1054900000C007F01DF8019BDDF800C04E444CF839
:1054A0000360DBF80030C9EB0303CBF80030C1E741
:1054B000002388F800303B7009B0BDE8F08F00BFD2
:1054C000E9100020E8100020601100200C000020EE
:1054D000000C0140D8070020EC10002001480249D0
:1054E00003F0B0B8000800401C0500200148024944
:1054F00003F0A8B800040040F4040020024A137826
:1055000043F0040313707047FC07002007B5064BF7
:1055100006490093064B074A01930748074B06F0DC
:10552000BBF803B05DF804FB4C4E01089F4F010827
:10553000554E0108994F0108D3520108404E010809
:1055400037B502790D4602F0300110290446836810
:1055500005D12F494FF4CC7091F8F41604E02029BE
:1055600004D12C490C20097800FB013302F00F0113
:10557000052932D8DFE801F00305080A0D0F197874
:105580002CE093F9001029E0198827E0B3F9001006
:1055900024E0196822E06946186805F0FDFF01461D
:1055A0001D4806F079F885B3237913F0C00F2CD18C
:1055B000E06807F0D1FE694605F0EEFF01461748A6
:1055C00006F06AF8206907F0C7FE694605F0E4FFB7
:1055D0000146124806F060F817E0002112F0C00200
:1055E0000AD0402A11D1227B0D4B53F8323053F8A8
:1055F000210006F051F808E00A4806F04DF825B100
:105600000948E168226906F047F803B030BD00BFE1
:10561000AC080020601200203855010831550108FF
:105620000C3F0108775001080353010810B5441ED0
:1056300014F8011F21B1034B186804F072FDF7E75D
:1056400010BD00BF7C1A002038B51648FFF7EEFFEA
:105650001548FFF7EBFF154B00249B689B024CBFDE
:105660001348144806F018F8134806F015F80E48C9
:10567000FFF7DCFF114A15192B7903F03003302BAB
:105680000AD1A1580E4806F007F828460021FFF776
:1056900057FF0948FFF7CAFF1434B4F52F7FE9D14B
:1056A00038BD00BF0A53010823530108AC0800208D
:1056B0003353010844530108875401085C3F010833
:1056C0005453010810B503781BB9BDE810400B48CE
:1056D000ACE70BF047FE84B25A2C21B209D8084837
:1056E00005F0DAFF074B1A795C8042F002021A716A
:1056F00010BD0548BDE8104005F0CEBF5E5301085F
:105700009153010860120020AD53010810B50378D1
:105710001BB9BDE810400C4888E70BF023FE84B2AB
:10572000B4F5B47F21B209D8084805F0B5FF084B9D
:105730001A79DC8042F001021A7110BD0548BDE8FB
:10574000104005F0A9BF00BF5E530108C95301080E
:1057500060120020AD530108F7B52949294B08789C
:10576000294D1C68294B05EB80001A88D0F80C13D2
:10577000274B28481B7800914FF47A71B4FBF1F164
:1057800005F08AFF244B25481968254B0026B1FBFC
:10579000F3F105F081FF234B1F68F3B205EB8302A1
:1057A000D2F81C13E1B101249C403C4216D02207E0
:1057B00014D01D4A0B20D25C00FB0323124A1B4865
:1057C00002EB8303D3F83C2305F066FF022C05D1DE
:1057D000174B197A11B1174805F05EFF0136DCE767
:1057E0001548FFF723FF154B15481A88154B92B241
:1057F00019884FF4E96303B0BDE8F04005F04CBFF1
:1058000048080020BC2A00200C3F0108F0070020B7
:105810003C000020E4530108400000202754010808
:1058200040420F00F80700204400002037540108D0
:10583000101300203F54010887540108F60F002080
:1058400043540108F40F00202DE9F04F85B0824643
:105850000AF0EFFC054628B1012818D19AF800306B
:105860002A2B14D1BC48FFF7E1FE0024BB4EBC48F4
:10587000A15905F011FF30192946FFF761FE1434D4
:10588000B848FFF7D3FEB4F52F7FEFD1B3E1504610
:105890003D210AF0C0FC002800F0928103469846A2
:1058A00013F8012D202AFAD0CAEB080801308346EC
:1058B0009BF800300130202BF9D00026142303FB85
:1058C00006F4A94D05F1500C54F80C90CDF804C025
:1058D00048460AF0AEFC034649461A465046009335
:1058E0000AF0B0FC9DE80810002840F060815FFAE3
:1058F00088F29A4240F05B810CEB040300932B1971
:1059000093F8544014F0C0020BD0402A40F04D816F
:10591000824693F85C2005EBC20393F804C053461B
:10592000DFE058460BF01EFD01909BF800205B461F
:10593000202A0BF1010BF8D0092AF6D02D2A03D129
:105940005B46DFF840B204E02B2A08BF5B464FF00D
:105950007E5B9A46002752461AF8011BA1F13008D7
:105960005FFA88F009280DD88049384607F048FDCD
:105970000746404607F0F0FC0146384607F038FC81
:105980000746E8E72E29134619D1D046DFF8DCA1F7
:10599000434618F8010B3038C1B209290FD807F077
:1059A000DBFC514607F0E0FD0146384607F020FCDD
:1059B0006E490746504607F023FD8246E8E71A780D
:1059C00002F0DF02452A48D15A782D2A03D102334A
:1059D0004FF0010805E02B2A14BF013302334FF0CA
:1059E0000008013B002013F8011F30395FFA81FEE7
:1059F000BEF1090F04D84FF00A0E0EFB0010F2E7BB
:105A00000346B0F59A7F28BF4FF49A739C464FF037
:105A10007E51BCF1070F0DD9084655490393CDF8C7
:105A200008C007F0EDFCDDF808C00146ACF1080C39
:105A3000039BEEE703F0070343B108464B4902938B
:105A400007F0DEFC029B0146013BF5E7B8F1000FD1
:105A500005D0384607F088FD04E04FF07E51384607
:105A600007F0CEFC0146584607F0CAFC4FF0140B75
:105A70000BFB065B0746DBF85C0007F06DFC01469C
:105A800038460BF1580B07F06DFE002800F08D80B2
:105A9000DBF8080007F060FC0146384607F058FEC6
:105AA000002800F0828004F00F03052B1FD0019F17
:105AB0001DE0D0B955F83210039351F82A00594629
:105AC000CDF808C001920AF079FBB0FA80F04009E5
:105AD000019ADDF808C0039B08B1574601230AF17B
