:020000040800F2
:1000000000500020A5EF000845F0000845F000086A
:1000100045F0000845F0000845F000080000000029
:1000200000000000000000000000000045F0000893
:1000300045F000080000000045F0000807AA00088D
:1000400045F0000845F0000845F0000845F00008BC
:1000500045F0000845F0000855C4000853C40008E6
:1000600045F0000815AA000845F0000845F0000812
:1000700045F0000845F0000855D7000845F0000895
:1000800057C4000845F0000845F0000845F0000896
:1000900045F0000845F0000845F0000851C400088C
:1000A00045F0000839D5000845F0000849D500089A
:1000B0002DD500081DD500080DD500087D8200084B
:1000C00081820008758200087982000845F00008E6
:1000D00045F0000849D700083DD7000831D700088F
:1000E00019AA000845F0000845F0000800000000CB
:1000F0000000000000000000000000000000000000
:0C01000000000000000000005FF808F1A3
:100110002DE9F04F7B4B7C4DA3B0C5F89830002300
:10012000C5F89C3008F0AEF818B908F0CDF80BF01F
:10013000B3FE0BF057FF95F8A030744C43F0010369
:1001400085F8A03000230F93109311934FF4E01320
:10015000129323686E4E43F48033B07B2360A3690F
:1001600043F01003A361236803F4003310930F9B43
:1001700001330F93109B1BB90F9BB3F5A06FF2D106
:100180002368624913F4003301D0022315E00A68A2
:1001900042F001020A600F93236803F002031093F8
:1001A0000F9B01330F93109B1BB90F9BB3F5A06FEF
:1001B000F2D123689B0739D501231193554B56493A
:1001C0001A6842F010021A601A6822F003021A60DC
:1001D0001A6842F002021A606368636063686360D1
:1001E000636843F4806363604C4B1A68043B22F0FD
:1001F00070425A604A4A1160616821F47C11616062
:10020000596841F000415960D96821F40041D96032
:100210009B681F0449BF434B4FF4E01313604FF436
:1002200080131293119B012B01D117E0FEE7022BE3
:1002300018D168B1129BB3F5801F02D14FF4A013FF
:1002400005E0129BB3F5E01F02D14FF400131293A7
:10025000129963680B4343F4803302E0636843F40C
:1002600060136360236843F0807323602168274B29
:100270008901FBD5596821F003015960596841F0A3
:10028000020159606368214903F00C03082BF9D17E
:100290004B68DFF89C8003F00C03042B03D0082B81
:1002A00003D01D4B12E0136810E04B684868C3F39D
:1002B0008343C70303F1020301D41B4905E04968E6
:1002C00011F4003F116818BF49084B43C8F80030CB
:1002D00063681649C3F303130B4493F86000D8F81E
:1002E00000300491C340C8F80030F37B003318BFDE
:1002F000012385F8A1301368074A93421AD10122DD
:100300001CE000BFC9BB0008C00000200010024074
:10031000500600200020024000127A000410014024
:1003200020000020001BB70000093D00EC4B010835
:1003300048000020C44A934202D10222C34B1A70E3
:10034000C34BC44ADFF864A3DA60A269069342F0A3
:100350000102A261626A4FF00003C5F8A420626A3C
:10036000DFF838B342F080726262A269504642F010
:100370001C02A2614FF6FF728DF85E3022AB23F8AB
:100380002C2D194603930CF092F8584603990CF063
:100390008EF8B14803990CF08AF802228DF85720A4
:1003A0000DF188094FF400724FF0100C29F8342D2C
:1003B0008DF856C0CDF814C05046CAF810204946F2
:1003C0000CF075F8A54903984A6842F000724A603B
:1003D00004F002FFA249179AA248B2FBF1F2A24927
:1003E0000A600021182210F054FBD8F800204FF4C6
:1003F0007A71B2FBF1F29D49069B013A4A60F02204
:1004000083F8232000238B6007230B60B368DFF899
:10041000A082039FC8F80030954BDDF814C00FCBC5
:1004200087E80F00A369179843F00803A361A36945
:1004300018A943F00803A3610823CBF81030CBF8C8
:1004400010C00CF034F81AA919980CF030F8642098
:100450000AF0CFFA87480021A02210F01AFBE369C6
:10046000002743F00703E361A36943F4006343F00B
:100470000C03A361CDF820A07F4B4FF0000A03F5D9
:10048000A47207F802A001370E2FF5D1FF2283F8DE
:10049000562183F8572183F8582183F85921774B47
:1004A000774AD8F800801A60764851463C2210F00E
:1004B000F0FAC8F380070523734A72481AF802104D
:1004C0000C2202FB0AF211543FB91E3901299FBFC9
:1004D000FF2103F1FF331154DBB20AF1010ABAF133
:1004E000050FE9D1694A96F805A01370684B18F01A
:1004F000020FC5F85C3103F1C003C5F86031654BEC
:100500005D4A03EBCA035B7818BF0123C2F864316C
:10051000614800211C2285F85AA110F0BAFA5F4BFD
:10052000BAF10E0F15934FF00203ADF858304FF0AB
:100530000103ADF85A30C5F8809103D00AF0EF03FB
:10054000082B02D1012385F87A3101200AF0E4F961
:1005500008F0010385F86E3118F0400385F86D014D
:1005600085F8707104D096F88231581E4342434199
:1005700003F0010385F86C31D5F864313E4A00334D
:1005800018BF012385F87331B6F84631B6F8441127
:10059000A5F87831B6F85231C8F30018A5F87631CD
:1005A000B6F8503185F87281B3F5FA7FA5F87C3141
:1005B00084BF0023A2F87E3196F8D23198BFA2F80A
:1005C0007E11374A85F88431002385F885315370D0
:1005D00095F87A2104999A420CBF1A4608221144D0
:1005E000D1F880200493911E1A3205910992059B3F
:1005F000DFF884B033F8026F05934FF6FF739E4225
:1006000000F0E08195F86D21F3B2360AF7B21AB125
:100610009A1E012A40F2D18195F8702132B1214908
:100620001A018958204A914200F0C78195F87191CA
:10063000B9F1000F3ED01B491A0189581A4A91425C
:1006400000F0BB8136E000BF001BB700102E002079
:1006500000ED00E00005FA05001001400000014037
:1006600040420F000C2200203022002010E000E069
:100670005C4C010868010020C000002028220020F6
:100680003C080020642B002046660108590E00201B
:1006900060060020B462010828020020000C01401E
:1006A00045020020D4610108000400400008014018
:1006B0009005002095F86E2152B1A649089801EBEB
:1006C00003114A68824203D10A89102A00F0758119
:1006D00095F86B2152B19F49089801EB03114A68C4
:1006E000824203D10A89022A00F0678195F86C21C1
:1006F00052B19849984A01EB03114868904203D1DE
:100700000A89022A00F05981D5F880E1BEF1000F74
:1007100014D0904A02EB031CDCF80410DEF8002031
:1007200091420BD1BCF80820BEF80410914200F0B1
:100730004481BEF80610914200F03F81022E02D1A2
:100740009BF8682103E0012E04D19BF86921002A5F
:1007500000F033819BF873217E4E4FEA03186AB193
:100760007E4A92F87A214AB9A3F10802012A05D8F3
:1007700056F808207A498A4208BF04279BF874215A
:1007800046446AB1754A92F87A214AB9B9F1000F24
:1007900002D00C3B012B01E0043B032B40F2F6801E
:1007A000012F49D1DFF8ACC1FF238BF8CC318BF896
:1007B000CD310CEB08035A7B586803F1080A1B89FA
:1007C0004FF00009ADF85C3017A902238BF8D091E7
:1007D000CBF8DC618DF85F30CDF818C08DF85E2065
:1007E0008BF88891CBF88C91CBF89091CBF89491C1
:1007F000CBF8C8918BF8CE918BF8CF910BF057FEC8
:10080000DDF818C09AF802105CF808004A4609F0B2
:10081000F0F8304649463A460CF060FF514B5249D9
:10082000CBF8E031514BCBF8E891CBF8E4313046CE
:100830000A1D0CF091FEC0E0022F51D19DF810303E
:100840001C214B430693069A444B9DF8101003EB72
:10085000020A404B8AF8D11103EB08020A9302F115
:10086000080359794FF000094FF0010C50681289C4
:100870008AF8D0C18DF85E108AF8D29117A98AF84B
:10088000DA91CAF8DC61CDF82CC00793ADF85C2092
:100890008DF85F700BF00BFE0A9B4A4653F8080078
:1008A000079B997809F0A5F8DDF82CC03046624620
:1008B00049460CF013FF2E4A284BCAF8E0212D4A76
:1008C000CAF8E891CAF8E421069A3046991801F569
:1008D000F0710A1D0CF040FE049B013304936CE0A0
:1008E000032F51D19BF86F31DFF870809BF8867130
:1008F0002BB1304608214FF6FF7200231CE0B8F8F8
:100900007C21B2F5FA7F0FD91B4B3046B3FBF2F2D4
:100910000821B8F87E3192B20BF0FBFD08EB870797
:10092000C7F8B002154B0EE0154B3046B3FBF2F2A0
:10093000B8F87E31012192B20BF0EBFD08EB87078E
:10094000104BC7F8B002C3609BF8863101338BF8B7
:10095000863132E0D4610108000C0140C000002063
:10096000002C014079930008A00200205194000857
:100970002D9A00084F93000800127A007194000825
:1009800040420F0061940008042F16D1BBF8762175
:10099000704B304693FBF2F20121BBF8783192B2F2
:1009A0009BF885710BF0B5FD9BF885310BEB870744
:1009B0000133C7F8E0028BF88531059B099A934211
:1009C0007FF415AE95F8A030634E43F0040385F82C
:1009D000A03033784FF48052022B34BF14231023FD
:1009E0008DF85E304FF002038DF85F30A369ADF8EB
:1009F0005C2043F00403A36134BF00250125574860
:100A000017A90BF054FD564B0DB1564A00E0564A5B
:100A100000201A600AF002F8544B554D93E8030089
:100A2000039B4FF0030883E80300A369179843F082
:100A30000803A36118A90BF03AFDE369284643F4C3
:100A40008043E3612369039943F4804323611823BE
:100A50008DF85E304FF42043ADF85C304FF0040960
:100A60008DF85F800BF023FD4FF4804328460399F7
:100A70004FF48057ADF85C308DF85E900BF017FDA9
:100A80001023039928468DF85E30ADF85C700BF0AA
:100A90000EFD2369374A43F48043236123693220E2
:100AA00023F480432361138803F4415343F44573D3
:100AB00043EA08031380938B23F400631B041B0C8D
:100AC00093830723138213889BB243F04003138060
:100AD0009F232F618DF8503000238DF851308DF811
:100AE00052308DF8533009F084FF4A466F61039805
:100AF00014A90CF067FE2F619DF85E309DF85D2013
:100B00001B0243EA02439DF85F2013431A4A9342B3
:100B100012D0322009F06DFF6F61F5200CF088FED5
:100B2000FF200CF085FE70282F6105D13378022B51
:100B300004BF094B83F800803378032B0CBF1F20C0
:100B4000022009F0BDFE3378032B17D001200AF0F4
:100B5000D3FB18E040420F00102E00200008014097
:100B6000F82D0020ADA70008C1A700087C4C0108A3
:100B7000000C01400038004015202000022009F040
:100B8000CBFE0028E2D07C4C7C4B4FF01009204675
:100B900000214A461F6836780FF07BFF4FF6FF733F
:100BA000ADF8503002238DF852304FF0000817F0A6
:100BB000010307F040058DF853800DD0704814A94B
:100BC000ADF8509004F0BAFC0423237007220123EF
:100BD00084F80180A370E2701F469DF8393073B12C
:100BE0000223674814A9ADF8503004F0A7FC012394
:100BF000FA182371A37107236771E371D7B2012E2D
:100C00000FD920235E4814A9ADF8503004F096FCAB
:100C1000052301222372A2727B1C07226772E272F3
:100C2000DFB27DB10223574814A9ADF8503004F06B
:100C300085FC092301222373A2737B1C072267739F
:100C4000E273DFB2504E51487368002543F44043CD
:100C50007360736943F001037361B36943F4007314
:100C6000B36104F041FA4A4B012F1793494B0496A4
:100C7000189394BF2B4680231C934FF480731D93CD
:100C80004FF48063A6F6F8761E9320231F9317A9CE
:100C90004FF400533046209319951B9521951A97D0
:100CA00004F004FA33683C4943F0010333604A68B6
:100CB000012F22F4702294BF0023012322F48072BA
:100CC00042EA03224A608B68344A1A4042F46022A6
:100CD00042F002028A60CB6A23F470027B1EDBB210
:100CE00042EA0353CB62012362199178002965D04F
:100CF000605D591C0928C9B2D278274F10D9A0F1DC
:100D00000A06D7F80CC006EB46064FF0070E0EFA9F
:100D100006FE2CEA0E0EB2404EEA0202FA600CE029
:100D20003E6900EB400C4FF0070E0EFA0CFE26EA6F
:100D30000E0602FA0CF232433A61062B164E0CD81C
:100D4000013B776B03EB83031F229A4027EA0202E1
:100D500000FA03F3134373632FE00C2B20D8DA1F40
:100D6000376B02EB82021F23934027EA030700FA46
:100D700002F33B43336320E0501400209005002031
:100D800000080140000C0140001002400800024031
:100D90004C2401406014002000240140FDF7F1FFC5
:100DA000A3F10D02F76A02EB82021F23934027EAA8
:100DB000030700FA02F33B43F3620B460435102DA0
:100DC00092D1BE4B9A6842F480729A609A6842F05F
:100DD00001029A609A6842F008029A609968B74ADC
:100DE0000907FBD4936843F004039360B34B9A68FC
:100DF00012F004020392F9D19A6842F4A0029A60B8
:100E0000AF4BB3F85801002841F02C82B3F95A21B6
:100E1000002A41F02782B3F95C31002B41F0228295
:100E2000A84BA94E1B68A64C13F0800F23D0C820F6
:100E3000B4F83C5709F0DDFDAE200BF025FE08B1FB
:100E40000BF027FE86F80003C82009F0D2FDA6F8B3
:100E500008539E4D9E4B00210C222846C6F80433B1
:100E60000FF017FE0223EB7005F01AF809F09AFD57
:100E7000984B0344AB60B4F860310021059394F8BB
:100E800067310C220693944B94481B6894F85E518A
:100E9000B3F8563094F868410793914F0FF0F9FD7D
:100EA000002110228F480FF0F4FD8F4B97F800902F
:100EB00003F11802B9F1010F94BF99469146DFF88A
:100EC00008824FF0000A51460C2286F80AA308F562
:100ED000437088F80BA30FF0DCFD2320C6F81893AD
:100EE00009F087FD752001210DF1370206F0C2FEE1
:100EF000B0B17E4B5046C8F810337D4B0121C8F885
:100F0000143313AA432388F80C3306F0B3FE9DF87C
:100F10004C3003F07E038DF84C30002848D150E06F
:100F200098F81C3373BB049B049A9B69DFF8E89123
:100F300043F00803936110238DF85E304FF4805A1C
:100F40000323484617A98DF85F30ADF85CA00BF07D
:100F5000AEFA684AC9F810A0138823F040031B04B6
:100F60001B0C1380138823F038031B041B0C43F065
:100F70000803138013889BB243F0400313800123BE
:100F800088F81C337520012117AA06F0C9FF9DF8C7
:100F90005C30702B5AD1052386F80A33432386F838
:100FA0000C33554BC6F81033544BC6F814334DE090
:100FB000682B06D1012388F80A331D2388F80C33E7
:100FC00044E09DF8373003F07E03682B8DF837300E
:100FD00037D10223062086F80A330146D6F81033AB
:100FE00017AA98479DF8611001F001029DF85F1063
:100FF00001F001014B0043EA82019DF85D2002F0FF
:1010000001030B430AD05BB2012B01D1002302E0A4
:10101000022B0FD1012386F80B3317E02A4B0C204B
:10102000D3F81033012114AA98479DF8503013F0DB
:101030000F0303D1032009F033FD07E0042BE9D1AE
:10104000E4E7702B04BF042386F80A33002386F8F4
:101050001D3396F80A331C49022B0BD1214A28482C
:101060001060284850602848D060012281F81D2374
:1010700000F005BE012B0DD11A4A244881F81D331A
:101080001060204804235060214890601E48D060C2
:1010900000F0F5BD043B012B0CD8124B1D4A1A6021
:1010A000184A5A60184ADA60012381F81D33072371
:1010B00000F0E5BD012009F0F3FCA2E000240140AE
:1010C0005006002090050020C0000020882200204B
:1010D000D6070020404B4C00C00D002040140020DB
:1010E000102E00207C210020EC4B0108757C0008AC
:1010F000517E000800380040217F00084D7F000825
:1011000031810008957A000890C1793D6D7F000813
:101110005D7A00086D800008000C0140012C41F050
:101120008280AA4D2B68990702D5A94B1B68984766
:10113000A84B05981B689847A74B069C1F78A74BA0
:1011400003F11802012F94BF1F461746A44A00233B
:1011500013709046002C41F06F80A24A4FF00009B6
:1011600022ABC2F8907303F82C9D1E200A210122A5
:101170000AF030FB002801F063809DF85C30482BBA
:1011800041F0F780984B994A1A60994A5A600323B4
:1011900088F80030974B0222DA702B6843F008037E
:1011A0002B60954B93F8542112B18E4981F81D2381
:1011B00093F855210AB191490A7093F856310BB151
:1011C00088F800302B688E4D13F0080F01F03A803C
:1011D000BDF91C80642798FBF7F420460DF0C4F895
:1011E000814607FB148000B20DF0BEF885490DF072
:1011F0000FF9014648460DF003F883490DF008F950
:101200002860784C102294F8A0300A2543F002039D
:1012100084F8A0307D4B5A6108221A617B4F192057
:10122000FB68013D83F01003FB60FB6883F008035B
:10123000FB6009F0DEFB012009F0F0FB192009F04A
:10124000D8FB002009F0EAFB15F0FF05E6D10823E2
:101250003B6110255D4B3D611A68994612F0080FFD
:1012600007D0614B7D611B689847694B01223D6146
:101270001A70DBF89433674D187B0DF075F86649EA
:101280000DF0C6F80AF0EEFD074628880DF06CF860
:1012900039460DF0BDF810F067FBABF898032888CD
:1012A0000DF062F801465D480DF066F95C490DF0FD
:1012B00063F9484BCBF89C035749D8680DF0A8F860
:1012C00058490DF0A5F84C4D574FB5F84E31574AD7
:1012D000CBF8A003386805F5C371ABF8A833B5F8AF
:1012E00094E1002313809370CBF8A41300F17902EA
:1012F000CBF8AC138BF8B03305950697039B4C4D98
:101300004C49039F21F813E02B68DFF838C103F53F
:1013100096734CF827303B460133122B0393AA46B1
:10132000ECD1C9301378DBB99578D3789D4217D2C8
:1013300045B105F1FF3E0EEB8E0E0EEB8E0E0EF557
:10134000617306E0013303EB830303EB830303F5CF
:10135000617392F801E09BB20EF1040E21F81E3089
:1013600004328242DED1344A1378043B5370334B4B
:101370001A689B4612F0080F00F0A080194D4FF03C
:1013800000082F4B4146152205F58460C4F8FC3354
:10139000039384F80184C4F80484C4F808840FF02B
:1013A00078FB039B4046053BC4F838340BF056FFEE
:1013B000DAF800300220C4F80C3409F0D1FA002821
:1013C00042D108200AF058FD70E000BF9C050020C3
:1013D000401400207C210020102E00201C4C01080D
:1013E000122E0020C000002050110020C1C70008AC
:1013F000B9C3000844000020500600200C2E002035
:10140000FC1100208988883C00002041000C01402C
:10141000941100200400002035FA8E3C0AE81C419B
:1014200000401C46BD378635C00D00200015002049
:10143000EC2D0020DE0D0020DC0D002090050020AA
:101440003C0800207404002095F8013490F805E071
:10145000C1490C2202FB031292F89920724504D074
:101460000133DBB2042BF3D9002384F80134059B4C
:1014700094F8012493F8E73190F90000002B4FF025
:101480000C0303FB021393F899204FF00003009321
:101490004FF0020114BF032301230BF0B1FDC4F888
:1014A0003C0400288DD001200BF0D8FE069B186864
:1014B00000F5C573C4F840340BF020FFA74B049A25
:1014C000C6F84434049B4FF001089B69282743F079
:1014D00001039361A248032313A98DF84E708DF880
:1014E0004F300393ADF84C800AF0E1FF4FF0020358
:1014F0009B4813A9ADF84C308DF84E700AF0D7FF19
:10150000414640460AF0BEFF964A022353611793B4
:101510004FF01003002717A88DF861308DF8607028
:101520008DF8628003F0CCFF039B072214A88DF88E
:1015300050208DF851308DF852708DF853800CF09A
:1015400023F9DAF800304FF0FF323C3BC6F848345C
:10155000D9F80030844D43F01003C9F80030834BB4
:101560001A60DBF800309A0640F1B282D5F84C647C
:101570007F4B04201E6009F0F3F904218246C5F870
:10158000500409F0E3F97B4B834685F854040820A6
:101590001E6009F0E5F9784B0821186009F0D6F9CA
:1015A000DFF8E891394685F855042C2248460FF0BB
:1015B00070FA8E227C234FF07D0C89F80120E02206
:1015C00089F8003089F8032089F82BC0DFF8C09132
:1015D0002C22394648460493CDF80CC00FF059FA36
:1015E000049BDDF80CC089F800308A2389F80130AB
:1015F0001020A02389F82BC089F80330C5F858645F
:1016000009F0AEF91021C5F85C0409F09FF985F8DE
:1016100060042020C5F8646409F0A2F92021C5F80F
:10162000680409F093F985F86C044FF48070C5F8EC
:10163000706409F095F94FF48071C5F8740409F0ED
:1016400085F985F878044FF40070C5F87C6409F0DA
:1016500087F94FF40071C5F8800409F077F9474B1A
:1016600085F884044FF480601F70C5F8886409F021
:1016700077F94FF48061C5F88C0409F067F9404BA5
:1016800085F890044FF400601F70C5F8946409F069
:1016900067F94FF40061C5F8980409F057F985F827
:1016A0009C044FF48050C5F8A06409F059F94FF438
:1016B0008051C5F8A40409F049F985F8A8045846F2
:1016C00085F8A97404F03EFB2E4E814633782A4FEC
:1016D000834220D0B8B1BAF1000F1CD0244B9AF944
:1016E00000001B6804215B784FF41652003318BFCA
:1016F0000123009302230BF083FCC5F8AC0450B126
:1017000086F8008007E0D5F8AC0409F0F1F8C5F8D8
:10171000AC9486F8009094F8550404F013FBDFF8BD
:101720007480054698F8003083423CD0A0B33B68F3
:10173000002B38D093F900000023009308210123E7
:101740004FF496420BF05CFC0F4B186058B301232A
:1017500088F8003027E000BFEC4B0108C04C0108BE
:10176000000C014000040140C0000020040E0020D5
:1017700098050020E805002034060020A10E002076
:10178000C10E00208005002024060020B80500209E
:10179000ED050020B0050020A24E306809F0A8F841
:1017A000356088F8005094F8600404F0CBFA9E4F3E
:1017B0009E4D3B788146834256D0002835D0D5F8DF
:1017C0005C24002A50D0D37992F900000022002B2B
:1017D0000092974A08BF052352F8232010210223C4
:1017E0000BF00EFC934B0646186000283CD094F892
:1017F0004A30022B0BD095F89620022A01D14C35A5
:1018000005E023B1002A05F14C0518BF00258A4BDD
:101810001D6045B1284600214C220FF03AF9022301
:101820002E6085F84A3001231DE0824E2B68D6F8E1
:101830000080434507D1404609F05AF828464946FA
:101840004C220FF026F9E36C434507D1404609F0DE
:101850004FF87A4800214C220FF01BF9306809F04C
:1018600047F8002333603B7094F86C0404F06AFA84
:10187000734F6E4E3B780546834227D0F0B1D6F8C1
:1018800068341BB3D6F8642493F90000527803231C
:10189000002A0CBF08220922009220214FF4614245
:1018A0000BF0AEFB674B186080B1674A01231370E1
:1018B0003B70664B1A68664B1A6007E0614E3068F1
:1018C00009F016F8604B35601D703D7094F878048F
:1018D00004F038FA5F4E554F33780546834221D0E5
:1018E000D0B1D7F87434EBB1DA7993F90000D7F8B6
:1018F00070344FF480715B78003318BF012300937C
:101900004B4B53F8222002230BF07AFB524B18600A
:1019100040B10123337005E04F4F386808F0E8FF0D
:101920003D60357094F8840404F00CFA4B4F3F4D41
:101930003B780646834222D0D0B1D5F88034F3B14B
:10194000DA7993F90000D5F87C344FF400715B78B4
:10195000003318BF01230093354B53F82220022394
:101960000BF04EFBC5F8B00448B101233B7006E014
:10197000D5F8B00408F0BCFFC5F8B0643E7094F828
:10198000900404F0DFF9364F284D3B780646834239
:1019900022D0D0B1D5F88C34F3B1DA7993F90000C4
:1019A000D5F888344FF480615B78003318BF012389
:1019B00000931F4B53F8222002230BF021FBC5F8A4
:1019C000B40448B101233B7006E0D5F8B40408F034
:1019D0008FFFC5F8B4643E7094F89C0404F0B2F92B
:1019E000204F05463B78834246D000283ED00F4B1F
:1019F000D3F89824002A3FD0D37992F9000000222E
:101A0000002B00920A4A08BF052352F823204FF406
:101A1000006102230BF0F4FA134B186060B301234A
:101A20003B7029E0240600203A060020C000002078
:101A3000845D01083C060020400600200C010020C7
:101A4000600E0020640E0020680E0020EC2D0020A7
:101A50006C0E0020730E00207C0E0020980E0020DB
:101A6000B80E0020D00E0020D40E0020AB4E3068FF
:101A700008F03EFF35603D7094F8A80404F062F968
:101A8000A74EA84F33780546834221D0D0B1D7F86E
:101A9000A434EBB1DA7993F90000D7F8A0344FF40D
:101AA00080515B78003318BF012300939E4B53F89D
:101AB000222002230BF0A4FA9C4B186040B10123B2
:101AC000337005E0994F386808F012FF3D603570BB
:101AD000974B984D1B78022B64D1974A00261388A8
:101AE000322023F040031B041B0C138013884FF497
:101AF000805723F038031B041B0C138013889BB200
:101B000043F0400313809F238DF850308DF85160CF
:101B10008DF852608DF8536008F06BFF8DF85D60B2
:101B2000864E0422776117A814A90BF04BFE37618B
:101B30009DF85E309DF85D201B0243EA02429DF84D
:101B40005F3013437E4A934219D00AD8A2F51A4255
:101B5000033A93420CD002F51A420232934209D062
:101B60001BE0784A934205D00132934207D014E03B
:101B7000202300E080232B804FF4807302E04FF499
:101B800080732B806B80AB882A881B02AB60534329
:101B9000EB60012384F8B83404E000232B806B80D1
:101BA000AB60EB60ED681DB3ED0A2F464FF0000807
:101BB000A8450BDA08EB050676100DF15C09F0027A
:101BC000494610220AF006FF0F2805DC0BF0E6FB61
:101BD0005D4BFF021F600BE0002359F82320013208
:101BE00040F03C830133042BF7D137463546DFE71D
:101BF00008F0D8FE554B1860554B5A791E46052AF9
:101C000004BF4FF4C873A4F8BA34524B4FF47A723D
:101C10001A80514BC8221A80504A137843F00803A7
:101C200013704F4A137823F0020313704D4A136860
:101C3000154613F0410F0DD04B494C4A11604C4AE8
:101C4000032111704B4A012111704B4900220A8077
:101C50004A490A801B0604D5494B02221A7104F036
:101C60008BF8B3682B60012384F8BC3494F8A0305F
:101C700063F07F0384F8A03023B0BDE8F08F414AC1
:101C80004149904613700B6843F001030B603F4BD2
:101C900000221A70082D00F2CB80DFE805F00BC996
:101CA0000B2983A229B9B900012D40F2CC80374B12
:101CB00000251D703B78012B1AD84FF0000922AB8C
:101CC00003F82C9D53204946012209F083FD78B189
:101CD0009DF85C30E52B0BD12D4B2E4A86F81E93D8
:101CE0001A602D4A5A60294B04221A700223A3E07D
:101CF00096F80A33022B55D1254B284A1A60284AF8
:101D00005A60084A92F80B23002A0CBF6F226E22F9
:101D10001A721E4B01221A7003238DE0D40E00208C
:101D2000DD0E0020C0000020845D0108840F00202B
:101D3000102E00200800002000380040000C014058
:101D400018BA20001740EF005C0E00204811002058
:101D500050060020082E00200A2E0020A00500209A
:101D60000D2E002090050020C80700208C050020C3
:101D7000EC05002040000020A4110020A611002046
:101D800088220020440000209C0500200C2E00200A
:101D900040140020817E00082B7D000899810008F6
:101DA000DD7A00083B78012B1BD8002222AB03F818
:101DB0002C2D1C200D21012209F00CFD88B19DF86D
:101DC0005C302A2B01D01A2B0BD1CF4ACF4986F891
:101DD0001F331160CE49CF4B516002221A70042389
:101DE0002AE0002122AB03F82C1D1820012209F063
:101DF000F1FC68B19DF85C30FB2B09D1C24BC64A9F
:101E00001A60C64A5A60C34B01221A70052313E0B8
:101E100096F80A33043B012B3FF646AFBA4BC04A53
:101E20001A60C04A5A60BB4B01221A70082303E0B3
:101E3000012D08D900252AE7BB4A88F8013013682C
:101E400043F0020313603B78012B05D10BF016FD24
:101E5000B64B4FF400525A61042C3FF65FA901A320
:101E600053F824F0791E000823110008371F0008DA
:101E7000791E0008892100080A2008F0BAFD7720A1
:101E8000A021012214AB09F0A5FC002853D01E218B
:101E90000122772009F0DCFC4FF42F6008F09EFD52
:101EA0000025A5F160010024C9B2022217AB7720FA
:101EB0008DF85C408DF85D4009F08CFC9DF85D303C
:101EC0009DF85C2043EA0222994B03F548716A525F
:101ED0000235102DE5D1B3F82E13012501F00F00C6
:101EE00001F47F41A3F82E13234623F0010232446C
:101EF000B2F82023002A18BF0025DF0703D5D2B28D
:101F00005440082202E084EA1224FAE7270448BF7A
:101F100084F4C054013A4FEA4404F7D10133102B42
:101F2000E3D10143824AA6F82E1325B9C4F3033343
:101F3000984200F0628196F830537D4C002D40F0BD
:101F400016827A4F0BF09AFC4FF028094FF4804824
:101F5000384614A9ADF850808DF852900AF0A7FACF
:101F60004FF400533B614846724908F0E3FD0E21EF
:101F700002200AF087FA0823CDF85C8017A84FF0FA
:101F800001088DF861308DF860508DF8628003F0A3
:101F900097FA8DF84C9013A84FF003098DF84D90E7
:101FA0008DF84E508DF84F800BF0EEFB142008F0AA
:101FB00020FDD0217720424614AB09F00BFC3946B6
:101FC000002800F0C5809DF85030A4F85493552B9C
:101FD00084F84B3340F0BC80D121424614AB7720CB
:101FE00009F0F8FB9DF85030772003F00F021B0931
:101FF00084F84C2384F84D33162217ABAA2109F03C
:10200000E9FB9DF85C209DF85D3043EA0223A4F8CB
:1020100034339DF85E209DF85F3043EA0223A4F834
:1020200036339DF860209DF8613043EA0223A4F81E
:1020300038339DF862209DF8633043EA0223A4F808
:102040003A339DF864209DF8653043EA0223A4F8F2
:102050003C339DF866209DF8673043EA0223A4F8DC
:102060003E339DF868209DF8693043EA0223A4F8C6
:1020700040339DF86A209DF86B3043EA0223A4F8B0
:1020800042339DF86C209DF86D3043EA0223A4F89A
:1020900044339DF86E209DF86F3043EA0223A4F884
:1020A00046339DF870209DF8713043EA0223A4F86E
:1020B000483341F27073A4F8583346F67813A4F805
:1020C0005A331D4BC4F85C331C4BC4F860331C4BB3
:1020D000C4F864331B4BC4F868331B4BC4F86C332F
:1020E00094F8303343B905F0A9FE42F6E06008F0F9
:1020F00075FCBD68C5F38035144B01221D700C4B77
:1021000083F8302333E100BF40140020C58100086C
:102110008B7C00080C2E00205D7E0008E57C00080A
:102120001D810008DD7A00089C0500200010014098
:10213000C0000020D97E00083D7E0008417C0008D8
:10214000177E0008F57B0008817900080000002058
:102150008C4A136823F48043136000238A4A8B4D12
:1021600002EBC3046068A84208D112F933002828A2
:1021700004D10020606002F8330002E00133032B39
:10218000ECD14FF400534B61814D95F87043002C16
:102190005CD1142008F02DFC05F271337620D0219B
:1021A000012209F017FB95F87133582B7EF4B9AF73
:1021B00005F55D7388211822762009F00BFB762047
:1021C000F421312209F044FB012385F87033714B6F
:1021D000A5F85843C5F860336F4BC5F85C3345F636
:1021E000D813A5F85A336D4BC5F864336C4BC5F85A
:1021F00068336C4BC5F86C3328E042F21073A2F8D8
:102200005833A2F85A33684B0324C2F85C33674B47
:10221000C2F86033664BC2F86433664BC2F8683369
:10222000654BC2F86C33654B654A9C70136843F08C
:1022300004031360FEF775BF022C09D1FEF78DBFB2
:10224000814696E000232B60FEF7DBBF0424EAE71B
:10225000012C7EF6A6AF1C46FEF778BF06F10108FA
:102260002E46C3E4574B00221A7000B20CF07CF8E3
:1022700055490CF0CDF8554C0646B4F95A010CF00E
:1022800073F851490CF0C4F80546B4F95C010CF040
:102290006BF84D490CF0BCF80446304609F0E2FDFD
:1022A0008046304609F06AFD0646284609F0DAFD08
:1022B0000746284609F062FD0546204609F0D2FD92
:1022C0008246204609F05AFD4146814650460CF0B0
:1022D0009FF84146059048460CF09AF85146069002
:1022E00030460CF095F84946079030460CF090F8CF
:1022F0003946089050460CF08BF8354C4946206022
:1023000007F100400CF084F829466060A56007984A
:102310000CF07EF8014606980BF072FF2946E0604B
:1023200008980CF075F8014605980BF067FF3946E0
:10233000206106F100400CF06BF8294660610598B9
:102340000CF066F8014608980BF058FF2946A0618A
:1023500006980CF05DF8014607980BF051FF4146D6
:10236000E06138460CF054F82062FEF759BD0224B3
:1023700059E7012C7EF615AF002488F80090FEF78F
:10238000ECBE00BF000401400C220020D97E0008F2
:10239000C0000020C1770008C3770008F97D00085D
:1023A000617B0008017600080D7E0008E57B0008CF
:1023B000037E0008D57B0008C57700084400002094
:1023C0009C0500201800002035FA8E3C50060020A5
:1023D000601100202DE9F04FAE4CA5B02378002B02
:1023E00000F09C81AC4E63683268D31A7C2B40F2BB
:1023F0009581237A6260013323722425284603F0F5
:1024000055FCA64B013518880BF0AEFF01460020A5
:102410000CF0B2F8A2490BF0FBFF0CF0BFF9EDB2E3
:1024200000B203F031FC272DE8D1302003F03EFC50
:10243000002003F029FC03F031FC257A15F0030598
:102440001FD1944B5A6841F288339A420BD910201D
:1024500003F02CFC284603F017FC212003F026FC97
:10246000284603F011FC142003F020FC002003F0A8
:102470000BFC1C2003F01AFC002003F005FC03F009
:102480000DFC257A15F0070540F02581022003F0A8
:102490000DFC284603F0F8FB032003F007FC814BFA
:1024A0001B7859075DBF7B4B0520DB68284658BF6A
:1024B0009B89784D5CBFB3FBF0F000B203F0E4FB06
:1024C0002369DA075BD5DFF8F491AA8A99F800301E
:1024D0004FF0640808FB02325B00B2FBF3F3EF8AB3
:1024E00006203F01BFB247EA0327BFB2C3F303236D
:1024F0001F4303F0DBFB38B203F0C6FBEB8A99F80D
:10250000001001339BB293FBF1F201FB1233EB821B
:10251000AB699B7B012B05D1392003F0C7FBB5F9D3
:10252000140019E0AD8A6E235D43152795FBF7F57E
:102530003A20AFB203F0BAFBB7FBF8F528B208FBBC
:10254000157503F0A1FB3B2003F0B0FBA8B2451DBD
:102550000A2095FBF0F000B203F096FB282003F070
:10256000A5FB002003F090FB042003F09FFBE36831
:10257000988910B103F056F800B203F085FBE369C7
:10258000444F9B0640F19C8097F820309D071BD557
:10259000112003F08BFB788C4FF4F3656843424BBA
:1025A00090FBF3F000B203F06FFB192003F07EFB09
:1025B000788C4543642095FBF0F595FBF0F300FB28
:1025C000135000B203F060FB94F82030A58C13F098
:1025D000020F08BF0025012003F068FB28B203F0BA
:1025E00053FB092003F062FB002003F04DFB2F4B4F
:1025F00094F826501A88B2F5967F0AD9254B1B7A93
:1026000003F00F03072B04D842F20F75954228BF41
:102610001546052003F04AFBA3695B7B0BB928B282
:1026200016E0A5F120000BF09FFE21490BF0A4FF5E
:10263000002105460CF08AF810B94FF07C5101E0FA
:102640004FF03F4128460BF0DBFD0CF0A7F800B23D
:1026500003F01AFB94F820200E4B900703D493F854
:102660002720012A04D1012384F8273011482EE0C5
:102670009D69114968680BF0CBFE0CF08FF80E498C
:102680000490A8680BF0C4FE0CF088F8059004A82C
:102690001DE000BF80050020EC2D0020040000207C
:1026A00000007A440D2E0020A08601004200002088
:1026B0006666E63FA80500208096184B4000002083
:1026C000AC4A04AB92E8030083E80300184603F029
:1026D000FDFA03F0E3FA237A282B1FD1A64B002240
:1026E0001A7233684FF47A70B3FBF0F73C26172068
:1026F00003F0DCFAB7FBF6F5B5FBF6F006FB10507D
:10270000000200B203F0C0FA182003F0CFFA06FB73
:10271000157000B203F0B8FA03F0C0FA94F8303044
:10272000954D002B00F0488108F03CF96B6B934A03
:10273000C31A9342064640F2B780002385F83A3028
:1027400085F83C30AB8A8E49DAB21B0A85F85620F0
:1027500085F8573085F84C2085F84D306A6E0B6847
:102760009A1AAB6ED87B4FF47A7343439A420CD3D8
:102770000B686B6695F86C30013B012B9FBF1023F3
:1027800085F83A30022385F83C30002394F8201075
:1027900084F8543084F8553084F8583084F859302F
:1027A00094F826308907744A84F8873003D42D239F
:1027B00082F8883077E0D4F82890E56A7148DFF82D
:1027C000D0C199FBF0FA95FBF0F00CFB0A980CFBDA
:1027D000005C042B8CBF3323322382F8883006221E
:1027E00002FB08F802FB0CFC674B4FF0640E98FBF1
:1027F000F3F19CFBF3F203FB118803FB12C393FB81
:10280000FEF30AEB8A0A4FB20AEB8A0A07EB8A0147
:1028100089B284F8771000EB8000090A84F87810F8
:1028200000EB800051B201EB800292B284F87C2070
:10283000120A84F87D2084F87E30628C1B1284F8A2
:102840007F30242353434FF47A7293FBF2F384F8DE
:102850007430C3F3072384F87530B4F89A300A2231
:1028600084F880301B0A84F88130A38C98FBFEF832
:10287000B3FBF2F303F5FA739BB284F882301B0AC0
:1028800084F88330B4F89C304FEAD97984F87980A1
:10289000ED0F4FEA282884F8769084F87A8084F83F
:1028A0007B5084F88930666394F89E80324DB8F18D
:1028B000000F0DD1D5F8A40008F060F9012807D960
:1028C0000228324F01F0A88303F0D0F90123BB7036
:1028D000D4F8A850284B002D6ED093F89E203AB122
:1028E00040F6B731D3F8B020B21A8A4216D863E066
:1028F000012283F89E20D3F8B420D3F8A4001278E4
:10290000022A04D80430022103F09AF902E00221DD
:1029100008F028F9002384F8B8304BE093F8AC2095
:10292000AAB9C3F8A82083F89E20D3F8B420D3F81E
:10293000A4001278022A04D80430012103F080F99F
:1029400002E0012108F00EF903F090F932E0013ABB
:10295000D2B283F8AC2093F8B81093F8B900CAB992
:1029600001304A1C83F8B90083F8B820D3F8A400DA
:102970001EE000BFF8510108800500203F0D030054
:10298000EC2D00208096980040420F0004000020AB
:10299000806967FF2A4612F8017B01307D183946AD
:1029A00083F8B900D3F8A40083F8B850C3F8A8207E
:1029B00008F0E7F8C4F8B06094F8BA30DD4E002BA8
:1029C00000F0B385D6F8BC30002B00F0AE85D6F809
:1029D000C030002B00F0A985C6F8C4301B68D64F64
:1029E000C6F8C830D6F8CC303B441D7A642D00F0D0
:1029F000B58100F2B780342D00F07A834ED8222DB5
:102A000000F0558322D8032D00F05A8113D8012DF0
:102A100000F04B81022D40F07A85042002F070FF17
:102A2000432002F05BFF4C2002F058FF462002F0EA
:102A300055FF4C204EE1042D00F05081052D40F053
:102A400066851A2002F05CFF00255AE1282D00F06F
:102A50005F8414D8242D00F05584262D40F057852E
:102A6000062002F04DFFB4F8280202F063FFB4F82C
:102A70002A0202F05FFFB4F82C0200F046BD2C2DB4
:102A800000F05884322D00F0A1842A2D40F03F85BB
:102A9000012002F035FF94F8D5001BE1422D00F033
:102AA000A58427D83A2D00F0218217D8362D00F0C2
:102AB000BF84382D40F02B85042002F021FF94F8CC
:102AC000480202F00BFF94F84C0202F007FF94F862
:102AD0004B0202F003FF94F84D02FBE03B2D00F0A7
:102AE000DF82402D40F01385082002F009FF002509
:102AF00000F072BC472D00F0B48423D8452D00F0BF
:102B0000E184462D40F003850D208C4D02F0F8FE47
:102B100009F086FF02F0E2FEA88802F014FF28699F
:102B200002F011FF94F8DB0894F8DA3898422ABFD3
:102B3000C31AC3F1800300200344D4F8DC0818440E
:102B400000F0CFBC4B2D00F013844D2D00F01E84FF
:102B5000492D40F0DC84022002F0D2FEB4F8DC0003
:102B600000F0D3BC722D00F0FB8255D86A2D00F026
:102B7000488339D8672D00F0268126D8652D00F0CE
:102B8000FC80662D40F0C384122002F0B9FE0020C4
:102B900002F0D0FE002002F0CDFE002002F0CAFEBE
:102BA000002002F0C7FE002002F0C4FE002002F068
:102BB000C1FEB4F8280802F0BDFEB4F82A0802F0FD
:102BC000B9FEB4F82C0800F0A0BC682D00F06F81AD
:102BD000692D40F09C8494F85C080025400000F0CA
:102BE000FE0002F08DFE6EE16D2D00F0788109D8B7
:102BF0006B2D00F022836C2D40F08984062002F0BA
:102C00007FFE77E36F2D00F08281C0F07581702D1B
:102C100000F0AD8100F07BBC782D00F0E08013D88F
:102C2000752D00F0318204D8732D00F0DF82742DF1
:102C300003E0762D00F01183772D40F068840020AA
:102C400002F05EFE00F063BCA42D00F0288314D8CF
:102C50007C2D00F04984A02D40F059840C2002F016
:102C60004FFE374B186802F06EFE364B186802F0C4
:102C70006AFE354B186800F034BCF12D00F0F1808D
:102C8000FE2D00F03183F02D40F04184042002F04D
:102C900037FED4F84038B3F85A0002F04BFED4F8AF
:102CA0004038B3F8580000F030BC032002F028FE92
:102CB000002002F013FE284602F010FE0E2009E06C
:102CC000032002F01DFE062002F008FE002002F0A4
:102CD00005FE072002F002FE00F019BC062002F0FB
:102CE0000FFE412002F0FAFD462002F0F7FD4E20D3
:102CF00002F0F4FD412002F0F1FD144B187800F0D1
:102D000004BC134B585D013502F0E8FD0B2DF8D1E2
:102D10000025104B585D013502F0E0FD082DF8D17B
:102D200000250D4B585D013502F0D8FD072DF8D177
:102D3000EDE300BF80050020F851010804000020E9
:102D4000E8F7FF1FECF7FF1FF0F7FF1F102E002022
:102D5000A0640108AC640108B5640108072002F012
:102D6000CFFDE72002F0BAFD96F8D50002F0B6FDDF
:102D7000002002F0B3FD0420B3E30B2002F0C0FDFD
:102D8000B4F8240802F0D6FDB4F8260880B202F0A8
:102D9000D1FDE369C3F3C000C3F38002800040EAC1
:102DA0004200C3F340021043C3F3401240EAC200A2
:102DB00003F01003184302F0BDFD002002F0C3FD34
:102DC00094F8C00786E7102002F09AFD0025DB4B3F
:102DD000585D013502F082FD102DF8D197E3702087
:102DE00002F08EFD00260E257543D4F840380136DA
:102DF0002B44B3F8190102F09DFDD4F840382B4460
:102E0000B3F81B0102F096FDD4F840382B44B3F818
:102E10001D0102F08FFDD4F840382B4493F81F01B8
:102E200002F05CFDD4F840382B4493F8200102F006
:102E300055FDD4F840382B4493F8210102F04EFDA3
:102E4000D4F840382B4493F8220102F047FDD4F81F
:102E500040381D44D5F8230102F075FD082EC2D17B
:102E600055E3702002F04CFDB54D05F1700695F864
:102E7000D00002F033FD95F8D10002F02FFD95F857
:102E8000D20002F02BFD95F8D30002F027FD95F853
:102E9000D40002F023FD95F8D50002F01FFD0735A0
:102EA00095F8CF0002F01AFDB542E0D12FE31020D3
:102EB00002F026FD0025A34B585D013502F00EFD02
:102EC000102DF8D123E394F85C389D4280F01F83E5
:102ED0009D4B33F8150002F02DFD0135F3E7062078
:102EE00002F00EFD002002F02EFD09E2042002F0A7
:102EF00007FDD4F88408F4E2072002F001FDA08A5F
:102F0000FF28A8BFFF20C0B202F0E8FCF2E10B20CE
:102F100002F0F6FCD4F888380026187802F0DEFCBF
:102F2000D4F88838587802F0D9FCD4F88838874D1E
:102F300033441879013602F0D1FC032EF5D1D5F8CF
:102F40008838D87902F0CAFCD5F88838987802F029
:102F5000C5FCD5F88838D87802F0C0FCD5F8883898
:102F6000588902F0E7FCD5F88838187AB2E61E20B6
:102F700002F0C6FCD4F8403800251B78022B6DD136
:102F8000D4F8403805F1080253F8220070490BF0DC
:102F90003FFA0EF0E9FC80F30800C0B202F09EFC9C
:102FA000D4F840386B4903EB8503D86A0BF030FA4C
:102FB0000EF0DAFC80F30800C0B202F08FFCD4F807
:102FC000403805F10E0253F8220063490BF020FA55
:102FD0000EF0CAFC80F30800C0B2013502F07EFC9E
:102FE000032DCDD1072DD4F8403823D1586C584942
:102FF0000BF00EFA0EF0B8FC80F30800C0B202F03D
:103000006DFCD4F840385249986C0BF001FA0EF080
:10301000ABFC80F30800C0B202F060FCD4F840388A
:1030200093F84C000BF09CF90EF09EFC80F3080026
:10303000C0B20DE02B44587802F050FCD4F8403870
:103040002B44D87A02F04AFCD4F840382B44587DFF
:10305000013502F043FC0A2DC4D158E2D4F84038BF
:103060002B44587802F03AFCD4F840382B44D87AF4
:1030700002F034FCD4F840382B44587D013502F07E
:103080002DFC0A2DEAD142E22F2002F039FC334D0B
:1030900015F8010F002800F03A8202F01FFCF7E754
:1030A000012002F02DFCD4F84038187812E65020A8
:1030B00002F026FC0026D4F840580C2205EB8605C9
:1030C00095F87930013602FB037393F84C0002F057
:1030D00005FC95F87A0002F001FC95F87B0002F0FF
:1030E000FDFB95F87C0002F0F9FB142EE3D10EE213
:1030F000482002F005FC0026D4F84058062303FBC4
:10310000065595F8CE0002F0E9FB95F8C90002F0EB
:10311000E5FB95F8CA0002F0E1FB95F8CB0002F060
:10312000DDFB95F8CC0002F0D9FB013695F8CD0017
:1031300002F0D4FB0C2EDFD1E9E100BFAE0D002080
:1031400050060020C40D0020DE0D00208005002068
:10315000000020410000C84200007A4409520108E2
:10316000162002F0CDFBB6F8640202F0E3FBB6F8DD
:10317000100202F0DFFBB6F8120202F0DBFBB6F839
:10318000140202F0D7FBB6F8A60202F0D3FB96F8C1
:10319000B70202F0A3FB002002F0A0FB96F8B802F1
:1031A00002F09CFB96F8530202F098FB96F860023E
:1031B00002F094FB002002F091FBD6F840380A2080
:1031C000B3F9563093FBF0F080B202F0B3FB96F8FF
:1031D000480202F083FB96F84C0202F07FFB96F85F
:1031E0004B0202F07BFB96F84D0273E5082002F0DB
:1031F00087FB0125E8B2013502F070FB092DF9D1FA
:1032000085E1102002F07CFB96F8200000F002001F
:1032100002F064FB96F8260002F060FBB06A02F050
:1032200092FBF06A02F08FFBB08C02F083FB708C93
:1032300002F080FBB6F88C0867E1052002F060FB25
:10324000B4F89A0002F076FBB4F89C0002F072FB2E
:1032500094F88E0800F001003CE502F035FB0746CB
:10326000122002F04DFB27B9D4F89068D4F8945896
:1032700001E000252E46384602F030FB304602F0D1
:1032800062FB284602F05FFB002002F05CFB00209E
:1032900002F050FB002002F04DFB00201AE594F8EC
:1032A0009808002580000130C0B202F029FB94F894
:1032B000980802F013FB94F898389D4280F027811B
:1032C000D04E705D02F00AFB06F11003585D02F06B
:1032D00005FB06F12003585D303602F0FFFA705D01
:1032E00002F0FCFA0135E6E7082002F009FB0020B5
:1032F00002F020FB002002F01DFB002002F01AFB70
:10330000002002E1042002F0FBFAD4F8D800E8E043
:10331000072002F0F5FAB4F84E0202F00BFBB4F805
:10332000500202F007FB94F8520202F0D7FAB4F808
:103330005402EAE00C2002F0E3FA94F85E0202F094
:10334000CDFAB4F8680202F0F5FAB4F8640202F0BB
:10335000F1FAB4F8660202F0EDFA94F85F0202F0B6
:10336000BDFAB4F86A0202F0E5FAB4F86C02CCE0F7
:10337000042002F0C5FA94F8A40202F0AFFA94F81F
:10338000A50202F0ABFAB4F8A602BEE094F85C081D
:103390009D4D00EB4000C0B202F0B2FA002694F856
:1033A0005C3802359E4280F0B28015F8020C02F0C3
:1033B00095FA15F8010C013600EB800000EB800057
:1033C00000F2EE2080B202F0B5FAE8E7012002F048
:1033D00097FA94F860027DE48C4B2B4493F88601B5
:1033E000013502F07BFA082DF6D190E0102002F0B2
:1033F00087FA96F8D50002F071FAD6F8D80002F0F4
:10340000A2FA96F85E0202F069FAB6F8280202F013
:1034100091FAB6F82A0202F08DFAB6F82C0202F000
:1034200089FAB6F84E0202F085FAB6F850026CE05E
:1034300094F8D908754DC0EBC000C0B202F060FA34
:1034400005F1280695F8EE010023714AD25C9042FE
:1034500000F01F860C333C2BF7D10835B542F1D173
:1034600055E002F031FA86B202F02EFA054602F07B
:103470002BFA87B202F028FA06EB052607EB0020AC
:10348000B6B206EB0045842002F03AFA284602F074
:103490005AFA604B04AF1E6905F18003B3428CBF3A
:1034A000761B802609F07AFF28463246394609F015
:1034B00091FA06460025B54229DA785D02F00EFA47
:1034C0000135F8E7132002F01BFA0025524B585D36
:1034D000013502F003FA0B2DF8D1002002F033FA87
:1034E000002002F030FA12E0082002F009FAB4F8E5
:1034F000180202F01FFAB4F81A0202F01BFAB4F82C
:103500001C0202F017FAB4F81E0202F013FAD4F803
:10351000C430424D987902F0E1F9D4F8CC3001334F
:10352000092B88BF0023C5F8CC303D4D94F8E02826
:103530002E683A4B002A00F05B81D3F8E428002A79
:1035400000F0568193F8E838013B012B00F25081DE
:10355000D4F8E408314F07F011FBE0B1D7F8E408E4
:1035600007F009FB97F8E93880467E2BD5F80090E4
:103570000ED102231B2887F8E83809D1D7F8E408D0
:1035800007F0FCFA20B90123C7F8EC9887F8F03867
:1035900084F8E988DCE7D7F8EC282B689B1A41F619
:1035A000583293421DD9032387F8E83820E11D4A99
:1035B00032F8130010B903464FF403600133B0F53D
:1035C000C06FDBB26CD02FD9B0F5006F6ED041D98F
:1035D000B0F5036F48D184F8F138E3690F4F9906CD
:1035E00049D494F8F01894F8F138002900F0FE80DE
:1035F0002A68921B012ADAD984F8F138002384F86A
:10360000F038F5E0190E0020EE07002050060020EB
:10361000642B002004000020A06401088005002025
:10362000EC2D002080640108B0F5007F38D006D86A
:10363000B0F5807F68D0B0F5887F65D0D5E7B0F56C
:10364000806F74D0B0F5826F00F09080B0F5047F89
:10365000CBD11CE0B0F5E26F65D0B0F5E46F62D07D
:10366000B0F5E06FC1D15EE0B0F5046F5BD0B0F5AE
:10367000026FBAD1A5E097F820309A07B1D5798CBE
:1036800024234B436421123393FBF1F1A8E084F827
:10369000F1382369984FDB07A3D5BB8A0A219EE046
:1036A00084F8F138236913F0400F32E0E169924A5F
:1036B0008F0684F8F13894D592F82010880790D5B9
:1036C000D90710D5D36A192283EAE371A1EBE3711C
:1036D00001EB5101B1FBF2F1002BACBF41F0004115
:1036E00041F040410DE0936A192283EAE371A1EBB6
:1036F000E37101EB5101B1FBF2F1002BB8BF41F0D6
:1037000080414FF400604BE084F8F138E36913F036
:10371000040F3FF466AF002102F05EFA764B002200
:1037200083F8F0285DE784F8F138002138E084F868
:10373000F13894F8F238704A0133DBB2032B88BFBA
:10374000012382F8F23842F2107394F8F2185943C8
:103750006A4B1B78DA0748BF01319F0748BF023127
:10376000580748BF04314FF4806019E0E169DFF881
:10377000888111F0200784F8F13817D098F82020BC
:1037800012F0020F14BF4FF47A71002112F0010FF2
:1037900014BF4FF4FA6300230B4494F82610194425
:1037A00002F01AFA002384F8F0381AE7D8F810303B
:1037B0001A077FF516AF394602F00EFA88F8F0784E
:1037C0000FE784F8F138E3694B4F9B067FF509AFAB
:1037D00097F8203099077FF504AFBB8C64215943DB
:1037E00002F0FAF9002387F8F038FAE684F8F138A5
:1037F00094F8F328404B002A5CD02968D3F8F428C9
:103800008A1AC72A56D993F8F828C3F8F41893F8F7
:10381000F918013283F8F828394E93F8FA2829B9B3
:103820007AB93270D3F8FC08232141E04AB93278E2
:103830003AB9D3F8FC08582107F0A3F901233370F3
:1038400038E03378B3B3D4F810390A26A4F8023933
:10385000B4F80C390027A4F81439B4F80E39442010
:10386000B3FBF6F384F80079A4F8163902F0A2F954
:103870000121B4F9020902F07FF9482002F09AF917
:103880000121B4F9140902F077F9412002F092F90C
:103890000121B4F9160902F06FF92A2002F08AF921
:1038A00094F80009394602F067F93146D4F8FC086B
:1038B00007F067F994F818290F4B002A00F092815D
:1038C0002968D3F81C298A1A092A40F28B8193F8B7
:1038D0002029C3F81C1993F8F918013283F820291C
:1038E00093F8FA28074B09B972B903E062B91A785C
:1038F00052B901221A7075E1800500200D2E0020BA
:103900000F2E00200E2E00201B78002B00F06A8165
:1039100094F8213905220133DBB2B3FBF2F202EB5A
:10392000820284F821399B1A13F0FF031FD1012270
:103930008DF814208DF815208DF816208DF817209D
:103940000327B94A04938DF8187004AE03CE17729A
:10395000106051600920322102F8013C09F0E2FBBD
:1039600009F0C7FBB14BA3F8220902F0E1F894F883
:1039700021390A21B3FBF1F201FB123212F0FF0FE1
:1039800032D1642B30D8002304930123ADF81430D6
:10399000ADF8163002238DF82830A54B06AE03F1A2
:1039A0001007324618685968083303C2BB421646EE
:1039B000F7D19D4B04AE0AAF324603CABA42186033
:1039C0005960164603F10803F6D11278DC211A700B
:1039D000984B16221920DA7109F0A4FB09F089FB33
:1039E000A4F8220902F0A4F894F821191E23B1FBCF
:1039F000F3F203FB121313F0FF0F40F086808B4BA2
:103A0000B3F824390BB19BB200E00823D4F80419B1
:103A10000A2202FB01F0D4F8081900264A43079253
:103A200000220027ADF82420ADF82620ADF82A208A
:103A30008DF82C2004AACDE904671646B4F90C19B8
:103A40004FF47A7E0EFB01F18DF82D30764B069007
:103A50000891ADF828E00DF12808174603CF474537
:103A6000186059603A4603F10803F6D13868182106
:103A70001860BA886F4F9A801E20F97109F052FBC6
:103A800009F037FBA4F8220902F052F8D4F804290F
:103A90000A2303FB02FBD4F80829B4F90C9903FBB1
:103AA00002FAD4F828094FF47A7303FB09F90AF0F3
:103AB0009BFE00230493ADF82430ADF82630ADF81A
:103AC00028303346CDF814B0CDF818A0CDF81C90AE
:103AD000CDF82090ADF82A0007F108021E4603CE6B
:103AE000464510605160334602F10802F6D1306855
:103AF0002123106068211C20FB7109F013FB09F0E1
:103B0000F8FAA4F8220902F013F894F821191E23F8
:103B1000B1FBF3F203FB1213DBB20F2B434E61D167
:103B2000D6F828090AF03AFE1FFA80F8B6F90C090F
:103B30000AF01AFC04AA16463F4B0027049305938B
:103B40000023ADF82230384B06900797ADF820805F
:103B50000DF1200C9646BEE80300E645186059605A
:103B6000724603F10803F5D1DEF80000DFF8C480E7
:103B7000186014204A23014688F8073009F0D2FA69
:103B800009F0B7FAA4F8220901F0D2FFD4F83439C9
:103B9000D4F8302907933346D4F82C1900200DF1BE
:103BA000900E069204900591089709974EF8687D4B
:103BB00008F108021E4603CE764510605160334678
:103BC00002F10802F6D130681E23106027211C2064
:103BD00088F8073009F0A6FA09F08BFAA4F8220950
:103BE00001F0A6FF94F83829104B002A00F0FE805F
:103BF0002968D3F83C298A1A092A40F2F78093F8F9
:103C00004029C3F83C1993F8F918013283F8402988
:103C100093F8FA28094B09B992B903E082B91A78E6
:103C200072B901221A70E1E0A82B00208005002063
:103C3000C4640108A02B002000002041112E0020A8
:103C40001B78002B00F0D28094F841391E210133FB
:103C5000DBB2B3FBF1F284F8413901FB123313F00C
:103C6000FF03964E59D1964F86F8423979683868E5
:103C700004AB03C304A801F0E3FE01F0CDFE03F0A2
:103C80002DFC01F0C9FE01F0EFFE01F0C5FE03F0CE
:103C90006BFC01F0C1FE312003F032FC01F0BCFEF0
:103CA000B6F8242907F1080104A808F031F804A89F
:103CB00001F0C6FE01F0B0FED6F8446930460AF0C5
:103CC00093FD80495FFA80F830460AF0A1FB064672
:103CD0000A2000FB08F00AF047FB014630460AF0D4
:103CE0008DFA0AF081FD07F10E01C3B2424604A825
:103CF00008F00EF804A801F0A3FE01F08DFE01F01B
:103D0000FFFE01F089FE01F0FBFE01F085FE01F0EF
:103D100083FE03F003FC03F0C3FB94F841191E2358
:103D2000B1FBF3F203FB1213DBB20F2BDFF88C8134
:103D30005CD1654E04AB71683068002703C304A8EA
:103D400088F8427901F07CFE01F066FE03F0C6FBC4
:103D500001F062FE412003F0D3FB01F05DFE01F0B3
:103D600083FE01F059FE03F0FFFB01F055FED8F889
:103D700048090AF039FD06F1080182B23B4604A861
:103D800007F0C6FF04A801F05BFE01F045FED8F87D
:103D900028090AF029FD3B4682B206F1080104A871
:103DA00007F0B6FF04A801F04BFE01F035FE06F166
:103DB0001201D8F84C2904A807F0AAFF04A801F0C2
:103DC0003FFE01F029FE06F108013A463B4604A8F1
:103DD00007F09EFF04A801F033FE01F01DFE452010
:103DE00003F08EFB03F09AFB03F05AFB94F8503972
:103DF000DFF8C880002B00F0AD80D8F85439002BD4
:103E000000F0A8802F68D8F85839FB1A632B40F2CD
:103E1000A1802E49D8F828090AF0FAFA0AF0E4FC41
:103E200086B2412003F022FB002003F016FB0020A5
:103E300003F013FB30460AF097FA22490AF09CFB84
:103E40000AF0D2FC80B203F008FB03F0D7FA98F82E
:103E50005C6916F001063BD0D8F81C309A064BD5A9
:103E6000B8F924394720052BB4BF0226032603F0F6
:103E7000FDFAD4F804094FF00A0808FB00F003F03B
:103E8000DBFAD4F8080908FB00F003F0D5FA0F4973
:103E9000D4F848090AF0BCFA0AF0A6FCC0B203F054
:103EA000B9FAB4F90C396420584303F0C5FAB4F9EF
:103EB000240946EA8000C0B21AE000BF8005002055
:103EC0008C53010800002041A45301080000C8429F
:103ED000532003F0CBFA304603F0BFFA304603F02C
:103EE000BCFA304603F096FA304603F093FA01200C
:103EF00003F090FA03F082FA94F85C69DFF8C89155
:103F0000DEB94F2003F0B2FAD9F804094FF00A08DD
:103F100008FB00F003F090FAD9F8080908FB00F05C
:103F200003F08AFA304603F087FA012003F072FAB0
:103F3000012003F06FFA03F061FA94F85C390A216A
:103F40000133DBB2B3FBF1F201FB1233C4F8587951
:103F500084F85C3994F85D395B4E002B00F0B18039
:103F60002A68D6F86039D31AC72B40F2AA8096F88F
:103F7000643906F69810013386F86439B6F88E393C
:103F8000C6F86029A6F86639002386F8943903F04C
:103F9000F1F903F0C5F906F6C41003F0EBF903F0EC
:103FA000BFF9B6F8FA394949D6F8FC2904A807F050
:103FB000AFFE04A803F0CAF9B6F8003A1B0714D5FF
:103FC00003A90DF10D020DF10E0003F007F89DF8A5
:103FD0000D10BDF80E2000919DF80C3004A83C494E
:103FE00007F096FE04A803F0B1F9002394F89419A1
:103FF0005D1CDBB29942344A08D9134493F8081A7D
:10400000D2F8040A06F0BDFD2B46EFE7D2F8040A09
:104010000A2106F0B6FD54E0BB782BB1C5F8A060CC
:1040200087F80280FEF754BCD5F8A030F31AB3F538
:104030007A6FFEF44DAC0123D5F8A400BB7006F0F6
:104040009AFD0746D5F8A40006F095FD7F067EF49C
:104050003FAC8A2803D08E280DD0FEF739BCEB691F
:1040600098067EF535AC95F89E30002B7EF430AC8A
:1040700005F16D0306E095F89E30002B7EF428AC28
:1040800005F13803C5F8A8302D2385F8AC30FEF7CC
:104090001FBC01F023FCB5F8F00101F04BFC95F8D2
:1040A000F20101F01BFC95F8F30101F017FC95F803
:1040B000F50101F013FC95F8F40101F00FFCFFF796
:1040C000CCB925B0BDE8F08F80050020BD640108A3
:1040D000AD6F01082DE9F04FA24C87B02368C3B93A
:1040E000A14D2B78013B042B00F22E85DFE813F065
:1040F0001004100410041305F4049A4B186806F019
:104100003AFD9A4B05461B681B7843B1012B00F022
:104110007881206806F032FD0028EED1E0E72428FF
:10412000934E0CD006D80A2800F0E5800D2800F048
:10413000E28051E12A2806D02C2804D04CE13370CB
:104140007370B37059E18B4B717896F80080002042
:10415000874A5854B8F1000F26D1197882F80380A5
:10416000472921D1597850291ED19978472907D15B
:10417000D978472904D11979412901D10121D17078
:1041800099787C4A522903D1D1784D2900F0D48402
:104190009978784A472907D1D178532904D11279DF
:1041A000562A04BF0322F270F278714F022A3AD0E5
:1041B000032A4FD0012A40F08C80A8F10202072A7E
:1041C00000F28780DFE802F004080F131A25852A21
:1041D00008F091FE70607CE01B78532B79D17368F6
:1041E0005B42736075E008F086FEB06071E01B789A
:1041F000572B6ED1B3685B42B3606AE01B78302BFB
:104200005D4B1A788CBF42F0020222F002021A7053
:104210005FE0002008F0CEFE30735AE0002008F086
:10422000C9FEF08155E0B8F1070F07D0B8F1080FCB
:104230004FD1012008F0BEFE78824AE0012008F04C
:10424000B9FE41F2184358434FF47A73B0FBF3F0D0
:1042500038823EE0B8F1020F08D0B8F1030F0AD15E
:10426000002008F0A7FE454B187032E0002008F04F
:10427000A1FE38752DE02CD9A8F1040292103B7DE7
:104280000132D2B2013B02EB8303DBB2102B20D808
:10429000A8F10301C2F1010201EB8202D2B2012AAC
:1042A0000BD0042A11D100205F1E08F083FE344B8E
:1042B0000022D855334BDA5507E0334A5F1E002001
:1042C000D35508F077FE314BD855314A1368013386
:1042D0001360274A2A2D18BF917808F101084FF082
:1042E00000030CBF01214D4086F8008073700CBFA5
:1042F0005175957081E0737D002B6AD0254B13F8C2
:10430000012D25495A708B42F9D11A4AB078137899
:104310005278402B85BF373B1B011B01DBB298BF96
:1043200003F0F003402A8CBF373A303AD2B213443C
:10433000DBB298420E4A49D121230B701749164827
:104340000B6801330B60D378012B2DD0022B3FD1AA
:104350007223118A0370124B528A1980114B1A80F2
:1043600036E000BFFC040020C0040020F804002058
:1043700020120020542B0020A0050020180E002041
:10438000490E0020390E0020190E0020290E0020B1
:1043900044150020F4040020E00400205015002003
:1043A000A20500200C0E0020672101709D490978AC
:1043B0008F070ED59C495068086090684860107B54
:1043C0009A490870D1899A4A118002E03F230B7004
:1043D00000230022727510E073780E2B9FBF954A60
:1043E000591C5170944A934998BFD554737D1BB999
:1043F0008A7855408D7000E00023DD077FF589AE97
:1044000053E18C4B9A7D082A3FF683AEDFE802F039
:10441000050C1319242F4A606A00B5287FF479AE81
:104420000022DA75012202E0622802D000229A7589
:104430006FE60222FBE703229A7518765876987683
:1044400067E604229A755A7E997E0244D2B25A7661
:104450000A449A76D8765CE605229A755A7E997E49
:104460000244D2B25A760A449A76988351E60622DA
:104470009A755A7E997E0244D2B25A760A449A7646
:104480009A8B02EB0025ADB2B5F5AC7F82BF694ACD
:104490000121D17500229D83DA83002D7FF439AE8E
:1044A0000722C4E75A7E997E0244D2B25A760A4461
:1044B0009A76DA8BB2F5AC7F3EBF5E49891881F8F7
:1044C00020000132998B92B29142DA83E8D920E63A
:1044D00008229A755B7E83423FF41BAE554B012246
:1044E000DA750EE0002255499A7511F8012D4A70CF
:1044F000534A9142F9D1987E4E4AA84206D03F23B2
:104500000B70504A53680133536002E64E4D2868E1
:1045100001302860D07D10B13E230B70F9E52120D9
:104520000870D07E06284DD004D8022814D0032865
:1045300030D0EEE5122864D030287FF4EAAD49206F
:10454000087092F82410414A102988BF1021117078
:1045500010783F49002283E0502008703249506AA9
:104560004860906A0860116B4FF47A7091FBF0F12B
:104570002F48018092F878112A4A19B1117841F038
:10458000020102E0117821F002011170012283F88A
:1045900079217AE05320087092F8251011F001017A
:1045A00005D092F82420D01E4242424100E00A4643
:1045B00083F87821002A68D11A490A7822F0020289
:1045C0000A7062E04F20087092F82B1011F0010180
:1045D00005D092F82A20D11E4A424A4100E00A46FC
:1045E00083F8782122B90F490A7822F002020A7072
:1045F00093F84F100D4A1170B3F84C10154A118002
:1046000043E056200870506B1349088042F2107046
:10461000916B91FBF0F111480180012182F87A1130
:1046200033E000BFA0050020A8050020A60500205B
:10463000A405002020120020542B0020F4040020A8
:10464000E0040020C004002050150020180E0020B7
:104650004012002042000020A20500200C0E002085
:1046600082420ED20E7AB64D56554E7AB54D5655FB
:10467000CE7AB54D565511F80C6FB44D56550132E2
:10468000EEE7B3490A6801320A6093F87931B14A1A
:10469000002B3FF43EAD92F87A31002B3FF439AD58
:1046A000002382F8793182F87A31AB4BDFF8E0826F
:1046B000DA681A61A94A1268DA60A94A136843F0F5
:1046C00020031360A74B1A78012A0CBF0022012295
:1046D0001A7098F800309A077FF51BADA24A12783D
:1046E000042A7FF616ADA14A127802F0040202F005
:1046F000FF011AB923F0010388F8003098F8007020
:10470000944E17F0010F9A4D24D119B3BB0721D550
:10471000984B28686A6818605A6009F025FE0021E5
:1047200081460AF031F808B1484601E009F100403D
:10473000914909F021FF914909F06AFE07F092FBC7
:104740008F4B47F0010718608E4B88F800701B886C
:10475000A6F87C3196F87E21531C052293FBF2F2D9
:1047600002EB82029A1A96F87F3186F87E21029334
:1047700092000023DFF8F8919900DFF828A2039156
:1047800059F82310DFF820E291FBFAFC0EF1080043
:1047900040F823C07C484EF8231000FB0C1142F275
:1047A000107091FBF0F00EF1100680B226F81300A5
:1047B0004FF014080EF1140608FB03680EF13C0BD1
:1047C00058F802705BF8236048F80210F61B0E449C
:1047D00005214BF8236096FBF1F60AFB0C66029963
:1047E0000EF1440E01294EF82360C84606D1023866
:1047F000B0F5797F9CBF039941F809600BB901239B
:10480000B8E7DFF85891534FD9F80000D7F8CC310A
:10481000C01A09F0A5FD5D4909F0AEFED9F80030D7
:104820004FF07E51C7F8CC31064609F08FFF08B92A
:104830004FF07E56564BC7F8D0611B78DFF86C916D
:1048400013F00103534E13D004AA0092494B05AA5A
:1048500001920CCB98E8030008F00EFD049A642145
:10486000B2FBF1F2059BA9F8002093FBF1F301E004
:10487000A9F80030338097F8D431364E002B3BD066
:10488000D6F8D0114FF07E5009F076FE8246D6F869
:10489000D8312868C01A09F067FD514609F0B8FD03
:1048A00009F07CFFD6F8DC311FFA80F968680FFA4E
:1048B00089F9C01A09F058FD314B196809F0A8FDB3
:1048C000514609F0A5FD09F069FFB6F9E22100B2F1
:1048D0008118B6F9E021022009EB020391FBF0F107
:1048E00093FBF0F389B29BB2A6F8E611A6F8E43187
:1048F000A6F8E211A6F8E031012387F8D431D8F800
:104900000430C7F8DC31D8F80030C7F8D83100E4FB
:10491000214E3268177817B1012F49D014E1012BCD
:1049200000F212816A781D4B0C2101FB02335A7888
:104930001B4B206853F8221006F01AF996E000BFCE
:10494000190E0020290E0020390E0020490E0020EB
:104950004415002020120020C0040020EC2D00206F
:104960009C0500200E0E0020A60500200D2E002024
:10497000A8050020100E00208096184B35FA8E3CBA
:104980001C0000201C110020806967FF00007A4491
:10499000A00500201C060020F8040020844C01081B
:1049A000845D010880969800A01300201A0600205C
:1049B0002068DFF8C08106F0D8F8002800F0C48035
:1049C0002A78634B022A3FD0032A4CD0012A40F0B8
:1049D000BB80604A10689A69821AC72A40F2B48084
:1049E000596904292ED85C4A0C24964604FB0121FF
:1049F000D8F800404E78A768986100235749D8B28C
:104A000051F82320BA4204D001330B2BF6D10023F6
:104A100000E00346B34205D0204651F8261006F0C8
:104A2000A7F891E06B780C2101FB03E2566816F8B9
:104A3000011B19B1204606F0A4F8F8E76B690133B1
:104A40006B6181E0022074E05A78434B0C2101FB3A
:104A500002335A78414BD8F8000053F8221006F080
:104A600087F8032065E0326892780AB9042060E094
:104A70001A7F02B91F772B7F354F012B0FD17B692E
:104A8000B22B08D8364A2068D15C06F07AF87B69E8
:104A900001337B6103E000237B6102233B772B7FA3
:104AA0002B4F022B14D17A690F2A0FD833682C4967
:104AB0005B78206803EB03130B44134493F8B410A2
:104AC00006F05FF87B6901337B6101E003233B77EC
:104AD0002B7F022B38D9C9E7AB681D490133AB6086
:104AE000204B1B68DB784BB14B7805220133DBB2DE
:104AF000B3FBF2F202EB82029B1A4B70154B0022C1
:104B00001B680120EB60184B1A70184A137823F0C9
:104B1000020313700DE00F4BEA681B689B1A40F606
:104B2000C412934210D9124A0520136823F02003BF
:104B3000136008F093FB07E01279432A7FF428AB57
:104B40000222F270FFF724BB07B0BDE8F08F00BF70
:104B5000C0040020EC2D0020844C0108845D010875
:104B6000D4530108F8040020A6050020A005002069
:104B70009C050020FC040020084BDA68D10709D40A
:104B8000DA68520708D4DB6813F0100F14BF032053
:104B90000420704701207047022070470020024027
:104BA000024A137843F0040313707047A0050020F5
:104BB00010B5037823B9BDE810400C4805F0E4BFF8
:104BC0000CF00AFC46F2BD4398420146084C06D060
:104BD000084807F0B3F894F86931013303E0064858
:104BE00007F0ACF8002384F8693110BD4B6601086A
:104BF00050060020766601088E66010810B503781D
:104C000023B9BDE810400C4805F0BEBF0CF0E4FB32
:104C100084B25A2C21B209D8084807F08FF8084B03
:104C20009A781C8042F002029A7010BD0548BDE8D7
:104C3000104007F083B800BFA2660108D5660108DE
:104C400038140020F166010810B5037823B9BDE8D7
:104C500010400C4805F098BF0CF0BEFB84B2B4F5D0
:104C6000B47F21B209D8084807F068F8074B9A7852
:104C70009C8042F001029A7010BD0548BDE81040CA
:104C800007F05CB8A26601080D670108381400201F
:104C9000F166010807B5064B06490093064B074A23
:104CA00001930748074B07F049F803B05DF804FB90
:104CB000AC64010858670108B56401085D67010824
:104CC00028670108A0640108F7B5274B27491C682D
:104CD0000978274B274D1A8855F82110264B27486D
:104CE0001B7800914FF47A71B4FBF1F107F026F8CC
:104CF000234B24481968244B0026B1FBF3F107F03D
:104D00001DF8224B1F68F3B205EB83021169D9B17C
:104D100001249C403C4215D0220713D01C4A0B2092
:104D2000D25C00FB0323134A1A4802EB83031A6B7D
:104D300007F004F8022C05D1174B197C11B1174864
:104D400006F0FCFF0136DEE7154805F01DFF154BA8
:104D500015481A88154B92B2198840F2547303B063
:104D6000BDE8F04006F0EABFEC2D0020EC05002085
:104D700094050020DC54010840000020636701080E
:104D800048000020A667010840420F009C05002053
:104D900044000020B667010838140020BE670108EF
:104DA000ED6F0108A60D0020C2670108A40D0020C8
:104DB00007B50A4B002193F9EE0108220091032365
:104DC00008F01EF9064B074A5861074B1A60074A5C
:104DD000074BDA6003B05DF804FB00BF500600200B
:104DE00038140020EFBEADDEF04F00200400FA05BD
:104DF00000ED00E038B51A4805F0C6FE194805F088
:104E0000C3FE194B1C469A6812F4007F14BF174862
:104E1000174806F093FFA36800241B054CBF1548F4
:104E2000154806F08BFF154806F088FF0D4805F081
:104E3000ABFE134A15192B7903F03003302B0AD13E
:104E4000A158104806F07AFF2846002105F0C2FC60
:104E50000A4805F099FE1434B4F5667FE9D138BDEF
:104E6000F46701080D680108500600201D6801085C
:104E70002E6801083E6801084E680108ED6F0108C0
:104E8000BC5501085D680108F8B5564B064693F815
:104E900036370C46012B15461BD1114609F06CFB29
:104EA0004FF07E5109F0AAF90546014609F0B0FA23
:104EB000294609F0ADFA294609F0AAFA4FF07E51C9
:104EC00009F09CF904F100440146204609F0A0FADB
:104ED00058E0022B4FD110464FF07C5109F098FA60
:104EE0000146304609F048FB4FF07E51054609F077
:104EF0002DFCE8B12946284609F08AFA01464FF010
:104F00007E5009F07BF908F097FE0CF091FF064601
:104F10000F4604F100404FF07C5109F079FA08F097
:104F20008BFE002204460D46304639462E4B48E0A3
:104F300028464FF0804109F061F9014609F068FA0E
:104F400001464FF07E5009F059F908F075FE0CF05B
:104F50006FFF06460F4620464FF07C5109F058FA85
:104F600008F06AFE002204460D46304639461E4BC4
:104F700008F004FD27E0032B32D1114609F0DCFBD9
:104F800020B12046002109F03BF9F8BD3046174911
:104F900009F03EFA294609F0EFFA08F04DFE024604
:104FA0000B4600204FF080410CF0CAFD06460F462C
:104FB000204608F041FE32463B460D460A4904466B
:104FC000002008F0D9FC02460B462046294608F08E
:104FD00087FE0022002308F0D1FC09F0BBF8F8BDE1
:104FE000F8BD00BF500600200000F03F000020C1C7
:104FF00030B5174D174B90FBF5F4DA8484EAE47270
:10500000A2EBE47205FB1404002CB8BF6442002834
:105010009A82B4BFFF2201221A7791FBF5F2D86081
:1050200082EAE270A0EBE27005FB1212002AB8BF20
:10503000524200291A62B4BFFF22012283F82420C1
:105040001A8D196101329C61D8831A8530BD00BF69
:1050500040420F00180F002000212A2210B51048EE
:105060000BF017FD0F4B002219460F480724105C68
:10507000013283F8EE0183F8F34108200024052A69
:1050800083F8F20183F8F54183F8F4010344ECD18D
:105090000123A1F8F031522381F8EC3110BD00BF9B
:1050A0003C08002050060020466601088A6810B5BA
:1050B0000C6A036814430A6923F4FF4314434A69E2
:1050C00023F0700314438A691443CA6914434A6A7B
:1050D00014438A6A224313430360CB6843600B681E
:1050E00083604B68C36010BD4FF6FE7302681340C7
:1050F00003600023036043608360C360284B9842D1
:1051000001D1284A27E0284B984201D1254A2AE0BC
:10511000264B984201D1234A2DE0254B984201D1DC
:10512000204A30E0234B984201D11E4A33E0224B03
:10513000984204D11B4A536843F470032EE01F4B7E
:10514000984204D1174A536843F0706326E01C4B21
:10515000984204D11B4A536843F00F031EE01A4BD8
:10516000984204D1174A536843F0F00316E0174BF6
:10517000984204D1134A536843F470630EE0144B11
:10518000984204D10F4A536843F4704306E0114B30
:10519000984204D10B4A536843F47023536070471C
:1051A00008000240000002401C00024030000240A3
:1051B00044000240580002406C000240800002405F
:1051C00008040240000402401C0402403004024073
:1051D0004404024058040240224A10B5536803F0C8
:1051E0000C03042B03D0082B04D01F4B14E01F4BDF
:1051F0001B6811E053685168C3F38343C90303F18B
:10520000020301D41A4906E0516811F4003F17491E
:10521000096818BF49084B4303605368154CC3F332
:105220000313234493F878140368CB404360516818
:10523000C1F30221214491F8781423FA01F181602D
:105240005168C1F3C221214491F87814CB40C36066
:105250005268C2F38132224492F88824B3FBF2F3FD
:10526000036110BD0010024000127A0020000020EF
:1052700000093D00DC54010810B50446FFF77CFC32
:10528000012806D11CB1FFF777FC013CF8E70520A7
:1052900010BD002C08BF052010BD0A88F0B54B8852
:1052A0008E88B1F808E0CC88002A3AD1028C43F00D
:1052B000010322F001021204120C0284058B078CF8
:1052C000ADB225F0F30545EA0E1189B241EA0602B6
:1052D0007A49BFB2884212D001F5006188420ED0EF
:1052E000B0F1804F0BD0A1F59831884207D001F57D
:1052F0008061884203D001F58061884202D127F0A5
:10530000020701E027F00A071F4302830784038B8B
:1053100023F00C031B041B0C0383038B9BB21C4365
:1053200044E0042A44D1028C22F010021204120C30
:105330000284018B058C21F440721205120D42EAA1
:105340000E325E4992B242EA06228842ADB292B271
:1053500012D001F5006188420ED0B0F1804F0BD021
:10536000A1F59831884207D001F58061884203D0C9
:1053700001F58061884207D125F0200141EA03133D
:105380009BB243F0100304E025F0A00143F01003AA
:105390000B4302830384038B23F440631B041B0C25
:1053A0000383038B9BB243EA0424A4B20483F0BDBD
:1053B000082A028C3ED122F480721204120C02845C
:1053C000828B3E4D92B222F0F307018C47EA0E1217
:1053D00092B2A84289B242EA060212D005F50065EF
:1053E000A8420ED0B0F1804F0BD0A5F59835A84259
:1053F00007D005F58065A84203D005F58065A84271
:1054000007D121F4007141EA03239BB243F4807376
:1054100004E021F4206143F480730B43828303840E
:10542000838B23F00C031B041B0C8383838B9BB2A5
:105430001C4341E022F480521204120C0284858B3A
:10544000018C25F440752D052D0D45EA062545EA0C
:105450000E321A4D89B2A84292B212D005F50065FB
:10546000A8420ED0B0F1804F0BD0A5F59835A842D8
:1054700007D005F58065A84203D005F58065A842F0
:1054800007D121F4005141EA03339BB243F4805326
:1054900005E047F6FF5543F480530D402B438283CC
:1054A0000384838B23F440631B041B0C8383838B53
:1054B0009BB243EA0424A4B28483F0BD002C0140D3
:1054C000016830B5CD43154B1C682C401C605A68F0
:1054D0002A405A60027902F1804202F58232146851
:1054E0002143116002689C68D5432C409C60D968B8
:1054F0002940D9604179102909BF996801F1804399
:105500001143996015BF03F58233D96819680A43BE
:1055100016BF0A43DA601A6030BD00BF00040140C4
:10552000054B1A685B69034004D0104214BF012088
:10553000002070471846704700040140CA78F0B553
:10554000D40648BF8C780D8802F00F0348BF234370
:1055500015F0FF0F1DD0016800240126A64006EAC1
:105560000507B74211D14FEA840E0F2606FA0EF650
:1055700021EA0601282A03FA0EF641EA060101D1C2
:10558000476102E0482A08BF07610134082CE4D1D2
:105590000160FF2D1FD94168002404F1080701268E
:1055A000BE4006EA0507B74211D14FEA840E0F2626
:1055B00006FA0EF621EA0601282A03FA0EF641EA57
:1055C000060101D1476102E0482A08BF07610134A2
:1055D000082CE2D14160F0BD0F4B1A6842F0010285
:1055E0001A6059680D4A0A405A601A6822F084729B
:1055F00022F480321A601A6822F480221A605A68F3
:1056000022F4FE025A604FF41F029A60044B4FF0DE
:1056100000629A60704700BF001002400000FFF86F
:1056200000ED00E00A4B10B51B68988908F09CFE5D
:105630000446084908F0ECFE214608F09DFF09F0F9
:10564000ADF86428A8BF642020EAE070C0B210BDA5
:105650008C0500200000C84244F6FB71084B1A6814
:10566000137803EB431300FB03135078C0EB0030B7
:10567000B3FBF0F39078B3FBF0F080B2704700BF5B
:105680008C0500202DE9F84F734C637E04EB430337
:105690001E8DB4F93A30B6B20A2B1CBF002384F831
:1056A000383094F8387026866B4B002F63D16B4AE4
:1056B00003F13805DA635A644FF07E529A64684AFF
:1056C000A946DA64674A68491A6540F2DC52C3F8B1
:1056D0008C201022A3F88A2018221964A3F88820AD
:1056E00009EB07084FF09741D8F8100008F090FE3A
:1056F0000021824609F02AF828B150464FF07C512B
:1057000008F07CFD04E050464FF07C5108F078FD35
:1057100009F0A6F8C5E90E01D8F804004FF097414A
:1057200008F076FE0021804609F010F828B14046C6
:105730004FF07C5108F062FD04E040464FF07C5190
:1057400008F05EFD09F08CF804370C2FC5E908015C
:1057500005F10805C4D10A236387A6F2DC531B04B4
:10576000C4F8A830C4F8B430C4F8AC30C4F8B830C9
:10577000012384F83830D4F88C80B4F98A50C8EB0F
:105780000606E36DAE407343A76D4FEAE67BD4F89F
:10579000A8E007FB0B33C4F8A860A7FB0667D4F8A2
:1057A000B4201F44E36FD4F8789053434FEAE27B70
:1057B000D4F8B80009FB0B3CC4F8B820A9FB0223BD
:1057C0006344B61A67EB0307636E226E0EFB03F3A6
:1057D0004FEAEE7B02FB0B3CA2FB0E236344B618A0
:1057E0005F41D4F88430D4F8802043434FEAE07B13
:1057F00002FB0B3CA2FB00236344B61AD4F8AC10A6
:1058000067EB0307E36EC4F8BC004B43A06E4FEA9E
:10581000E17B00FB0B33C4F8B010A0FB010119447D
:105820008019C4F8ACE07941B4F9882008F092F806
:105830006A1E01239340C4F8B400C01841EBE37121
:105840002A4608F087F810EB080080B2FFF704FF43
:10585000064B1880BDE8F88F3814002056157D39A6
:105860006350FABF0CE0743F5615FD3994050020D3
:1058700008B505F097F8074B022283F8C420064AC2
:10588000C3F8C0001268C3F8D020012283F8E920D1
:1058900008BD00BF38140020EC2D002008B505F02D
:1058A00081F8084B022283F8C420D3F8D02000F5F9
:1058B000B71000F5587002F2DC52C3F8C000C3F80C
:1058C000D02008BD38140020034B1A68D379591C26
:1058D0001344D171187A70474406002010B504466D
:1058E000054B2146186805F04CF9044B1B68987964
:1058F0006040987110BD00BF48060020440600209B
:1059000038B505462420FFF7E9FF094C4D20FFF785
:10591000E5FF3E20FFF7E2FF2368002228469A7148
:10592000FFF7DCFF236893F84900BDE83840D5E76E
:105930004406002010B50446C0B2FFF7CFFF200A8E
:10594000BDE81040CAE710B5044680B2FFF7F2FF89
:10595000200CBDE81040EDE70028114AB8BF4042D6
:1059600090FBF2F330B50F4C3C2504FB0300684379
:105970000D4D90FBF2F22D682D7B25B903EB8303CF
:1059800003EB830301E0C3EB031302EB830304FB8C
:1059900002020B804FF47A7392FBF3F24A8030BD1F
:1059A00080969800806967FF98050020A0F17D032C
:1059B000012B70B504460D460A4E05D830687D218E
:1059C00005F0DFF884F020043068214605F0D9F8AE
:1059D00035B12B881C4404EB142404F0FF042C8004
:1059E00070BD00BF640E002010B50A4C5E28014651
:1059F000206805D15D2105F0C4F820683E2105E04E
:105A00005D2903D105F0BDF820683D21BDE81040B7
:105A100005F0B7B86C050020064A137883F02C0314
:105A20001370054A1378591C1170044A2C21D15463
:105A3000704700BF3A1B0020C20E00203B1A002016
:105A400030B50023DAB2815C013339B1044C2178DE
:105A50004D1C2570845C034A5454F3E730BD00BFED
:105A6000C20E00203B1A002070B5204D20482B6844
:105A700086B0002BB8BF5B4293FBF0F600FB1630FC
:105A800008F072FC1B4908F077FD1B4908F0C0FCC8
:105A900004466420704308F067FC214608F0B0FB20
:105AA00008F07CFE0646204608F078FE08F05CFC14
:105AB0000146204608F0A2FB0E4908F0A9FC08F0B8
:105AC0006DFE0E493246034601A806F021F901A8F1
:105AD000FFF7B6FF2B68002BB4BF53244E24FFF70B
