:020000040800F2
:100000000050002001EE0008A1EE0008A1EE00085B
:10001000A1EE0008A1EE0008A1EE0008000000001B
:10002000000000000000000000000000A1EE000839
:10003000A1EE000800000000A1EE0008736C0008AB
:10004000A1EE0008A1EE0008A1EE0008A1EE000854
:10005000A1EE0008A1EE00086D8100086B81000888
:10006000A1EE0008816C0008A1EE0008A1EE0008D6
:10007000A1EE0008A1EE000885D30008A1EE00085B
:100080006F810008A1EE0008A1EE0008A1EE0008B3
:10009000A1EE0008A1EE0008A1EE000869810008A9
:1000A000A1EE000869D10008A1EE000879D100088E
:1000B0005DD100084DD100083DD10008B9560008B7
:1000C000BD560008B1560008B5560008A1EE00085C
:1000D000A1EE000879D300086DD3000861D30008B1
:1000E000856C0008A1EE0008A1EE000800000000E9
:1000F0000000000000000000000000000000000000
:0C01000000000000000000005FF808F1A3
:100110002DE9F04F804B814C9FB02360002363603A
:1001200009F0DCFA18B909F0FBFA0AF0B1FC0AF0A0
:1001300055FD237A7A4D43F00103237200230B937C
:100140000C930D934FF4E0130E93764BA87B9946D6
:100150001A6842F480321A609A6942F010029A6179
:10016000D9F8003003F400330C930B9B01330B934D
:100170000C9B1BB90B9BB3F5A06FF1D1D9F80030E4
:10018000684913F4003301D0022317E00A6842F0F3
:1001900001020A600B93D9F8003003F002030C93BC
:1001A0000B9B01330B930C9B1BB90B9BB3F5A06FFF
:1001B000F1D1D9F800309A0741D501230D935A4B5C
:1001C0005A491A6842F010021A601A6822F00302B3
:1001D0001A601A6842F002021A60D9F80430C9F8AD
:1001E0000430D9F80430C9F80430D9F8043043F4A5
:1001F0008063C9F804304E4B1A68043B22F0704209
:100200005A604C4A1160D9F8041021F47C11C9F8E5
:100210000410596841F000415960D96821F4004147
:10022000D9609B681B0449BF434B4FF4E013136034
:100230004FF480130E930D9B012B01D118E0FEE7C4
:10024000022B1BD168B10E9BB3F5801F02D14FF476
:10025000A01305E00E9BB3F5E01F02D14FF400138D
:100260000E930E99D9F804300B4343F4803303E026
:10027000D9F8043043F46013C9F80430D9F80030D9
:1002800043F08073C9F80030D9F80010254B8F0176
:10029000FAD5596821F003015960596841F002010B
:1002A0005960D9F804301F4803F00C03082BF8D12B
:1002B0004368224903F00C03042B03D0082B03D01E
:1002C0001A4B12E0136810E043684668C3F3834397
:1002D000F60303F1020301D4194805E0406810F465
:1002E000003F106818BF400843430B60D9F8043042
:1002F0001448C3F30313034493F878000B68C34016
:100300000B60EB7B003318BF012363721368074A4D
:10031000934219D101221BE0D1A70008C800002098
:1003200058050020001002400020024000127A0010
:100330000410014024000020001BB70054000020DE
:1003400000093D0004310108974A934202D102227C
:10035000964B1A70DFF8ACA2954BDFF8ACB2CAF836
:100360000C30D9F81830934E43F00103C9F8183017
:10037000D9F824300027E360D9F82430584643F0F8
:100380008073C9F82430D9F818304FF0100843F0C2
:100390001C03C9F818301EAB03934FF6FF73039A82
:1003A0008DF84E7022F82C3D1146039207F00BFF9A
:1003B0003046039907F007FF7F48039907F003FFD2
:1003C00002231EAA8DF847304FF4007322F8343D03
:1003D000069206998DF846805846CBF8103007F003
:1003E000F2FE764A0398536843F00073536005F0B9
:1003F00005FD734A139B3946B3FBF2F3714A724809
:100400001360182210F0E3F8704B4FF47A721B68F7
:10041000DFF8C8C1B3FBF2F36D4A013B5360F02330
:100420008AF82330072397601360AB68694A039FFB
:10043000DFF8D8A113609AE80F0087E80F00D9F819
:100440001830CDF810C043F00803C9F81830D9F8B7
:100450001830139843F00803C9F8183008233361A3
:1004600014A9C6F8108007F0AEFE159816A907F07B
:10047000AAFE584BCDF814B01B68564F13F0080F66
:10048000DDF810C012D09CF88E31012B0ED8524AE4
:100490009CF88F31D26812F0805B00F00D8505E08A
:1004A0004E4B002283F88F210AF067FD642006F08E
:1004B000D6FBA0224A48002110F089F8D9F81C3058
:1004C000002243F00703C9F81C30D9F8183043F470
:1004D000006343F00C03C9F818303F4B4FF000089D
:1004E00003F1B00102F8018001320E2AF5D1FF229A
:1004F00083F8BE2083F8BF2083F8C02083F8C12092
:10050000384A394B41461A6038483C223E6810F060
:100510005EF84146C6F380170520354BDFF8CCE086
:10052000CA5C0C234B4303F80E2047B91E3A012A3C
:100530009FBFFF2200F1FF3003F80E20C0B201314F
:100540000529EAD12B4B95F805A018702A4BB10666
:10055000C4F8C43003F1C003C4F8C830274B1E4AA6
:1005600003EBCA035B7848BF0123C2F8CC302448B0
:1005700000211C2284F8C2A010F029F816F40053C0
:10058000DFF88CB006F400680AD1B8F1000F41D052
:1005900095F882110BF10C02012908BF5A463BE085
:1005A000CDF810B039E000BF001BB700602D00206F
:1005B0000005FA05000C0140001001400000014058
:1005C00040420F00C0140020E4130020540000201B
:1005D00010E000E098040020C8000020580500202A
:1005E000D800002048070020FC130020580D0020F0
:1005F000A74A0108550D0020680500201C47010886
:100600009801002000ED00E0000801408C31010855
:10061000043101080BF10C020492BC4ABAF10E0F2E
:100620001192049A5288ADF84820049A1288ADF8C5
:100630004A20069AC4F8E82004D00AF0EF0ABAF17A
:10064000080F02D1012284F8E2200120069306F06F
:1006500099FA069BC6F34002003318BF012384F8C1
:10066000D030C6F3C03384F8D50084F8D62084F89F
:10067000D87084F8D330B8F1000F07D095F8828194
:1006800008F1FF37D7F1000848EB0708C6F300432D
:1006900084F8D930C6F3402384F8DA30D4F8CC306B
:1006A000B5F84401003318BF012384F8DB30C6F3EA
:1006B000005384F8DC30B5F84631A4F8E600A4F81D
:1006C000E030F004B5F8523148BF9148A4F8DE306C
:1006D000C6F3804306F00101C6F3C00284F8D730A8
:1006E00048BFB0F84C61B5F8503148BF8948A4F80C
:1006F000E43048BFA0F8E660B3F5FA7F84BF00237A
:10070000A4F8E63095F8D231834884F8EC30002321
:1007100084F8ED30437094F8E23084F8D480002BF4
:1007200084F8D11084F8D2200CBF0023022301B931
:1007300002B101330BEB830BDBF898304FF0000B69
:100740009A1E1A3306920793069B33F8024F0693BC
:100750004FF6FF739C4200F090816E4FE3B297F822
:10076000D520240AE5B2B8461AB19A1E012A40F2F1
:100770007F8197F8D82032B168491A018958684AB0
:10078000914200F0758197F8D90030B163491A01A0
:100790008958634A914200F06B8197F8D62052B194
:1007A0005E49059E01EB03114A68B24203D10A89F2
:1007B000102A00F05D8197F8D32052B15749059E69
:1007C00001EB03114A68B24203D10A89022A00F000
:1007D0004F8197F8D42052B150494C4E01EB031190
:1007E0004A68B24203D10A89022A00F04181D7F84F
:1007F000E8608EB1494A02EB031EDEF8041032684D
:10080000914209D1BEF80820B188914200F03081B0
:10081000F188914200F02C81022C02D197F8D0206F
:1008200003E0012C04D197F8D120002A00F02081A8
:1008300097F8DB20394C1E0162B1364A92F8E2206B
:1008400042B9A3F10802012A04D8A25935498A42C3
:1008500008BF042597F8DC2034445AB12D4A92F899
:10086000E2203AB910B10C3B012B01E0043B032B11
:1008700040F2E780012D5DD1DFF8A0A0FF2387F8CB
:10088000343187F835310AEB060303F1080C5A7B43
:1008900058681B894FF00008ADF84C3013A90223AB
:1008A00087F83881C7F844418DF84F30CDF820C023
:1008B0008DF84E2087F8F080C7F8F480C7F8F880EC
:1008C000C7F8FC80C7F8308187F8368187F8378110
:1008D00007F079FCDDF820C05AF806009CF80210F9
:1008E000424607F0ECFB204641462A460CF00EFD3E
:1008F0000D4B0E49C7F848310D4BC7F85081C7F86A
:100900004C3120460A1D0CF03FFCB1E0000C0140C8
:1009100058050020C8000020B50100203C46010811
:1009200000040040002C0140F97D00081002002066
:10093000D97E0008022D49D15FFA8BF24FF01C0CD2
:100940000CFB02FCBA4B002703EB0C0808934FF09A
:10095000010388F83831B74B88F839B19A19517BBF
:10096000506802F1080A12898DF84E1088F83A7121
:1009700013A988F84271C8F84441CDF824C0ADF8F5
:100980004C208DF84F5007F01EFCAA4B9AF802102D
:1009900098593A4607F093FB2046394601220CF05D
:1009A000B5FCA549089BDDF824C0C8F84811A34947
:1009B0006344C8F84C1103F5A471C8F8507120467F
:1009C0000A1D0CF0E1FB0BF1010B51E0032D36D1B8
:1009D00097F8D730964E97F8EE502BB12046082165
:1009E0004FF6FF7200231CE0B6F8E420B2F5FA7F60
:1009F0000FD9934B2046B3FBF2F20821B6F8E6304C
:100A000092B207F0D3FC06EB8505C5F818028D4BB2
:100A10000EE08D4B2046B3FBF2F2B6F8E630012132
:100A200092B207F0C3FC06EB8505884BC5F81802A7
:100A3000C36097F8EE30013387F8EE3018E0042DEC
:100A400016D1B7F8DE20804B204693FBF2F201214D
:100A5000B7F8E03092B297F8ED5007F0A7FC97F89E
:100A6000ED3008EB85080133C8F8480287F8ED300F
:100A7000069B079A93427FF467AE754F3B6813F469
:100A8000802F6B4B02D1012283F868221A7A714DB4
:100A900042F004021A722B784FF48052022B34BFBA
:100AA000142310238DF84E304FF002038DF84F3091
:100AB000D9F81830ADF84C2043F00403C9F81830C9
:100AC00034BF00240124644813A907F07CFB634B66
:100AD0000CB1634A00E0634A00201A6006F0D4F8C3
:100AE000614B624C93E80300039B4FF0030883E8DB
:100AF0000300D9F81830139843F00803C9F81830E8
:100B000014A907F060FBD9F81C30204643F4804359
:100B1000C9F81C30D9F81030039943F48043C9F860
:100B2000103018238DF84E304FF42043ADF84C3080
:100B30004FF0040A8DF84F8007F045FB4FF48043D7
:100B4000204603994FF48056ADF84C308DF84EA0F6
:100B500007F039FB1023039920468DF84E30ADF88D
:100B60004C6007F030FBD9F81030414A43F4804321
:100B7000C9F81030D9F81030322023F48043C9F876
:100B80001030138803F4415343F4457343EA0803D8
:100B90001380938B23F400631B041B0C93830723A4
:100BA000138213889BB243F0400313809F23266176
:100BB0008DF8403000238DF841308DF842308DF8AB
:100BC000433006F04CF852466661039810A90CF0C9
:100BD00015FC26619DF84E309DF84D201B0243EA1E
:100BE00002439DF84F201343224A934212D03220F1
:100BF00006F035F86661F5200CF036FCFF200CF0AD
:100C000033FC7028266105D12B78022B04BF114BD1
:100C100083F800802B78032B0CBF1F20022005F0E7
:100C200085FF2B78032B27D0012007F061FF28E0F8
:100C3000C80000203C460108F9800008D17D00086A
:100C400000127A00F97E000840420F00E97E000899
:100C500098040020602D002000080140442D002051
:100C60000565000819650008AC310108000C014059
:100C70000038004015202000022005F083FF0028E6
:100C8000D2D095F80080A64D4FF0100A28460021DA
:100C900052463C680FF09BFC4FF6FF73ADF84030B6
:100CA000022304F4004704F400664FF000091C40DE
:100CB0008DF842308DF843900DD09A4810A9ADF8C8
:100CC00040A005F047FA04232B700124072385F880
:100CD0000190AC70EB7077B10223924810A9ADF887
:100CE000403005F037FA0123E2182B71AB7107236E
:100CF0006C71EB71D4B2B8F1010F0FD92023894880
:100D000010A9ADF8403005F025FA052301222B7219
:100D1000AA72631C07226C72EA72DCB27EB10223F3
:100D2000814810A9ADF8403005F014FA09230122DA
:100D30002B73AA73631C07226C73EA73DCB27B4FBC
:100D40007B487B68002643F440437B607B6943F02B
:100D500001037B61BB6943F40073BB6104F0D6FF00
:100D6000744B012C1393744B0597149394BF334623
:100D7000802318934FF4807319934FF48063A7F680
:100D8000F8771A93202313A91B9338464FF4005386
:100D900016941C93159617961D9604F099FF3B68C0
:100DA000664A43F001033B605368012C23F470232F
:100DB00094BF0021012123F4807343EA012353608F
:100DC00091685F4B013C0B4043F4602343F0020306
:100DD0009360D36AE4B223F4700343EA0454D46208
:100DE0000123AA199178002951D0A85D591C09281E
:100DF000C9B2D278514F10D9A0F10A04D7F80CC06B
:100E000004EB44044FF0070E0EFA04FE2CEA0E0E1B
:100E1000A2404EEA0202FA600CE03C6900EB400C92
:100E20004FF0070E0EFA0CFE24EA0E0402FA0CF242
:100E300022433A61062B414C0CD8013B676B03EB14
:100E400083031F229A4027EA020200FA03F31343A6
:100E500063631BE00C2B0CD8DA1F276B02EB8202BA
:100E60001F23934027EA030700FA02F33B4323635F
:100E70000CE0A3F10D02E76A02EB82021F2393400C
:100E800027EA030700FA02F33B43E3620B4604360A
:100E9000102EA6D1294B9A6842F480729A609A6803
:100EA00042F001029A609A6842F008029A609968DA
:100EB000224A090746D5FAE7013B092B3FF6F6AA75
:100EC000039BDAF86400C6F8148019461860059888
:100ED00007F079F9059B3C201A460823136105F0B9
:100EE000BEFEC6F810805E4695F88F319E42BFF672
:100EF000D7AA059BDFF830A04FF00808CAF8108089
:100F00007820C3F8148005F09FFE059BCAF8148072
:100F10007820C3F8108005F097FE0136E4E700BFA3
:100F20001313002000080140000C01400010024093
:100F3000080002404C2401402413002000240140FA
:100F4000FDF7F1FF936843F004039360B34B9A6895
:100F500012F004020392F9D19A6842F4A0029A6056
:100F6000AF4BB3F85801002841F0D080B3F95A21B3
:100F7000002A41F0CB80B3F95C31002B41F0C680F0
:100F8000A84BA94C1B68A64D13F4003F23D0C820E2
:100F9000B5F8426705F063FEAE2007F0A4FD08B186
:100FA00007F0A8FB84F86902C82005F058FEA4F8F1
:100FB00070629E4E9E4B00210C223046C4F86C326B
:100FC0000FF005FB0223F3700AF070F805F020FE25
:100FD000984B0344B36095F8673100210693964B14
:100FE0000C221B689548B3F85630B5F8607107932A
:100FF00095F85E6195F868510FF0E9FA002110222A
:101000008F480FF0E4FA8F4BDFF81C9293F800A0A2
:1010100098468D4B4FF0000B03F11802BAF1010F07
:1010200094BF9A46924659460C2284F872B209F54A
:101030001D7089F873B20FF0CAFA2320C4F880A299
:1010400005F00DFE752001210DF12B0204F05EF973
:10105000B0B17E4B5846C9F878327D4B0121C9F8B2
:101060007C320FAA432389F8743204F04FF99DF8BB
:101070003C3003F07E038DF83C30002848D150E02E
:1010800099F8843273BB059B059A9B69DFF8E8A148
:1010900043F00803936110238DF84E304FF4805BCA
:1010A0000323504613A98DF84F30ADF84CB007F02C
:1010B0008AF8684ACAF810B0138823F040031B046A
:1010C0001B0C1380138823F038031B041B0C43F004
:1010D0000803138013889BB243F04003138001235D
:1010E00089F884327520012113AA03F0DBFE9DF8F4
:1010F0004C30702B5AD1052384F87232432384F884
:101100007432554BC4F87832544BC4F87C324DE0FD
:10111000682B06D1012389F872321D2389F87432B5
:1011200044E09DF82B3003F07E03682B8DF82B30C4
:1011300037D10223062084F872320146D4F878327F
:1011400013AA98479DF8511001F001029DF84F1025
:1011500001F001014B0043EA82019DF84D2002F0AD
:1011600001030B430AD05BB2012B01D1002302E043
:10117000022B0FD1012384F8733217E02A4B0C2085
:10118000D3F87832012110AA98479DF8403013F027
:101190000F0303D1032005F0C1FD07E0042BE9D1C3
:1011A000E4E7702B04BF042384F87232002384F830
:1011B000853294F872321C49022B0BD1204A284800
:1011C0001060284850602848D060012281F88522AC
:1011D00000F08DBC012B0DD1194A244881F88532CD
:1011E0001060204804235060214890601E48D06061
:1011F00000F07DBC043B012B0CD8114B1D4A1A603A
:10120000184A5A60184ADA60012381F885320723A8
:1012100000F06DBC012005F081FDA2E0002401403A
:101220005805002098040020C80000203415002034
:10123000DE060020404B4C00BC0C0020242900207E
:1012400038290020602D00201C3101080D530008B2
:101250009955000800380040A54E0008D14E0008FE
:10126000B5500008714D000890C1793DF14E00085D
:10127000394D0008F14F0008000C0140012D40F0ED
:10128000F786BB4E33689A0702D5BA4B1B6898475E
:10129000B94B38461B689847B84B069D1F78B84B2A
:1012A00003F11802012F94BF1F461746B54A0023C9
:1012B00013709046002D40F0E486B34A4FF00009C9
:1012C0001EABC2F8F87203F82C9D1E200A210122E1
:1012D00003F03AFF002800F0D8869DF84C30482BE8
:1012E00040F09B87A94BAA4A1A60AA4A5A60032376
:1012F00088F80030A84B0222DA70336843F0080304
:101300003360A64B93F8542112B19F4981F885228E
:1013100093F855210AB1A2490A7093F856310BB1DE
:1013200088F8003033689F4E13F0080F00F0AF8646
:10133000BDF91C80642798FBF7F528460CF042FFA6
:10134000814607FB158000B20CF03CFF96490CF07B
:101350008DFF014648460CF081FE94490CF086FF53
:101360003060894D10222B7A0A2643F002032B723B
:101370008F4B5A6108221A61DFF834821920D8F89D
:101380000C30013E83F01003C8F80C30D8F80C3054
:1013900083F00803C8F80C3005F061FC012005F06B
:1013A00073FC192005F05BFC002005F06DFC16F0C5
:1013B000FF06E1D1082310266D4FC8F81030C8F899
:1013C00010603B681B0709D5704BC8F814601B6898
:1013D0009847784B0122C8F810601A70D4F8FC3294
:1013E000754E187B0CF0EEFE74490CF03FFF09F0CF
:1013F0003DFB804630880CF0E5FE41460CF036FFA0
:1014000010F0A2F8A4F8000330880CF0DBFE0146CF
:101410006B480CF0DFFF6B490CF0DCFF564BC4F857
:1014200004036649D8680CF021FF67490CF01EFFE1
:101430005A4E6649B6F84E310022A4F81033644B78
:10144000C4F808031A809A70086884F81823B6F85C
:10145000942106F5C37EC4F80CE3C4F814E300F14C
:10146000790A1FFA82FE0691DFF88481039BD8F87F
:1014700000C05849DFF87C910CF5967C21F813E008
:1014800049F823C00133122B0393EDD15346DFF803
:101490006891D9F800C0CDF80C901CF4805F08BFAB
:1014A000B6F89AE100F1C909A1F806E01878D8B9B0
:1014B000987893F803E0704516D238B1013800EB04
:1014C000800000EB800000F5617E07E00EF1010E68
:1014D0000EEB8E0E0EEB8E0E0EF5617E58781FFA17
:1014E0008EFE043021F810E004334B45DED11CF0B1
:1014F000080F00F0048196F88E11062900F2F98099
:10150000DFE801F004070E7C97B7B70045F2F0530F
:1015100001E042F6F823A5F8643304F095FBE7E018
:1015200042F6F8231201A5F864330A2392FBF3F282
:101530000023A2F5B062284941F823200133122B81
:10154000F9D1264A264940201160264A137005F039
:101550003DFB002800F0CD8001234FF0070A90F9F1
:10156000000040218DE808041F4A204BBBE000BF6B
:10157000A40400202429002038290020602D002008
:101580004C310108622D0020C8000020D80E002038
:10159000C988000831880008500000205805002044
:1015A0005C2D0020800F00208988883C00002041AD
:1015B000000C01401C0F00200400002035FA8E3C76
:1015C0000AE81C4100401C46BD378635BC0C002093
:1015D000C0130020DA0C002014120020200000208C
:1015E000AB570008D80C0020155A0008A08601004F
:1015F000E42A0020E40300209804002042F6F823A7
:10160000714AA5F86433714B40201A60704B102268
:101610001A7005F0DBFA00286BD001234FF00009A7
:1016200090F9000040218DE808026A4A4FF4E13346
:1016300059E042F6F823684AA5F86433634B40202A
:101640001A60634B08221A7005F0C0FA002850D0C7
:1016500001234FF0000C90F9000040218DE80810A4
:101660005E4A4FF4E13305F0BEFB5D4BC3F86803FF
:101670003BE042F6F823A5F86433554B0C22DFF823
:1016800098E158481A7006294FF000038EF8003090
:1016900003700CD054494FF4E1390B70534B1B21AC
:1016A0001970534B1A70534B05221A700AE04E48BA
:1016B000DFF8689103704D4B212018704C4B1A7065
:1016C0004C4B19704C4A414B40201A6005F07EFA91
:1016D00078B101234FF0000E90F900008DE808402A
:1016E0004B46464A402105F07EFB003018BF0120E2
:1016F00028B9082009F0C4F9414A344B1A60414B1B
:10170000334A1B6813F4804F1FBF122111703E48EB
:101710002E4918BF086042F20101194099B144F600
:1017200020619804A5F8641341BF0821117037485F
:10173000264948BF0860D90741BF0C2111703448C1
:10174000224948BF08601178043951701A0640F1E7
:101750009180DFF88CB04FF00009DFF8C4A0494653
:1017600015220BF56470C5F86CA385F87193C5F864
:101770007493C5F878930EF02AFFAAF10503484642
:10178000C5F8A8330BF082FBD8F800300220C5F86A
:101790007C3305F01BFA18B9802009F071F961E07B
:1017A0009BF8711390F805E01A4B0C2202FB0132F2
:1017B00092F8B120724535D00131C9B20429F3D96C
:1017C000002285F871232FE0A75700082000002091
:1017D000D80C002069590008A35700081D590008BB
:1017E000C800002099120020981200209A120020B0
:1017F000111200209B120020E956000849580008E9
:10180000C5BE000898040020D9570008ED5700080D
:10181000DD570008043101081212002090D00300A7
:101820004807002085F8711396F8EB214FF00C0E55
:10183000002A95F8712318BF03210EFB023308BF5D
:101840000121002290F9000093F8B130009101923B
:10185000022105F0C8FAC5F8AC0300289CD001208D
:101860000BF014FB069B186800F5C573C5F8B03380
:101870000BF05CFB049B059AC4F8B433059B4FF056
:1018800028099B69A44843F001039361049B0FA9B5
:101890001B888DF83E90ADF83C3003238DF83F3027
:1018A000059306F090FC049B9B485A880FA9ADF85D
:1018B0003C208DF83E9006F086FC049B0120197AAE
:1018C00006F06CFC049B95495A680DF14C094A617D
:1018D0004FF0000B13924FF0010A102248468DF88A
:1018E00051208DF850B08DF852A004F0F5FB049B08
:1018F00010A85A7A059B8DF840208DF841308DF85C
:1019000042B08DF843A00BF05BFDD8F800304FF0EB
:10191000FF323C3BC4F8B8333B6843F010033B60F4
:101920007F4B1A607F4B1A68984612F4806F01D083
:101930000AF02CF87C4B7D4C1B78022B66D17C4A3C
:1019400000271388322023F040031B041B0C138054
:1019500013884FF4805A23F038031B041B0C1380A8
:1019600013889BB243F0400313809F238DF84030CF
:101970008DF841708DF842708DF8437005F06FF965
:101980008DF84D70644F0422C7F814A0484610A982
:101990000BF034FDC7F810A09DF84E309DF84D2097
:1019A0001B0243EA02429DF84F301343614A9342BF
:1019B00019D00AD8A2F51A42033A93420CD002F584
:1019C0001A420232934209D01BE05B4A934205D08F
:1019D0000132934207D014E0202300E080232380CB
:1019E0004FF4807302E04FF4807323806380A388F8
:1019F00022881B02A3605343E360012385F8BC33B4
:101A000004E0002323806380A360E360E76817B3EA
:101A1000FF0ABA464FF0000BBB4509DA0BEB07048F
:101A20006410E0024946102206F01AFE0F2806DC78
:101A30000BF0CCFA414B4FEACA221A600BE00023AC
:101A400059F82320013240F02E830133042BF7D1C3
:101A50002746A246E0E7D8F8003013F4002318BF69
:101A6000012385F8BD3305F0D3F8354B4FF47A7276
:101A700018607379052B04BF4FF4C873A5F8BE3303
:101A8000304B1A80304BC8221A80304A137843F00A
:101A9000080313702E4A137823F00203137040F6E4
:101AA0000203D8F8002013406BB12A492A4B196071
:101AB0002A4B032119702A4B01211970294900234F
:101AC0000B8029490B80930304D5284B02221A71FD
:101AD0000AF0E4F9B368039A1360012385F86832C9
:101AE0002B7A63F07F032B721FB0BDE8F08F204A82
:101AF0002049914613700B6843F001030B601E4BA5
:101B000000221A70082E00F2BA80DFE806F03DB815
:101B10003D5C72925CA9A900000C014000040140E8
:101B2000000D002098040020602D002008000020F7
:101B30000038004018BA20001740EF00980D002030
:101B4000D00E0020582D00205A2D0020A80400207F
:101B50005D2D0020D006002094040020F404002015
:101B6000440000202C0F00202E0F002034150020F0
:101B700050000020A40400205C2D0020012E40F223
:101B80008980774B00261E7098F80030012B1AD8F8
:101B90004FF0000A1EAB03F82CAD53205146012232
:101BA00003F0D2FA78B19DF84C30E52B0BD16D4B98
:101BB0006D4A84F886A21A606C4A5A60684B042207
:101BC0001A7002235FE094F87232022B11D1654B38
:101BD000674A1A60674A5A60674A92F87322002A75
:101BE0000CBF6F226E221A725D4B01221A70032302
:101BF00049E098F80030012B1BD800221EAB03F8F7
:101C00002C2D1C200D21012203F09EFA88B19DF895
:101C10004C302A2B01D01A2B0BD1524A574984F849
:101C20008732116056494E4B516002221A700423CC
:101C300029E000211EAB03F82C1D1820012203F01F
:101C400083FA68B19DF84C30FB2B09D1454B4D4AC6
:101C50001A604D4A5A60424B01221A70052312E065
:101C600094F87232043B012B88D83E4B474A1A60E5
:101C7000404A5A603A4B01221A70082303E0012EB1
:101C800008D900263BE7424A89F80130136843F03F
:101C90000203136098F80030012B05D10BF00AFC09
:101CA0003C4B4FF400525A61042D3FF6E7AA01A3C2
:101CB00053F825F0C91C000883120008C51D000850
:101CC000C91C0008D31F00080A2004F0C8FF7720B1
:101CD000A021012210AB03F037FA002872D01E2198
:101CE0000122772003F0D4FB4FF42F6004F0ACFF07
:101CF0000026A6F160010025C9B2022213AB7720AD
:101D00008DF84C508DF84D5003F01EFA9DF84D3073
:101D10009DF84C2043EA0222174B03F522717252C0
:101D20000236102EE5D1B3F89612012601F00F000D
:101D300001F47F41A3F896122B4623F001022244BE
:101D4000B2F88822002A18BF002613F0010F03D032
:101D5000D2B2554008221FE085EA1225FAE700BFFB
:101D60005C2D00202429002059560008C15300088A
:101D70001D510008B94D0008C8000020A3550008F7
:101D800021530008355600087B530008A150000875
:101D9000A40400200010014015F4004F18BF85F482
:101DA000C055013A4FEA4505F6D10133102BC4D195
:101DB0000143BF4AA4F8961226B9C5F303339842EB
:101DC00000F0408194F89862B94D002E40F02382D3
:101DD000DFF834830BF06EFB4FF0280A4FF4804994
:101DE000404610A9ADF840908DF842A006F0EBF9FE
:101DF0004FF40053C8F810305046AE4904F0D8FFF5
:101E00000E21022006F0CAF90823CDF84C9013A841
:101E10004FF001098DF851308DF850608DF85290D7
:101E200004F05AF98DF83CA00FA84FF0030A8DF882
:101E30003DA08DF83E608DF83F900BF0C1FA142064
:101E400004F00DFFD02177204A4610AB03F07CF957
:101E50004146002800F0A1809DF84030A5F8BCA2C2
:101E6000552B85F8B33240F09880D1214A4610AB0B
:101E7000772003F069F99DF84030772003F00F02D6
:101E80001B0985F8B42285F8B532162213ABAA21B6
:101E900003F05AF99DF84C209DF84D3043EA022397
:101EA000A5F89C329DF84E209DF84F3043EA02235E
:101EB000A5F89E329DF850209DF8513043EA022348
:101EC000A5F8A0329DF852209DF8533043EA022332
:101ED000A5F8A2329DF854209DF8553043EA02231C
:101EE000A5F8A4329DF856209DF8573043EA022306
:101EF000A5F8A6329DF858209DF8593043EA0223F0
:101F0000A5F8A8329DF85A209DF85B3043EA0223D9
:101F1000A5F8AA329DF85C209DF85D3043EA0223C3
:101F2000A5F8AC329DF85E209DF85F3043EA0223AD
:101F3000A5F8AE329DF860209DF8613043EA022397
:101F4000A5F8B03241F27073A5F8C03246F67813A6
:101F5000A5F8C232584BC5F8C432584BC5F8C83240
:101F6000574BC5F8CC32574BC5F8D032564BC5F855
:101F7000D43295F898324BB903F004FB42F6E06096
:101F800004F062FED8F80860C6F380364F4B012299
:101F90001E70474B83F898223DE14D4A136823F4A5
:101FA0008043136000234B4A424E02EBC30568682E
:101FB000B04208D112F93300282804D1002068600B
:101FC00002F8330002E00133032BECD14FF400534D
:101FD0004B61374E96F8D852002D5CD1142004F096
:101FE0003EFE06F2D9237620D021012203F0ACF880
:101FF00096F8D932582B7FF444A906F53773882117
:102000001822762003F0A0F87620F421312203F084
:102010003FFA012386F8D8322F4BA6F8C052C6F8F3
:10202000C8322E4BC6F8C43245F6D813A6F8C232D1
:102030002B4BC6F8CC322B4BC6F8D0322A4BC6F805
:10204000D43228E042F21073A2F8C032A2F8C232B1
:10205000264B0325C2F8C432254BC2F8C832254BA3
:10206000C2F8CC32244BC2F8D032244BC2F8D4325E
:10207000234B244A9D70136843F004031360FFF759
:1020800000B9022D09D1FFF718B98146C5E0002338
:102090003360FFF766B90425EAE7012D7FF631A921
:1020A0001D46FFF703B904F1010B5446D1E400BF0C
:1020B000C80000205D4E000885550008D952000870
:1020C000615500088D5200085D4C0008000000209A
:1020D00000040140E41300209D4A00089F4A0008C4
:1020E00049550008F9510008DD4800085955000815
:1020F0007D520008515500086D520008A14A0008A1
:1021000050000020A404002000100140474B002292
:102110001A7000B20CF056F845490CF0A7F8454C7F
:102120000646B4F95A010CF04DF841490CF09EF8FE
:102130000546B4F95C010CF045F83D490CF096F801
:102140000446304608F092FC8046304608F01AFCFF
:102150000646284608F08AFC0746284608F012FC86
:102160000546204608F082FC8246204608F00AFC1C
:102170004146814650460CF079F841460690484663
:102180000CF074F85146079030460CF06FF8494651
:10219000089030460CF06AF83946834650460CF0F9
:1021A00065F8254C4946206007F100400CF05EF8C8
:1021B00029466060A56008980CF058F80146079819
:1021C0000BF04CFF2946E06058460CF04FF80146F2
:1021D00006980BF041FF3946206106F100400CF0F3
:1021E00045F82946606106980CF040F801465846CB
:1021F0000BF032FF2946A06107980CF037F8014632
:1022000008980BF02BFF4146E06138460CF02EF8A1
:102210002062FEF7B5BE02252AE7012D7FF671A8E0
:10222000002588F80090FFF748B800BF180000208C
:1022300035FA8E3C58050020E80E00202DE9F04FBD
:10224000AE4CA1B02378002B00F09B81AC4E6368AC
:102250003268D31A7C2B40F29481237A6260013376
:1022600023722425284609F045FBA64B0135188822
:102270000BF0A8FF014600200CF0ACF8A2490BF0CF
:10228000F5FF0CF0B9F9EDB200B209F021FB272DF2
:10229000E8D1302009F02EFB002009F019FB09F0ED
:1022A00021FB257A15F003051FD1944B5A6841F2A2
:1022B00088339A420BD9102009F01CFB284609F0FC
:1022C00007FB212009F016FB284609F001FB14202A
:1022D00009F010FB002009F0FBFA1C2009F00AFBB2
:1022E000002009F0F5FA09F0FDFA257A15F0070546
:1022F00040F02481022009F0FDFA284609F0E8FAAE
:10230000032009F0F7FA814B1B7859075DBF7B4B1F
:102310000520DB68284658BF9B89784D5CBFB3FB1E
:10232000F0F000B209F0D4FA23699A075BD5DFF820
:10233000F491AA8A99F800304FF0640808FB023241
:102340005B00B2FBF3F3EF8A06203F01BFB247EA1E
:102350000327BFB2C3F303231F4309F0CBFA38B2FC
:1023600009F0B6FAEB8A99F8001001339BB293FB9F
:10237000F1F201FB1233EB82AB699B7B012B05D1A0
:10238000392009F0B7FAB5F9140019E0AD8A6E23C7
:102390005D43152795FBF7F53A20AFB209F0AAFA8D
:1023A000B7FBF8F528B208FB157509F091FA3B2048
:1023B00009F0A0FAA8B2451D0A2095FBF0F000B282
:1023C00009F086FA282009F095FA002009F080FA31
:1023D000042009F08FFAE368988910B103F02EFF0A
:1023E00000B209F075FAE369444F9B0640F19C8006
:1023F00097F820309D071BD5112009F07BFA788CC7
:102400004FF4F3656843424B90FBF3F000B209F0E0
:102410005FFA192009F06EFA788C4543642095FB29
:10242000F0F595FBF0F300FB135000B209F050FA01
:1024300094F82030A58C13F0020F08BF002501206E
:1024400009F058FA28B209F043FA092009F052FAC3
:10245000002009F03DFA2F4B94F826501A88B2F567
:10246000967F0AD9254B1B7A03F00F03072B04D85C
:1024700042F20F75954228BF1546052009F03AFA39
:10248000A3695B7B0BB928B216E0A5F120000BF025
:1024900099FE21490BF09EFF002105460CF084F8BF
:1024A00010B94FF07C5101E04FF03F4128460BF04E
:1024B000D5FD0CF0A1F800B209F00AFA94F820203A
:1024C0000E4B900703D493F82720012A04D101234F
:1024D00084F8273011482DE09D69114968680BF098
:1024E000C5FE0CF089F80E490090A8680BF0BEFEFE
:1024F0000CF082F8019068461CE000BF88040020C0
:10250000E42A00200400002000007A445D2D002011
:10251000A0860100460000206666E63FB004002069
:102520008096184B44000020D44A92E803008DE8BE
:102530000300684609F0EEF909F0D4F9237A282B54
:102540001FD1CF4B00221A7233684FF47A70B3FB5D
:10255000F0F73C26172009F0CDF9B7FBF6F5B5FBEF
:10256000F6F006FB1050000200B209F0B1F9182095
:1025700009F0C0F906FB157000B209F0A9F909F0DD
:10258000B1F994F83030BE4D002B00F0378104F0E3
:102590003FFB6B6BBB4AC31A9342064640F2B780BF
:1025A000002385F83A3085F83C30AB8AB649DAB278
:1025B0001B0A85F8562085F8573085F84C2085F899
:1025C0004D306A6E0B689A1AAB6ED87B4FF47A73F3
:1025D00043439A420CD30B686B6695F86C30013B11
:1025E000012B9FBF102385F83A30022385F83C3039
:1025F000002394F8201084F8543084F8553084F87F
:10260000583084F8593094F8263089079C4A84F869
:10261000873003D42D2382F8883077E0D4F82890CF
:10262000E56A9A48DFF870C299FBF0FA95FBF0F082
:102630000CFB0A980CFB005C042B8CBF3323322369
:1026400082F88830062202FB08F802FB0CFC904B53
:102650004FF0640E98FBF3F19CFBF3F203FB11883F
:1026600003FB12C393FBFEF30AEB8A0A4FB20AEB99
:102670008A0A07EB8A0189B284F8771000EB8000A0
:10268000090A84F8781000EB800051B201EB800257
:1026900092B284F87C20120A84F87D2084F87E307F
:1026A000628C1B1284F87F30242353434FF47A72D8
:1026B00093FBF2F384F87430C3F3072384F8753086
:1026C000B4F89A300A2284F880301B0A84F88130EA
:1026D000A38C98FBFEF8B3FBF2F303F5FA739BB2FD
:1026E00084F882301B0A84F88330B4F89C304FEAB7
:1026F000D97984F87980ED0F4FEA282884F876900C
:1027000084F87A8084F87B5084F88930666394F882
:102710009E805B4DB8F1000F0DD1D5F8A40004F0F8
:1027200029FC012807D902285A4F01F0228305F01D
:1027300031FB0123BB70D4F8A850514B002D5DD064
:1027400093F89E203AB140F6B731D3F8B020B21AD0
:102750008A4216D852E0012283F89E20D3F8B42092
:10276000D3F8A4001278022A04D80430022105F01C
:10277000FBFA02E0022104F033FB002384F8B830B6
:102780003AE093F8AC20AAB9C3F8A82083F89E20B9
:10279000D3F8B420D3F8A4001278022A04D8043065
:1027A000012105F0E1FA02E0012104F019FB05F036
:1027B000F1FA21E0013AD2B283F8AC2093F8B810D4
:1027C00093F8B90042B901304A1C83F8B90083F884
:1027D000B820D3F8A4000DE02A4612F8017B01309E
:1027E0007D18394683F8B900D3F8A40083F8B850AF
:1027F000C3F8A82004F0C1FBC4F8B06094F8BA3064
:102800001F4E002B00F0B485D6F8BC30002B00F032
:10281000AF85D6F8C030002B00F0AA85C6F8C430CA
:102820001B68164FC6F8C830D6F8CC303B441D7A2A
:102830004D2D00F0D98400F2CB80342D00F09C8324
:102840005FD8222D00F0778333D8032D00F0B381B9
:1028500024D8012D00F07281022D40F07B850420E8
:1028600009F022FC432009F00DFC4C2009F00AFC81
:10287000462009F007FC4C209AE100BF20370108F0
:10288000880400203F0D0300E42A00208096980071
:1028900040420F0004000020806967FF042D00F013
:1028A0009481052D40F056851A2009F0FDFB002586
:1028B0009DE1282D00F05A8414D8242D00F0418485
:1028C000262D40F04785062009F0EEFBB4F82802DB
:1028D00009F004FCB4F82A0209F000FCB4F82C0258
:1028E00000F036BD2C2D00F05384322D00F09D8475
:1028F0002A2D40F02F85012009F0D6FB94F8D50051
:1029000056E1402D00F097841ED83A2D00F06082E9
:102910000AD8362D00F0BF84382D40F01B850420E6
:1029200009F0C2FB00F013BC3B2D00F0FD823D2DF1
:1029300040F01085022009F0B7FB94F8AE0209F0D0
:10294000A1FB94F8AD0233E1462D00F0BD840BD815
:10295000422D00F07E84452D40F0FC84132009F0C8
:10296000A3FB002500F0D5BC492D00F042824B2D81
:1029700000F02C84472D40F0ED8409F079FB86B2FD
:1029800009F076FB054609F073FB87B209F070FB8E
:1029900006EB052607EB0020B6B206EB00458420C7
:1029A00009F082FB284609F0A2FBDB4B1E6905F10A
:1029B0008003B3428CBF761B80260AF007FB2846B3
:1029C0003246694605F04CFE0025064600F099BCEB
:1029D000702D00F0148263D8692D00F0E1813AD89F
:1029E000662D00F02B812BD8642D00F01881652D09
:1029F00040F0B0840B2009F057FBB4F8180809F038
:102A00006DFBB4F81A0880B209F068FBE369C3F300
:102A1000C000C3F38002800040EA4200C3F34002DA
:102A20001043C3F3401240EAC20003F010031843FE
:102A300009F054FB002009F05AFB94F8C407B7E0F2
:102A4000672D00F01B81682D40F08484102009F070
:102A50002BFB00259CE16C2D00F0B68115D86A2D6A
:102A600000F0F2826B2D40F07584052009F01CFB0C
:102A7000B4F89A0009F032FBB4F89C0009F02EFB80
:102A800094F8820800F0010092E06E2D00F0A6811B
:102A90005FD8062009F008FB002009F028FB4EE370
:102AA000782D00F0F78018D8742D00F08A820AD8AB
:102AB000722D00F08A82732D40F04C84082009F0BA
:102AC000F3FA0125B9E2762D00F0DA8200F279827C
:102AD0002F2009F0E9FA914D1EE2A42D00F0FE82AC
:102AE00014D87C2D00F02384A02D40F033840C20DA
:102AF00009F0DAFA8A4B186809F0F9FA894B186874
:102B000009F0F5FA884B186800F00EBCF12D00F0C2
:102B10001981FE2D00F00783F02D40F01B84042066
:102B200009F0C2FAD4F83438B3F85A0009F0D6FAEA
:102B3000D4F83438B3F8580000F00ABC032009F088
:102B4000B3FA002009F09EFA284609F09BFA0E20FD
:102B50002EE00B2009F0A8FAD4F87C38002618786B
:102B600009F090FAD4F87C38587809F08BFAD4F848
:102B70007C386E4D33441879013609F083FA032E00
:102B8000F5D1D5F87C38D87909F07CFAD5F87C38BD
:102B9000987809F077FAD5F87C38D87809F072FA85
:102BA000D5F87C38588909F099FAD5F87C38187A24
:102BB00009F068FACEE3032009F076FA032009F061
:102BC00061FA042009F05EFA86E2062009F06CFA48
:102BD000412009F057FA462009F054FA4E2009F036
:102BE00051FA412009F04EFA514B1878B0E3514B9D
:102BF000585D013509F046FA0B2DF8D100254E4BF2
:102C0000585D013509F03EFA082DF8D100254B4BEF
:102C1000585D013509F036FA072DF8D19AE30720FF
:102C200009F042FAE72009F02DFA94F8D50009F0EE
:102C300029FA002009F026FA042075E3122009F091
:102C400033FA002009F04AFA002009F047FA002080
:102C500009F044FA002009F041FA002009F03EFA98
:102C6000002009F03BFAB4F81C0809F037FAB4F870
:102C70001E0809F033FAB4F8200869E3102009F0BF
:102C800013FA00252E4B585D013509F0FBF9102D84
:102C9000F8D15FE3702009F007FA00260E2575438E
:102CA000D4F8343801362B44B3F8190109F016FA78
:102CB000D4F834382B44B3F81B0109F00FFAD4F8D8
:102CC00034382B44B3F81D0109F008FAD4F834382D
:102CD0002B4493F81F0109F0D5F9D4F834382B446C
:102CE00093F8200109F0CEF9D4F834382B4493F846
:102CF000210109F0C7F9D4F834382B4493F82201A4
:102D000009F0C0F9D4F834381D44D5F8230109F08E
:102D1000EEF9082EC2D11DE304000020313701086E
:102D2000E8F7FF1FECF7FF1FF0F7FF1F88040020F4
:102D3000602D002008490108144901081D490108B7
:102D4000AA0C0020702009F0AFF9D34D05F17006F0
:102D500095F8D00009F096F995F8D10009F092F9AC
:102D600095F8D20009F08EF995F8D30009F08AF9A8
:102D700095F8D40009F086F995F8D50009F082F9A4
:102D8000073595F8CF0009F07DF9B542E0D1E1E2D1
:102D9000C24B585D013509F075F9102DF8D1D9E213
:102DA00096F850080025400000F0FE0009F07CF97C
:102DB00094F850389D4280F0CD82B94B33F815001D
:102DC00009F08CF90135F3E7062009F06DF9B0E15F
:102DD000042009F069F9D4F87808A5E2072009F081
:102DE00063F9A08AFF28A8BFFF20C0B209F04AF902
:102DF0009FE1022009F058F9B4F8DC00A8E21E2097
:102E000009F052F9D6F8343800251B78022B6DD121
:102E1000D4F8343805F1080253F82200A1490BF028
:102E200025FA0EF091FB80F30800C0B209F02AF9F0
:102E3000D4F834389C4903EB8503D86A0BF016FAB2
:102E40000EF082FB80F30800C0B209F01BF9D4F841
:102E5000343805F10E0253F8220094490BF006FABB
:102E60000EF072FB80F30800C0B2013509F00AF9D8
:102E7000032DCDD1072DD4F8343823D1586C89498E
:102E80000BF0F4F90EF060FB80F30800C0B209F01B
:102E9000F9F8D4F834388349986C0BF0E7F90EF060
:102EA00053FB80F30800C0B209F0ECF8D4F83438D2
:102EB00093F84C000BF082F90EF046FB80F308000B
:102EC000C0B20DE02B44587809F0DCF8D4F834385F
:102ED0002B44D87A09F0D6F8D4F834382B44587DEE
:102EE000013509F0CFF80A2DC4D133E2D4F83438D3
:102EF0002B44587809F0C6F8D4F834382B44D87AE3
:102F000009F0C0F8D4F834382B44587D013509F065
:102F1000B9F80A2DEAD11DE215F8010F002800F0DA
:102F2000198209F0AFF8F7E7012009F0BDF8D4F8ED
:102F3000343818783CE6502009F0B6F80026D4F86A
:102F400034580C2205EB860595F87930013602FBE2
:102F5000037393F84C0009F095F895F87A0009F09E
:102F600091F895F87B0009F08DF895F87C0009F050
:102F700089F8142EE3D1EDE1482009F095F80026F8
:102F8000D4F83458062303FB065595F8CE0009F013
:102F900079F895F8C90009F075F895F8CA0009F0B4
:102FA00071F895F8CB0009F06DF895F8CC0009F0B0
:102FB00069F8013695F8CD0009F064F80C2EDFD1E0
:102FC000C8E1002009F070F8C4E1162009F06CF89F
:102FD000B4F8640209F082F8B4F8100209F07EF83F
:102FE000B4F8120209F07AF8B4F8140209F076F88D
:102FF000B4F8A60209F072F894F8BB0209F042F89E
:10300000002009F03FF894F8BC0209F03BF894F86E
:10301000530209F037F894F8600209F033F8002001
:1030200009F030F8D4F834380A20B3F9563093FB5D
:10303000F0F080B209F052F889E0E8B2013509F009
:1030400021F8092DF9D185E1102009F02DF894F827
:10305000200000F0020009F015F894F8260009F0AD
:1030600011F8A06A09F043F8E06A09F040F8A08C72
:1030700009F034F8608C09F031F8B4F8800867E1A1
:1030800008F0F6FF0746122009F00EF887B9D4F8C9
:103090008468D4F888580DE058050020C00C002042
:1030A000DA0C0020000020410000C84200007A44F1
:1030B00000252E46384608F0E5FF304609F017F89F
:1030C000284609F014F8002009F011F8002009F052
:1030D00005F8002009F002F8002069E594F88C0852
:1030E000002580000130C0B208F0DEFF94F88C08A3
:1030F00008F0C8FF94F88C389D4280F02B81D34EA5
:10310000705D08F0BFFF06F11003585D08F0BAFFCC
:1031100006F12003585D303608F0B4FF705D08F00A
:10312000B1FF0135E6E7082008F0BEFF002008F0F7
:10313000D5FF002008F0D2FF002008F0CFFF0020CC
:1031400006E1042008F0B0FFD4F8D800ECE094F8D1
:10315000480208F097FF94F84C0208F093FF94F8A7
:103160004B0208F08FFF94F84D0221E5072008F08C
:103170009BFFB4F84E0208F0B1FFB4F8500208F01B
:10318000ADFF94F8520208F07DFFB4F85402DFE07E
:103190000C2008F089FF94F85E0208F073FFB4F881
:1031A000680208F09BFFB4F8640208F097FFB4F8D7
:1031B000660208F093FF94F85F0208F063FFB4F82A
:1031C0006A0208F08BFFB4F86C02C1E0042008F03A
:1031D0006BFF94F8A40208F055FF94F8A50208F0DC
:1031E00051FFB4F8A602B3E096F85008002500EBB2
:1031F0004000C0B208F058FF06F26E2694F850382E
:1032000002369D4280F0A68016F8020C08F03AFFC4
:1032100016F8010C013500EB800000EB800000F295
:10322000EE2080B208F05AFFE8E7012008F03CFFEA
:1032300094F86002BCE4082008F036FF0025844BB7
:103240002B4493F88601013508F01CFF082DF6D1B8
:1032500080E0102008F028FF94F8D50008F012FF55
:10326000D4F8D80008F043FF94F85E0208F00AFF93
:10327000B4F8280208F032FFB4F82A0208F02EFF52
:10328000B4F82C0208F02AFFB4F84E0208F026FF2A
:10329000B4F850025CE094F8CD086D4DC0EBC0006E
:1032A000C0B208F001FF05F1280695F8F2010023ED
:1032B000684AD25C904200F099850C333C2BF7D1E0
:1032C0000835B542F1D145E00D20634D08F0ECFE24
:1032D00005F0ECF908F0D6FEA88808F008FF286988
:1032E00008F005FF94F80D0994F80C3998422ABFAC
:1032F000C31AC3F1800300200344D4F81009184412
:1033000012E0B54226DA1DF8050008F0BBFE0135D3
:10331000F7E7524B585D013508F0B4FE0B2DF8D19C
:10332000002008F0E4FE002008F0E1FE12E0082092
:1033300008F0BAFEB4F8180208F0D0FEB4F81A0289
:1033400008F0CCFEB4F81C0208F0C8FEB4F81E0267
:1033500008F0C4FED4F8C430414D987908F092FECC
:10336000D4F8CC300133092B88BF0023C5F8CC300A
:103370003C4D94F814292E68394B002A00F05A81EC
:10338000D3F81829002A00F0558193F81C39013B25
:10339000012B00F24F81D4F81809314F03F0EAFDF8
:1033A000E0B1D7F8180903F0E2FD97F81D3980461F
:1033B0007E2BD5F800900ED102231B2887F81C39EC
:1033C00009D1D7F8180903F0D5FD20B90123C7F8B2
:1033D000209987F8243984F81D89DCE7D7F820295B
:1033E0002B689B1A41F6583293421DD9032387F864
:1033F0001C391FE11C4A32F8130010B903464FF480
:1034000003600133B0F5C06FDBB26BD02ED9B0F5DD
:10341000006F6DD040D9B0F5036F47D184F82539DE
:10342000E3690F4F990648D494F8241994F8253984
:10343000002900F0FD802A68921B012ADAD984F85D
:103440002539002384F82439F4E000BF150D00204D
:1034500058050020580D00200400002008490108EC
:1034600088040020E42A0020E8480108B0F5007F25
:1034700038D006D8B0F5807F68D0B0F5887F65D0A9
:10348000D6E7B0F5806F74D0B0F5826F00F0908011
:10349000B0F5047FCCD11CE0B0F5E26F65D0B0F59B
:1034A000E46F62D0B0F5E06FC2D15EE0B0F5046FBA
:1034B0005BD0B0F5026FBBD1A5E097F820309A073A
:1034C000B2D5798C24234B436421123393FBF1F161
:1034D000A8E084F825392369984F9B07A4D5BB8AB7
:1034E0000A219EE084F82539236913F4006F32E045
:1034F000E169924A880684F8253995D592F820101A
:10350000890791D5DB0710D5D36A192283EAE371C5
:10351000A1EBE37101EB5101B1FBF2F1002BACBF68
:1035200041F0004141F040410DE0936A192283EAE5
:10353000E371A1EBE37101EB5101B1FBF2F1002B5F
:10354000B8BF41F080414FF400604BE084F825396A
:10355000E36913F0040F3FF467AF002104F0D0FBE0
:10356000764B002283F824295EE784F82539002170
:1035700038E084F8253994F82639704A0133DBB2F3
:10358000032B88BF012382F8263942F2107394F886
:10359000261959436A4B1B78DF0748BF013198074A
:1035A00048BF02315A0748BF04314FF4806019E028
:1035B000E169DFF8888111F0200784F8253917D0F8
:1035C00098F8202012F0020F14BF4FF47A710021F6
:1035D00012F0010F14BF4FF4FA6300230B4494F868
:1035E0002610194404F08CFB002384F824391BE7CF
:1035F000D8F810301B067FF517AF394604F080FB72
:1036000088F8247910E784F82539E3694B4F990647
:103610007FF50AAF97F820309A077FF505AFBB8C8E
:103620006421594304F06CFB002387F82439FBE63E
:1036300084F8253994F82729404B002A5CD0296862
:10364000D3F828298A1AC72A56D993F82C29C3F8FF
:10365000281993F82D19013283F82C29394E93F843
:103660002E2929B97AB93270D3F83009232141E0E3
:103670004AB932783AB9D3F83009582103F07DFCC1
:103680000123337038E03378B3B3B4F844390A26F1
:10369000A4F83639B4F840390027A4F84839B4F80A
:1036A00042394420B3FBF6F384F83479A4F84A395C
:1036B00004F014FB0121B4F9360904F0F1FA4820B2
:1036C00004F00CFB0121B4F9480904F0E9FA4120A7
:1036D00004F004FB0121B4F94A0904F0E1FA2A20BC
:1036E00004F0FCFA94F83409394604F0D9FA31466A
:1036F000D4F8300903F041FC94F84C290F4B002A10
:1037000000F091812968D3F850298A1A092A40F2D9
:103710008A8193F85429C3F8501993F82D1901326E
:1037200083F8542993F82E29074B09B972B903E09D
:1037300062B91A7852B901221A7074E18804002023
:103740005D2D00205F2D00205E2D00201B78002BBA
:1037500000F0698194F8553905220133DBB2B3FBDF
:10376000F2F202EB820284F855399B1A13F0FF0340
:103770001FD16E4601228DF804208DF805208DF8AA
:1037800006208DF807200327B84A00938DF80870AB
:1037900003CE1772106051600920322102F8013CFB
:1037A00009F092FF09F079FFB14BA3F8560904F034
:1037B00053FA94F855390A21B3FBF1F201FB1232A6
:1037C00012F0FF0F32D1642B30D800230093012375
:1037D000ADF80430ADF8063002238DF81830A54B53
:1037E00002AE03F11007324618685968083303C265
:1037F000BB421646F7D16E469C4B06AF324603CA13
:10380000BA4218605960164603F10803F6D11278DF
:10381000DC211A70984B16221920DA7109F054FF36
:1038200009F03BFFA4F8560904F016FA94F855196C
:103830001E23B1FBF3F203FB121313F0FF0F40F052
:1038400085808B4BB3F858390BB19BB200E008234D
:10385000D4F83819642202FB01F0D4F83C19002690
:103860004A43002703920022CDE90067ADF81420F7
:10387000ADF81620ADF81A208DF81C206E466A4669
:10388000B4F940194FF47A7E0EFB01F18DF81D302A
:10389000764B02900491ADF818E00DF11808174628
:1038A00003CF4745186059603A4603F10803F6D143
:1038B000386818211860BA886F4F9A801E20F971F5
:1038C00009F002FF09F0E9FEA4F8560904F0C4F972
:1038D000D4F83829642303FB02FBD4F83C29B4F95B
:1038E000409903FB02FAD4F85C094FF47A7303FBA6
:1038F00009F90AF0A7FE00238DE80808ADF8143096
:10390000ADF81630ADF818303346CDF808A0CDF834
:103910000C90CDF81090ADF81A0007F108021E4681
:1039200003CE464510605160334602F10802F6D1DD
:1039300030682123106068211C20FB7109F0C4FE4F
:1039400009F0ABFEA4F8560904F086F994F855196D
:103950001E23B1FBF3F203FB1213DBB20F2B444E19
:1039600061D1D6F85C090AF047FE1FFA80F8B6F973
:1039700040090AF027FC6E466A46404B0027009338
:1039800001930023ADF81230384B02900397ADF845
:1039900010800DF1100C9646BEE80300E645186055
:1039A0005960724603F10803F5D1DEF80000DFF834
:1039B000C880186014204A23014688F8073009F0AF
:1039C00083FE09F06AFEA4F8560904F045F9D4F81C
:1039D0006839D4F8642903933346D4F86019002079
:1039E0000DF1800E029200900191049705974EF818
:1039F000687D08F108021E4603CE764510605160CE
:103A0000334602F10802F6D130681E2310602721E8
:103A10001C2088F8073009F057FE09F03EFEA4F894
:103A2000560904F019F994F86C29114B002A00F09A
:103A3000FF802968D3F870298A1A092A40F2F88091
:103A400093F87429C3F8701993F82D19013283F88B
:103A5000742993F82E290A4B09B99AB903E08AB957
:103A60001A787AB901221A70E2E000BFFF2A00201A
:103A70008804002025490108F72A00200000204181
:103A8000612D00201B78002B00F0D28094F875394E
:103A90001E210133DBB2B3FBF1F284F8753901FB6F
:103AA000123313F0FF03DF4E59D186F876396B4697
:103AB000DD4F7968386803C3684603F0CBFF03F035
:103AC000B5FF04F003F803F0B1FF04F05FF803F072
:103AD000ADFF04F00DF803F0A9FF312003F098FFCB
:103AE00003F0A4FFB6F8582907F10801684606F06C
:103AF00013FF684603F0AEFF03F098FFD6F878692D
:103B000030460AF09FFDC9495FFA80F830460AF056
:103B1000ADFB06460A2000FB08F00AF053FB014605
:103B200030460AF099FA0AF08DFD07F10E01C3B292
:103B30004246684606F0F0FE684603F08BFF03F04D
:103B400075FF04F071F803F071FF04F06DF803F0F5
:103B50006DFF03F06BFF03F093FF03F03BFF94F85E
:103B600075191E23B1FBF3F203FB1213DBB20F2B0B
:103B7000DFF8B0825CD16B46AD4E002771683068CB
:103B800088F8767903C3684603F064FF03F04EFFBC
:103B900003F09CFF03F04AFF412003F039FF03F0DC
:103BA00045FF03F0F3FF03F041FF03F0A1FF03F033
:103BB0003DFFD8F87C090AF045FD06F1080182B204
:103BC0003B46684606F0A8FE684603F043FF03F054
:103BD0002DFFD8F85C090AF035FD3B4682B206F1AC
:103BE0000801684606F098FE684603F033FF03F0CC
:103BF0001DFF06F11201D8F88029684606F08CFEF8
:103C0000684603F027FF03F011FF06F108013A466A
:103C10003B46684606F080FE684603F01BFF03F053
:103C200005FF452003F0F4FE03F02AFF03F0D2FE67
:103C300094F884397B4E002B00F0F080D6F8883958
:103C4000002B00F0EB802F68D6F88C39FB1A632B21
:103C500040F2E4807749D6F85C090AF007FB0AF0E5
:103C6000F1FC85B2412003F09BFE002003F08FFEA3
:103C7000002003F08CFE28460AF0A4FA6B490AF0F3
:103C8000A9FB0AF0DFFC80B203F081FE03F050FED6
:103C900096F8905915F001052BD0F3699B063CD599
:103CA000B6F958394720052BB4BF0225032503F088
:103CB00077FED4F838096426704303F057FED4F831
:103CC0003C09704303F052FE5A49D4F87C090AF0CB
:103CD000CDFA0AF0B7FCC0B203F036FEB4F94009E1
:103CE000704303F043FEB4F9580945EA8000C0B2BE
:103CF0000FE0532003F054FE284603F048FE284608
:103D000003F045FE284603F01FFE284603F01CFE84
:103D1000012003F019FE03F00BFE94F89059DFF830
:103D20000481C5B94F2003F03BFED8F8380964265A
:103D3000704303F01BFED8F83C09704303F016FEF5
:103D4000284603F013FE012003F0FEFD012003F0DE
:103D5000FBFD03F0EDFD94F890390A210133DBB24D
:103D6000B3FBF1F201FB1233C4F88C7984F890397B
:103D700054E0BB782BB1C5F8A06087F80280FEF74D
:103D8000DABCD5F8A030F31AB3F57A6FFEF4D3ACF1
:103D90000123D5F8A400BB7003F0E9F80746D5F875
:103DA000A40003F0E4F87F067EF4C5AC8A2803D0B3
:103DB0008E280DD0FEF7BFBCEB6998067EF5BBAC34
:103DC00095F89E30002B7EF4B6AC05F16D0306E04D
:103DD00095F89E30002B7EF4AEAC05F13803C5F8A3
:103DE000A8302D2385F8AC30FEF7A5BC08F04AF9C1
:103DF000B5F8F40108F072F995F8F60108F042F907
:103E000095F8F70108F03EF995F8F90108F03AF94C
:103E100095F8F80108F036F9FFF752BA21B0BDE87D
:103E2000F08F00BF88040020B43801080000204152
:103E3000CC3801080000C8422DE9F04FA24C87B0F1
:103E40002368C3B9A14D2B78013B042B00F22E85CA
:103E5000DFE813F01004100410041305F4049A4B67
:103E6000186803F084F89A4B05461B681B7843B129
:103E7000012B00F07881206803F07CF80028EED157
:103E8000E0E72428934E0CD006D80A2800F0E580FD
:103E90000D2800F0E28051E12A2806D02C2804D019
:103EA0004CE133707370B37059E18B4B717896F8B5
:103EB00000800020874A5854B8F1000F26D11978A5
:103EC00082F80380472921D1597850291ED1997849
:103ED000472907D1D978472904D11979412901D136
:103EE0000121D17099787C4A522903D1D1784D298A
:103EF00000F0D4849978784A472907D1D17853299A
:103F000004D11279562A04BF0322F270F278714F5D
:103F1000022A3AD0032A4FD0012A40F08C80A8F11F
:103F20000202072A00F28780DFE802F004080F137C
:103F30001A25852A09F004FB70607CE01B78532B5E
:103F400079D173685B42736075E009F0F9FAB0608B
:103F500071E01B78572B6ED1B3685B42B3606AE0A7
:103F60001B78302B5D4B1A788CBF42F0020222F096
:103F700002021A705FE0002009F042FB30735AE041
:103F8000002009F03DFBF08155E0B8F1070F07D0A4
:103F9000B8F1080F4FD1012009F032FB78824AE0D6
:103FA000012009F02DFB41F2184358434FF47A7376
:103FB000B0FBF3F038823EE0B8F1020F08D0B8F160
:103FC000030F0AD1002009F01BFB454B187032E0AB
:103FD000002009F015FB38752DE02CD9A8F104025A
:103FE00092103B7D0132D2B2013B02EB8303DBB284
:103FF000102B20D8A8F10301C2F1010201EB8202CB
:10400000D2B2012A0BD0042A11D100205F1E09F080
:10401000F7FA344B0022D855334BDA5507E0334AD0
:104020005F1E0020D35509F0EBFA314BD855314AC9
:10403000136801331360274A2A2D18BF917808F1BD
:1040400001084FF000030CBF01214D4086F80080AD
:1040500073700CBF5175957081E0737D002B6AD031
:10406000254B13F8012D25495A708B42F9D11A4A74
:10407000B07813785278402B85BF373B1B011B016A
:10408000DBB298BF03F0F003402A8CBF373A303AD6
:10409000D2B21344DBB298420E4A49D121230B70AD
:1040A000174916480B6801330B60D378012B2DD0CC
:1040B000022B3FD17223118A0370124B528A19804E
:1040C000114B1A8036E000BF740400203804002031
:1040D00070040020980F0020E82A0020A804002087
:1040E000140D0020450D0020350D0020150D002079
:1040F000250D0020182800206C0400205804002002
:1041000024280020AA040020080D00206721017047
:104110009D4909788F070ED59C49506808609068C2
:104120004860107B9A490870D1899A4A118002E050
:104130003F230B7000230022727510E073780E2B62
:104140009FBF954A591C5170944A934998BFD554C2
:10415000737D1BB98A7855408D7000E00023DD0720
:104160007FF589AE53E18C4B9A7D082A3FF683AEEA
:10417000DFE802F0050C1319242F4A606A00B52805
:104180007FF479AE0022DA75012202E0622802D0C3
:1041900000229A756FE60222FBE703229A751876D1
:1041A0005876987667E604229A755A7E997E02447C
:1041B000D2B25A760A449A76D8765CE605229A7587
:1041C0005A7E997E0244D2B25A760A449A769883ED
:1041D00051E606229A755A7E997E0244D2B25A76E8
:1041E0000A449A769A8B02EB0025ADB2B5F5AC7F06
:1041F00082BF694A0121D17500229D83DA83002D97
:104200007FF439AE0722C4E75A7E997E0244D2B2C7
:104210005A760A449A76DA8BB2F5AC7F3EBF5E4995
:10422000891881F820000132998B92B29142DA8389
:10423000E8D920E608229A755B7E83423FF41BAEE4
:10424000554B0122DA750EE0002255499A7511F896
:10425000012D4A70534A9142F9D1987E4E4AA842A4
:1042600006D03F230B70504A53680133536002E677
:104270004E4D286801302860D07D10B13E230B7070
:10428000F9E521200870D07E06284DD004D80228F8
:1042900014D0032830D0EEE5122864D030287FF403
:1042A000EAAD4920087092F82410414A102988BFCD
:1042B0001021117010783F49002283E050200870CF
:1042C0003249506A4860906A0860116B4FF47A7006
:1042D00091FBF0F12F48018092F878112A4A19B128
:1042E000117841F0020102E0117821F00201117011
:1042F000012283F879217AE05320087092F8251082
:1043000011F0010105D092F82420D01E4242424112
:1043100000E00A4683F87821002A68D11A490A7811
:1043200022F002020A7062E04F20087092F82B100F
:1043300011F0010105D092F82A20D11E4A424A41CB
:1043400000E00A4683F8782122B90F490A7822F062
:1043500002020A7093F84F100D4A1170B3F84C1016
:10436000154A118043E056200870506B13490880AD
:1043700042F21070916B91FBF0F111480180012124
:1043800082F87A1133E000BFA8040020B0040020B6
:10439000AE040020AC040020980F0020E82A002082
:1043A0006C04002058040020380400202428002039
:1043B000140D0020B80F002046000020AA040020A1
:1043C000080D002082420ED20E7AB64D56554E7A16
:1043D000B54D5655CE7AB54D565511F80C6FB44DB6
:1043E00056550132EEE7B3490A6801320A6093F884
:1043F0007931B14A002B3FF43EAD92F87A31002B6F
:104400003FF439AD002382F8793182F87A31AB4B31
:10441000DFF8E082DA681A61A94A1268DA60A94A0C
:10442000136843F020031360A74B1A78012A0CBFCE
:10443000002201221A7098F800309A077FF51BAD10
:10444000A24A1278042A7FF616ADA14A127802F029
:10445000040202F0FF011AB923F0010388F80030CA
:1044600098F80070944E17F0010F9A4D24D119B3AB
:10447000BB0721D5984B28686A6818605A6009F014
:10448000A1FE002181460AF0ADF808B1484601E0DE
:1044900009F10040914909F09DFF914909F0E6FEBC
:1044A00006F0E4FA8F4B47F0010718608E4B88F84E
:1044B00000701B88A6F87C3196F87E21531C0522DB
:1044C00093FBF2F202EB82029A1A96F87F3186F899
:1044D0007E21029392000023DFF8F8919900DFF823
:1044E00028A2039159F82310DFF820E291FBFAFC8F
:1044F0000EF1080040F823C07C484EF8231000FB62
:104500000C1142F2107091FBF0F00EF1100680B227
:1045100026F813004FF014080EF1140608FB036888
:104520000EF13C0B58F802705BF8236048F802105B
:10453000F61B0E4405214BF8236096FBF1F60AFBAF
:104540000C6602990EF1440E01294EF82360C8460C
:1045500006D10238B0F5797F9CBF039941F8096014
:104560000BB90123B8E7DFF85891534FD9F8000091
:10457000D7F8CC31C01A09F021FE5D4909F02AFFB5
:10458000D9F800304FF07E51C7F8CC3106460AF01A
:104590000BF808B94FF07E56564BC7F8D0611B7820
:1045A000DFF86C9113F00103534E13D004AA00926C
:1045B000494B05AA01920CCB98E8030008F074FC63
:1045C000049A6421B2FBF1F2059BA9F8002093FB49
:1045D000F1F301E0A9F80030338097F8D431364E7A
:1045E000002B3BD0D6F8D0114FF07E5009F0F2FEF0
:1045F0008246D6F8D8312868C01A09F0E3FD514642
:1046000009F034FE09F0F8FFD6F8DC311FFA80F922
:1046100068680FFA89F9C01A09F0D4FD314B19689E
:1046200009F024FE514609F021FE09F0E5FFB6F934
:10463000E22100B28118B6F9E021022009EB020361
:1046400091FBF0F193FBF0F389B29BB2A6F8E6116F
:10465000A6F8E431A6F8E211A6F8E031012387F8C4
:10466000D431D8F80430C7F8DC31D8F80030C7F8B6
:10467000D83100E4214E3268177817B1012F49D0A4
:1046800014E1012B00F212816A781D4B0C2101FB11
:1046900002335A781B4B206853F8221002F064FC56
:1046A00096E000BF150D0020250D0020350D0020DF
:1046B000450D002018280020980F00203804002005
:1046C000E42A0020A40400200A0D0020AE040020EB
:1046D0005D2D0020B00400200C0D00208096184BAA
:1046E00035FA8E3C1C000020AC0E0020806967FF6C
:1046F00000007A44A8040020240500207004002053
:10470000B4310108083B0108809698001811002078
:10471000220500202068DFF8C08102F0B3FB0028EA
:1047200000F0C4802A78634B022A3FD0032A4CD081
:10473000012A40F0BB80604A10689A69821AC72A31
:1047400040F2B480596904292ED85C4A0C2496465C
:1047500004FB0121D8F800404E78A7689861002337
:104760005749D8B251F82320BA4204D00133092B5B
:10477000F6D1002300E00346B34205D0204651F8AD
:10478000261002F0F1FB91E06B780C2101FB03E2B3
:10479000566816F8011B19B1204602F0EEFBF8E747
:1047A0006B6901336B6181E0022074E05A78434BFE
:1047B0000C2101FB02335A78414BD8F8000053F822
:1047C000221002F0D1FB032065E0326892780AB92A
:1047D000042060E01A7F02B91F772B7F354F012B31
:1047E0000FD17B69B22B08D8364A2068D15C02F021
:1047F000C4FB7B6901337B6103E000237B610223FF
:104800003B772B7F2B4F022B14D17A690F2A0FD8BD
:1048100033682C495B78206803EB03130B44134483
:1048200093F8B41002F0A9FB7B6901337B6101E0CE
:1048300003233B772B7F022B38D9C9E7AB681D498F
:104840000133AB60204B1B68DB784BB14B78052202
:104850000133DBB2B3FBF2F202EB82029B1A4B7024
:10486000154B00221B680120EB60184B1A70184A88
:10487000137823F0020313700DE00F4BEA681B68F6
:104880009B1A40F6C412934210D9124A05201368AD
:1048900023F02003136008F0F9FA07E01279432AA5
:1048A0007FF428AB0222F270FFF724BB07B0BDE80B
:1048B000F08F00BF38040020E42A0020B431010842
:1048C000083B0108FC38010870040020AE040020F9
:1048D000A8040020A4040020740400202DE9F04F57
:1048E00087B06C4C02916C4922880E680546C2EB79
:1048F00026135B435200C2EBE602B4F902601B13BD
:104900005643B4F90420B4F90A0053439B1303EB54
:10491000E62606EB860380331B12B6F5FA384FEA1B
:10492000E67704934B6847F1FF39A8FB08AB039384
:1049300008FB09F3B4F908200BEB430BE389A661EC
:104940000593D31708FB03F102FB0911A8FB02230F
:104950000B44C1171F030AFB01F300FB0B33AAFB37
:1049600000011603194447EA1257020A42EA01629B
:1049700092194FEA2123E6887B410032A2FB06010F
:1049800043F5004306FB03114B100093CB17019333
:10499000DDE900231343B4F810E0B4F80CC06DD087
:1049A0000FFA8EF0C1170AFB01F1AAFB002300FBEE
:1049B0000B11BDF914600B44F71708FB07F106FB58
:1049C0000911A8FB06670F4479047004801841EAB6
:1049D000D6315941039B0FFA8CF8C3F5801E7246FD
:1049E000D317002212184FEACE764FEAC3774FEA68
:1049F000C8034B4147EA5E07B61A67EB030740F668
:104A00003543A6FB030103FB0711DDE9002309F091
:104A100039FEB4F916204E1302FB06FE470B47EA97
:104A2000C147D31707FB03EEA2FB0723564373448A
:104A300007FB0366A2FB07233344560E46EAC31660
:104A40008219B4F914604FEA636741EB07037143BD
:104A5000F71700FB0717A6FB00013944C60C46EA0E
:104A6000413692194FEAE1474FEA1221B4F9122078
:104A70007B4141EA036113010B4400E000230DB1C7
:104A80001B0A2B60029B13B11A46049B136007B0EC
:104A9000BDE8F08FA4030020B011002070477047DC
:104AA0006B4B6C4A2DE9F04F5E8994684FEA062AF9
:104AB000B4EB0A0A9C884FF000054FEA04481C89B1
:104AC0004FF0000BA4FB0A6765EB0B0B04FB0B77A5
:104AD000F40944EA476418EB04065C884FF00009C7
:104AE0004FEAE7154FEAC438DC8849EB050787B081
:104AF000CDE90467A4FB0A6704FB0B77340A44EA98
:104B0000076418EB04064FEA27259C894FF000093B
:104B100049EB0507CDE90067AAFB046704FB0B77A7
:104B2000F40D44EA472414F5FA664FEAE75545F1D7
:104B30000007B6F5FA6F77F10003CDE902679646F4
:104B400066DADDE90489A4FB046704FB05F34FF092
:104B5000050C07EB4307A6FB0C230CFB07335F1088
:104B60004FEA3206B8EB06084FEA920646EA837629
:104B700069EB07099F10DDE90023921B63EB070334
:104B8000CDE90023DDE90267334A4FF0FF33964257
:104B900077EB0303CDE9048927DA40F6AC52002312
:104BA000A4185D4104FB05F3A4FB04456FF0060265
:104BB00005EB4305664202FB0566A4FB0223334472
:104BC00018EB020649EB0307CDE904670B26A4FBAB
:104BD000062306FB0533DDE900455B104FEA320290
:104BE000A41A65EB0305CDE90045DDE902450AFBA2
:104BF0000BF3AAFB0AAB0BEB430B4FEADA7242EA68
:104C00004B02A41A4FEAEB7365EB0305CDE90245AD
:104C1000DEF80C40009B019DA4FB032304FB05333D
:104C20004FEA525848EAC3284FEA6359DDE90423A2
:104C3000B8EB020269EB03039946D30B43EA4943FD
:104C400000B1036009B1029B0B6007B0BDE8F08FB3
:104C500050030020B011002024FAFFFF2DE9F0419D
:104C6000324C334D62892B8AB4F904809A1A238915
:104C7000B4F902E05A43B4F91230D613B4F914204F
:104C8000DB02324493FBF2F232440A26E2615643DD
:104C9000A2F57A6202FB02F3B4F90EC002FB0EFE2B
:104CA00002FB08F2B4F90C801B130CFB03FC03FBA2
:104CB00008F31B1403EB62320232E388921002F510
:104CC000004253434CF25032B4F920704FEAEE2EBA
:104CD000B4F900400EEBEC2C0CEB8404BC406D6985
:104CE0000234A5EBA4043A4162434FEAD3384EBFE5
:104CF000B2FBF8F35400B4FBF8F340F6DE3448BFDF
:104D00005B001A12524362430A4C08365C43241477
:104D100004EB224202F6CF62361103EB221300B1FC
:104D2000036001B10E60BDE8F08100BF64030020A4
:104D3000B011002043E3FFFF13B50C4B04465B6842
:104D40001B20022101AA984770B19DF804209DF80C
:104D5000053043EA022303F54E5310334FF48C72AF
:104D600093FBF2F32333238002B010BD3C030020F9
:104D700037B5104B04465D68187806216A46A84787
:104D8000A8B19DF800209DF80130012043EA0223DC
:104D900023809DF802209DF8033043EA02236380BC
:104DA0009DF804209DF8053043EA0223A38003B058
:104DB00030BD00BF3C03002013B5104B04465B68B8
:104DC0003B2006216A469847A8B19DF800209DF82F
:104DD0000130012043EA022323809DF802209DF840
:104DE000033043EA022363809DF804209DF80530D8
:104DF00043EA0223A38002B010BD00BF3C030020A1
:104E0000B0F5807F0ED0BB280ED861280ED8292897
:104E10000ED813280ED809280ED8002814BF062053
:104E20000020704700207047012070470220704723
:104E3000032070470420704705207047054A08B5D5
:104E4000138801339BB21380034B187803F050FE94
:104E5000002008BDA20C0020B020002008B54FF4AF
:104E6000804001F069F9012801BF044B4FF48042F2
:104E70005A61034B08BF187608BD00BF000401400B
:104E8000B011002010B5054C2368186901F054F9E1
:104E900018B123681A69024B5A6110BD48030020FB
:104EA00000040140F8B50E461746084C4FF48055F3
:104EB000656140F0800008F0D7FA3846002132469C
:104EC00008F09CFA25610120F8BD00BF000C0140EC
:104ED00070B50E46054C4FF48055656108F0C4FA74
:104EE000304608F0C1FA2561012070BD000C014078
:104EF00070B5FFF785FF104C0546192001F0AFFE95
:104F0000A36815200021984710B9022001F006FF80
:104F100045F01801A368C9B216209847A36800217C
:104F200017209847A36801213D209847A3683E2099
:104F30000121BDE8704018473C030020F0B5274D23
:104F400085B06B7E002B46D1254C2368002B42D0C8
:104F50001A68244E12B1B1690A43B2619A889868FE
:104F6000ADF8002002228DF80320694604228DF856
:104F7000022003F028F9B369002743F00103B3616D
:104F800023680126187B197D03F008F92368164968
:104F900093F9150001F00CFF2368144A1B69536153
:104FA000029308230DEB03008DF80D308DF80C7083
:104FB0008DF80E6001F090F8236801A85B7D8DF8F4
:104FC00006708DF8043003238DF805308DF80760E6
:104FD00008F0F6F96E7605B0F0BD00BFB011002004
:104FE0004803002000100240854E000800040140E4
:104FF00037B50446FFF7A2FF254B1A68254B9A42A6
:105000000ED14FF40053ADF8043002238DF8073071
:10501000042321480DEB03018DF8063003F0D3F88B
:105020002046FFF7EDFE05461C4C8021A3686B204F
:105030009847642001F013FEA36807216820984771
:10504000642001F00CFEA36800216B2098476420C7
:1050500001F005FEA36801216B209847A368182181
:105060001B209847A36810211C209847A368294655
:105070001A209847A368002119209847A368122195
:1050800037209847A36801213820984703B030BDE6
:1050900024000020001BB700001001403C0300204A
:1050A00008B5FFF74BFF024B4FF480521A8008BD42
:1050B0000400002070B50446FFF740FF2046FFF7CC
:1050C0009FFE0546144C8021A3686B2098476420FE
:1050D00001F0C5FDA368002119209847A3680321AA
:1050E0006B2098470F2001F0BAFDA36829461A20CB
:1050F0009847A36818211B209847A36810211C20FB
:105100009847A368022137209847A36838200121D7
:10511000BDE87040184700BF3C03002008B5FFF70A
:105120000DFF074B5B7813B1012B03D008BD4FF483
:10513000006201E04FF48052024B1A8008BD00BFAC
:105140003A0300200400002010B54000204CC0B2FB
:1051500020702048204C017020480021017001205F
:1051600020701F4C23601F4C23601F4B1A701F4A76
:105170001F4B107019701F49086811461A4630B34A
:1051800083889C0515D40388DB050DD447F2305382
:105190000488A40502D5013BFAD112E08BB1038843
:1051A0009BB243F48073038083889BB243F44073C3
:1051B000838047F23053087810B1013BFBD100E007
:1051C00013B9BDE8104039E6107880F0010010BD39
:1051D000B6200020B4200020B2200020BC200020F7
:1051E000B8200020C0200020B5200020C4200020CE
:1051F000C5200020AC20002007B5F7216B46062211
:105200007620FFF7A1FF9DF800309DF801101B03E9
:1052100043EA01139DF80210094A43EA111353604F
:105220009DF803309DF804101B0343EA01139DF819
:10523000051043EA1113136003B05DF804FB00BFCF
:10524000B011002007B5002101AB03227720FFF742
:105250007BFF9DF805309DF804001B0243EA0043E4
:105260009DF80600184303B05DF804FB08B5FFF78E
:10527000E9FF014BD86008BDB011002008B5FFF769
:10528000E1FF014B986008BDB01100200F4B13B532
:105290001B780F4C0BB1237EB3B1032201AB7720F7
:1052A000F621FFF751FF9DF805309DF804201B0201
:1052B00043EA02439DF806201343064AB2F9202030
:1052C000C2F10802D340636102B010BD00000020AB
:1052D000B0110020640300200A4B13B51B780A4C60
:1052E0000BB1237E63B1022201AB7720F621FFF7D9
:1052F0002BFF9DF804209DF8053043EA022323820A
:1053000002B010BD00000020B011002030B50546ED
:105310000C46134629462246BDE83040682013E774
:1053200013B50622044601211C206B46FFF70CFF33
:1053300008B39DF801309DF80020042143EA0222C1
:1053400042F38D0292FBF1F29DF8023022809DF82B
:10535000032042EA032242F38D0292FBF1F29DF810
:10536000043062809DF8052042EA032343F38D0355
:1053700093FBF1F3A38002B010BD13B506220446DF
:10538000022118206B46FFF7DFFEB8B19DF8003010
:105390009DF801209B0803EB022323809DF8023037
:1053A0009DF803209B0803EB022363809DF80430E3
:1053B0009DF805209B0803EB0223A38002B010BDDB
:1053C000314B2DE9F3411B780546002B3BD00024DF
:1053D00026462746A04601345320322108226B4638
:1053E000E4B2FFF7B1FE08B9002049E09DF80120C2
:1053F0009DF80030202C03EB02231BB29DF8032004
:1054000098449DF8023003EB02231BB21F449DF821
:1054100005209DF8043003EB02231BB21E449DF8C7
:10542000073003F07F0301D0002BD4D198FBF4F8B0
:1054300097FBF4F796FBF4F6144BA5F800806F8009
:10544000AE809C761CE05320322106226B46FFF78B
:105450007BFE0028C8D09DF801209DF8003003EBAA
:1054600002232B809DF803209DF8023003EB0223DA
:105470006B809DF805209DF8043003EB0223AB8080
:1054800002B0BDE8F08100BF4E030020B011002043
:1054900013B502AB03F8012D4000214AC0B21070D1
:1054A000204A00201170204901220A701F4908700B
:1054B0001F490B601F490B601F4B20491A700A706F
:1054C0001F4B204A187010681A4630B383889C0519
:1054D00015D40388DB050DD447F230530488A405A6
:1054E00002D5013BFAD112E08BB103889BB243F4A1
:1054F0008073038083889BB243F44073838047F2B8
:105500003053087810B1013BFBD100E013B9FFF72D
:1055100095FC02E0107880F0010002B010BD00BFE1
:10552000B6200020B4200020BC200020B2200020A3
:10553000C0200020B8200020B5200020C42000207A
:10554000C5200020AC2000207620F42131229FE7E6
:105550007720482101229BE777205821012297E7F5
:10556000064B002193F82020054B92013432197626
:105570007720F42102F0FC028AE700BF64030020D8
:10558000B0110020034B00221A767720F4212E223E
:105590007EE700BFB011002003460A466820194686
:1055A00076E713B500222A211C20FFF771FF0E2198
:1055B00002221C20FFF76CFF0F2103221C20FFF7A3
:1055C00067FF2B2112221C20FFF762FF164A0224DC
:1055D0009369164843F0040393612023ADF8043027
:1055E00004230DEB03018DF806308DF8074002F01F
:1055F000EAFD22462C211C20FFF74AFF2D21012223
:105600001C20FFF745FF2E2100221C20FFF740FF42
:105610002A2105221C20FFF73BFF054B4FF4807227
:105620001A8002B010BD00BF001002400008014007
:105630000400002008B50F2108221820FFF728FFDA
:105640000E2218201021FFF723FF024B4FF4805247
:105650001A8008BD0400002008B5134B53201B78A6
:105660002D2108227BB1FFF713FF31210A2253209D
:10567000FFF70EFF2C210C225320FFF709FF5320C8
:105680003821902209E0FFF703FF31210A2253203D
:10569000FFF7FEFE53202C210A22FFF7F9FE40F20D
:1056A0000912024B1A8008BD4E030020040000209E
:1056B00003F026BB03F04ABC03F022BB03F046BC58
:1056C000084BDA68D10709D4DA68520708D4DB68D6
:1056D00013F0100F14BF03200420704701207047FF
:1056E000022070470020024003788B4286BF024BA5
:1056F00033F8110000207047D81100200022134613
:1057000070B5234914180C44247E83EA042308242A
:1057100013F4004F4FEA430318BF83F4815304F19D
:10572000FF3418BF83F0010314F0FF049BB2EFD1E4
:105730000132192AE5D100F1190200F11A050A44D3
:105740000D44167E2A7E02EB062292B29A421ED1A8
:105750000F4B93F83950E2B2AA4215D2431C03EB27
:105760004203DBB2CA1801330B44127E1B7E03EBEB
:1057700002239BB24FF4AF6253431B1303F54873EC
:1057800021F814300134E6E7012381F83A3070BD86
:10579000D8110020007888428CBF4FF47770002029
:1057A0007047002070470020704708B5074B03EB97
:1057B0008101C86B08F002FD054908F057FD054955
:1057C00008F04CFC08F03EFF80B208BDD811002064
:1057D0000000203F00005C4400207047024B03EBB8
:1057E0004101B1F884007047D8110020024B03EB4F
:1057F0004101B1F884007047D811002010B504466B
:1058000001F006FA41F288310E4BE4B2D3F89C2045
:10581000C3F89C00821A8A42C3F8A02084BF0022E9
:1058200083F8A42093F8A42006490F2A134418BF34
:10583000013283F8A54012BF81F8A420012381F82A
:10584000B53010BDD811002070B5054601F0E0F963
:10585000314CD4F8B830C4F8B800C31AB3F5FA5FC5
:10586000C4F8BC3082BF002384F8C03084F8C13053
:1058700094F8C0302BB9A12D02BF274A012182F82C
:10588000C11094F8C110244A29B1D118EDB20133E6
:105890000D7682F8C03094F8C05094F8C230AB4214
:1058A00039D11D4B93F8C330052B02D0062B03D002
:1058B0002CE00020FFF722FF637E1E2B26D1002064
:1058C0000246C1B26B1E994219DA21440B7E0821AF
:1058D000DBB283EA0206F60744BF83F01803C3F382
:1058E000460301F1FF3154BF5B0843F0800311F020
:1058F000FF01C2F34702ECD101301A46E1E723442D
:105900001B7E9A4202D10320FFF7F8FE002384F8A1
:10591000C13084F8C03070BDD811002010B50446E5
:1059200001F076F941F288310E4BD3F8C420C3F868
:10593000C400821A8A42C3F8C82084BF002283F8B8
:10594000CC2093F8CC200749142A134418BF013205
:1059500083F8CD4012BF81F8CC20012381F8E230DA
:1059600010BD00BFD811002038B5044601F050F931
:10597000274A2749D2F8E430C2F8E400C31AB3F545
:105980007A6F84BF002382F8E83092F8E83033B9A8
:10599000A82C3BD181F8E930A1F8EA3006E0022BCF
:1059A00002D181F8EC4001E0242B02D8D11881F813
:1059B000ED4092F8EC1001330231DBB249008B422A
:1059C000134D82F8E83018DAB5F8EA30E0B283EA2D
:1059D0000020082310F4004F4FEA400018BF80F465
:1059E000815003F1FF3318BF80F0010013F0FF0373
:1059F00080B2EFD1A2F8EA0038BD01318B4201BF7D
:105A0000002385F8E830012385F8E93038BD00BF70
:105A1000D811002010B5044601F0FAF840F6AC5158
:105A20000F4AD2F81431C31A8B42C4BF002382F844
:105A3000183192F81831D11881F8194123B90F2C77
:105A40000DD10749C1F814010133DBB2192B044908
:105A500082F818310CBF0123002381F8323110BDC8
:105A6000D8110020F8B5614B054693F83E370C4637
:105A7000012B15D1114608F0ADFC4FF07E5108F016
:105A8000EBFA0546014608F0F1FB294608F0EEFB6B
:105A9000294608F0EBFB04F100444FF07E5199E0F9
:105AA000022B5DD110464FF07C5108F0DFFB014620
:105AB000284608F08FFC4FF07E51054608F074FD33
:105AC000F8B12946284608F0D1FB01464FF07E5038
:105AD00008F0C2FA07F0DEFF0BF074FD06460F4631
