:020000040800F2
:1000000000500020BDEE00085DEF00085DEF000825
:100010005DEF00085DEF00085DEF000800000000E4
:100020000000000000000000000000005DEF00087C
:100030005DEF0008000000005DEF00081FA9000848
:100040005DEF00085DEF00085DEF00085DEF000860
:100050005DEF00085DEF00086DC300086BC300088A
:100060005DEF00082DA900085DEF00085DEF0008B6
:100070005DEF00085DEF00086DD600085DEF000839
:100080006FC300085DEF00085DEF00085DEF00083A
:100090005DEF00085DEF00085DEF000869C3000830
:1000A0005DEF000851D400085DEF000861D400083E
:1000B00045D4000835D4000825D40008E5750008AB
:1000C000E9750008DD750008E17500085DEF0008BE
:1000D0005DEF000861D6000855D6000849D6000833
:1000E00031A900085DEF00085DEF00080000000086
:1000F0000000000000000000000000000000000000
:0C01000000000000000000005FF808F1A3
:100110002DE9F04F7B4B7C4DA3B0C5F89830002300
:10012000C5F89C3008F0DEFC18B908F0FDFC0BF0B7
:100130003FFE0BF0E3FE95F8A030744C43F0010352
:1001400085F8A03000230F93109311934FF4E01320
:10015000129323686E4E43F48033B07B2360A3690F
:1001600043F01003A361236803F4003310930F9B43
:1001700001330F93109B1BB90F9BB3F5A06FF2D106
:100180002368624913F4003301D0022315E00A68A2
:1001900042F001020A600F93236803F002031093F8
:1001A0000F9B01330F93109B1BB90F9BB3F5A06FEF
:1001B000F2D123689B0739D501231193554B56493A
:1001C0001A6842F010021A601A6822F003021A60DC
:1001D0001A6842F002021A606368636063686360D1
:1001E000636843F4806363604C4B1A68043B22F0FD
:1001F00070425A604A4A1160616821F47C11616062
:10020000596841F000415960D96821F40041D96032
:100210009B681F0449BF434B4FF4E01313604FF436
:1002200080131293119B012B01D117E0FEE7022BE3
:1002300018D168B1129BB3F5801F02D14FF4A013FF
:1002400005E0129BB3F5E01F02D14FF400131293A7
:10025000129963680B4343F4803302E0636843F40C
:1002600060136360236843F0807323602168274B29
:100270008901FBD5596821F003015960596841F0A3
:10028000020159606368214903F00C03082BF9D17E
:100290004B68DFF89C8003F00C03042B03D0082B81
:1002A00003D01D4B12E0136810E04B684868C3F39D
:1002B0008343C70303F1020301D41B4905E04968E6
:1002C00011F4003F116818BF49084B43C8F80030CB
:1002D00063681649C3F303130B4493F86000D8F81E
:1002E00000300491C340C8F80030F37B003318BFDE
:1002F000012385F8A1301368074A93421AD10122DD
:100300001CE000BFE1BA0008C0000020001002405D
:10031000500600200020024000127A000410014024
:1003200024000020001BB70000093D00244B0108F9
:100330004C000020C44A934202D10222C34B1A70DF
:10034000C34BC44ADFF864A3DA60A269069342F0A3
:100350000102A261626A4FF00003C5F8A420626A3C
:10036000DFF838B342F080726262A269504642F010
:100370001C02A2614FF6FF728DF85E3022AB23F8AB
:100380002C2D194603930CF01EF8584603990CF0D7
:100390001AF8B14803990CF016F802228DF857208C
:1003A0000DF188094FF400724FF0100C29F8342D2C
:1003B0008DF856C0CDF814C05046CAF810204946F2
:1003C0000CF001F8A54903984A6842F000724A60AF
:1003D00005F00AFFA249179AA248B2FBF1F2A2491E
:1003E0000A600021182210F09EFAD8F800204FF47D
:1003F0007A71B2FBF1F29D49069B013A4A60F02204
:1004000083F8232000238B6007230B60B368DFF899
:10041000A082039FC8F80030954BDDF814C00FCBC5
:1004200087E80F00A369179843F00803A361A36945
:1004300018A943F00803A3610823CBF81030CBF8C8
:1004400010C00BF0C0FF1AA919980BF0BCFF642074
:100450000AF05BFA87480021A02210F064FAE369F1
:10046000002743F00703E361A36943F4006343F00B
:100470000C03A361CDF820A07F4B4FF0000A03F5D9
:10048000A47207F802A001370E2FF5D1FF2283F8DE
:10049000562183F8572183F8582183F85921774B47
:1004A000774AD8F800801A60764851463C2210F00E
:1004B0003AFAC8F380070523734A72481AF8021003
:1004C0000C2202FB0AF211543FB91E3901299FBFC9
:1004D000FF2103F1FF331154DBB20AF1010ABAF133
:1004E000050FE9D1694A96F805A01370684B18F01A
:1004F000020FC5F85C3103F1C003C5F86031654BEC
:100500005D4A03EBCA035B7818BF0123C2F864316C
:10051000614800211C2285F85AA110F004FA5F4BB3
:10052000BAF10E0F15934FF00203ADF858304FF0AB
:100530000103ADF85A30C5F8809103D00AF0EF03FB
:10054000082B02D1012385F87A3101200AF070F9D5
:1005500008F0010385F86E3118F0400385F86D014D
:1005600085F8707104D096F88231581E4342434199
:1005700003F0010385F86C31D5F864313E4A00334D
:1005800018BF012385F87331B6F84631B6F8441127
:10059000A5F87831B6F85231C8F30018A5F87631CD
:1005A000B6F8503185F87281B3F5FA7FA5F87C3141
:1005B00084BF0023A2F87E3196F8D23198BFA2F80A
:1005C0007E11374A85F88431002385F885315370D0
:1005D00095F87A2104999A420CBF1A4608221144D0
:1005E000D1F880200493911E1A3205910992059B3F
:1005F000DFF884B033F8026F05934FF6FF739E4225
:1006000000F0E08195F86D21F3B2360AF7B21AB125
:100610009A1E012A40F2D18195F8702132B1214908
:100620001A018958204A914200F0C78195F87191CA
:10063000B9F1000F3ED01B491A0189581A4A91425C
:1006400000F0BB8136E000BF001BB700FC2D00208E
:1006500000ED00E00005FA05001001400000014037
:1006600040420F00F82100201C22002010E000E092
:10067000944B010868010020C000002014220020D3
:100680003C080020502B002073650108550E002007
:1006900060060020C061010828020020000C014013
:1006A00045020020E060010800040040000801400D
:1006B0009005002095F86E2152B1A649089801EBEB
:1006C00003114A68824203D10A89102A00F0758119
:1006D00095F86B2152B19F49089801EB03114A68C4
:1006E000824203D10A89022A00F0678195F86C21C1
:1006F00052B19849984A01EB03114868904203D1DE
:100700000A89022A00F05981D5F880E1BEF1000F74
:1007100014D0904A02EB031CDCF80410DEF8002031
:1007200091420BD1BCF80820BEF80410914200F0B1
:100730004481BEF80610914200F03F81022E02D1A2
:100740009BF8682103E0012E04D19BF86921002A5F
:1007500000F033819BF873217E4E4FEA03186AB193
:100760007E4A92F87A214AB9A3F10802012A05D8F3
:1007700056F808207A498A4208BF04279BF874215A
:1007800046446AB1754A92F87A214AB9B9F1000F24
:1007900002D00C3B012B01E0043B032B40F2F6801E
:1007A000012F49D1DFF8ACC1FF238BF8CC318BF896
:1007B000CD310CEB08035A7B586803F1080A1B89FA
:1007C0004FF00009ADF85C3017A902238BF8D091E7
:1007D000CBF8DC618DF85F30CDF818C08DF85E2065
:1007E0008BF88891CBF88C91CBF89091CBF89491C1
:1007F000CBF8C8918BF8CE918BF8CF910BF0E3FD3D
:10080000DDF818C09AF802105CF808004A4608F0B3
:1008100014F9304649463A460CF0ECFE514B524929
:10082000CBF8E031514BCBF8E891CBF8E4313046CE
:100830000A1D0CF01DFEC0E0022F51D19DF81030B2
:100840001C214B430693069A444B9DF8101003EB72
:10085000020A404B8AF8D11103EB08020A9302F115
:10086000080359794FF000094FF0010C50681289C4
:100870008AF8D0C18DF85E108AF8D29117A98AF84B
:10088000DA91CAF8DC61CDF82CC00793ADF85C2092
:100890008DF85F700BF097FD0A9B4A4653F80800ED
:1008A000079B997808F0C9F8DDF82CC030466246FD
:1008B00049460CF09FFE2E4A284BCAF8E0212D4AEB
:1008C000CAF8E891CAF8E421069A3046991801F569
:1008D000F0710A1D0CF0CCFD049B013304936CE015
:1008E000032F51D19BF86F31DFF870809BF8867130
:1008F0002BB1304608214FF6FF7200231CE0B8F8F8
:100900007C21B2F5FA7F0FD91B4B3046B3FBF2F2D4
:100910000821B8F87E3192B20BF087FD08EB87070B
:10092000C7F8B002154B0EE0154B3046B3FBF2F2A0
:10093000B8F87E31012192B20BF077FD08EB870702
:10094000104BC7F8B002C3609BF8863101338BF8B7
:10095000863132E0E0600108000C0140C000002058
:10096000002C0140C1830008A002002099840008E7
:10097000758A00089783000800127A00B98400087D
:1009800040420F00A9840008042F16D1BBF876213D
:10099000704B304693FBF2F20121BBF8783192B2F2
:1009A0009BF885710BF041FD9BF885310BEB8707B8
:1009B0000133C7F8E0028BF88531059B099A934211
:1009C0007FF415AE95F8A030634E43F0040385F82C
:1009D000A03033784FF48052022B34BF14231023FD
:1009E0008DF85E304FF002038DF85F30A369ADF8EB
:1009F0005C2043F00403A36134BF00250125574860
:100A000017A90BF0E0FC564B0DB1564A00E0564AD0
:100A100000201A6009F08EFF544B554D93E80300F7
:100A2000039B4FF0030883E80300A369179843F082
:100A30000803A36118A90BF0C6FCE369284643F438
:100A40008043E3612369039943F4804323611823BE
:100A50008DF85E304FF42043ADF85C304FF0040960
:100A60008DF85F800BF0AFFC4FF48043284603996C
:100A70004FF48057ADF85C308DF85E900BF0A3FC1E
:100A80001023039928468DF85E30ADF85C700BF0AA
:100A90009AFC2369374A43F4804323612369322057
:100AA00023F480432361138803F4415343F44573D3
:100AB00043EA08031380938B23F400631B041B0C8D
:100AC00093830723138213889BB243F04003138060
:100AD0009F232F618DF8503000238DF851308DF811
:100AE00052308DF8533009F010FF4A466F61039879
:100AF00014A90CF0F3FD2F619DF85E309DF85D2088
:100B00001B0243EA02439DF85F2013431A4A9342B3
:100B100012D0322009F0F9FE6F61F5200CF014FEBE
:100B2000FF200CF011FE70282F6105D13378022BC5
:100B300004BF094B83F800803378032B0CBF1F20C0
:100B4000022009F049FE3378032B17D001200AF068
:100B50005FFB18E040420F00FC2D00200008014020
:100B6000E42D0020C5A60008D9A60008B44B010852
:100B7000000C01400038004015202000022009F040
:100B800057FE0028E2D07C4C7C4B4FF010092046E9
:100B900000214A461F6836780FF0C5FE4FF6FF73F6
:100BA000ADF8503002238DF852304FF0000817F0A6
:100BB000010307F040058DF853800DD0704814A94B
:100BC000ADF8509005F0C2FC0423237007220123E6
:100BD00084F80180A370E2701F469DF8393073B12C
:100BE0000223674814A9ADF8503005F0AFFC01238B
:100BF000FA182371A37107236771E371D7B2012E2D
:100C00000FD920235E4814A9ADF8503005F09EFCA2
:100C1000052301222372A2727B1C07226772E272F3
:100C2000DFB27DB10223574814A9ADF8503005F06A
:100C30008DFC092301222373A2737B1C0722677397
:100C4000E273DFB2504E51487368002543F44043CD
:100C50007360736943F001037361B36943F4007314
:100C6000B36105F049FA4A4B012F1793494B04969B
:100C7000189394BF2B4680231C934FF480731D93CD
:100C80004FF48063A6F6F8761E9320231F9317A9CE
:100C90004FF400533046209319951B9521951A97D0
:100CA00005F00CFA33683C4943F0010333604A68AD
:100CB000012F22F4702294BF0023012322F48072BA
:100CC00042EA03224A608B68344A1A4042F46022A6
:100CD00042F002028A60CB6A23F470027B1EDBB210
:100CE00042EA0353CB62012362199178002965D04F
:100CF000605D591C0928C9B2D278274F10D9A0F1DC
:100D00000A06D7F80CC006EB46064FF0070E0EFA9F
:100D100006FE2CEA0E0EB2404EEA0202FA600CE029
:100D20003E6900EB400C4FF0070E0EFA0CFE26EA6F
:100D30000E0602FA0CF232433A61062B164E0CD81C
:100D4000013B776B03EB83031F229A4027EA0202E1
:100D500000FA03F3134373632FE00C2B20D8DA1F40
:100D6000376B02EB82021F23934027EA030700FA46
:100D700002F33B43336320E0201A0020900500205B
:100D800000080140000C0140001002400800024031
:100D90004C240140301A002000240140FDF7F1FFEF
:100DA000A3F10D02F76A02EB82021F23934027EAA8
:100DB000030700FA02F33B43F3620B460435102DA0
:100DC00092D1BE4B9A6842F480729A609A6842F05F
:100DD00001029A609A6842F008029A609968B74ADC
:100DE0000907FBD4936843F004039360B34B9A68FC
:100DF00012F004020392F9D19A6842F4A0029A60B8
:100E0000AF4BB3F85801002841F02C82B3F95A21B6
:100E1000002A41F02782B3F95C31002B41F0228295
:100E2000A84BA94E1B68A64C13F0800F23D0C820F6
:100E3000B4F83C5709F069FDAE200BF0B1FD08B1E4
:100E40000BF0B3FD86F80003C82009F05EFDA6F89C
:100E500008539E4D9E4B00210C222846C6F80433B1
:100E60000FF061FD0223EB7006F00AFE09F026FD8B
:100E7000984B0344AB60B4F860310021059394F8BB
:100E800067310C220693944B94481B6894F85E518A
:100E9000B3F8563094F868410793914F0FF043FD33
:100EA000002110228F480FF03EFD8F4B97F80090E5
:100EB00003F11802B9F1010F94BF99469146DFF88A
:100EC00008824FF0000A51460C2286F80AA308F562
:100ED000437088F80BA30FF026FD2320C6F8189363
:100EE00009F013FD752001210DF1370206F076F8A7
:100EF000B0B17E4B5046C8F810337D4B0121C8F885
:100F0000143313AA432388F80C3306F067F89DF8CE
:100F10004C3003F07E038DF84C30002848D150E06F
:100F200098F81C3373BB049B049A9B69DFF8E89123
:100F300043F00803936110238DF85E304FF4805A1C
:100F40000323484617A98DF85F30ADF85CA00BF07D
:100F50003AFA684AC9F810A0138823F040031B042A
:100F60001B0C1380138823F038031B041B0C43F065
:100F70000803138013889BB243F0400313800123BE
:100F800088F81C337520012117AA06F07DF99DF819
:100F90005C30702B5AD1052386F80A33432386F838
:100FA0000C33554BC6F81033544BC6F814334DE090
:100FB000682B06D1012388F80A331D2388F80C33E7
:100FC00044E09DF8373003F07E03682B8DF837300E
:100FD00037D10223062086F80A330146D6F81033AB
:100FE00017AA98479DF8611001F001029DF85F1063
:100FF00001F001014B0043EA82019DF85D2002F0FF
:1010000001030B430AD05BB2012B01D1002302E0A4
:10101000022B0FD1012386F80B3317E02A4B0C204B
:10102000D3F81033012114AA98479DF8503013F0DB
:101030000F0303D1032009F0BFFC07E0042BE9D123
:10104000E4E7702B04BF042386F80A33002386F8F4
:101050001D3396F80A331C49022B0BD1214A28482C
:101060001060284850602848D060012281F81D2374
:1010700000F005BE012B0DD11A4A244881F81D331A
:101080001060204804235060214890601E48D060C2
:1010900000F0F5BD043B012B0CD8124B1D4A1A6021
:1010A000184A5A60184ADA60012381F81D33072371
:1010B00000F0E5BD012009F07FFCA2E00024014022
:1010C0005006002090050020C0000020742200205F
:1010D000D6070020404B4C00BC0D0020101A002009
:1010E000FC2D002068210020244B0108DD6F000842
:1010F000B97100080038004089720008B572000814
:1011000099740008FD6D000890C1793DD572000802
:10111000C56D0008D5730008000C0140012C41F09A
:101120008280AA4D2B68990702D5A94B1B68984766
:10113000A84B05981B689847A74B069C1F78A74BA0
:1011400003F11802012F94BF1F461746A44A00233B
:1011500013709046002C41F06F80A24A4FF00009B6
:1011600022ABC2F8907303F82C9D1E200A210122A5
:101170000AF0BCFA002801F063809DF85C30482B2F
:1011800041F0F780984B994A1A60994A5A600323B4
:1011900088F80030974B0222DA702B6843F008037E
:1011A0002B60954B93F8542112B18E4981F81D2381
:1011B00093F855210AB191490A7093F856310BB151
:1011C00088F800302B688E4D13F0080F01F03A803C
:1011D000BDF91C80642798FBF7F420460DF050F809
:1011E000814607FB148000B20DF04AF885490DF0E6
:1011F0009BF8014648460CF08FFF83490DF094F8A8
:101200002860784C102294F8A0300A2543F002039D
:1012100084F8A0307D4B5A6108221A617B4F192057
:10122000FB68013D83F01003FB60FB6883F008035B
:10123000FB6009F06AFB012009F07CFB192009F032
:1012400064FB002009F076FB15F0FF05E6D10823CA
:101250003B6110255D4B3D611A68994612F0080FFD
:1012600007D0614B7D611B689847694B01223D6146
:101270001A70DBF89433674D187B0DF001F866495E
:101280000DF052F80AF07AFD074628880CF0F8FFB6
:1012900039460DF049F810F003FBABF898032888A5
:1012A0000CF0EEFF01465D480DF0F2F85C490DF0E0
:1012B000EFF8484BCBF89C035749D8680DF034F849
:1012C00058490DF031F84C4D574FB5F84E31574A4B
:1012D000CBF8A003386805F5C371ABF8A833B5F8AF
:1012E00094E1002313809370CBF8A41300F17902EA
:1012F000CBF8AC138BF8B03305950697039B4C4D98
:101300004C49039F21F813E02B68DFF838C103F53F
:1013100096734CF827303B460133122B0393AA46B1
:10132000ECD1C9301378DBB99578D3789D4217D2C8
:1013300045B105F1FF3E0EEB8E0E0EEB8E0E0EF557
:10134000617306E0013303EB830303EB830303F5CF
:10135000617392F801E09BB20EF1040E21F81E3089
:1013600004328242DED1344A1378043B5370334B4B
:101370001A689B4612F0080F00F0A080194D4FF03C
:1013800000082F4B4146152205F58460C4F8FC3354
:10139000039384F80184C4F80484C4F808840FF02B
:1013A000C2FA039B4046053BC4F838340BF0E2FE1A
:1013B000DAF800300220C4F80C3409F05DFA002895
:1013C00042D108200AF0E4FC70E000BF9C05002038
:1013D000101A002068210020FC2D0020544B010829
:1013E000FE2D0020C000002048110020D9C60008B2
:1013F000D1C200084500002050060020F82D002032
:10140000F41100208988883C00002041000C014034
:101410008C1100200400002035FA8E3C0AE81C41A3
:1014200000401C46BD378635BC0D0020D01A002078
:10143000D82D0020DA0D0020D80D002090050020C6
:101440003C0800207404002095F8013490F805E071
:10145000C1490C2202FB031292F89920724504D074
:101460000133DBB2042BF3D9002384F80134059B4C
:1014700094F8012493F8E73190F90000002B4FF025
:101480000C0303FB021393F899204FF00003009321
:101490004FF0020114BF032301230BF03DFDC4F8FC
:1014A0003C0400288DD001200BF064FE069B1868D8
:1014B00000F5C573C4F840340BF0ACFEA74B049A9A
:1014C000C6F84434049B4FF001089B69282743F079
:1014D00001039361A248032313A98DF84E708DF880
:1014E0004F300393ADF84C800AF06DFF4FF00203CC
:1014F0009B4813A9ADF84C308DF84E700AF063FF8D
:10150000414640460AF04AFF964A02235361179328
:101510004FF01003002717A88DF861308DF8607028
:101520008DF8628004F0D4FF039B072214A88DF885
:1015300050208DF851308DF852708DF853800CF09A
:10154000AFF8DAF800304FF0FF323C3BC6F84834D1
:10155000D9F80030844D43F01003C9F80030834BB4
:101560001A60DBF800309A0640F1B282D5F84C647C
:101570007F4B04201E6009F07FF904218246C5F8E4
:10158000500409F06FF97B4B834685F8540408201A
:101590001E6009F071F9784B0821186009F062F9B2
:1015A000DFF8E891394685F855042C2248460FF0BB
:1015B000BAF98E227C234FF07D0C89F80120E022BD
:1015C00089F8003089F8032089F82BC0DFF8C09132
:1015D0002C22394648460493CDF80CC00FF0A3F9ED
:1015E000049BDDF80CC089F800308A2389F80130AB
:1015F0001020A02389F82BC089F80330C5F858645F
:1016000009F03AF91021C5F85C0409F02BF985F8C6
:1016100060042020C5F8646409F02EF92021C5F883
:10162000680409F01FF985F86C044FF48070C5F860
:10163000706409F021F94FF48071C5F8740409F061
:1016400011F985F878044FF40070C5F87C6409F04E
:1016500013F94FF40071C5F8800409F003F9474B02
:1016600085F884044FF480601F70C5F8886409F021
:1016700003F94FF48061C5F88C0409F0F3F8404B8E
:1016800085F890044FF400601F70C5F8946409F069
:10169000F3F84FF40061C5F8980409F0E3F885F811
:1016A0009C044FF48050C5F8A06409F0E5F84FF4AD
:1016B0008051C5F8A40409F0D5F885F8A804584667
:1016C00085F8A97406F024F92E4E814633782A4F06
:1016D000834220D0B8B1BAF1000F1CD0244B9AF944
:1016E00000001B6804215B784FF41652003318BFCA
:1016F0000123009302230BF00FFCC5F8AC0450B19A
:1017000086F8008007E0D5F8AC0409F07DF8C5F84C
:10171000AC9486F8009094F8550406F0F9F8DFF8D8
:101720007480054698F8003083423CD0A0B33B68F3
:10173000002B38D093F900000023009308210123E7
:101740004FF496420BF0E8FB0F4B186058B301239F
:1017500088F8003027E000BF244B0108F84B01084F
:10176000000C014000040140C0000020000E0020D9
:1017700098050020E8050020340600209D0E00207A
:10178000BD0E00208005002024060020B8050020A2
:10179000ED050020B0050020A24E306809F034F8B5
:1017A000356088F8005094F8600406F0B1F89E4F58
:1017B0009E4D3B788146834256D0002835D0D5F8DF
:1017C0005C24002A50D0D37992F900000022002B2B
:1017D0000092974A08BF052352F8232010210223C4
:1017E0000BF09AFB934B0646186000283CD094F807
:1017F0004A30022B0BD095F89620022A01D14C35A5
:1018000005E023B1002A05F14C0518BF00258A4BDD
:101810001D6045B1284600214C220FF084F80223B8
:101820002E6085F84A3001231DE0824E2B68D6F8E1
:101830000080434507D1404608F0E6FF2846494668
:101840004C220FF070F8E36C434507D1404608F096
:10185000DBFF7A4800214C220FF065F8306808F071
:10186000D3FF002333603B7094F86C0406F050F80B
:10187000734F6E4E3B780546834227D0F0B1D6F8C1
:1018800068341BB3D6F8642493F90000527803231C
:10189000002A0CBF08220922009220214FF4614245
:1018A0000BF03AFB674B186080B1674A0123137055
:1018B0003B70664B1A68664B1A6007E0614E3068F1
:1018C00008F0A2FF604B35601D703D7094F87804FD
:1018D00006F01EF85F4E554F33780546834221D0FF
:1018E000D0B1D7F87434EBB1DA7993F90000D7F8B6
:1018F00070344FF480715B78003318BF012300937C
:101900004B4B53F8222002230BF006FB524B18607E
:1019100040B10123337005E04F4F386808F074FF81
:101920003D60357094F8840405F0F2FF4B4F3F4D55
:101930003B780646834222D0D0B1D5F88034F3B14B
:10194000DA7993F90000D5F87C344FF400715B78B4
:10195000003318BF01230093354B53F82220022394
:101960000BF0DAFAC5F8B00448B101233B7006E089
:10197000D5F8B00408F048FFC5F8B0643E7094F89C
:10198000900405F0C5FF364F284D3B78064683424C
:1019900022D0D0B1D5F88C34F3B1DA7993F90000C4
:1019A000D5F888344FF480615B78003318BF012389
:1019B00000931F4B53F8222002230BF0ADFAC5F819
:1019C000B40448B101233B7006E0D5F8B40408F034
:1019D0001BFFC5F8B4643E7094F89C0405F098FFB2
:1019E000204F05463B78834246D000283ED00F4B1F
:1019F000D3F89824002A3FD0D37992F9000000222E
:101A0000002B00920A4A08BF052352F823204FF406
:101A1000006102230BF080FA134B186060B30123BE
:101A20003B7029E0240600203A060020C000002078
:101A3000905C01083C060020400600200C010020BC
:101A40005C0E0020600E0020640E0020D82D0020C7
:101A5000680E00206F0E0020780E0020940E0020EB
:101A6000B40E0020CC0E0020D00E0020AB4E30680B
:101A700008F0CAFE35603D7094F8A80405F048FFF0
:101A8000A74EA84F33780546834221D0D0B1D7F86E
:101A9000A434EBB1DA7993F90000D7F8A0344FF40D
:101AA00080515B78003318BF012300939E4B53F89D
:101AB000222002230BF030FA9C4B186040B1012326
:101AC000337005E0994F386808F09EFE3D60357030
:101AD000974B984D1B78022B64D1974A00261388A8
:101AE000322023F040031B041B0C138013884FF497
:101AF000805723F038031B041B0C138013889BB200
:101B000043F0400313809F238DF850308DF85160CF
:101B10008DF852608DF8536008F0F7FE8DF85D6027
:101B2000864E0422776117A814A90BF0D7FD376100
:101B30009DF85E309DF85D201B0243EA02429DF84D
:101B40005F3013437E4A934219D00AD8A2F51A4255
:101B5000033A93420CD002F51A420232934209D062
:101B60001BE0784A934205D00132934207D014E03B
:101B7000202300E080232B804FF4807302E04FF499
:101B800080732B806B80AB882A881B02AB60534329
:101B9000EB60012384F8B83404E000232B806B80D1
:101BA000AB60EB60ED681DB3ED0A2F464FF0000807
:101BB000A8450BDA08EB050676100DF15C09F0027A
:101BC000494610220AF092FE0F2805DC0BF072FB4A
:101BD0005D4BFF021F600BE0002359F82320013208
:101BE00040F03C830133042BF7D137463546DFE71D
:101BF00008F064FE554B1860554B5A791E46052A6D
:101C000004BF4FF4C873A4F8BA34524B4FF47A723D
:101C10001A80514BC8221A80504A137843F00803A7
:101C200013704F4A137823F0020313704D4A136860
:101C3000154613F0410F0DD04B494C4A11604C4AE8
:101C4000032111704B4A012111704B4900220A8077
:101C50004A490A801B0604D5494B02221A7105F035
:101C600071FEB3682B60012384F8BC3494F8A03073
:101C700063F07F0384F8A03023B0BDE8F08F414AC1
:101C80004149904613700B6843F001030B603F4BD2
:101C900000221A70082D00F2CB80DFE805F00BC996
:101CA0000B2983A229B9B900012D40F2CC80374B12
:101CB00000251D703B78012B1AD84FF0000922AB8C
:101CC00003F82C9D53204946012209F00FFD78B1FD
:101CD0009DF85C30E52B0BD12D4B2E4A86F81E93D8
:101CE0001A602D4A5A60294B04221A700223A3E07D
:101CF00096F80A33022B55D1254B284A1A60284AF8
:101D00005A60084A92F80B23002A0CBF6F226E22F9
:101D10001A721E4B01221A7003238DE0D00E002090
:101D2000D90E0020C0000020905C0108800F002028
:101D3000FC2D00200800002000380040000C01406D
:101D400018BA20001740EF00580E00204011002064
:101D500050060020F42D0020F62D0020A0050020C4
:101D6000F92D002090050020C80700208C050020D8
:101D7000EC050020400000209C1100209E11002056
:101D800074220020450000209C050020F82D002032
:101D9000101A0020E971000893700008017500080E
:101DA000456E00083B78012B1BD8002222AB03F8BC
:101DB0002C2D1C200D21012209F098FC88B19DF8E2
:101DC0005C302A2B01D01A2B0BD1CF4ACF4986F891
:101DD0001F331160CE49CF4B516002221A70042389
:101DE0002AE0002122AB03F82C1D1820012209F063
:101DF0007DFC68B19DF85C30FB2B09D1C24BC64A13
:101E00001A60C64A5A60C34B01221A70052313E0B8
:101E100096F80A33043B012B3FF646AFBA4BC04A53
:101E20001A60C04A5A60BB4B01221A70082303E0B3
:101E3000012D08D900252AE7BB4A88F8013013682C
:101E400043F0020313603B78012B05D10BF0A2FC99
:101E5000B64B4FF400525A61042C3FF65FA901A320
:101E600053F824F0791E000823110008371F0008DA
:101E7000791E0008892100080A2008F046FD772015
:101E8000A021012214AB09F031FC002853D01E21FF
:101E90000122772009F068FC4FF42F6008F02AFD3A
:101EA0000025A5F160010024C9B2022217AB7720FA
:101EB0008DF85C408DF85D4009F018FC9DF85D30B0
:101EC0009DF85C2043EA0222994B03F548716A525F
:101ED0000235102DE5D1B3F82E13012501F00F00C6
:101EE00001F47F41A3F82E13234623F0010232446C
:101EF000B2F82023002A18BF0025DF0703D5D2B28D
:101F00005440082202E084EA1224FAE7270448BF7A
:101F100084F4C054013A4FEA4404F7D10133102B42
:101F2000E3D10143824AA6F82E1325B9C4F3033343
:101F3000984200F0628196F830537D4C002D40F0BD
:101F400016827A4F0BF026FC4FF028094FF4804898
:101F5000384614A9ADF850808DF852900AF033FA43
:101F60004FF400533B614846724908F06FFD0E2163
:101F700002200AF013FA0823CDF85C8017A84FF06E
:101F800001088DF861308DF860508DF8628004F0A2
:101F90009FFA8DF84C9013A84FF003098DF84D90DF
:101FA0008DF84E508DF84F800BF07AFB142008F01E
:101FB000ACFCD0217720424614AB09F097FB3946A0
:101FC000002800F0C5809DF85030A4F85493552B9C
:101FD00084F84B3340F0BC80D121424614AB7720CB
:101FE00009F084FB9DF85030772003F00F021B09A5
:101FF00084F84C2384F84D33162217ABAA2109F03C
:1020000075FB9DF85C209DF85D3043EA0223A4F83F
:1020100034339DF85E209DF85F3043EA0223A4F834
:1020200036339DF860209DF8613043EA0223A4F81E
:1020300038339DF862209DF8633043EA0223A4F808
:102040003A339DF864209DF8653043EA0223A4F8F2
:102050003C339DF866209DF8673043EA0223A4F8DC
:102060003E339DF868209DF8693043EA0223A4F8C6
:1020700040339DF86A209DF86B3043EA0223A4F8B0
:1020800042339DF86C209DF86D3043EA0223A4F89A
:1020900044339DF86E209DF86F3043EA0223A4F884
:1020A00046339DF870209DF8713043EA0223A4F86E
:1020B000483341F27073A4F8583346F67813A4F805
:1020C0005A331D4BC4F85C331C4BC4F860331C4BB3
:1020D000C4F864331B4BC4F868331B4BC4F86C332F
:1020E00094F8303343B905F05DF842F6E06008F04B
:1020F00001FCBD68C5F38035144B01221D700C4BEB
:1021000083F8302333E100BF101A00202D7500083A
:10211000F36F0008F82D0020C57100084D7000080D
:1021200085740008456E00089C05002000100140E1
:10213000C000002041720008A5710008A96F0008C6
:102140007F7100085D6F0008E96C00080000002046
:102150008C4A136823F48043136000238A4A8B4D12
:1021600002EBC3046068A84208D112F933002828A2
:1021700004D10020606002F8330002E00133032B39
:10218000ECD14FF400534B61814D95F87043002C16
:102190005CD1142008F0B9FB05F271337620D02110
:1021A000012209F0A3FA95F87133582B7EF4B9AFE8
:1021B00005F55D7388211822762009F097FA7620BC
:1021C000F421312209F0D0FA012385F87033714BE4
:1021D000A5F85843C5F860336F4BC5F85C3345F636
:1021E000D813A5F85A336D4BC5F864336C4BC5F85A
:1021F00068336C4BC5F86C3328E042F21073A2F8D8
:102200005833A2F85A33684B0324C2F85C33674B47
:10221000C2F86033664BC2F86433664BC2F8683369
:10222000654BC2F86C33654B654A9C70136843F08C
:1022300004031360FEF775BF022C09D1FEF78DBFB2
:10224000814696E000232B60FEF7DBBF0424EAE71B
:10225000012C7EF6A6AF1C46FEF778BF06F10108FA
:102260002E46C3E4574B00221A7000B20CF008F857
:1022700055490CF059F8554C0646B4F95A010BF083
:10228000FFFF51490CF050F80546B4F95C010BF022
:10229000F7FF4D490CF048F80446304609F06EFD52
:1022A0008046304609F0F6FC0646284609F066FDF1
:1022B0000746284609F0EEFC0546204609F05EFD7B
:1022C0008246204609F0E6FC4146814650460CF025
:1022D0002BF84146059048460CF026F851460690EA
:1022E00030460CF021F84946079030460CF01CF8B7
:1022F0003946089050460CF017F8354C4946206096
:1023000007F100400CF010F829466060A5600798BE
:102310000CF00AF8014606980BF0FEFE2946E06034
:1023200008980CF001F8014605980BF0F3FE3946C9
:10233000206106F100400BF0F7FF29466061059827
:102340000BF0F2FF014608980BF0E4FE2946A0616D
:1023500006980BF0E9FF014607980BF0DDFE4146B9
:10236000E06138460BF0E0FF2062FEF759BD022421
:1023700059E7012C7EF615AF002488F80090FEF78F
:10238000ECBE00BF00040140F821002041720008AB
:10239000C0000020296B00082B6B00086171000849
:1023A000C96E000869690008757100084D6F000862
:1023B0006B7100083D6F00082D6B00084500002080
:1023C0009C0500201800002035FA8E3C50060020A5
:1023D000581100202DE9F04FAE4CA5B02378002B0A
:1023E00000F09C81AC4E63683268D31A7C2B40F2BB
:1023F0009581237A6260013323722425284605F0F3
:102400003BFAA64B013518880BF03AFF0146002035
:102410000CF03EF8A2490BF087FF0CF04BF9EDB23F
:1024200000B205F017FA272DE8D1302005F024FA84
:10243000002005F00FFA05F017FA257A15F00305CC
:102440001FD1944B5A6841F288339A420BD910201D
:1024500005F012FA284605F0FDF9212005F00CFAE6
:10246000284605F0F7F9142005F006FA002005F0DB
:10247000F1F91C2005F000FA002005F0EBF905F059
:10248000F3F9257A15F0070540F02581022005F0C3
:10249000F3F9284605F0DEF9032005F0EDF9814B4C
:1024A0001B7859075DBF7B4B0520DB68284658BF6A
:1024B0009B89784D5CBFB3FBF0F000B205F0CAF920
:1024C0002369DA075BD5DFF8F491AA8A99F800301E
:1024D0004FF0640808FB02325B00B2FBF3F3EF8AB3
:1024E00006203F01BFB247EA0327BFB2C3F303236D
:1024F0001F4305F0C1F938B205F0ACF9EB8A99F841
:10250000001001339BB293FBF1F201FB1233EB821B
:10251000AB699B7B012B05D1392005F0ADF9B5F9ED
:10252000140019E0AD8A6E235D43152795FBF7F57E
:102530003A20AFB205F0A0F9B7FBF8F528B208FBD6
:10254000157505F087F93B2005F096F9A8B2451DF1
:102550000A2095FBF0F000B205F07CF9282005F088
:102560008BF9002005F076F9042005F085F9E36881
:10257000988910B104F05EF800B205F06BF9E369D8
:10258000444F9B0640F19C8097F820309D071BD557
:10259000112005F071F9788C4FF4F3656843424BD4
:1025A00090FBF3F000B205F055F9192005F064F93D
:1025B000788C4543642095FBF0F595FBF0F300FB28
:1025C000135000B205F046F994F82030A58C13F0B2
:1025D000020F08BF0025012005F04EF928B205F0D2
:1025E00039F9092005F048F9002005F033F92F4B9F
:1025F00094F826501A88B2F5967F0AD9254B1B7A93
:1026000003F00F03072B04D842F20F75954228BF41
:102610001546052005F030F9A3695B7B0BB928B29C
:1026200016E0A5F120000BF02BFE21490BF030FF46
:10263000002105460CF016F810B94FF07C5101E06E
:102640004FF03F4128460BF067FD0CF033F800B225
:1026500005F000F994F820200E4B900703D493F86E
:102660002720012A04D1012384F8273011482EE0C5
:102670009D69114968680BF057FE0CF01BF80E4974
:102680000490A8680BF050FE0CF014F8059004A814
:102690001DE000BF80050020D82D00200400002090
:1026A00000007A44F92D0020A0860100420000209D
:1026B0006666E63FA80500208096184B4000002083
:1026C000AC4A04AB92E8030083E80300184605F027
:1026D000E3F805F0C9F8237A282B1FD1A64B002276
:1026E0001A7233684FF47A70B3FBF0F73C26172068
:1026F00005F0C2F8B7FBF6F5B5FBF6F006FB105097
:10270000000200B205F0A6F8182005F0B5F806FBA7
:10271000157000B205F09EF805F0A6F894F8303078
:10272000954D002B00F0488108F0C8F86B6B934A78
:10273000C31A9342064640F2B780002385F83A3028
:1027400085F83C30AB8A8E49DAB21B0A85F85620F0
:1027500085F8573085F84C2085F84D306A6E0B6847
:102760009A1AAB6ED87B4FF47A7343439A420CD3D8
:102770000B686B6695F86C30013B012B9FBF1023F3
:1027800085F83A30022385F83C30002394F8201075
:1027900084F8543084F8553084F8583084F859302F
:1027A00094F826308907744A84F8873003D42D239F
:1027B00082F8883077E0D4F82890E56A7148DFF82D
:1027C000D0C199FBF0FA95FBF0F00CFB0A980CFBDA
:1027D000005C042B8CBF3323322382F8883006221E
:1027E00002FB08F802FB0CFC674B4FF0640E98FBF1
:1027F000F3F19CFBF3F203FB118803FB12C393FB81
:10280000FEF30AEB8A0A4FB20AEB8A0A07EB8A0147
:1028100089B284F8771000EB8000090A84F87810F8
:1028200000EB800051B201EB800292B284F87C2070
:10283000120A84F87D2084F87E30628C1B1284F8A2
:102840007F30242353434FF47A7293FBF2F384F8DE
:102850007430C3F3072384F87530B4F89A300A2231
:1028600084F880301B0A84F88130A38C98FBFEF832
:10287000B3FBF2F303F5FA739BB284F882301B0AC0
:1028800084F88330B4F89C304FEAD97984F87980A1
:10289000ED0F4FEA282884F8769084F87A8084F83F
:1028A0007B5084F88930666394F89E80324DB8F18D
:1028B000000F0DD1D5F8A40008F0ECF8012807D9D5
:1028C0000228324F01F0A48304F0B6FF0123BB704D
:1028D000D4F8A850284B002D6ED093F89E203AB122
:1028E00040F6B731D3F8B020B21A8A4216D863E066
:1028F000012283F89E20D3F8B420D3F8A4001278E4
:10290000022A04D80430022104F080FF02E00221F0
:1029100008F0B4F8002384F8B8304BE093F8AC200A
:10292000AAB9C3F8A82083F89E20D3F8B420D3F81E
:10293000A4001278022A04D80430012104F066FFB2
:1029400002E0012108F09AF804F076FF32E0013A43
:10295000D2B283F8AC2093F8B81093F8B900CAB992
:1029600001304A1C83F8B90083F8B820D3F8A400DA
:102970001EE000BF30510108800500203F0D03001C
:10298000D82D00208096980040420F0004000020BF
:10299000806967FF2A4612F8017B01307D183946AD
:1029A00083F8B900D3F8A40083F8B850C3F8A8207E
:1029B00008F073F8C4F8B06094F8BA30E24E002B17
:1029C00000F0AF85D6F8BC30002B00F0AA85D6F811
:1029D000C030002B00F0A585C6F8C4301B68DB4F63
:1029E000C6F8C830D6F8CC303B441D7A642D00F0D0
:1029F000D18100F2B780342D00F089834ED8222D8A
:102A000000F0648322D8032D00F0828113D8012DB9
:102A100000F04B81022D40F07685042003F078FF12
:102A2000432003F063FF4C2003F060FF462003F0D7
:102A30005DFF4C2069E1042D00F07481052D40F00C
:102A400062851A2003F064FF00258BE1282D00F039
:102A50005B8414D8242D00F05184262D40F053853A
:102A6000062003F055FFB4F8280203F06BFFB4F81A
:102A70002A0203F067FFB4F82C0200F042BD2C2DAF
:102A800000F05484322D00F09D842A2D40F03B85C7
:102A9000012003F03DFF94F8D50036E1422D00F00F
:102AA000A18427D83A2D00F0178217D8362D00F0D0
:102AB000BB84382D40F02785042003F029FF94F8CB
:102AC000480203F013FF94F84C0203F00FFF94F850
:102AD0004B0203F00BFF94F84D0216E13B2D00F082
:102AE000D582402D40F00F85082003F011FF00250E
:102AF00000F06EBC472D00F0B08423D8452D00F0C7
:102B0000DD84462D40F0FF840D20914D03F000FF41
:102B100009F012FF03F0EAFEA88803F01CFF286901
:102B200003F019FF94F8D70894F8D63898422ABFD2
:102B3000C31AC3F1800300200344D4F8D808184412
:102B400000F0CBBC4B2D00F00F844D2D00F01A840B
:102B5000492D40F0D884022003F0DAFEB4F8DC00FE
:102B600000F0CFBC722D00F0F78255D86A2D00F02E
:102B7000448339D8672D00F01C8126D8652D00F0DC
:102B80009F80662D40F0BF84122003F0C1FE00201C
:102B900003F0D8FE002003F0D5FE002003F0D2FEA3
:102BA000002003F0CFFE002003F0CCFE002003F055
:102BB000C9FEB4F8240803F0C5FEB4F8260803F0F3
:102BC000C1FEB4F8280800F09CBC682D00F06581B7
:102BD000692D40F0988494F858080025400000F0D2
:102BE000FE0003F095FE64E16D2D00F06E8109D8C2
:102BF0006B2D00F01E836C2D40F08584062003F0C1
:102C000087FE73E36F2D00F07881C0F06B81702D2B
:102C100000F0A38100F077BC782D00F0D68013D8A7
:102C2000752D00F0278204D8732D00F0DB82742DFF
:102C300003E0762D00F00D83772D40F064840020B2
:102C400003F066FE00F05FBCA42D00F0248314D8CE
:102C50007C2D00F04584A02D40F055840C2003F01D
:102C600057FE3C4B186803F076FE3B4B186803F0A8
:102C700072FE3A4B186800F030BCF12D00F0E7808E
:102C8000FE2D00F02D83F02D40F03D84042003F054
:102C90003FFED4F83C38B3F85A0003F053FED4F8A2
:102CA0003C38B3F8580000F02CBC032003F030FE91
:102CB000002003F01BFE284603F018FE0E2024E03F
:102CC0000B2003F025FEB4F8200803F03BFEB4F817
:102CD000220880B203F036FEE369C3F3C000C3F3F9
:102CE0008002800040EA4200C3F340021043C3F375
:102CF000401240EAC20003F01003184303F022FE22
:102D0000002003F028FE94F8C00703F0EFFDFAE37B
:102D1000032003F0FDFD062003F0E8FD002003F092
:102D2000E5FDB6E2062003F0F3FD412003F0DEFDF1
:102D3000462003F0DBFD4E2003F0D8FD412003F0D8
:102D4000D5FD074B1878DCE38005002030510108E1
:102D500004000020E8F7FF1FECF7FF1FF0F7FF1F4C
:102D6000FC2D0020CD4B585D013503F0BFFD0B2D30
:102D7000F8D10025CA4B585D013503F0B7FD082D89
:102D8000F8D10025C74B585D013503F0AFFD072D85
:102D9000F8D1B8E3072003F0BBFDE72003F0A6FD60
:102DA00096F8D50003F0A2FD002003F09FFD04205B
:102DB00093E3102003F0ACFD0025BB4B585D0135BB
:102DC00003F094FD102DF8D19DE3702003F0A0FDD9
:102DD00000260E257543D4F83C3801362B44B3F851
:102DE000190103F0AFFDD4F83C382B44B3F81B01B4
:102DF00003F0A8FDD4F83C382B44B3F81D0103F0D0
:102E0000A1FDD4F83C382B4493F81F0103F06EFD6C
:102E1000D4F83C382B4493F8200103F067FDD4F834
:102E20003C382B4493F8210103F060FDD4F83C3882
:102E30002B4493F8220103F059FDD4F83C381D448B
:102E4000D5F8230103F087FD082EC2D15BE3702083
:102E500003F05EFD954D05F1700695F8D00003F086
:102E600045FD95F8D10003F041FD95F8D20003F03F
:102E70003DFD95F8D30003F039FD95F8D40003F03B
:102E800035FD95F8D50003F031FD073595F8CF00F5
:102E900003F02CFDB542E0D135E3102003F038FDFE
:102EA0000025834B585D013503F020FD102DF8D12E
:102EB00029E394F858389D4280F025837D4B33F800
:102EC000150003F03FFD0135F3E7062003F020FD78
:102ED000002003F040FD0FE2042003F019FDD4F8B8
:102EE0008008FAE2072003F013FDA08AFF28A8BF9C
:102EF000FF20C0B203F0FAFCF8E10B2003F008FD5C
:102F0000D4F884380026187803F0F0FCD4F884381C
:102F1000587803F0EBFCD4F88438674D33441879C3
:102F2000013603F0E3FC032EF5D1D5F88438D879C7
:102F300003F0DCFCD5F88438987803F0D7FCD5F89A
:102F40008438D87803F0D2FCD5F88438588903F057
:102F5000F9FCD5F88438187AD7E61E2003F0D8FC9F
:102F6000D4F83C3800251B78022B6DD1D4F83C38BE
:102F700005F1080253F8220050490BF0D5F90EF084
:102F80008FFC80F30800C0B203F0B0FCD4F83C38EA
:102F90004B4903EB8503D86A0BF0C6F90EF080FCB1
:102FA00080F30800C0B203F0A1FCD4F83C3805F16E
:102FB0000E0253F8220043490BF0B6F90EF070FCF4
:102FC00080F30800C0B2013503F090FC032DCDD191
:102FD000072DD4F83C3823D1586C38490BF0A4F9AC
:102FE0000EF05EFC80F30800C0B203F07FFCD4F862
:102FF0003C383249986C0BF097F90EF051FC80F395
:103000000800C0B203F072FCD4F83C3893F84C00CE
:103010000BF032F90EF044FC80F30800C0B20DE072
:103020002B44587803F062FCD4F83C382B44D87A0F
:1030300003F05CFCD4F83C382B44587D013503F098
:1030400055FC0A2DC4D15EE2D4F83C382B445878A4
:1030500003F04CFCD4F83C382B44D87A03F046FCFF
:10306000D4F83C382B44587D013503F03FFC0A2D41
:10307000EAD148E22F2003F04BFC134D15F8010F65
:10308000002800F0408203F031FCF7E7012003F054
:103090003FFCD4F83C38187837E600BFAC63010831
:1030A000B8630108C1630108AA0D00205006002082
:1030B000C00D0020DA0D0020800500200000204116
:1030C0000000C84200007A4441510108502003F03A
:1030D0001FFC0026D4F83C580C2205EB860595F819
:1030E0007930013602FB037393F84C0003F0FEFBCA
:1030F00095F87A0003F0FAFB95F87B0003F0F6FBF5
:1031000095F87C0003F0F2FB142EE3D1FBE148209C
:1031100003F0FEFB0026D4F83C58062303FB0655BB
:1031200095F8CE0003F0E2FB95F8C90003F0DEFB52
:1031300095F8CA0003F0DAFB95F8CB0003F0D6FB54
:1031400095F8CC0003F0D2FB013695F8CD0003F0E2
:10315000CDFB0C2EDFD1D6E1162003F0D9FBB6F85B
:10316000640203F0EFFBB6F8100203F0EBFBB6F8D5
:10317000120203F0E7FBB6F8140203F0E3FBB6F823
:10318000A60203F0DFFB96F8B70203F0AFFB0020C6
:1031900003F0ACFB96F8B80203F0A8FB96F85302D4
:1031A00003F0A4FB96F8600203F0A0FB002003F0FC
:1031B0009DFBD6F83C380A20B3F9563093FBF0F06B
:1031C00080B203F0BFFB96F8480203F08FFB96F83D
:1031D0004C0203F08BFB96F84B0203F087FB96F84A
:1031E0004D0292E5082003F093FB0125E8B201357A
:1031F00003F07CFB092DF9D185E1102003F088FB59
:1032000096F8200000F0020003F070FB96F826000C
:1032100003F06CFBB06A03F09EFBF06A03F09BFBCB
:10322000B08C03F08FFB708C03F08CFBB6F8880831
:1032300067E1052003F06CFBB4F89A0003F082FB11
:10324000B4F89C0003F07EFB94F88A0800F00100BB
:103250005BE503F041FB0746122003F059FB27B959
:10326000D4F88C68D4F8905801E000252E463846F2
:1032700003F03CFB304603F06EFB284603F06BFB8B
:10328000002003F068FB002003F05CFB002003F04B
:1032900059FB002039E594F894080025800001309E
:1032A000C0B203F035FB94F8940803F01FFB94F8C8
:1032B00094389D4280F02781D04E705D03F016FB5C
:1032C00006F11003585D03F011FB06F12003585D71
:1032D000303603F00BFB705D03F008FB0135E6E7C9
:1032E000082003F015FB002003F02CFB002003F066
:1032F00029FB002003F026FB002002E1042003F05C
:1033000007FBD4F8D800E8E0072003F001FBB4F88D
:103310004E0203F017FBB4F8500203F013FB94F8CD
:10332000520203F0E3FAB4F85402EAE00C2003F08E
:10333000EFFA94F85E0203F0D9FAB4F8680203F0E9
:1033400001FBB4F8640203F0FDFAB4F8660203F07E
:10335000F9FA94F85F0203F0C9FAB4F86A0203F0CC
:10336000F1FAB4F86C02CCE0042003F0D1FA94F83E
:10337000A40203F0BBFA94F8A50203F0B7FAB4F87C
:10338000A602BEE094F858089D4D00EB4000C0B284
:1033900003F0BEFA002694F8583802359E4280F0B9
:1033A000B28015F8020C03F0A1FA15F8010C0136F1
:1033B00000EB800000EB800000F2EE2080B203F012
:1033C000C1FAE8E7012003F0A3FA94F860029CE454
:1033D0008C4B2B4493F88601013503F087FA082DB6
:1033E000F6D190E0102003F093FA96F8D50003F0A0
:1033F0007DFAD6F8D80003F0AEFA96F85E0203F034
:1034000075FAB6F8280203F09DFAB6F82A0203F01E
:1034100099FAB6F82C0203F095FAB6F84E0203F0CA
:1034200091FAB6F850026CE094F8D508754DC0EBEF
:10343000C000C0B203F06CFA05F1280695F8EE0161
:103440000023714AD25C904200F01F860C333C2B63
:10345000F7D10835B542F1D155E003F03DFA86B217
:1034600003F03AFA054603F037FA87B203F034FA6C
:1034700006EB052607EB0020B6B206EB00458420DC
:1034800003F046FA284603F066FA604B04AF1E6963
:1034900005F18003B3428CBF761B802609F00AFF3A
:1034A00028463246394609F021FA06460025B5423B
:1034B00029DA785D03F01AFA0135F8E7132003F0F2
:1034C00027FA0025524B585D013503F00FFA0B2DFA
:1034D000F8D1002003F03FFA002003F03CFA12E09C
:1034E000082003F015FAB4F8180203F02BFAB4F828
:1034F0001A0203F027FAB4F81C0203F023FAB4F816
:103500001E0203F01FFAD4F8C430424D987903F03C
:10351000EDF9D4F8CC300133092B88BF0023C5F86E
:10352000CC303D4D94F8DC282E683A4B002A00F050
:103530005B81D3F8E028002A00F0568193F8E43844
:10354000013B012B00F25081D4F8E008314F07F025
:10355000A1FAE0B1D7F8E00807F099FA97F8E53852
:1035600080467E2BD5F800900ED102231B2887F8C9
:10357000E43809D1D7F8E00807F08CFA20B9012324
:10358000C7F8E89887F8EC3884F8E588DCE7D7F8DE
:10359000E8282B689B1A41F6583293421DD9032321
:1035A00087F8E43820E11D4A32F8130010B90346C9
:1035B0004FF403600133B0F5C06FDBB26CD02FD98C
:1035C000B0F5006F6ED041D9B0F5036F48D184F8E3
:1035D000ED38E3690F4F990649D494F8EC1894F844
:1035E000ED38002900F0FE802A68921B012ADAD902
:1035F00084F8ED38002384F8EC38F5E0150E00204F
:10360000EE07002050060020502B00200400002070
:10361000AC63010880050020D82D00208C630108D0
:10362000B0F5007F38D006D8B0F5807F68D0B0F50F
:10363000887F65D0D5E7B0F5806F74D0B0F5826F24
:1036400000F09080B0F5047FCBD11CE0B0F5E26FC4
:1036500065D0B0F5E46F62D0B0F5E06FC1D15EE047
:10366000B0F5046F5BD0B0F5026FBAD1A5E097F862
:1036700020309A07B1D5798C24234B43642112332F
:1036800093FBF1F1A8E084F8ED382369984FDB074C
:10369000A3D5BB8A0A219EE084F8ED38236913F094
:1036A000400F32E0E169924A8F0684F8ED3894D5F4
:1036B00092F82010880790D5D90710D5D36A19221F
:1036C00083EAE371A1EBE37101EB5101B1FBF2F18C
:1036D000002BACBF41F0004141F040410DE0936A46
:1036E000192283EAE371A1EBE37101EB5101B1FB14
:1036F000F2F1002BB8BF41F080414FF400604BE085
:1037000084F8ED38E36913F0040F3FF466AF00214D
:1037100004F048F8764B002283F8EC285DE784F843
:10372000ED38002138E084F8ED3894F8EE38704A2E
:103730000133DBB2032B88BF012382F8EE3842F25B
:10374000107394F8EE1859436A4B1B78DA0748BF98
:1037500001319F0748BF0231580748BF04314FF479
:10376000806019E0E169DFF8888111F0200784F8B2
:10377000ED3817D098F8202012F0020F14BF4FF444
:103780007A71002112F0010F14BF4FF4FA63002385
:103790000B4494F82610194404F004F8002384F82C
:1037A000EC381AE7D8F810301A077FF516AF39460B
:1037B00003F0F8FF88F8EC780FE784F8ED38E36958
:1037C0004B4F9B067FF509AF97F8203099077FF59F
:1037D00004AFBB8C6421594303F0E4FF002387F856
:1037E000EC38FAE684F8ED3894F8EF28404B002ADC
:1037F0005CD02968D3F8F0288A1AC72A56D993F8DA
:10380000F428C3F8F01893F8F518013283F8F42877
:10381000394E93F8F62829B97AB93270D3F8F808F6
:10382000232141E04AB932783AB9D3F8F80858214F
:1038300007F033F90123337038E03378B3B3B4F8C9
:103840000C390A26A4F8FE38B4F808390027A4F881
:103850001039B4F80A394420B3FBF6F384F8FC7845
:10386000A4F8123903F08CFF0121B4F9FE0803F02B
:1038700069FF482003F084FF0121B4F9100903F027
:1038800061FF412003F07CFF0121B4F9120903F02C
:1038900059FF2A2003F074FF94F8FC08394603F01E
:1038A00051FF3146D4F8F80807F0F7F894F81429D6
:1038B0000F4B002A00F092812968D3F818298A1A40
:1038C000092A40F28B8193F81C29C3F8181993F840
:1038D000F518013283F81C2993F8F628074B09B92B
:1038E00072B903E062B91A7852B901221A7075E10F
:1038F00080050020F92D0020FB2D0020FA2D00204E
:103900001B78002B00F06A8194F81D3905220133E1
:10391000DBB2B3FBF2F202EB820284F81D399B1A90
:1039200013F0FF031FD101228DF814208DF815200C
:103930008DF816208DF817200327B94A04938DF8C7
:10394000187004AE03CE1772106051600920322146
:1039500002F8013C09F072FB09F057FBB14BA3F8E8
:103960001E0903F0CBFE94F81D390A21B3FBF1F2D6
:1039700001FB123212F0FF0F32D1642B30D800233A
:1039800004930123ADF81430ADF8163002238DF8FE
:103990002830A54B06AE03F1100732461868596867
:1039A000083303C2BB421646F7D19D4B04AE0AAFA3
:1039B000324603CABA4218605960164603F108033A
:1039C000F6D11278DC211A70984B16221920DA7180
:1039D00009F034FB09F019FBA4F81E0903F08EFE70
:1039E00094F81D191E23B1FBF3F203FB121313F01D
:1039F000FF0F40F086808B4BB3F820390BB19BB2A0
:103A000000E00823D4F800190A2202FB01F0D4F8E0
:103A1000041900264A43079200220027ADF824200B
:103A2000ADF82620ADF82A208DF82C2004AACDE987
:103A300004671646B4F908194FF47A7E0EFB01F1BB
:103A40008DF82D30764B06900891ADF828E00DF1F9
:103A50002808174603CF4745186059603A4603F1D6
:103A60000803F6D1386818211860BA886F4F9A8019
:103A70001E20F97109F0E2FA09F0C7FAA4F81E094C
:103A800003F03CFED4F800290A2303FB02FBD4F820
:103A90000429B4F9089903FB02FAD4F824094FF475
:103AA0007A7303FB09F90AF02BFE00230493ADF8A7
:103AB0002430ADF82630ADF828303346CDF814B0B8
:103AC000CDF818A0CDF81C90CDF82090ADF82A00C4
:103AD00007F108021E4603CE46451060516033468A
:103AE00002F10802F6D130682123106068211C2001
:103AF000FB7109F0A3FA09F088FAA4F81E0903F093
:103B0000FDFD94F81D191E23B1FBF3F203FB121304
:103B1000DBB20F2B434E61D1D6F824090AF0CAFD5F
:103B20001FFA80F8B6F908090AF0AAFB04AA16469B
:103B30003F4B0027049305930023ADF82230384B08
:103B400006900797ADF820800DF1200C9646BEE850
:103B50000300E64518605960724603F10803F5D189
:103B6000DEF80000DFF8C480186014204A23014604
:103B700088F8073009F062FA09F047FAA4F81E093C
:103B800003F0BCFDD4F83039D4F82C290793334620
:103B9000D4F8281900200DF1900E0692049005919A
:103BA000089709974EF8687D08F108021E4603CE73
:103BB000764510605160334602F10802F6D1306854
:103BC0001E23106027211C2088F8073009F036FAE0
:103BD00009F01BFAA4F81E0903F090FD94F83429AB
:103BE000104B002A00F0FE802968D3F838298A1A81
:103BF000092A40F2F78093F83C29C3F8381993F862
:103C0000F518013283F83C2993F8F628094B09B9D5
:103C100092B903E082B91A7872B901221A70E1E010
:103C2000942B002080050020D06301088C2B0020FD
:103C300000002041FD2D00201B78002B00F0D280D9
:103C400094F83D391E210133DBB2B3FBF1F284F865
:103C50003D3901FB123313F0FF03964E59D1964FB5
:103C600086F83E397968386804AB03C304A803F0CA
:103C700031FD03F01BFD01F091FE03F017FD01F093
:103C80001FFF03F013FD01F0CFFE03F00FFD312005
:103C900001F096FE03F00AFDB6F8202907F10801AD
:103CA00004A807F0C1FF04A803F014FD03F0FEFC14
:103CB000D6F8406930460AF023FD80495FFA80F863
:103CC00030460AF031FB06460A2000FB08F00AF0F5
:103CD000D7FA014630460AF01DFA0AF011FD07F145
:103CE0000E01C3B2424604A807F09EFF04A803F0E9
:103CF000F1FC03F0DBFC01F02FFF03F0D7FC01F037
:103D00002BFF03F0D3FC03F0D1FC01F067FE01F0C0
:103D100027FE94F83D191E23B1FBF3F203FB1213A7
:103D2000DBB20F2BDFF88C815CD1654E04AB716880
:103D30003068002703C304A888F83E7903F0CAFC62
:103D400003F0B4FC01F02AFE03F0B0FC412001F0C6
:103D500037FE03F0ABFC01F0B3FE03F0A7FC01F06B
:103D600063FE03F0A3FCD8F844090AF0C9FC06F18D
:103D7000080182B23B4604A807F056FF04A803F0EE
:103D8000A9FC03F093FCD8F824090AF0B9FC3B46DF
:103D900082B206F1080104A807F046FF04A803F068
:103DA00099FC03F083FC06F11201D8F8482904A815
:103DB00007F03AFF04A803F08DFC03F077FC06F14E
:103DC00008013A463B4604A807F02EFF04A803F07A
:103DD00081FC03F06BFC452001F0F2FD01F0FEFDDB
:103DE00001F0BEFD94F84C39DFF8C880002B00F0DC
:103DF000AD80D8F85039002B00F0A8802F68D8F893
:103E00005439FB1A632B40F2A1802E49D8F82409BB
:103E10000AF08AFA0AF074FC86B2412001F086FDAD
:103E2000002001F07AFD002001F077FD30460AF015
:103E300027FA22490AF02CFB0AF062FC80B201F05A
:103E40006CFD01F03BFD98F8586916F001063BD077
:103E5000D8F81C309A064BD5B8F920394720052BE5
:103E6000B4BF0226032601F061FDD4F800094FF02B
:103E70000A0808FB00F001F03FFDD4F8040908FB34
:103E800000F001F039FD0F49D4F844090AF04CFA6A
:103E90000AF036FCC0B201F01DFDB4F90839642007
:103EA000584301F029FDB4F9200946EA8000C0B268
:103EB0001AE000BF80050020C45201080000204124
:103EC000DC5201080000C842532001F02FFD3046AB
:103ED00001F023FD304601F020FD304601F0FAFCF0
:103EE000304601F0F7FC012001F0F4FC01F0E6FCA3
:103EF00094F85869DFF8C891DEB94F2001F016FD3B
:103F0000D9F800094FF00A0808FB00F001F0F4FCB2
:103F1000D9F8040908FB00F001F0EEFC304601F08E
:103F2000EBFC012001F0D6FC012001F0D3FC01F0F4
:103F3000C5FC94F858390A210133DBB2B3FBF1F226
:103F400001FB1233C4F8547984F8583994F859397C
:103F50005B4E002B00F0B1802A68D6F85C39D31A8A
:103F6000C72B40F2AA8096F8603906F69410013308
:103F700086F86039B6F88A39C6F85C29A6F862393D
:103F8000002386F8903901F055FC01F029FC06F574
:103F90001C6001F04FFC01F023FCB6F8F6394949EA
:103FA000B6F8F82904A807F03FFE04A801F02EFC9B
:103FB000B6F8FC391B0714D503A90DF10D020DF15C
:103FC0000E0001F06BFA9DF80D10BDF80E20009167
:103FD0009DF80C3004A83C4907F026FE04A801F027
:103FE00015FC002394F890195D1CDBB29942344A09
:103FF00008D9134493F8041AD2F8000A06F04DFDCC
:104000002B46EFE7D2F8000A0A2106F046FD54E0FD
:10401000BB782BB1C5F8A06087F80280FEF758BCCA
:10402000D5F8A030F31AB3F57A6FFEF451AC012342
:10403000D5F8A400BB7006F02AFD0746D5F8A40009
:1040400006F025FD7F067EF443AC8A2803D08E2837
:104050000DD0FEF73DBCEB6998067EF539AC95F8BE
:104060009E30002B7EF434AC05F16D0306E095F82C
:104070009E30002B7EF42CAC05F13803C5F8A83037
:104080002D2385F8AC30FEF723BC02F02FFCB5F8E9
:10409000F00102F057FC95F8F20102F027FC95F8C8
:1040A000F30102F023FC95F8F50102F01FFC95F8EE
:1040B000F40102F01BFCFFF7CCB925B0BDE8F08F8E
:1040C00080050020C96301086A6501082DE9F04FE9
:1040D000A24C87B02368C3B9A14D2B78013B042BB8
:1040E00000F22E85DFE813F010041004100413050D
:1040F000F4049A4B186806F0CAFC9A4B05461B68F4
:104100001B7843B1012B00F07881206806F0C2FCD7
:104110000028EED1E0E72428934E0CD006D80A28D8
:1041200000F0E5800D2800F0E28051E12A2806D059
:104130002C2804D04CE133707370B37059E18B4B71
:10414000717896F800800020874A5854B8F1000F23
:1041500026D1197882F80380472921D1597850292E
:104160001ED19978472907D1D978472904D11979DF
:10417000412901D10121D17099787C4A522903D17A
:10418000D1784D2900F0D4849978784A472907D10D
:10419000D178532904D11279562A04BF0322F27030
:1041A000F278714F022A3AD0032A4FD0012A40F008
:1041B0008C80A8F10202072A00F28780DFE802F073
:1041C00004080F131A25852A08F021FE70607CE090
:1041D0001B78532B79D173685B42736075E008F0EC
:1041E00016FEB06071E01B78572B6ED1B3685B424E
:1041F000B3606AE01B78302B5D4B1A788CBF42F0BD
:10420000020222F002021A705FE0002008F05EFE57
:1042100030735AE0002008F059FEF08155E0B8F103
:10422000070F07D0B8F1080F4FD1012008F04EFE5C
:1042300078824AE0012008F049FE41F218435843D1
:104240004FF47A73B0FBF3F038823EE0B8F1020F1E
:1042500008D0B8F1030F0AD1002008F037FE454B13
:10426000187032E0002008F031FE38752DE02CD9AE
:10427000A8F1040292103B7D0132D2B2013B02EB65
:104280008303DBB2102B20D8A8F10301C2F1010295
:1042900001EB8202D2B2012A0BD0042A11D10020F4
:1042A0005F1E08F013FE344B0022D855334BDA550D
:1042B00007E0334A5F1E0020D35508F007FE314B5C
:1042C000D855314A136801331360274A2A2D18BF85
:1042D000917808F101084FF000030CBF01214D4017
:1042E00086F8008073700CBF5175957081E0737D06
:1042F000002B6AD0254B13F8012D25495A708B42AB
:10430000F9D11A4AB07813785278402B85BF373BE1
:104310001B011B01DBB298BF03F0F003402A8CBFE6
:10432000373A303AD2B21344DBB298420E4A49D1FE
:1043300021230B70174916480B6801330B60D378A3
:10434000012B2DD0022B3FD17223118A0370124B07
:10435000528A1980114B1A8036E000BFFC040020FD
:10436000C0040020F804002018120020402B002078
:10437000A0050020140E0020450E0020350E002060
:10438000150E0020250E0020701B0020F4040020D4
:10439000E00400207C1B0020A2050020080E002065
:1043A000672101709D4909788F070ED59C49506897
:1043B000086090684860107B9A490870D1899A4AD1
:1043C000118002E03F230B7000230022727510E081
:1043D00073780E2B9FBF954A591C5170944A93498C
:1043E00098BFD554737D1BB98A7855408D7000E015
:1043F0000023DD077FF589AE53E18C4B9A7D082AB7
:104400003FF683AEDFE802F0050C1319242F4A6053
:104410006A00B5287FF479AE0022DA75012202E045
:10442000622802D000229A756FE60222FBE703227F
:104430009A7518765876987667E604229A755A7EA9
:10444000997E0244D2B25A760A449A76D8765CE6CD
:1044500005229A755A7E997E0244D2B25A760A444F
:104460009A76988351E606229A755A7E997E02447E
:10447000D2B25A760A449A769A8B02EB0025ADB2F4
:10448000B5F5AC7F82BF694A0121D17500229D83B9
:10449000DA83002D7FF439AE0722C4E75A7E997E75
:1044A0000244D2B25A760A449A76DA8BB2F5AC7FDD
:1044B0003EBF5E49891881F820000132998B92B283
:1044C0009142DA83E8D920E608229A755B7E83421E
:1044D0003FF41BAE554B0122DA750EE00022554920
:1044E0009A7511F8012D4A70534A9142F9D1987E7C
:1044F0004E4AA84206D03F230B70504A53680133FE
:10450000536002E64E4D286801302860D07D10B11E
:104510003E230B70F9E521200870D07E06284DD08F
:1045200004D8022814D0032830D0EEE5122864D035
:1045300030287FF4EAAD4920087092F82410414AEF
:10454000102988BF1021117010783F49002283E0A4
:10455000502008703249506A4860906A0860116BB8
:104560004FF47A7091FBF0F12F48018092F87811A6
:104570002A4A19B1117841F0020102E0117821F0C4
:1045800002011170012283F879217AE0532008702A
:1045900092F8251011F0010105D092F82420D01EC8
:1045A0004242424100E00A4683F87821002A68D15D
:1045B0001A490A7822F002020A7062E04F2008705D
:1045C00092F82B1011F0010105D092F82A20D11E8B
:1045D0004A424A4100E00A4683F8782122B90F494D
:1045E0000A7822F002020A7093F84F100D4A1170F7
:1045F000B3F84C10154A118043E056200870506BF8
:104600001349088042F21070916B91FBF0F1114850
:104610000180012182F87A1133E000BFA00500205B
:10462000A8050020A6050020A405002018120020DF
:10463000402B0020F4040020E0040020C0040020EF
:104640007C1B0020140E00203812002042000020A5
:10465000A2050020080E002082420ED20E7AB64D2E
:1046600056554E7AB54D5655CE7AB54D565511F82C
:104670000C6FB44D56550132EEE7B3490A6801326A
:104680000A6093F87931B14A002B3FF43EAD92F8BD
:104690007A31002B3FF439AD002382F8793182F86A
:1046A0007A31AB4BDFF8E082DA681A61A94A126806
:1046B000DA60A94A136843F020031360A74B1A7805
:1046C000012A0CBF002201221A7098F800309A07C4
:1046D0007FF51BADA24A1278042A7FF616ADA14AD7
:1046E000127802F0040202F0FF011AB923F001036C
:1046F00088F8003098F80070944E17F0010F9A4D2A
:1047000024D119B3BB0721D5984B28686A68186073
:104710005A6009F0B5FD0021814609F0C1FF08B1DA
:10472000484601E009F10040914909F0B1FE914984
:1047300009F0FAFD07F022FB8F4B47F001071860E4
:104740008E4B88F800701B88A6F87C3196F87E2185
:10475000531C052293FBF2F202EB82029A1A96F89E
:104760007F3186F87E21029392000023DFF8F891D2
:104770009900DFF828A2039159F82310DFF820E20E
:1047800091FBFAFC0EF1080040F823C07C484EF87B
:10479000231000FB0C1142F2107091FBF0F00EF1AF
:1047A000100680B226F813004FF014080EF114061C
:1047B00008FB03680EF13C0B58F802705BF82360AD
:1047C00048F80210F61B0E4405214BF8236096FBB7
:1047D000F1F60AFB0C6602990EF1440E01294EF81F
:1047E0002360C84606D10238B0F5797F9CBF039993
:1047F00041F809600BB90123B8E7DFF85891534F2E
:10480000D9F80000D7F8CC31C01A09F035FD5D4960
:1048100009F03EFED9F800304FF07E51C7F8CC3198
:10482000064609F01FFF08B94FF07E56564BC7F8F1
:10483000D0611B78DFF86C9113F00103534E13D055
:1048400004AA0092494B05AA01920CCB98E80300F8
:1048500008F09EFC049A6421B2FBF1F2059BA9F8D2
:10486000002093FBF1F301E0A9F80030338097F8C2
:10487000D431364E002B3BD0D6F8D0114FF07E50BD
:1048800009F006FE8246D6F8D8312868C01A09F029
:10489000F7FC514609F048FD09F00CFFD6F8DC3171
:1048A0001FFA80F968680FFA89F9C01A09F0E8FC64
:1048B000314B196809F038FD514609F035FD09F012
:1048C000F9FEB6F9E22100B28118B6F9E021022022
:1048D00009EB020391FBF0F193FBF0F389B29BB279
:1048E000A6F8E611A6F8E431A6F8E211A6F8E03140
:1048F000012387F8D431D8F80430C7F8DC31D8F870
:104900000030C7F8D83100E4214E3268177817B16B
:10491000012F49D014E1012B00F212816A781D4B5E
:104920000C2101FB02335A781B4B206853F82210EC
:1049300006F0AAF896E000BF150E0020250E002014
:10494000350E0020450E0020701B0020181200209C
:10495000C0040020D82D00209C0500200A0E002055
:10496000A6050020F92D0020A80500200C0E00202F
:104970008096184B35FA8E3C1C0000201811002040
:10498000806967FF00007A44A00500201C06002013
:10499000F8040020BC4B0108905C01088096980048
:1049A000981300201A0600202068DFF8C08106F066
:1049B00068F8002800F0C4802A78634B022A3FD0B0
:1049C000032A4CD0012A40F0BB80604A10689A69E3
:1049D000821AC72A40F2B480596904292ED85C4A49
:1049E0000C24964604FB0121D8F800404E78A768B5
:1049F000986100235749D8B251F82320BA4204D015
:104A000001330B2BF6D1002300E00346B34205D05F
:104A1000204651F8261006F037F891E06B780C210B
:104A200001FB03E2566816F8011B19B1204606F097
:104A300034F8F8E76B6901336B6181E0022074E0C0
:104A40005A78434B0C2101FB02335A78414BD8F87A
:104A5000000053F8221006F017F8032065E03268D2
:104A600092780AB9042060E01A7F02B91F772B7F81
:104A7000354F012B0FD17B69B22B08D8364A2068FD
:104A8000D15C06F00AF87B6901337B6103E0002307
:104A90007B6102233B772B7F2B4F022B14D17A694A
:104AA0000F2A0FD833682C495B78206803EB031377
:104AB0000B44134493F8B41005F0EFFF7B69013306
:104AC0007B6101E003233B772B7F022B38D9C9E7B9
:104AD000AB681D490133AB60204B1B68DB784BB1E1
:104AE0004B7805220133DBB2B3FBF2F202EB820218
:104AF0009B1A4B70154B00221B680120EB60184B72
:104B00001A70184A137823F0020313700DE00F4B4C
:104B1000EA681B689B1A40F6C412934210D9124AE5
:104B20000520136823F02003136008F023FB07E03F
:104B30001279432A7FF428AB0222F270FFF724BBDC
:104B400007B0BDE8F08F00BFC0040020D82D0020C2
:104B5000BC4B0108905C01080C530108F8040020CC
:104B6000A6050020A00500209C050020FC040020D4
:104B70000B88584080EA0010C0B21B0A83EA101369
:104B800043EA002383EAC0030B807047034A13788B
:104B9000591C134411705878704700BF301400201E
:104BA00038B5FFF7F3FF0446FFF7F0FF44EA0020B3
:104BB00084B2FFF7EBFF0546FFF7E8FF45EA002068
:104BC00044EA004038BD421E002012F8013FA3F124
:104BD0003001092904D80A2101FB00303038F4E7FC
:104BE000704738B51648FFF7EEFF6422B0FBF2F3CA
:104BF00002FB1302134B124C534322782146A2F1BD
:104C00003005092D04F10104F7D92E2A0DD142F205
:104C1000107411F8012F303AD5B2092D05D802FBD6
:104C200004330A22B4FBF2F4F3E706220333B3FBA6
:104C3000F2F36422B0FBF2F0034A02FB003038BD0D
:104C40003F140020A086010040420F0038B5164CEA
:104C5000224612F80F5F1034A5F12D035D425D412D
:104C6000002D08BF14462046FFF7ADFF64235843CC
:104C700023461A4613F8011BA1F13004092CF8D978
:104C80002E290DD15378303BD9B2092908D80A21F1
:104C900001FB03009378303BDAB2092A98BFC018B1
:104CA00005B1404238BD00BF301400202DE9F74F58
:104CB0007A4C002394F821100246A377092900F2C8
:104CC0009580DFE801F00505172B21333B4E627B11
:104CD000FE2A40F08B80022384F82130002384F8E0
:104CE00051304FF0FF3384F8502084F84E3084F870
:104CF0004F307BE010466A4984F8223084F8512016
:104D0000FFF736FF042306E01046654984F8522079
:104D1000FFF72EFF032384F8213067E01046604937
:104D200084F85320FFF724FF0523F4E710465C497D
:104D300084F85420FFF71CFF0623ECE7574B10467E
:104D400003F14E0184F855200093FFF711FF94F80A
:104D50005120009B0AB90823DDE7072283F82120B0
:104D600044E094F8221010464B1C2144DBB281F839
:104D700056204B4984F822300093FFF7F9FE94F84F
:104D80005120009B9A4231D1E5E7DFF810C194F839
:104D9000553044490192C85C0CF14E01CDF800C079
:104DA000FFF7E6FEDDF800C094F82230019A0921F1
:104DB00063448CF8211083F8562017E0374B94F8A1
:104DC000221001201944987783F8210081F8572098
:104DD00093F85590D3F85A50D3F85E60D3F86270C8
:104DE000D3F8668093F872A093F873B0A17F2B4A32
:104DF000012908D192F8523082F82330D38C03B9BC
:104E000013850133E384002384F82030002942D045
:104E1000B9F11E0F39D0B9F1210F1CD0B9F1180F1B
:104E200039D10A2397FBF3F796FBF3F61E4B1F4A83
:104E30001F601F4B1660A3F800B04FF47A7398FB05
:104E4000F3F81C4B0122A3F800801B4B92451A700B
:104E500017D9012216E00A2396FBF3F695FBF3F52A
:104E6000114B124A1E604FF47A7397FBF3F7114B04
:104E700015601F80104B01221A70002DE9D1002E01
:104E8000E7D100220D4B1A7005E00D4B1E600D4B53
:104E90001D600D4B1F6003B0BDE8F08F3014002083
:104EA0007E14002014540108A8110020DC2D0020DD
:104EB000A00E0020B81100201D110020E4210020C8
:104EC000AC0E0020A80E0020B00E0020642330B5E8
:104ED000B1FBF3F403FB14130A214A43054D9BB2C3
:104EE00005FB03233C22B3FBF2F3A4B205FB04331E
:104EF000584330BDA086010044280ED15C4B0122EE
:104F00005C4983F88E2400230B805B490B7048704A
:104F10005A490A705A4A1370704748280AD1544BAC
:104F2000022283F88E24574B00221A80524A53786B
:104F300048330BE041280BD14D4B032283F88E24DC
:104F4000514B00221A804C4A5378413353707047BA
:104F50002A2801D1042212E00A2814D1464B5A789B
:104F60001B789A420AD1494B01221A70434B454A99
:104F700093F9003012885343454A138000223C4B7A
:104F800083F88E247047582805D13D4B00221A70B3
:104F90000122404B4AE0232801D1002230E0402882
:104FA000FBD04E2807D1384A00231380314A4FF4F2
:104FB0007A71118008E0452809D1334B5A221A80B2
:104FC0002C4A4FF47A731380314A138017E0532828
:104FD00008D12D4BB4221A80264B00221A804FF4A0
:104FE0007A720AE057280DD1274B4FF487721A8046
:104FF000204B4FF47A721A800022254B1A8001222E
:105000001F4B13E01A4B93F88E34013B032B2DD822
:10501000DFE803F002041724164A13E0164A2D288D
:1050200053780344537003D1144BFF221A70704716
:10503000144A138803EB830300EB430030381080DD
:105040007047114A138803EB830300EB4303303BA3
:105050001380094A5378184450707047064A1378F1
:1050600003EB830300EB430030381070704700BF40
:1050700030140020E0110020200000204400002017
:105080002511002050200020920E0020E421002055
:10509000B81100201F11002010B5424B93F88F2447
:1050A0001C461AB924287BD1012204E0012A05D12B
:1050B000542875D1022283F88F2410BD022A16D1FC
:1050C000472808D053284FF00002F4D04128F2D0EE
:1050D00083F88F2405E0122384F89034032384F8A6
:1050E0008F34002384F8910484F8923410BD032A8D
:1050F00056D193F8923413B984F8930404E094F8E9
:105100009324424084F8932494F89014254A043957
:105110008B4240D192F89334002B38D1137092F81F
:105120009134472B33D1FFF73BFD08F0FFFC002201
:105130001D4B08F08BFE0CF019FB08F06FFF1B4BAA
:105140001860FFF72DFD08F0F1FC0022164B08F067
:105150007DFE0CF00BFB08F061FF154B1860FFF7AC
:1051600015FDFFF71DFD09F08BF8124909F090F9C4
:1051700009F0A0FA104B1880FFF708FD0F4BC0F3A1
:1051800087000428188082BF0D4B01221A7000236B
:1051900084F88F3410BD591C134482F8921458704F
:1051A00010BD00BF3014002000002440DC2D002082
:1051B000A81100200000C842B8110020A00E002055
:1051C000E42100202DE9F04F85B014469946884629
:1051D00008F0BEFC54A3D3E9002308F00DFD0646F9
:1051E00020460F4608F0B4FC4FA3D3E9002308F093
:1051F00003FD04460D464846414608F08BFF08F083
:10520000A7FC49A3D3E9002308F0F6FC08F02EFF21
:1052100008F09EFC02460B46CDE902230CF0F6FA9C
:1052200082468B462046294608F020FF08F090FC75
:10523000CDE900010CF04EFA04460D4630463946E1
:1052400008F014FF08F084FC06460F460CF0DEFA66
:10525000DDE9022380468946104619460CF03AFAE9
:10526000CDE90201304639460CF034FA06460F46C5
:10527000DDE900010CF0CAFA02460B463046394619
:1052800008F0BAFC224606460F462B4640464946E1
:1052900008F0B2FCDDE9022308F0AEFC08F0E6FEFF
:1052A00008F056FC02460B463046394608F0F0FA44
:1052B00022462B4606460F465046594608F09CFCAF
:1052C00008F0D4FE08F044FC04460D46304639464A
:1052D00008F0CCFE08F03CFC02460B46204629466E
:1052E0000CF06EFB08F0C2FE0021044609F0BAF98A
:1052F00050B1204608F02CFC0DA3D3E9002308F0A0
:10530000C9FA08F0B3FE0446204608F021FC0AA3BF
:10531000D3E9002308F070FC08F0A8FE05B0BDE852
:10532000F08F00BFAFF30080399D52A246DF913F5E
:10533000182D4454FB211940F8C1631ADCA54C40D8
:105340002DE9F84F074608461946164608F0E2FED2
:1053500008F0FEFB4EA3D3E9002308F04DFC08F053
:1053600085FE08F0F5FB804689460CF04FFA0446AE
:105370000D46404649460CF0ADF908F077FE8246EE
:10538000384608F0E5FB42A3D3E9002308F034FCDB
:1053900080463046894608F0DBFB3DA3D3E9002375
:1053A00008F02AFC06460F464046494608F05EFED5
:1053B00008F0CEFB804689460CF028FA08F056FE2D
:1053C0004946834640460CF085F908F04FFE3946C1
:1053D0008046304608F04AFE08F0BAFB06460F4603
:1053E0000CF014FA08F042FE3946814630460CF0C3
:1053F00071F908F03BFE49460646404608F094FF26
:1054000031460746584608F08FFF514608F08CFF9A
:105410000146384608F07EFE014608F085FF294621
:105420000746204608F022FE0146304608F07CFF81
:10543000014608F079FF0146384608F06DFE08F095
:1054400087FB0CF091FC08F011FE08F081FB04468C
:105450000D465846494608F067FF31460746404624
:1054600008F062FF514608F05FFF0146384608F039
:1054700053FE08F06DFB02460B46204629460CF011
:105480009FFA08F0F3FD044908F04EFFBDE8F88FDD
:10549000399D52A246DF913F767BC24A18B1074B35
:1054A000D3F89434036019B1044BB3F898340B80EB
:1054B0001AB1024BB3F89A341380704730140020AD
:1054C000A94B2428D3F8942470B502F101020546B3
:1054D000C3F894241C4600F0388105D80A280ED061
:1054E0000D2840F05D810AE02A2808D02C2840F0E1
:1054F000578193F89C3483F02C0384F89C3494F8FF
:105500009D24994B0E2A00F210811A440021D17378
:1055100093F89E24002A72D0DA7BA2F14103052B76
:1055200001D8373A05E0A2F16103052B94BF573A41
:10553000303A237C1201A3F141010529D2B201D8EE
:10554000373B05E0A3F16101052994BF573B303B90
:105550001A4494F89C14D2B29142834B49D193F8E7
:105560009F24002A00F0E180B3F89824D3F8A01417
:105570000132A3F898247D4A93F8A8041160D3F867
:10558000A4147B4A1160D8B1012840F0CC80D3F834
:10559000AC14784A1160D3F8B014774A1160D3F88C
:1055A000B414764A1160D3F8B814754A1160D3F870
:1055B000BC14744A1160D3F8C024734B1A60B5E070
:1055C000D3F8C414714A1160D3F8AC14694A11605D
:1055D000D3F8B414694A1160D3F8B814684A11605A
:1055E0006B4AB3F8C8141180D3F8D024C3F8CC2484
:1055F00099E0B3F89A240132A3F89A2495E093F83D
:10560000D424CAB90E331946624A11F8010F002892
:1056100000F0DC8012F8016F8642F6D05E4A13F883
:10562000010F002800F0D68012F8011F8142F6D049
:10563000022384F8A83478E093F8A814022974D0DF
:10564000DB7B002B71D042EA4112013A282A6CD848
:10565000DFE802F015232C343951585F646B6B6B13
:105660006B6B6B6B6B6B6B6B6B6B6B6B6B6B6B6B8A
:105670006B6B6B6B151E232C343941464B00FFF7C7
:10568000E5FAC4F8AC0405F013F9C4F8A0044CE042
:10569000A3F141025342534131E0FFF7A2FAC4F8AB
:1056A000B40405F005F9C4F8A4043EE0532B3CD142
:1056B000D4F8B4345B42C4F8B43436E0FFF791FA5E
:1056C000C4F8B80431E0572B2FD1D4F8B8345B427A
:1056D000C4F8B83429E0FFF7B9FAC4F8BC0424E0F0
:1056E000FFF7B4FAC4F8C0041FE02C48FFF76BFAC8
:1056F000C4F8B00419E0302B94BF0023012384F8D0
:105700009F3412E025480BF0B1FDC0B2A4F8C804E4
:105710000BE0FFF79BFAC4F8D00406E0FFF796FA17
:10572000C4F8C40401E0012000E0002094F8D4345F
:10573000013384F8D434002384F89D34A5F12A037E
:105740005D425D4184F89E5470BD0020022283F8C2
:105750009D0483F8D40483F89C0483F8A82483F878
:105760009E0483F89F0470BD30140020C8110020EF
:10577000B0110020C4110020BC110020A411002091
:10578000AC110020D4110020D0110020B411002051
:10579000D811002051650108576501083F14002009
:1057A00094F89D340D4A0D2B94F89E049FBF591C0C
:1057B0009B1882F89D14DD73084A28B992F89C342E
:1057C0005D4082F89C5470BD002070BD012384F8B8
:1057D000A834ABE784F8A804A8E700BF3014002081
:1057E000074A92F8D53483F02C0382F8D534054A61
:1057F0001378591C1170044A2C21D154704700BFF2
:1058000030140020100F0020840F002030B500233A
:10581000DAB2815C013339B1044C21784D1C25701A
:10582000845C034A5454F3E730BD00BF100F0020DE
:10583000840F002030B5044695B0228D1C4907A87E
:1058400006F0F2F907A8FFF7E1FF1A4D94F91C30B2
:10585000B4F9142029465A4307A8A36906F0E4F9CD
:1058600007A8FFF7D3FF94F92430B4F91E20294686
:105870005A4307A8236A06F0D7F907A8FFF7C6FF1F
:10588000A06808F065F92388CDE9000160680293FB
:1058900008F05EF9E58CCDE904012A46064907A81F
:1058A00006F0C2F907A8FFF7B1FF15B030BD00BF81
:1058B000CC6301085E65010867650108034B186841
:1058C000034B93F8D61405F0E8B800BFD00E0020C3
:1058D0003014002010B50446054B2146186805F029
:1058E000DCF8044B93F8D604604083F8D60410BD6E
:1058F000D00E00203014002010B50446C0B2FFF7CF
:10590000E9FFC4F30720FFF7E5FFC4F30740FFF703
:10591000E1FF200EBDE81040DCE710B50446C0B240
:10592000FFF7D8FF200ABDE81040D3E738B5054699
:10593000094C0A4B00222068242183F8D62405F064
:10594000ACF82068542105F0A8F820682946BDE885
:10595000384005F0A2B800BFD00E0020301400205F
:1059600010B500230A4A5C1C1278DBB29A42094A3D
:1059700008D9094910680B4493F8D71405F08DF83D
:105980002346EFE710680A21BDE8104005F085B80E
:10599000BE0E002074050020301400201FB5064BF9
:1059A00006491A6801A806F03FF901A801F092FE25
:1059B00005B05DF804FB00BFC011002014550108BC
:1059C000044A1378591C1170034A134483F8D7040E
:1059D000704700BFBE0E00203014002007B50E4BEC
:1059E000197800231A460133D8B2884203D20B48F3
:1059F000185C4240F7E70A4B0A49684683F8D62507
:105A000006F012F92A20FFF7DBFF684601F062FE7C
:105A100003B05DF804FB00BFBE0E00200719002094
:105A2000301400201855010870B5204D20486B68CF
:105A300086B0002BB8BF5B4293FBF0F600FB16303C
:105A400008F01EFC1B4908F023FD1B4908F06CFC04
:105A500004466420704308F013FC214608F05CFB08
:105A600008F028FE0646204608F024FE08F008FC50
:105A70000146204608F04EFB0E4908F055FC08F0A0
:105A800019FE0E493246034601A806F0CDF801A8DA
:105A900001F020FE6B68002BB4BF5724452401F0B1
:105AA00005FE2046FFF78CFF06B070BD800E00207B
:105AB00040420F0000247449000070421E55010846
:105AC00070B5204D20482B6886B0002BB8BF5B42D4
:105AD00093FBF0F600FB163008F0D2FB1B4908F0F0
