:020000040800F2
:100000000050002021ED0008C1ED0008C1ED0008FE
:10001000C1ED0008C1ED0008C1ED000800000000BE
:10002000000000000000000000000000C1ED00081A
:10003000C1ED000800000000C1ED00087F7A000853
:10004000C1ED0008C1ED0008C1ED0008C1ED0008D8
:10005000C1ED0008C1ED0008498100084781000892
:10006000C1ED00088D7A0008C1ED0008C1ED00085F
:10007000C1ED0008C1ED0008ADCD0008C1ED0008DC
:100080004B810008C1ED0008C1ED0008C1ED00087A
:10009000C1ED0008C1ED0008C1ED00084581000870
:1000A000C1ED000891CB0008C1ED0008A1CB00080C
:1000B00085CB000875CB000865CB0008C956000841
:1000C000CD560008C1560008C5560008C1ED00080D
:1000D000C1ED0008A1CD000895CD000889CD00082C
:1000E000917A0008C1ED0008C1ED00080000000091
:1000F0000000000000000000000000000000000000
:0C01000000000000000000005FF808F1A3
:100110002DE9F04F804B814C9FB02360002363603A
:1001200009F0CAFA18B909F0E9FA0AF005FD0AF06F
:10013000A9FD237A7A4D43F00103237200230B9328
:100140000C930D934FF4E0130E93764BA87B9946D6
:100150001A6842F480321A609A6942F010029A6179
:10016000D9F8003003F400330C930B9B01330B934D
:100170000C9B1BB90B9BB3F5A06FF1D1D9F80030E4
:10018000684913F4003301D0022317E00A6842F0F3
:1001900001020A600B93D9F8003003F002030C93BC
:1001A0000B9B01330B930C9B1BB90B9BB3F5A06FFF
:1001B000F1D1D9F800309A0741D501230D935A4B5C
:1001C0005A491A6842F010021A601A6822F00302B3
:1001D0001A601A6842F002021A60D9F80430C9F8AD
:1001E0000430D9F80430C9F80430D9F8043043F4A5
:1001F0008063C9F804304E4B1A68043B22F0704209
:100200005A604C4A1160D9F8041021F47C11C9F8E5
:100210000410596841F000415960D96821F4004147
:10022000D9609B681B0449BF434B4FF4E013136034
:100230004FF480130E930D9B012B01D118E0FEE7C4
:10024000022B1BD168B10E9BB3F5801F02D14FF476
:10025000A01305E00E9BB3F5E01F02D14FF400138D
:100260000E930E99D9F804300B4343F4803303E026
:10027000D9F8043043F46013C9F80430D9F80030D9
:1002800043F08073C9F80030D9F80010254B8F0176
:10029000FAD5596821F003015960596841F002010B
:1002A0005960D9F804301F4803F00C03082BF8D12B
:1002B0004368224903F00C03042B03D0082B03D01E
:1002C0001A4B12E0136810E043684668C3F3834397
:1002D000F60303F1020301D4194805E0406810F465
:1002E000003F106818BF400843430B60D9F8043042
:1002F0001448C3F30313034493F878000B68C34016
:100300000B60EB7B003318BF012363721368074A4D
:10031000934219D101221BE069A80008C8000020FF
:1003200058050020001002400020024000127A0010
:100330000410014024000020001BB70054000020DE
:1003400000093D0024410108974A934202D102224C
:10035000964B1A70DFF8ACA2954BDFF8ACB2CAF836
:100360000C30D9F81830934E43F00103C9F8183017
:10037000D9F824300027E360D9F82430584643F0F8
:100380008073C9F82430D9F818304FF0100843F0C2
:100390001C03C9F818301EAB03934FF6FF73039A82
:1003A0008DF84E7022F82C3D1146039207F0F9FEAD
:1003B0003046039907F0F5FE7F48039907F0F1FEF8
:1003C00002231EAA8DF847304FF4007322F8343D03
:1003D000069206998DF846805846CBF8103007F003
:1003E000E0FE764A0398536843F00073536005F0CB
:1003F000F9FC734A139B3946B3FBF2F3714A724816
:100400001360182210F093F9704B4FF47A721B6846
:10041000DFF8C8C1B3FBF2F36D4A013B5360F02330
:100420008AF82330072397601360AB68694A039FFB
:10043000DFF8D8A113609AE80F0087E80F00D9F819
:100440001830CDF810C043F00803C9F81830D9F8B7
:100450001830139843F00803C9F8183008233361A3
:1004600014A9C6F8108007F09CFE159816A907F08D
:1004700098FE584BCDF814B01B68564F13F0080F78
:10048000DDF810C012D09CF88E31012B0ED8524AE4
:100490009CF88F31D26812F0805B00F00D8505E08A
:1004A0004E4B002283F88F210AF0B6FD642007F03E
:1004B000DCFAA0224A48002110F039F9D9F81C30A2
:1004C000002243F00703C9F81C30D9F8183043F470
:1004D000006343F00C03C9F818303F4B4FF000089D
:1004E00003F1B00102F8018001320E2AF5D1FF229A
:1004F00083F8BE2083F8BF2083F8C02083F8C12092
:10050000384A394B41461A6038483C223E6810F060
:100510000EF94146C6F380170520354BDFF8CCE0D5
:10052000CA5C0C234B4303F80E2047B91E3A012A3C
:100530009FBFFF2200F1FF3003F80E20C0B201314F
:100540000529EAD12B4B95F805A018702A4BB10666
:10055000C4F8C43003F1C003C4F8C830274B1E4AA6
:1005600003EBCA035B7848BF0123C2F8CC302448B0
:1005700000211C2284F8C2A010F0D9F816F4005310
:10058000DFF88CB006F400680AD1B8F1000F41D052
:1005900095F882110BF10C02012908BF5A463BE085
:1005A000CDF810B039E000BF001BB700642D00206B
:1005B0000005FA05000C0140001001400000014058
:1005C00040420F00B81A0020DC190020540000201F
:1005D00010E000E098040020C8000020580500202A
:1005E000D800002044070020F41900205C0D0020F2
:1005F0002F5B0108590D002068050020A457010851
:100600009801002000ED00E000080140AC41010825
:10061000244101080BF10C020492BC4ABAF10E0FFE
:100620001192049A5288ADF84820049A1288ADF8C5
:100630004A20069AC4F8E82004D00AF0EF0ABAF17A
:10064000080F02D1012284F8E2200120069307F06E
:100650009FF9069BC6F34002003318BF012384F8BC
:10066000D030C6F3C03384F8D50084F8D62084F89F
:10067000D87084F8D330B8F1000F07D095F8828194
:1006800008F1FF37D7F1000848EB0708C6F300432D
:1006900084F8D930C6F3402384F8DA30D4F8CC306B
:1006A000B5F84401003318BF012384F8DB30C6F3EA
:1006B000005384F8DC30B5F84631A4F8E600A4F81D
:1006C000E030F004B5F8523148BF9148A4F8DE306C
:1006D000C6F3804306F00101C6F3C00284F8D730A8
:1006E00048BFB0F84C61B5F8503148BF8948A4F80C
:1006F000E43048BFA0F8E660B3F5FA7F84BF00237A
:10070000A4F8E63095F8D231834884F8EC30002321
:1007100084F8ED30437094F8E23084F8D480002BF4
:1007200084F8D11084F8D2200CBF0023022301B931
:1007300002B101330BEB830BDBF898304FF0000B69
:100740009A1E1A3306920793069B33F8024F0693BC
:100750004FF6FF739C4200F090816E4FE3B297F822
:10076000D520240AE5B2B8461AB19A1E012A40F2F1
:100770007F8197F8D82032B168491A018958684AB0
:10078000914200F0758197F8D90030B163491A01A0
:100790008958634A914200F06B8197F8D62052B194
:1007A0005E49059E01EB03114A68B24203D10A89F2
:1007B000102A00F05D8197F8D32052B15749059E69
:1007C00001EB03114A68B24203D10A89022A00F000
:1007D0004F8197F8D42052B150494C4E01EB031190
:1007E0004A68B24203D10A89022A00F04181D7F84F
:1007F000E8608EB1494A02EB031EDEF8041032684D
:10080000914209D1BEF80820B188914200F03081B0
:10081000F188914200F02C81022C02D197F8D0206F
:1008200003E0012C04D197F8D120002A00F02081A8
:1008300097F8DB20394C1E0162B1364A92F8E2206B
:1008400042B9A3F10802012A04D8A25935498A42C3
:1008500008BF042597F8DC2034445AB12D4A92F899
:10086000E2203AB910B10C3B012B01E0043B032B11
:1008700040F2E780012D5DD1DFF8A0A0FF2387F8CB
:10088000343187F835310AEB060303F1080C5A7B43
:1008900058681B894FF00008ADF84C3013A90223AB
:1008A00087F83881C7F844418DF84F30CDF820C023
:1008B0008DF84E2087F8F080C7F8F480C7F8F880EC
:1008C000C7F8FC80C7F8308187F8368187F8378110
:1008D00007F067FCDDF820C05AF806009CF802100B
:1008E000424607F0DAFB204641462A460CF022FA3F
:1008F0000D4B0E49C7F848310D4BC7F85081C7F86A
:100900004C3120460A1D0CF053F9B1E0000C0140B7
:1009100058050020C8000020B5010020C456010879
:1009200000040040002C0140D57D0008100200208A
:10093000B57E0008022D49D15FFA8BF24FF01C0CF6
:100940000CFB02FCBA4B002703EB0C0808934FF09A
:10095000010388F83831B74B88F839B19A19517BBF
:10096000506802F1080A12898DF84E1088F83A7121
:1009700013A988F84271C8F84441CDF824C0ADF8F5
:100980004C208DF84F5007F00CFCAA4B9AF802103F
:1009900098593A4607F081FB2046394601220CF06F
:1009A000C9F9A549089BDDF824C0C8F84811A34936
:1009B0006344C8F84C1103F5A471C8F8507120467F
:1009C0000A1D0CF0F5F80BF1010B51E0032D36D1A7
:1009D00097F8D730964E97F8EE502BB12046082165
:1009E0004FF6FF7200231CE0B6F8E420B2F5FA7F60
:1009F0000FD9934B2046B3FBF2F20821B6F8E6304C
:100A000092B207F0C1FC06EB8505C5F818028D4BC4
:100A10000EE08D4B2046B3FBF2F2B6F8E630012132
:100A200092B207F0B1FC06EB8505884BC5F81802B9
:100A3000C36097F8EE30013387F8EE3018E0042DEC
:100A400016D1B7F8DE20804B204693FBF2F201214D
:100A5000B7F8E03092B297F8ED5007F095FC97F8B0
:100A6000ED3008EB85080133C8F8480287F8ED300F
:100A7000069B079A93427FF467AE754F3B6813F469
:100A8000802F6B4B02D1012283F868221A7A714DB4
:100A900042F004021A722B784FF48052022B34BFBA
:100AA000142310238DF84E304FF002038DF84F3091
:100AB000D9F81830ADF84C2043F00403C9F81830C9
:100AC00034BF00240124644813A907F06AFB634B78
:100AD0000CB1634A00E0634A00201A6006F0DAFFB6
:100AE000614B624C93E80300039B4FF0030883E8DB
:100AF0000300D9F81830139843F00803C9F81830E8
:100B000014A907F04EFBD9F81C30204643F480436B
:100B1000C9F81C30D9F81030039943F48043C9F860
:100B2000103018238DF84E304FF42043ADF84C3080
:100B30004FF0040A8DF84F8007F033FB4FF48043E9
:100B4000204603994FF48056ADF84C308DF84EA0F6
:100B500007F027FB1023039920468DF84E30ADF89F
:100B60004C6007F01EFBD9F81030414A43F4804333
:100B7000C9F81030D9F81030322023F48043C9F876
:100B80001030138803F4415343F4457343EA0803D8
:100B90001380938B23F400631B041B0C93830723A4
:100BA000138213889BB243F0400313809F23266176
:100BB0008DF8403000238DF841308DF842308DF8AB
:100BC000433006F052FF52466661039810A90CF0BC
:100BD00029F926619DF84E309DF84D201B0243EA0D
:100BE00002439DF84F201343224A934212D03220F1
:100BF00006F03BFF6661F5200CF04AF9FF200CF08F
:100C000047F97028266105D12B78022B04BF114BC0
:100C100083F800802B78032B0CBF1F20022006F0E6
:100C20008BFE2B78032B27D0012007F04FFF28E005
:100C3000C8000020C4560108D5800008AD7D00081A
:100C400000127A00D57E000840420F00C57E0008E1
:100C500098040020642D002000080140482D002049
:100C60001D73000831730008CC410108000C0140DD
:100C70000038004015202000022006F089FE0028E0
:100C8000D2D095F80080A64D4FF0100A28460021DA
:100C900052463C680FF04BFD4FF6FF73ADF8403005
:100CA000022304F4004704F400664FF000091C40DE
:100CB0008DF842308DF843900DD09A4810A9ADF8C8
:100CC00040A005F03BFA04232B700124072385F88C
:100CD0000190AC70EB7077B10223924810A9ADF887
:100CE000403005F02BFA0123E2182B71AB7107237A
:100CF0006C71EB71D4B2B8F1010F0FD92023894880
:100D000010A9ADF8403005F019FA052301222B7225
:100D1000AA72631C07226C72EA72DCB27EB10223F3
:100D2000814810A9ADF8403005F008FA09230122E6
:100D30002B73AA73631C07226C73EA73DCB27B4FBC
:100D40007B487B68002643F440437B607B6943F02B
:100D500001037B61BB6943F40073BB6104F0CAFF0C
:100D6000744B012C1393744B0597149394BF334623
:100D7000802318934FF4807319934FF48063A7F680
:100D8000F8771A93202313A91B9338464FF4005386
:100D900016941C93159617961D9604F08DFF3B68CC
:100DA000664A43F001033B605368012C23F470232F
:100DB00094BF0021012123F4807343EA012353608F
:100DC00091685F4B013C0B4043F4602343F0020306
:100DD0009360D36AE4B223F4700343EA0454D46208
:100DE0000123AA199178002951D0A85D591C09281E
:100DF000C9B2D278514F10D9A0F10A04D7F80CC06B
:100E000004EB44044FF0070E0EFA04FE2CEA0E0E1B
:100E1000A2404EEA0202FA600CE03C6900EB400C92
:100E20004FF0070E0EFA0CFE24EA0E0402FA0CF242
:100E300022433A61062B414C0CD8013B676B03EB14
:100E400083031F229A4027EA020200FA03F31343A6
:100E500063631BE00C2B0CD8DA1F276B02EB8202BA
:100E60001F23934027EA030700FA02F33B4323635F
:100E70000CE0A3F10D02E76A02EB82021F2393400C
:100E800027EA030700FA02F33B43E3620B4604360A
:100E9000102EA6D1294B9A6842F480729A609A6803
:100EA00042F001029A609A6842F008029A609968DA
:100EB000224A090746D5FAE7013B092B3FF6F6AA75
:100EC000039BDAF86400C6F8148019461860059888
:100ED00007F067F9059B3C201A460823136106F0CA
:100EE000C4FDC6F810805E4695F88F319E42BFF66D
:100EF000D7AA059BDFF830A04FF00808CAF8108089
:100F00007820C3F8148006F0A5FD059BCAF814806C
:100F10007820C3F8108006F09DFD0136E4E700BF9D
:100F20002B13002000080140000C0140001002407B
:100F3000080002404C2401403C13002000240140E2
:100F4000FDF7F1FF936843F004039360B34B9A6895
:100F500012F004020392F9D19A6842F4A0029A6056
:100F6000AF4BB3F85801002841F0CC80B3F95A21B7
:100F7000002A41F0C780B3F95C31002B41F0C280F8
:100F8000A84BA94C1B68A64D13F4003F23D0C820E2
:100F9000B5F83C6706F069FDAE2007F092FD08B198
:100FA00007F096FB84F86902C82006F05EFDA4F8FD
:100FB00070629E4E9E4B00210C223046C4F86C326B
:100FC0000FF0B5FB0223F3700AF0C0F806F026FD1F
:100FD000984B0344B36095F8673100210693964B14
:100FE0000C221B689548B3F85630B5F8607107932A
:100FF00095F85E6195F868510FF099FB0021102279
:101000008F480FF094FB8F4BDFF81C9293F800A0F1
:1010100098468D4B4FF0000B03F11802BAF1010F07
:1010200094BF9A46924659460C2284F872B209F54A
:101030001D7089F873B20FF07AFB2320C4F880A2E8
:1010400006F013FD752001210DF12B0204F066F965
:10105000B0B17E4B5846C9F878327D4B0121C9F8B2
:101060007C320FAA432389F8743204F057F99DF8B3
:101070003C3003F07E038DF83C30002848D150E02E
:1010800099F8843273BB059B059A9B69DFF8E8A148
:1010900043F00803936110238DF84E304FF4805BCA
:1010A0000323504613A98DF84F30ADF84CB007F02C
:1010B00078F8684ACAF810B0138823F040031B047C
:1010C0001B0C1380138823F038031B041B0C43F004
:1010D0000803138013889BB243F04003138001235D
:1010E00089F884327520012113AA03F0E3FE9DF8EC
:1010F0004C30702B5AD1052384F87232432384F884
:101100007432554BC4F87832544BC4F87C324DE0FD
:10111000682B06D1012389F872321D2389F87432B5
:1011200044E09DF82B3003F07E03682B8DF82B30C4
:1011300037D10223062084F872320146D4F878327F
:1011400013AA98479DF8511001F001029DF84F1025
:1011500001F001014B0043EA82019DF84D2002F0AD
:1011600001030B430AD05BB2012B01D1002302E043
:10117000022B0FD1012384F8733217E02A4B0C2085
:10118000D3F87832012110AA98479DF8403013F027
:101190000F0303D1032006F0C7FC07E0042BE9D1BD
:1011A000E4E7702B04BF042384F87232002384F830
:1011B000853294F872321C49022B0BD1204A284800
:1011C0001060284850602848D060012281F88522AC
:1011D00000F085BC012B0DD1194A244881F88532D5
:1011E0001060204804235060214890601E48D06061
:1011F00000F075BC043B012B0CD8114B1D4A1A6042
:10120000184A5A60184ADA60012381F885320723A8
:1012100000F065BC012006F087FCA2E0002401403C
:101220005805002098040020C80000202C1B002036
:10123000DE060020404B4C00C00C00203C29002062
:10124000AC2C0020642D00203C4101081D530008F7
:10125000A955000800380040B54E0008E14E0008CE
:10126000C5500008814D000890C1793D014F00082C
:10127000494D000801500008000C0140012D40F0CC
:10128000F386BB4E33689A0702D5BA4B1B68984762
:10129000B94B38461B689847B84B069D1F78B84B2A
:1012A00003F11802012F94BF1F461746B54A0023C9
:1012B00013709046002D40F0E086B34A4FF00009CD
:1012C0001EABC2F8F87203F82C9D1E200A210122E1
:1012D00003F042FF002800F0D4869DF84C30482BE4
:1012E00040F09787A94BAA4A1A60AA4A5A6003237A
:1012F00088F80030A84B0222DA70336843F0080304
:101300003360A64B93F8542112B19F4981F885228E
:1013100093F855210AB1A2490A7093F856310BB1DE
:1013200088F8003033689F4E13F0080F00F0AB864A
:10133000BDF91C80642798FBF7F528460CF0D2FE17
:10134000814607FB158000B20CF0CCFE96490CF0EC
:101350001DFF014648460CF011FE94490CF016FFA3
:101360003060894D10222B7A0A2643F002032B723B
:101370008F4B5A6108221A61DFF834821920D8F89D
:101380000C30013E83F01003C8F80C30D8F80C3054
:1013900083F00803C8F80C3006F067FB012006F064
:1013A00079FB192006F061FB002006F073FB16F0B4
:1013B000FF06E1D1082310266D4FC8F81030C8F899
:1013C00010603B681B0709D5704BC8F814601B6898
:1013D0009847784B0122C8F810601A70D4F8FC3294
:1013E000754E187B0CF07EFE74490CF0CFFE09F0B0
:1013F00089FB804630880CF075FE41460CF0C6FE35
:1014000010F052F9A4F8000330880CF06BFE01468E
:101410006B480CF06FFF6B490CF06CFF564BC4F837
:1014200004036649D8680CF0B1FE67490CF0AEFEC3
:101430005A4E6649B6F84E310022A4F81033644B78
:10144000C4F808031A809A70086884F81823B6F85C
:10145000942106F5C37EC4F80CE3C4F814E300F14C
:10146000790A1FFA82FE0691DFF88481039BD8F87F
:1014700000C05849DFF87C910CF5967C21F813E008
:1014800049F823C00133122B0393EDD15346DFF803
:101490006891D9F800C0CDF80C901CF4805F08BFAB
:1014A000B6F89AE100F1C909A1F806E01878D8B9B0
:1014B000987893F803E0704516D238B1013800EB04
:1014C000800000EB800000F5617E07E00EF1010E68
:1014D0000EEB8E0E0EEB8E0E0EF5617E58781FFA17
:1014E0008EFE043021F810E004334B45DED11CF0B1
:1014F000080F00F0048196F88E11062900F2F98099
:10150000DFE801F004070E7C97B7B70045F2F0530F
:1015100001E042F6F823A5F8643304F089FBE7E024
:1015200042F6F8231201A5F864330A2392FBF3F282
:101530000023A2F5B062284941F823200133122B81
:10154000F9D1264A264940201160264A137006F038
:1015500043FA002800F0CD8001234FF0070A90F9EC
:10156000000040218DE808041F4A204BBBE000BF6B
:10157000A40400203C290020AC2C0020642D002075
:101580006C410108662D0020C8000020E00E0020FC
:10159000A58800080D88000850000020580500208C
:1015A000602D0020880F00208988883C00002041A1
:1015B000000C0140240F00200400002035FA8E3C6E
:1015C0000AE81C4100401C46BD378635C00C00208F
:1015D000D8130020DE0C00202C1200202000002058
:1015E000BB570008DC0C0020255A0008A08601002B
:1015F000502A0020E40300209804002042F6F8233B
:10160000714AA5F86433714B40201A60704B102268
:101610001A7006F0E1F900286BD001234FF00009A1
:1016200090F9000040218DE808026A4A4FF4E13346
:1016300059E042F6F823684AA5F86433634B40202A
:101640001A60634B08221A7006F0C6F9002850D0C1
:1016500001234FF0000C90F9000040218DE80810A4
:101660005E4A4FF4E13306F0C4FA5D4BC3F86803F9
:101670003BE042F6F823A5F86433554B0C22DFF823
:1016800098E158481A7006294FF000038EF8003090
:1016900003700CD054494FF4E1390B70534B1B21AC
:1016A0001970534B1A70534B05221A700AE04E48BA
:1016B000DFF8689103704D4B212018704C4B1A7065
:1016C0004C4B19704C4A414B40201A6006F084F98B
:1016D00078B101234FF0000E90F900008DE808402A
:1016E0004B46464A402106F084FA003018BF0120DC
:1016F00028B9082009F010FA414A344B1A60414BCE
:10170000334A1B6813F4804F1FBF122111703E48EB
:101710002E4918BF086042F20101194099B144F600
:1017200020619804A5F8641341BF0821117037485F
:10173000264948BF0860D90741BF0C2111703448C1
:10174000224948BF08601178043951701A0640F1E7
:101750009180DFF88CB04FF00009DFF8C4A0494653
:1017600015220BF56470C5F86CA385F87193C5F864
:101770007493C5F878930EF0DAFFAAF10503484692
:10178000C5F8A8330BF096F8D8F800300220C5F859
:101790007C3306F021F918B9802009F0BDF961E029
:1017A0009BF8711390F805E01A4B0C2202FB0132F2
:1017B00092F8B120724535D00131C9B20429F3D96C
:1017C000002285F871232FE0B75700082000002081
:1017D000DC0C002079590008B35700082D59000887
:1017E000C8000020B1120020B0120020B212002068
:1017F00029120020B3120020F95600085958000899
:1018000081BF000898040020E9570008FD57000830
:10181000ED570008244101082A12002090D003004F
:101820004407002085F8711396F8E7214FF00C0E5D
:10183000002A95F8712318BF03210EFB023308BF5D
:101840000121002290F9000093F8B130009101923B
:10185000022106F0CEF9C5F8AC0300289CD0012087
:101860000BF028F8069B186800F5C573C5F8B0336F
:101870000BF070F8049B059AC4F8B433059B4FF045
:1018800028099B69B34843F001039361049B0FA9A6
:101890001B888DF83E90ADF83C3003238DF83F3027
:1018A000059306F07EFC049BAA485A880FA9ADF860
:1018B0003C208DF83E9006F074FC049B0120197AC0
:1018C00006F05AFC049BA4495A680DF14C094A6180
:1018D0004FF0000B13924FF0010A102248468DF88A
:1018E00051208DF850B08DF852A004F0E9FB049B14
:1018F00010A85A7A059B8DF840208DF841308DF85C
:1019000042B08DF843A00BF06FFAD8F800304FF0DA
:10191000FF323C3BC4F8B8333B6843F010033B60F4
:101920008E4B1A608E4B1A68984612F4806F01D065
:101930000AF08AF88B4B8C4C1B78022B66D18B4AB1
:1019400000271388322023F040031B041B0C138054
:1019500013884FF4805A23F038031B041B0C1380A8
:1019600013889BB243F0400313809F238DF84030CF
:101970008DF841708DF842708DF8437006F075F85F
:101980008DF84D70734F0422C7F814A0484610A973
:101990000BF048FAC7F810A09DF84E309DF84D2086
:1019A0001B0243EA02429DF84F301343704A9342B0
:1019B00019D00AD8A2F51A42033A93420CD002F584
:1019C0001A420232934209D01BE06A4A934205D080
:1019D0000132934207D014E0202300E080232380CB
:1019E0004FF4807302E04FF4807323806380A388F8
:1019F00022881B02A3605343E360012385F8BC33B4
:101A000004E0002323806380A360E360E76817B3EA
:101A1000FF0ABA464FF0000BBB4509DA0BEB07048F
:101A20006410E0024946102206F008FE0F2806DC8A
:101A30000AF0E0FF504B4FEACA221A600BE0002385
:101A400059F82320013240F02A830133042BF7D1C7
:101A50002746A246E0E705F0E1FF484B4FF47A72D3
:101A600018607379052B04BF4FF4C873A5F8BE3313
:101A7000434B1A80434BC8221A80434A137843F0E1
:101A800008031370414A137823F00203137040F6E1
:101A90000203D8F8002013406BB13D493D4B19605B
:101AA0003D4B032119703D4B012119703C49002326
:101AB0000B803C490B80930304D53B4B02221A71E7
:101AC0000AF04AFAB368039A1360012385F8683272
:101AD0002B7A63F07F032B721FB0BDE8F08F334A7F
:101AE0003349914613700B6843F001030B60314B8F
:101AF00000221A70082E00F2C280DFE806F00BC048
:101B00000B63799963B0B000012E40F2C380294B7A
:101B100000261E7098F80030012B53D84FF0000AB1
:101B20001EAB03F82CAD53205146012203F014FBE9
:101B3000002847D09DF84C30E52B43D11E4B1F4A5F
:101B400084F886A21A601E4A5A601A4B04221A7040
:101B5000022398E0000C014000040140040D002025
:101B600098040020642D0020080000200038004068
:101B700018BA20001740EF009C0D0020D80E00205E
:101B80005C2D00205E2D0020A8040020612D002087
:101B9000D006002094040020F4040020440000201B
:101BA000340F0020360F00202C1B00205000002096
:101BB000A4040020602D00203C2900206956000864
:101BC000D153000894F87232022B11D1644B654A4C
:101BD0001A60654A5A60654A92F87322002A0CBF5F
:101BE0006F226E221A72624B01221A7003234AE09E
:101BF00098F80030012B1BD800221EAB03F82C2DC7
:101C00001C200D21012203F0A7FA88B19DF84C3069
:101C10002A2B01D01A2B0BD1514A564984F887320E
:101C200011605549524B516002221A7004232AE078
:101C300000211EAB03F82C1D1820012203F08CFAA2
:101C400068B19DF84C30FB2B09D1454B4B4A1A60CB
:101C50004B4A5A60464B01221A70052313E094F850
:101C60007232043B012B3FF64FAF3D4B454A1A60A1
:101C70003D4A5A603E4B01221A70082303E0012EB0
:101C800008D9002633E7404A89F80130136843F049
:101C90000203136098F80030012B05D10BF01EF9F8
:101CA0003A4B4FF400525A61042D3FF6E7AA01A3C4
:101CB00053F825F0C91C000883120008BD1D000858
:101CC000C91C0008CB1F00080A2005F0CEFE7720B3
:101CD000A021012210AB03F03FFA00286ED01E2194
:101CE0000122772003F0DCFB4FF42F6005F0B2FEF9
:101CF0000026A6F160010025C9B2022213AB7720AD
:101D00008DF84C508DF84D5003F026FA9DF84D306B
:101D10009DF84C2043EA0222144B03F522717252C3
:101D20000236102EE5D1B3F89612012601F00F000D
:101D300001F47F41A3F896122B4623F001022244BE
:101D4000B2F88822002A18BF002613F0010F03D032
:101D5000D2B2554008221BE085EA1225FAE700BFFF
:101D60003C2900202D510008C94D0008C800002062
:101D7000602D0020B3550008315300084556000877
:101D80008B530008B1500008A4040020001001404B
:101D900015F4004F18BF85F4C055013A4FEA4505C8
:101DA000F6D10133102BC8D10143BF4AA4F89612D3
:101DB00026B9C5F30333984200F0408194F8986245
:101DC000B94D002E40F02382DFF834830BF086F803
:101DD0004FF0280A4FF48049404610A9ADF84090D2
:101DE0008DF842A006F0DDF94FF40053C8F810302A
:101DF0005046AE4905F0E2FE0E21022006F0BCF985
:101E00000823CDF84C9013A84FF001098DF85130FC
:101E10008DF850608DF8529004F052F98DF83CA086
:101E20000FA84FF0030A8DF83DA08DF83E608DF8A5
:101E30003F900AF0D9FF142005F017FED02177203B
:101E40004A4610AB03F088F94146002800F0A18013
:101E50009DF84030A5F8BCA2552B85F8B33240F070
:101E60009880D1214A4610AB772003F075F99DF890
:101E70004030772003F00F021B0985F8B42285F863
:101E8000B532162213ABAA2103F066F99DF84C2057
:101E90009DF84D3043EA0223A5F89C329DF84E2070
:101EA0009DF84F3043EA0223A5F89E329DF850205A
:101EB0009DF8513043EA0223A5F8A0329DF8522044
:101EC0009DF8533043EA0223A5F8A2329DF854202E
:101ED0009DF8553043EA0223A5F8A4329DF8562018
:101EE0009DF8573043EA0223A5F8A6329DF8582002
:101EF0009DF8593043EA0223A5F8A8329DF85A20EC
:101F00009DF85B3043EA0223A5F8AA329DF85C20D5
:101F10009DF85D3043EA0223A5F8AC329DF85E20BF
:101F20009DF85F3043EA0223A5F8AE329DF86020A9
:101F30009DF8613043EA0223A5F8B03241F2707394
:101F4000A5F8C03246F67813A5F8C232584BC5F84A
:101F5000C432584BC5F8C832574BC5F8CC32574B32
:101F6000C5F8D032564BC5F8D43295F898324BB9F3
:101F700003F010FB42F6E06005F06CFDD8F8086055
:101F8000C6F380364F4B01221E70474B83F89822D0
:101F90003DE14D4A136823F48043136000234B4A0C
:101FA000424E02EBC3056868B04208D112F9330013
:101FB000282804D10020686002F8330002E00133D1
:101FC000032BECD14FF400534B61374E96F8D852A7
:101FD000002D5CD1142005F048FD06F2D9237620AF
:101FE000D021012203F0B8F896F8D932582B7FF4AB
:101FF00048A906F5377388211822762003F0ACF83B
:102000007620F421312203F04BFA012386F8D832EE
:102010002F4BA6F8C052C6F8C8322E4BC6F8C432B1
:1020200045F6D813A6F8C2322B4BC6F8CC322B4B50
:10203000C6F8D0322A4BC6F8D43228E042F21073E8
:10204000A2F8C032A2F8C232264B0325C2F8C4322D
:10205000254BC2F8C832254BC2F8CC32244BC2F80B
:10206000D032244BC2F8D432234B244A9D701368DB
:1020700043F004031360FFF704B9022D09D1FFF701
:102080001CB98146C5E000233360FFF76AB9042517
:10209000EAE7012D7FF635A91D46FFF707B904F1E0
:1020A000010B5446D5E400BFC80000206D4E000867
:1020B00095550008E9520008715500089D52000826
:1020C0006D4C00080000002000040140DC190020D5
:1020D000AD4A0008AF4A00085955000809520008E7
:1020E000ED480008695500088D5200086155000848
:1020F0007D520008B14A000850000020A4040020CE
:1021000000100140474B00221A7000B20BF0EAFFAA
:1021100045490CF03BF8454C0646B4F95A010BF022
:10212000E1FF41490CF032F80546B4F95C010BF0CF
:10213000D9FF3D490CF02AF80446304608F0E2FC8D
:102140008046304608F06AFC0646284608F0DAFC6D
:102150000746284608F062FC0546204608F0D2FCF7
:102160008246204608F05AFC4146814650460CF013
:102170000DF84146069048460CF008F85146079085
:1021800030460CF003F84946089030460BF0FEFF4D
:102190003946834650460BF0F9FF254C49462060EE
:1021A00007F100400BF0F2FF29466060A560089837
:1021B0000BF0ECFF014607980BF0E0FE2946E060CB
:1021C00058460BF0E3FF014606980BF0D5FE394662
:1021D000206106F100400BF0D9FF294660610698A6
:1021E0000BF0D4FF014658460BF0C6FE2946A0610D
:1021F00007980BF0CBFF014608980BF0BFFE414655
:10220000E06138460BF0C2FF2062FEF7B9BE02253E
:102210002AE7012D7FF675A8002588F80090FFF7C2
:102220004CB800BF1800002035FA8E3C580500203D
:10223000F00E00202DE9F04FAE4CA1B02378002B1A
:1022400000F09B81AC4E63683268D31A7C2B40F25D
:102250009481237A6260013323722425284609F091
:10226000A7FBA64B013518880BF03CFF0146002068
:102270000CF040F8A2490BF089FF0CF04DF9EDB2DB
:1022800000B209F083FB272DE8D1302009F090FB44
:10229000002009F07BFB09F083FB257A15F003058C
:1022A0001FD1944B5A6841F288339A420BD91020BF
:1022B00009F07EFB284609F069FB212009F078FB34
:1022C000284609F063FB142009F072FB002009F096
:1022D0005DFB1C2009F06CFB002009F057FB09F0A6
:1022E0005FFB257A15F0070540F02481022009F0F4
:1022F0005FFB284609F04AFB032009F059FB814B9C
:102300001B7859075DBF7B4B0520DB68284658BF0B
:102310009B89784D5CBFB3FBF0F000B209F036FB4F
:1023200023699A075BD5DFF8F491AA8A99F80030FF
:102330004FF0640808FB02325B00B2FBF3F3EF8A54
:1023400006203F01BFB247EA0327BFB2C3F303230E
:102350001F4309F02DFB38B209F018FBEB8A99F8FE
:10236000001001339BB293FBF1F201FB1233EB82BD
:10237000AB699B7B012B05D1392009F019FBB5F91D
:10238000140019E0AD8A6E235D43152795FBF7F520
:102390003A20AFB209F00CFBB7FBF8F528B208FB06
:1023A000157509F0F3FA3B2009F002FBA8B2451DB0
:1023B0000A2095FBF0F000B209F0E8FA282009F0B5
:1023C000F7FA002009F0E2FA042009F0F1FAE368D4
:1023D000988910B103F026FF00B209F0D7FAE3693B
:1023E000444F9B0640F19C8097F820309D071BD5F9
:1023F000112009F0DDFA788C4FF4F3656843424B05
:1024000090FBF3F000B209F0C1FA192009F0D0FAFC
:10241000788C4543642095FBF0F595FBF0F300FBC9
:10242000135000B209F0B2FA94F82030A58C13F0E2
:10243000020F08BF0025012009F0BAFA28B209F0FE
:10244000A5FA092009F0B4FA002009F09FFA2F4BF1
:1024500094F826501A88B2F5967F0AD9254B1B7A34
:1024600003F00F03072B04D842F20F75954228BFE3
:102470001546052009F09CFAA3695B7B0BB928B2CD
:1024800016E0A5F120000BF02DFE21490BF032FFE4
:10249000002105460CF018F810B94FF07C5101E00E
:1024A0004FF03F4128460BF069FD0CF035F800B2C3
:1024B00009F06CFA94F820200E4B900703D493F89F
:1024C0002720012A04D1012384F8273011482DE068
:1024D0009D69114968680BF059FE0CF01DF80E4912
:1024E0000090A8680BF052FE0CF016F801906846B8
:1024F0001CE000BF88040020502A002004000020B7
:1025000000007A44612D0020A086010046000020D2
:102510006666E63FB00400208096184B4400002019
:10252000D44A92E803008DE80300684609F050FAA7
:1025300009F036FA237A282B1FD1CF4B00221A72CA
:1025400033684FF47A70B3FBF0F73C26172009F09C
:102550002FFAB7FBF6F5B5FBF6F006FB10500002BC
:1025600000B209F013FA182009F022FA06FB1570E0
:1025700000B209F00BFA09F013FA94F83030BE4DAE
:10258000002B00F0378105F049FA6B6BBB4AC31A88
:102590009342064640F2B780002385F83A3085F82A
:1025A0003C30AB8AB649DAB21B0A85F8562085F86A
:1025B000573085F84C2085F84D306A6E0B689A1AB2
:1025C000AB6ED87B4FF47A7343439A420CD30B68BB
:1025D0006B6695F86C30013B012B9FBF102385F88B
:1025E0003A30022385F83C30002394F8201084F818
:1025F000543084F8553084F8583084F8593094F8C1
:10260000263089079C4A84F8873003D42D2382F82A
:10261000883077E0D4F82890E56A9A48DFF870C2ED
:1026200099FBF0FA95FBF0F00CFB0A980CFB005CB0
:10263000042B8CBF3323322382F88830062202FB1E
:1026400008F802FB0CFC904B4FF0640E98FBF3F182
:102650009CFBF3F203FB118803FB12C393FBFEF315
:102660000AEB8A0A4FB20AEB8A0A07EB8A0189B29F
:1026700084F8771000EB8000090A84F8781000EBEA
:10268000800051B201EB800292B284F87C20120AE1
:1026900084F87D2084F87E30628C1B1284F87F30B1
:1026A000242353434FF47A7293FBF2F384F874308B
:1026B000C3F3072384F87530B4F89A300A2284F8FB
:1026C00080301B0A84F88130A38C98FBFEF8B3FBA2
:1026D000F2F303F5FA739BB284F882301B0A84F894
:1026E0008330B4F89C304FEAD97984F87980ED0FC3
:1026F0004FEA282884F8769084F87A8084F87B5012
:1027000084F88930666394F89E805B4DB8F1000FC1
:102710000DD1D5F8A40005F033FB012807D9022814
:102720005A4F01F02E8304F0D9FD0123BB70D4F879
:10273000A850514B002D5DD093F89E203AB140F641
:10274000B731D3F8B020B21A8A4216D852E001222B
:1027500083F89E20D3F8B420D3F8A4001278022A7C
:1027600004D80430022104F0A3FD02E0022105F0A8
:102770003DFA002384F8B8303AE093F8AC20AAB9C7
:10278000C3F8A82083F89E20D3F8B420D3F8A4007F
:102790001278022A04D80430012104F089FD02E0F5
:1027A000012105F023FA04F099FD21E0013AD2B2AB
:1027B00083F8AC2093F8B81093F8B90042B901300F
:1027C0004A1C83F8B90083F8B820D3F8A4000DE0C0
:1027D0002A4612F8017B01307D18394683F8B9008A
:1027E000D3F8A40083F8B850C3F8A82005F0CBFABA
:1027F000C4F8B06094F8BA301F4E002B00F0BE85CC
:10280000D6F8BC30002B00F0B985D6F8C030002BCC
:1028100000F0B485C6F8C4301B68164FC6F8C8303F
:10282000D6F8CC303B441D7A642D00F0B08100F224
:10283000C880342D00F089835FD8222D00F0648396
:1028400033D8032D00F06B8124D8012D00F05C817A
:10285000022D40F08585042009F084FC432009F016
:102860006FFC4C2009F06CFC462009F069FC4C2000
:102870005FE100BF40470108880400203F0D0300CE
:10288000502A00208096980040420F00040000204B
:10289000806967FF042D00F05081052D40F06085B0
:1028A0001A2009F05FFC002559E1282D00F0598419
:1028B00014D8242D00F04F84262D40F05185062099
:1028C00009F050FCB4F8280209F066FCB4F82A02BA
:1028D00009F062FCB4F82C0200F040BD2C2D00F091
:1028E0005284322D00F09B842A2D40F0398501203E
:1028F00009F038FC94F8D5001BE1422D00F09F84CC
:1029000027D83A2D00F01F8217D8362D00F0B98451
:10291000382D40F02585042009F024FC94F8480265
:1029200009F00EFC94F84C0209F00AFC94F84B02F2
:1029300009F006FC94F84D02FBE03B2D00F0DD822F
:10294000402D40F00D85082009F00CFC002500F01A
:102950006CBC472D00F0AE8423D8452D00F0DB84FD
:10296000462D40F0FD840D20DD4D09F0FBFB05F008
:102970008BFE09F0E5FBA88809F017FC286909F02F
:1029800014FC94F8110994F8103998422ABFC31A1C
:10299000C3F1800300200344D4F81409184400F064
:1029A000C9BC4B2D00F00D844D2D00F01884492D2D
:1029B00040F0D684022009F0D5FBB4F8DC0000F02A
:1029C000CDBC722D00F0E68255D86A2D00F033831D
:1029D00039D8672D00F0108126D8652D00F0E680EB
:1029E000662D40F0BD84122009F0BCFB002009F0E8
:1029F000D3FB002009F0D0FB002009F0CDFB002024
:102A000009F0CAFB002009F0C7FB002009F0C4FB55
:102A1000B4F8200809F0C0FBB4F8220809F0BCFBA8
:102A2000B4F8240800F09ABC682D00F06D81692D7F
:102A300040F0968494F854080025400000F0FE0011
:102A400009F090FB6CE16D2D00F0768109D86B2DBB
:102A500000F01C836C2D40F08384062009F082FB7B
:102A600071E36F2D00F08081C0F07381702D00F054
:102A7000AB8100F075BC782D00F0CA8013D8752D9D
:102A800000F02F8204D8732D00F0CA82742D03E069
:102A9000762D00F00B83772D40F06284002009F042
:102AA00061FB00F05DBCA42D00F0228314D87C2DC6
:102AB00000F04384A02D40F053840C2009F052FB19
:102AC000884B186809F071FB874B186809F06DFB9B
:102AD000864B186800F02EBCF12D00F0DB80FE2D37
:102AE00000F02B83F02D40F03B84042009F03AFBEA
:102AF000D4F83838B3F85A0009F04EFBD4F8383817
:102B0000B3F8580000F02ABC032009F02BFB00208A
:102B100009F016FB284609F013FB0E2009E00320FC
:102B200009F020FB042009F00BFB002009F008FB52
:102B3000072009F005FB00F013BC062009F012FB8A
:102B4000412009F0FDFA462009F0FAFA4E2009F07A
:102B5000F7FA412009F0F4FA654B1878FEE3654B6B
:102B6000585D013509F0ECFA0B2DF8D10025624BC8
:102B7000585D013509F0E4FA082DF8D100255F4BC6
:102B8000585D013509F0DCFA072DF8D1E8E307209C
:102B900009F0E8FAE72009F0D3FA96F8D50009F031
:102BA000CFFA002009F0CCFA0420C3E30B2009F08F
:102BB000D9FAB4F81C0809F0EFFAB4F81E0880B28C
:102BC00009F0EAFAE369C3F3C000C3F380028000AE
:102BD00040EA4200C3F340021043C3F3401240EA0C
:102BE000C20003F01003184309F0D6FA002009F0E0
:102BF000DCFA94F8C0079CE7102009F0B3FA00252E
:102C00003F4B585D013509F09BFA102DF8D1A7E331
:102C1000702009F0A7FA00260E257543D4F838383D
:102C200001362B44B3F8190109F0B6FAD4F8383854
:102C30002B44B3F81B0109F0AFFAD4F838382B4411
:102C4000B3F81D0109F0A8FAD4F838382B4493F8EA
:102C50001F0109F075FAD4F838382B4493F8200195
:102C600009F06EFAD4F838382B4493F8210109F0B2
:102C700067FAD4F838382B4493F8220109F060FA47
:102C8000D4F838381D44D5F8230109F08EFA082EFF
:102C9000C2D165E3702009F065FA1A4D05F170069E
:102CA00095F8D00009F04CFA95F8D10009F048FAEF
:102CB00095F8D20009F044FA95F8D30009F040FAEB
:102CC00095F8D40009F03CFA95F8D50009F038FAE7
:102CD000073595F8CF0009F033FAB542E0D13FE36C
:102CE00004000020E8F7FF1FECF7FF1FF0F7FF1FBD
:102CF000642D0020905901089C590108A55901082C
:102D0000AE0C002058050020102009F02BFA0025F9
:102D1000D74B585D013509F013FA102DF8D11FE398
:102D200094F854389D4280F01B83D24B33F8150041
:102D300009F032FA0135F3E7062009F013FA002012
:102D400009F033FA05E2042009F00CFAD4F87C0803
:102D5000F0E2072009F006FAA08AFF28A8BFFF20AA
:102D6000C0B209F0EDF9EEE10B2009F0FBF9D4F85F
:102D700080380026187809F0E3F9D4F880385878BC
:102D800009F0DEF9D4F88038BB4D334418790136A8
:102D900009F0D6F9032EF5D1D5F88038D87909F0A5
:102DA000CFF9D5F88038987809F0CAF9D5F8803885
:102DB000D87809F0C5F9D5F88038588909F0ECF9C8
:102DC000D5F88038187AB4E61E2009F0CBF9D4F88B
:102DD000383800251B78022B6DD1D4F8383805F12E
:102DE000080253F82200A5490BF0D0F90EF05CFC64
:102DF00080F30800C0B209F0A3F9D4F83838A0492C
:102E000003EB8503D86A0BF0C1F90EF04DFC80F39B
:102E10000800C0B209F094F9D4F8383805F10E0270
:102E200053F8220097490BF0B1F90EF03DFC80F306
:102E30000800C0B2013509F083F9032DCDD1072D6B
:102E4000D4F8383823D1586C8C490BF09FF90EF028
:102E50002BFC80F30800C0B209F072F9D4F83838BE
:102E60008649986C0BF092F90EF01EFC80F3080076
:102E7000C0B209F065F9D4F8383893F84C000BF07B
:102E80002DF90EF011FC80F30800C0B20DE02B44C8
:102E9000587809F055F9D4F838382B44D87A09F025
:102EA0004FF9D4F838382B44587D013509F048F9EA
:102EB0000A2DC4D154E2D4F838382B44587809F09C
:102EC0003FF9D4F838382B44D87A09F039F9D4F8D6
:102ED00038382B44587D013509F032F90A2DEAD1F2
:102EE0003EE22F2009F03EF9674D15F8010F00284A
:102EF00000F0368209F024F9F7E7012009F032F9F1
:102F0000D4F83838187814E6502009F02BF9002648
:102F1000D4F838580C2205EB860595F8793001363F
:102F200002FB037393F84C0009F00AF995F87A0054
:102F300009F006F995F87B0009F002F995F87C0094
:102F400009F0FEF8142EE3D10AE2482009F00AF94C
:102F50000026D4F83858062303FB065595F8CE0012
:102F600009F0EEF895F8C90009F0EAF895F8CA00FA
:102F700009F0E6F895F8CB0009F0E2F895F8CC00F6
:102F800009F0DEF8013695F8CD0009F0D9F80C2EDD
:102F9000DFD1E5E1162009F0E5F8B6F8640209F0A2
:102FA000FBF8B6F8100209F0F7F8B6F8120209F0CB
:102FB000F3F8B6F8140209F0EFF8B6F8A60209F033
:102FC000EBF896F8B70209F0BBF8002009F0B8F862
:102FD00096F8B80209F0B4F896F8530209F0B0F880
:102FE00096F8600209F0ACF8002009F0A9F8D6F8CC
:102FF00038380A20B3F9563093FBF0F080B209F06C
:10300000CBF896F8480209F09BF896F84C0209F0C4
:1030100097F896F84B0209F093F896F84D0288E578
:10302000082009F09FF80125E8B2013509F088F879
:10303000092DF9D194E1102009F094F896F82000B8
:1030400000F0020009F07CF896F8260009F078F804
:10305000B06A09F0AAF8F06A09F0A7F8B08C09F094
:103060009BF8708C09F098F8B6F8840876E100BFF8
:10307000C40C0020DE0C0020880400200000204149
:103080000000C84200007A4451470108052009F0B9
:1030900069F8B4F89A0009F07FF8B4F89C0009F0D8
:1030A0007BF894F8860800F0010042E509F03EF84C
:1030B0000746122009F056F827B9D4F88868D4F8E2
:1030C0008C5801E000252E46384609F039F8304684
:1030D00009F06BF8284609F068F8002009F065F857
:1030E000002009F059F8002009F056F8002020E5EA
:1030F00094F89008002580000130C0B209F032F841
:1031000094F8900809F01CF894F890389D4280F0EB
:103110002781D14E705D09F013F806F11003585D58
:1031200009F00EF806F12003585D303609F008F872
:10313000705D09F005F80135E6E7082009F012F89E
:10314000002009F029F8002009F026F8002009F0F5
:1031500023F8002002E1042009F004F8D4F8D80094
:10316000E8E0072008F0FEFFB4F84E0209F014F87A
:10317000B4F8500209F010F894F8520208F0E0FF99
:10318000B4F85402EAE00C2008F0ECFF94F85E0278
:1031900008F0D6FFB4F8680208F0FEFFB4F8640245
:1031A00008F0FAFFB4F8660208F0F6FF94F85F0240
:1031B00008F0C6FFB4F86A0208F0EEFFB4F86C023B
:1031C000CCE0042008F0CEFF94F8A40208F0B8FF89
:1031D00094F8A50208F0B4FFB4F8A602BEE094F893
:1031E00054089E4D00EB4000C0B208F0BBFF002623
:1031F00094F8543802359E4280F0B28015F8020CE3
:1032000008F09EFF15F8010C013600EB800000EB82
:10321000800000F2EE2080B208F0BEFFE8E7012057
:1032200008F0A0FF94F8600283E48D4B2B4493F8E0
:103230008601013508F084FF082DF6D190E01020BA
:1032400008F090FF96F8D50008F07AFFD6F8D8007D
:1032500008F0ABFF96F85E0208F072FFB6F828029D
:1032600008F09AFFB6F82A0208F096FFB6F82C028A
:1032700008F092FFB6F84E0208F08EFFB6F8500242
:103280006CE094F8D108764DC0EBC000C0B208F0F5
:1032900069FF05F1280695F8EE010023714AD25C1A
:1032A000904200F0AB850C333C2BF7D10835B5428A
:1032B000F1D155E008F03AFF86B208F037FF054635
:1032C00008F034FF87B208F031FF06EB052607EB64
:1032D0000020B6B206EB0045842008F043FF2846E4
:1032E00008F063FF604B1E6905F18003B3428CBF99
:1032F000761B802609F07EFB28463246694605F09B
:103300009DF906460025B5422ADA1DF8050008F0A9
:1033100017FF0135F7E7132008F024FF0025534B72
:10332000585D013508F00CFF0B2DF8D1002008F096
:103330003CFF002008F039FF12E0082008F012FFDF
:10334000B4F8180208F028FFB4F81A0208F024FFB5
:10335000B4F81C0208F020FFB4F81E0208F01CFFAD
:10336000D4F8C430424D987908F0EAFED4F8CC3055
:103370000133092B88BF0023C5F8CC303D4D94F8AC
:1033800018292E683A4B002A00F05C81D3F81C29DA
:10339000002A00F0578193F82039013B012B00F2FD
:1033A0005181D4F81C09324F04F0EAFCE0B1D7F89F
:1033B0001C0904F0E2FC97F8213980467E2BD5F8F1
:1033C00000900ED102231B2887F8203909D1D7F8A5
:1033D0001C0904F0D5FC20B90123C7F8249987F80B
:1033E000283984F82189DCE7D7F824292B689B1A2F
:1033F00041F6583293421DD9032387F8203921E141
:103400001D4A32F8130010B903464FF4036001332C
:10341000B0F5C06FDBB26DD030D9B0F5006F6FD0B2
:1034200042D9B0F5036F49D184F82939E369104FC7
:1034300099064AD494F8281994F82939002900F0FB
:10344000FF802A68921B012ADAD984F829390023DF
:1034500084F82839F6E000BF190D0020F606002098
:10346000580500205C0D0020040000209059010840
:1034700088040020502A002070590108B0F5007F10
:1034800038D006D8B0F5807F68D0B0F5887F65D099
:10349000D4E7B0F5806F74D0B0F5826F00F0908003
:1034A000B0F5047FCAD11CE0B0F5E26F65D0B0F58D
:1034B000E46F62D0B0F5E06FC0D15EE0B0F5046FAC
:1034C0005BD0B0F5026FB9D1A5E097F820309A072C
:1034D000B0D5798C24234B436421123393FBF1F153
:1034E000A8E084F829392369984F9B07A2D5BB8AA5
:1034F0000A219EE084F82939236913F4006F32E031
:10350000E169924A880684F8293993D592F8201007
:1035100089078FD5DB0710D5D36A192283EAE371B7
:10352000A1EBE37101EB5101B1FBF2F1002BACBF58
:1035300041F0004141F040410DE0936A192283EAD5
:10354000E371A1EBE37101EB5101B1FBF2F1002B4F
:10355000B8BF41F080414FF400604BE084F8293956
:10356000E36913F0040F3FF465AF002103F06CFE34
:10357000764B002283F828295CE784F8293900215A
:1035800038E084F8293994F82A39704A0133DBB2DB
:10359000032B88BF012382F82A3942F2107394F872
:1035A0002A1959436A4B1B78DF0748BF0131980736
:1035B00048BF02315A0748BF04314FF4806019E018
:1035C000E169DFF8888111F0200784F8293917D0E4
:1035D00098F8202012F0020F14BF4FF47A710021E6
:1035E00012F0010F14BF4FF4FA6300230B4494F858
:1035F0002610194403F028FE002384F8283919E71F
:10360000D8F810301B067FF515AF394603F01CFEC5
:1036100088F828790EE784F82939E3694B4F990631
:103620007FF508AF97F820309A077FF503AFBB8C82
:103630006421594303F008FE002387F82839F9E68E
:1036400084F8293994F82B29404B002A5CD029684A
:10365000D3F82C298A1AC72A56D993F83029C3F8E7
:103660002C1993F83119013283F83029394E93F827
:10367000322929B97AB93270D3F83409232141E0CB
:103680004AB932783AB9D3F83409582104F07BFBAF
:103690000123337038E03378B3B3B4F848390A26DD
:1036A000A4F83A39B4F844390027A4F84C39B4F8EE
:1036B00046394420B3FBF6F384F83879A4F84E3940
:1036C00003F0B0FD0121B4F93A0903F08DFD482063
:1036D00003F0A8FD0121B4F94C0903F085FD412058
:1036E00003F0A0FD0121B4F94E0903F07DFD2A206D
:1036F00003F098FD94F83809394603F075FD31461A
:10370000D4F8340904F03FFB94F850290F4B002AF9
:1037100000F091812968D3F854298A1A092A40F2C5
:103720008A8193F85829C3F8541993F83119013252
:1037300083F8582993F83229074B09B972B903E085
:1037400062B91A7852B901221A7074E18804002013
:10375000612D0020632D0020622D00201B78002B9E
:1037600000F0698194F8593905220133DBB2B3FBCB
:10377000F2F202EB820284F859399B1A13F0FF032C
:103780001FD16E4601228DF804208DF805208DF89A
:1037900006208DF807200327B84A00938DF808709B
:1037A00003CE1772106051600920322102F8013CEB
:1037B00009F09EFC09F085FCB14BA3F85A0903F00F
:1037C000EFFC94F859390A21B3FBF1F201FB1232F4
:1037D00012F0FF0F32D1642B30D800230093012365
:1037E000ADF80430ADF8063002238DF81830A54B43
:1037F00002AE03F11007324618685968083303C255
:10380000BB421646F7D16E469C4B06AF324603CA02
:10381000BA4218605960164603F10803F6D11278CF
:10382000DC211A70984B16221920DA7109F060FC1D
:1038300009F047FCA4F85A0903F0B2FC94F85919AE
:103840001E23B1FBF3F203FB121313F0FF0F40F042
:1038500085808B4BB3F85C390BB19BB200E0082339
:10386000D4F83C19642202FB01F0D4F84019002678
:103870004A43002703920022CDE90067ADF81420E7
:10388000ADF81620ADF81A208DF81C206E466A4659
:10389000B4F944194FF47A7E0EFB01F18DF81D3016
:1038A000764B02900491ADF818E00DF11808174618
:1038B00003CF4745186059603A4603F10803F6D133
:1038C000386818211860BA886F4F9A801E20F971E5
:1038D00009F00EFC09F0F5FBA4F85A0903F060FCAE
:1038E000D4F83C29642303FB02FBD4F84029B4F943
:1038F000449903FB02FAD4F860094FF47A7303FB8E
:1039000009F90AF02FFE00238DE80808ADF81430FD
:10391000ADF81630ADF818303346CDF808A0CDF824
:103920000C90CDF81090ADF81A0007F108021E4671
:1039300003CE464510605160334602F10802F6D1CD
:1039400030682123106068211C20FB7109F0D0FB36
:1039500009F0B7FBA4F85A0903F022FC94F85919AE
:103960001E23B1FBF3F203FB1213DBB20F2B444E09
:1039700061D1D6F860090AF0CFFD1FFA80F8B6F9D8
:1039800044090AF0AFFB6E466A46404B002700939D
:1039900001930023ADF81230384B02900397ADF835
:1039A00010800DF1100C9646BEE80300E645186045
:1039B0005960724603F10803F5D1DEF80000DFF824
:1039C000C880186014204A23014688F8073009F09F
:1039D0008FFB09F076FBA4F85A0903F0E1FBD4F859
:1039E0006C39D4F8682903933346D4F8641900205D
:1039F0000DF1800E029200900191049705974EF808
:103A0000687D08F108021E4603CE764510605160BD
:103A1000334602F10802F6D130681E2310602721D8
:103A20001C2088F8073009F063FB09F04AFBA4F872
:103A30005A0903F0B5FB94F87029114B002A00F0E5
:103A4000FF802968D3F874298A1A092A40F2F8807D
:103A500093F87829C3F8741993F83119013283F86F
:103A6000782993F832290A4B09B99AB903E08AB93F
:103A70001A787AB901221A70E2E000BF6B2A00209E
:103A800088040020AD590108632A0020000020416D
:103A9000652D00201B78002B00F0D28094F8793936
:103AA0001E210133DBB2B3FBF1F284F8793901FB5B
:103AB000123313F0FF03DF4E59D186F87A396B4683
:103AC000DD4F7968386803C3684603F067FA03F08E
:103AD00051FA03F09FFA03F04DFA03F0FBFA03F0FA
:103AE00049FA03F0A9FA03F045FA312003F034FA59
:103AF00003F040FAB6F85C2907F10801684606F0C1
:103B000057FF684603F04AFA03F034FAD6F87C69A6
:103B100030460AF027FDC9495FFA80F830460AF0BE
:103B200035FB06460A2000FB08F00AF0DBFA0146E6
:103B300030460AF021FA0AF015FD07F10E01C3B272
:103B40004246684606F034FF684603F027FA03F061
:103B500011FA03F00DFB03F00DFA03F009FB03F07B
:103B600009FA03F007FA03F02FFA03F0D7F994F8F3
:103B700079191E23B1FBF3F203FB1213DBB20F2BF7
:103B8000DFF8B0825CD16B46AD4E002771683068BB
:103B900088F87A7903C3684603F000FA03F0EAF97B
:103BA00003F038FA03F0E6F9412003F0D5F903F009
:103BB000E1F903F08FFA03F0DDF903F03DFA03F0C9
:103BC000D9F9D8F880090AF0CDFC06F1080182B2D3
:103BD0003B46684606F0ECFE684603F0DFF903F06A
:103BE000C9F9D8F860090AF0BDFC3B4682B206F17B
:103BF0000801684606F0DCFE684603F0CFF903F0E2
:103C0000B9F906F11201D8F88429684606F0D0FE09
:103C1000684603F0C3F903F0ADF906F108013A462E
:103C20003B46684606F0C4FE684603F0B7F903F069
:103C3000A1F9452003F090F903F0C6F903F06EF9FD
:103C400094F888397B4E002B00F0F080D6F88C3940
:103C5000002B00F0EB802F68D6F89039FB1A632B0D
:103C600040F2E4807749D6F860090AF08FFA0AF04A
:103C700079FC85B2412003F037F9002003F02BF9DD
:103C8000002003F028F928460AF02CFA6B490AF0C4
:103C900031FB0AF067FC80B203F01DF903F0ECF889
:103CA00096F8945915F001052BD0F3699B063CD585
:103CB000B6F95C394720052BB4BF0225032503F074
:103CC00013F9D4F83C096426704303F0F3F8D4F8F0
:103CD0004009704303F0EEF85A49D4F880090AF01D
:103CE00055FA0AF03FFCC0B203F0D2F8B4F9440927
:103CF000704303F0DFF8B4F95C0945EA8000C0B214
:103D00000FE0532003F0F0F8284603F0E4F82846CB
:103D100003F0E1F8284603F0BBF8284603F0B8F8B2
:103D2000012003F0B5F803F0A7F894F89459DFF8F0
:103D30000481C5B94F2003F0D7F8D8F83C096426B0
:103D4000704303F0B7F8D8F84009704303F0B2F8B5
:103D5000284603F0AFF8012003F09AF8012003F0A1
:103D600097F803F089F894F894390A210133DBB20B
:103D7000B3FBF1F201FB1233C4F8907984F8943963
:103D800054E0BB782BB1C5F8A06087F80280FEF73D
:103D9000CEBCD5F8A030F31AB3F57A6FFEF4C7ACF9
:103DA0000123D5F8A400BB7003F0E7FF0746D5F860
:103DB000A40003F0E2FF7F067EF4B9AC8A2803D0AA
:103DC0008E280DD0FEF7B3BCEB6998067EF5AFAC3C
:103DD00095F89E30002B7EF4AAAC05F16D0306E049
:103DE00095F89E30002B7EF4A2AC05F13803C5F89F
:103DF000A8302D2385F8AC30FEF799BC08F0A0F967
:103E0000B5F8F00108F0C8F995F8F20108F098F952
:103E100095F8F30108F094F995F8F50108F090F998
:103E200095F8F40108F08CF9FFF740BA21B0BDE82D
:103E3000F08F00BF88040020D44801080000204112
:103E4000EC4801080000C8422DE9F04FA24C87B0B1
:103E50002368C3B9A14D2B78013B042B00F22E85BA
:103E6000DFE813F01004100410041305F4049A4B57
:103E7000186803F082FF9A4B05461B681B7843B114
:103E8000012B00F07881206803F07AFF0028EED142
:103E9000E0E72428934E0CD006D80A2800F0E580ED
:103EA0000D2800F0E28051E12A2806D02C2804D009
:103EB0004CE133707370B37059E18B4B717896F8A5
:103EC00000800020874A5854B8F1000F26D1197895
:103ED00082F80380472921D1597850291ED1997839
:103EE000472907D1D978472904D11979412901D126
:103EF0000121D17099787C4A522903D1D1784D297A
:103F000000F0D4849978784A472907D1D178532989
:103F100004D11279562A04BF0322F270F278714F4D
:103F2000022A3AD0032A4FD0012A40F08C80A8F10F
:103F30000202072A00F28780DFE802F004080F136C
:103F40001A25852A09F010F870607CE01B78532B45
:103F500079D173685B42736075E009F005F8B06071
:103F600071E01B78572B6ED1B3685B42B3606AE097
:103F70001B78302B5D4B1A788CBF42F0020222F086
:103F800002021A705FE0002009F04EF830735AE028
:103F9000002009F049F8F08155E0B8F1070F07D08B
:103FA000B8F1080F4FD1012009F03EF878824AE0BD
:103FB000012009F039F841F2184358434FF47A735D
:103FC000B0FBF3F038823EE0B8F1020F08D0B8F150
:103FD000030F0AD1002009F027F8454B187032E092
:103FE000002009F021F838752DE02CD9A8F1040241
:103FF00092103B7D0132D2B2013B02EB8303DBB274
:10400000102B20D8A8F10301C2F1010201EB8202BA
:10401000D2B2012A0BD0042A11D100205F1E09F070
:1040200003F8344B0022D855334BDA5507E0334AB6
:104030005F1E0020D35508F0F7FF314BD855314AA9
:10404000136801331360274A2A2D18BF917808F1AD
:1040500001084FF000030CBF01214D4086F800809D
:1040600073700CBF5175957081E0737D002B6AD021
:10407000254B13F8012D25495A708B42F9D11A4A64
:10408000B07813785278402B85BF373B1B011B015A
:10409000DBB298BF03F0F003402A8CBF373A303AC6
:1040A000D2B21344DBB298420E4A49D121230B709D
:1040B000174916480B6801330B60D378012B2DD0BC
:1040C000022B3FD17223118A0370124B528A19803E
:1040D000114B1A8036E000BF740400203804002021
:1040E00070040020AC0F0020542A0020A8040020F7
:1040F000180D0020490D0020390D0020190D002059
:10410000290D0020302800206C04002058040020D5
:104110003C280020AA0400200C0D0020672101701B
:104120009D4909788F070ED59C49506808609068B2
:104130004860107B9A490870D1899A4A118002E040
:104140003F230B7000230022727510E073780E2B52
:104150009FBF954A591C5170944A934998BFD554B2
:10416000737D1BB98A7855408D7000E00023DD0710
:104170007FF589AE53E18C4B9A7D082A3FF683AEDA
:10418000DFE802F0050C1319242F4A606A00B528F5
:104190007FF479AE0022DA75012202E0622802D0B3
:1041A00000229A756FE60222FBE703229A751876C1
:1041B0005876987667E604229A755A7E997E02446C
:1041C000D2B25A760A449A76D8765CE605229A7577
:1041D0005A7E997E0244D2B25A760A449A769883DD
:1041E00051E606229A755A7E997E0244D2B25A76D8
:1041F0000A449A769A8B02EB0025ADB2B5F5AC7FF6
:1042000082BF694A0121D17500229D83DA83002D86
:104210007FF439AE0722C4E75A7E997E0244D2B2B7
:104220005A760A449A76DA8BB2F5AC7F3EBF5E4985
:10423000891881F820000132998B92B29142DA8379
:10424000E8D920E608229A755B7E83423FF41BAED4
:10425000554B0122DA750EE0002255499A7511F886
:10426000012D4A70534A9142F9D1987E4E4AA84294
:1042700006D03F230B70504A53680133536002E667
:104280004E4D286801302860D07D10B13E230B7060
:10429000F9E521200870D07E06284DD004D80228E8
:1042A00014D0032830D0EEE5122864D030287FF4F3
:1042B000EAAD4920087092F82410414A102988BFBD
:1042C0001021117010783F49002283E050200870BF
:1042D0003249506A4860906A0860116B4FF47A70F6
:1042E00091FBF0F12F48018092F878112A4A19B118
:1042F000117841F0020102E0117821F00201117001
:10430000012283F879217AE05320087092F8251071
:1043100011F0010105D092F82420D01E4242424102
:1043200000E00A4683F87821002A68D11A490A7801
:1043300022F002020A7062E04F20087092F82B10FF
:1043400011F0010105D092F82A20D11E4A424A41BB
:1043500000E00A4683F8782122B90F490A7822F052
:1043600002020A7093F84F100D4A1170B3F84C1006
:10437000154A118043E056200870506B134908809D
:1043800042F21070916B91FBF0F111480180012114
:1043900082F87A1133E000BFA8040020B0040020A6
:1043A000AE040020AC040020AC0F0020542A0020F2
:1043B0006C04002058040020380400203C28002011
:1043C000180D0020CC0F002046000020AA04002079
:1043D0000C0D002082420ED20E7AB64D56554E7A02
:1043E000B54D5655CE7AB54D565511F80C6FB44DA6
:1043F00056550132EEE7B3490A6801320A6093F874
:104400007931B14A002B3FF43EAD92F87A31002B5E
:104410003FF439AD002382F8793182F87A31AB4B21
:10442000DFF8E082DA681A61A94A1268DA60A94AFC
:10443000136843F020031360A74B1A78012A0CBFBE
:10444000002201221A7098F800309A077FF51BAD00
:10445000A24A1278042A7FF616ADA14A127802F019
:10446000040202F0FF011AB923F0010388F80030BA
:1044700098F80070944E17F0010F9A4D24D119B39B
:10448000BB0721D5984B28686A6818605A6009F004
:1044900029FE002181460AF035F808B1484601E0BE
:1044A00009F10040914909F025FF914909F06EFE9C
:1044B00006F028FB8F4B47F0010718608E4B88F8F9
:1044C00000701B88A6F87C3196F87E21531C0522CB
:1044D00093FBF2F202EB82029A1A96F87F3186F889
:1044E0007E21029392000023DFF8F8919900DFF813
:1044F00028A2039159F82310DFF820E291FBFAFC7F
:104500000EF1080040F823C07C484EF8231000FB51
:104510000C1142F2107091FBF0F00EF1100680B217
:1045200026F813004FF014080EF1140608FB036878
:104530000EF13C0B58F802705BF8236048F802104B
:10454000F61B0E4405214BF8236096FBF1F60AFB9F
:104550000C6602990EF1440E01294EF82360C846FC
:1045600006D10238B0F5797F9CBF039941F8096004
:104570000BB90123B8E7DFF85891534FD9F8000081
:10458000D7F8CC31C01A09F0A9FD5D4909F0B2FE97
:10459000D9F800304FF07E51C7F8CC31064609F00B
:1045A00093FF08B94FF07E56564BC7F8D0611B7881
:1045B000DFF86C9113F00103534E13D004AA00925C
:1045C000494B05AA01920CCB98E8030008F080F94A
:1045D000049A6421B2FBF1F2059BA9F8002093FB39
:1045E000F1F301E0A9F80030338097F8D431364E6A
:1045F000002B3BD0D6F8D0114FF07E5009F07AFE58
:104600008246D6F8D8312868C01A09F06BFD5146A9
:1046100009F0BCFD09F080FFD6F8DC311FFA80F903
:1046200068680FFA89F9C01A09F05CFD314B196806
:1046300009F0ACFD514609F0A9FD09F06DFFB6F98E
:10464000E22100B28118B6F9E021022009EB020351
:1046500091FBF0F193FBF0F389B29BB2A6F8E6115F
:10466000A6F8E431A6F8E211A6F8E031012387F8B4
:10467000D431D8F80430C7F8DC31D8F80030C7F8A6
:10468000D83100E4214E3268177817B1012F49D094
:1046900014E1012B00F212816A781D4B0C2101FB01
:1046A00002335A781B4B206853F8221003F062FB48
:1046B00096E000BF190D0020290D0020390D0020C3
:1046C000490D002030280020AC0F002038040020C5
:1046D000502A0020A40400200E0D0020AE0400206B
:1046E000612D0020B0040020100D00208096184B92
:1046F00035FA8E3C1C000020B00E0020806967FF58
:1047000000007A44A8040020240500207004002042
:10471000D4410108584C0108809698002C110020C3
:10472000220500202068DFF8C08103F0B1FA0028DC
:1047300000F0C4802A78634B022A3FD0032A4CD071
:10474000012A40F0BB80604A10689A69821AC72A21
:1047500040F2B480596904292ED85C4A0C2496464C
:1047600004FB0121D8F800404E78A7689861002327
:104770005749D8B251F82320BA4204D00133092B4B
:10478000F6D1002300E00346B34205D0204651F89D
:10479000261003F0EFFA91E06B780C2101FB03E2A5
:1047A000566816F8011B19B1204603F0ECFAF8E739
:1047B0006B6901336B6181E0022074E05A78434BEE
:1047C0000C2101FB02335A78414BD8F8000053F812
:1047D000221003F0CFFA032065E0326892780AB91C
:1047E000042060E01A7F02B91F772B7F354F012B21
:1047F0000FD17B69B22B08D8364A2068D15C03F010
:10480000C2FA7B6901337B6103E000237B610223F1
:104810003B772B7F2B4F022B14D17A690F2A0FD8AD
:1048200033682C495B78206803EB03130B44134473
:1048300093F8B41003F0A7FA7B6901337B6101E0C0
:1048400003233B772B7F022B38D9C9E7AB681D497F
:104850000133AB60204B1B68DB784BB14B780522F2
:104860000133DBB2B3FBF2F202EB82029B1A4B7014
:10487000154B00221B680120EB60184B1A70184A78
:10488000137823F0020313700DE00F4BEA681B68E6
:104890009B1A40F6C412934210D9124A052013689D
:1048A00023F02003136008F005F807E01279432A8B
:1048B0007FF428AB0222F270FFF724BB07B0BDE8FB
:1048C000F08F00BF38040020502A0020D441010896
:1048D000584C01081C49010870040020AE04002057
:1048E000A8040020A4040020740400202DE9F04F47
:1048F00087B06C4C02916C4922880E680546C2EB69
:1049000026135B435200C2EBE602B4F902601B13AC
:104910005643B4F90420B4F90A0053439B1303EB44
:10492000E62606EB860380331B12B6F5FA384FEA0B
:10493000E67704934B6847F1FF39A8FB08AB039374
:1049400008FB09F3B4F908200BEB430BE389A661DC
:104950000593D31708FB03F102FB0911A8FB0223FF
:104960000B44C1171F030AFB01F300FB0B33AAFB27
:1049700000011603194447EA1257020A42EA01628B
:1049800092194FEA2123E6887B410032A2FB0601FF
:1049900043F5004306FB03114B100093CB17019323
:1049A000DDE900231343B4F810E0B4F80CC06DD077
:1049B0000FFA8EF0C1170AFB01F1AAFB002300FBDE
:1049C0000B11BDF914600B44F71708FB07F106FB48
:1049D0000911A8FB06670F4479047004801841EAA6
:1049E000D6315941039B0FFA8CF8C3F5801E7246ED
:1049F000D317002212184FEACE764FEAC3774FEA58
:104A0000C8034B4147EA5E07B61A67EB030740F657
:104A10003543A6FB030103FB0711DDE9002309F081
:104A2000C1FDB4F916204E1302FB06FE470B47EA00
:104A3000C147D31707FB03EEA2FB0723564373447A
:104A400007FB0366A2FB07233344560E46EAC31650
:104A50008219B4F914604FEA636741EB07037143AD
:104A6000F71700FB0717A6FB00013944C60C46EAFE
:104A7000413692194FEAE1474FEA1221B4F9122068
:104A80007B4141EA036113010B4400E000230DB1B7
:104A90001B0A2B60029B13B11A46049B136007B0DC
:104AA000BDE8F08FA4030020C411002070477047B8
:104AB0006B4B6C4A2DE9F04F5E8994684FEA062AE9
:104AC000B4EB0A0A9C884FF000054FEA04481C89A1
:104AD0004FF0000BA4FB0A6765EB0B0B04FB0B7795
:104AE000F40944EA476418EB04065C884FF00009B7
:104AF0004FEAE7154FEAC438DC8849EB050787B071
:104B0000CDE90467A4FB0A6704FB0B77340A44EA87
:104B1000076418EB04064FEA27259C894FF000092B
:104B200049EB0507CDE90067AAFB046704FB0B7797
:104B3000F40D44EA472414F5FA664FEAE75545F1C7
:104B40000007B6F5FA6F77F10003CDE902679646E4
:104B500066DADDE90489A4FB046704FB05F34FF082
:104B6000050C07EB4307A6FB0C230CFB07335F1078
:104B70004FEA3206B8EB06084FEA920646EA837619
:104B800069EB07099F10DDE90023921B63EB070324
:104B9000CDE90023DDE90267334A4FF0FF33964247
:104BA00077EB0303CDE9048927DA40F6AC52002302
:104BB000A4185D4104FB05F3A4FB04456FF0060255
:104BC00005EB4305664202FB0566A4FB0223334462
:104BD00018EB020649EB0307CDE904670B26A4FB9B
:104BE000062306FB0533DDE900455B104FEA320280
:104BF000A41A65EB0305CDE90045DDE902450AFB92
:104C00000BF3AAFB0AAB0BEB430B4FEADA7242EA57
:104C10004B02A41A4FEAEB7365EB0305CDE902459D
:104C2000DEF80C40009B019DA4FB032304FB05332D
:104C30004FEA525848EAC3284FEA6359DDE9042392
:104C4000B8EB020269EB03039946D30B43EA4943ED
:104C500000B1036009B1029B0B6007B0BDE8F08FA3
:104C600050030020C411002024FAFFFF2DE9F04179
:104C7000324C334D62892B8AB4F904809A1A238905
:104C8000B4F902E05A43B4F91230D613B4F914203F
:104C9000DB02324493FBF2F232440A26E2615643CD
:104CA000A2F57A6202FB02F3B4F90EC002FB0EFE1B
:104CB00002FB08F2B4F90C801B130CFB03FC03FB92
:104CC00008F31B1403EB62320232E388921002F500
:104CD000004253434CF25032B4F920704FEAEE2EAA
:104CE000B4F900400EEBEC2C0CEB8404BC406D6975
:104CF0000234A5EBA4043A4162434FEAD3384EBFD5
:104D0000B2FBF8F35400B4FBF8F340F6DE3448BFCE
:104D10005B001A12524362430A4C08365C43241467
:104D200004EB224202F6CF62361103EB221300B1EC
:104D3000036001B10E60BDE8F08100BF6403002094
:104D4000C411002043E3FFFF13B50C4B04465B681E
:104D50001B20022101AA984770B19DF804209DF8FC
:104D6000053043EA022303F54E5310334FF48C729F
:104D700093FBF2F32333238002B010BD3C030020E9
:104D800037B5104B04465D68187806216A46A84777
:104D9000A8B19DF800209DF80130012043EA0223CC
:104DA00023809DF802209DF8033043EA02236380AC
:104DB0009DF804209DF8053043EA0223A38003B048
:104DC00030BD00BF3C03002013B5104B04465B68A8
:104DD0003B2006216A469847A8B19DF800209DF81F
:104DE0000130012043EA022323809DF802209DF830
:104DF000033043EA022363809DF804209DF80530C8
:104E000043EA0223A38002B010BD00BF3C03002090
:104E1000B0F5807F0ED0BB280ED861280ED8292887
:104E20000ED813280ED809280ED8002814BF062043
:104E30000020704700207047012070470220704713
:104E4000032070470420704705207047054A08B5C5
:104E5000138801339BB21380034B187803F036FE9E
:104E6000002008BDA60C0020C820002008B54FF483
:104E7000804001F055F9012801BF044B4FF48042F6
:104E80005A61034B08BF187608BD00BF00040140FB
:104E9000C411002010B5054C2368186901F040F9D1
:104EA00018B123681A69024B5A6110BD48030020EB
:104EB00000040140F8B50E461746084C4FF48055E3
:104EC000656140F0800007F0E3FF3846002132467C
:104ED00007F0A8FF25610120F8BD00BF000C0140CC
:104EE00070B50E46054C4FF48055656107F0D0FF54
:104EF000304607F0CDFF2561012070BD000C014058
:104F000070B5FFF785FF104C0546192002F0ADFD86
:104F1000A36815200021984710B9022002F004FE72
:104F200045F01801A368C9B216209847A36800216C
:104F300017209847A36801213D209847A3683E2089
:104F40000121BDE8704018473C030020F0B5274D13
:104F500085B06B7E002B46D1254C2368002B42D0B8
:104F60001A68244E12B1B1690A43B2619A889868EE
:104F7000ADF8002002228DF80320694604228DF846
:104F8000022003F00EF9B369002743F00103B36177
:104F900023680126187B197D03F0EEF82368164973
:104FA00093F9150002F00AFE2368144A1B69536145
:104FB000029308230DEB03008DF80D308DF80C7073
:104FC0008DF80E6001F07CF8236801A85B7D8DF8F8
:104FD00006708DF8043003238DF805308DF80760D6
:104FE00007F002FF6E7605B0F0BD00BFC4110020CF
:104FF0004803002000100240954E000800040140C4
:1050000037B50446FFF7A2FF254B1A68254B9A4295
:105010000ED14FF40053ADF8043002238DF8073061
:10502000042321480DEB03018DF8063003F0B9F895
:105030002046FFF7EDFE05461C4C8021A3686B203F
:105040009847642002F011FDA36807216820984763
:10505000642002F00AFDA36800216B2098476420B9
:1050600002F003FDA36801216B209847A368182173
:105070001B209847A36810211C209847A368294645
:105080001A209847A368002119209847A368122185
:1050900037209847A36801213820984703B030BDD6
:1050A00024000020001BB700001001403C0300203A
:1050B00008B5FFF74BFF024B4FF480521A8008BD32
:1050C0000400002070B50446FFF740FF2046FFF7BC
:1050D0009FFE0546144C8021A3686B2098476420EE
:1050E00002F0C3FCA368002119209847A36803219C
:1050F0006B2098470F2002F0B8FCA36829461A20BD
:105100009847A36818211B209847A36810211C20EA
:105110009847A368022137209847A36838200121C7
:10512000BDE87040184700BF3C03002008B5FFF7FA
:105130000DFF074B5B7813B1012B03D008BD4FF473
:10514000006201E04FF48052024B1A8008BD00BF9C
:105150003A0300200400002010B54000204CC0B2EB
:1051600020702048204C017020480021017001204F
:1051700020701F4C23601F4C23601F4B1A701F4A66
:105180001F4B107019701F49086811461A4630B33A
:1051900083889C0515D40388DB050DD447F2305372
:1051A0000488A40502D5013BFAD112E08BB1038833
:1051B0009BB243F48073038083889BB243F44073B3
:1051C000838047F23053087810B1013BFBD100E0F7
:1051D00013B9BDE8104039E6107880F0010010BD29
:1051E000CE200020CC200020CA200020D420002087
:1051F000D0200020D8200020CD200020DC2000205E
:10520000DD200020C420002007B5F7216B460622D0
:105210007620FFF7A1FF9DF800309DF801101B03D9
:1052200043EA01139DF80210094A43EA111353603F
:105230009DF803309DF804101B0343EA01139DF809
:10524000051043EA1113136003B05DF804FB00BFBF
:10525000C411002007B5002101AB03227720FFF71E
:105260007BFF9DF805309DF804001B0243EA0043D4
:105270009DF80600184303B05DF804FB08B5FFF77E
:10528000E9FF014BD86008BDC411002008B5FFF745
:10529000E1FF014B986008BDC41100200F4B13B50E
:1052A0001B780F4C0BB1237EB3B1032201AB7720E7
:1052B000F621FFF751FF9DF805309DF804201B02F1
:1052C00043EA02439DF806201343064AB2F9202020
:1052D000C2F10802D340636102B010BD000000209B
:1052E000C4110020640300200A4B13B51B780A4C3C
:1052F0000BB1237E63B1022201AB7720F621FFF7C9
:105300002BFF9DF804209DF8053043EA02232382F9
:1053100002B010BD00000020C411002030B50546C9
:105320000C46134629462246BDE83040682013E764
:1053300013B50622044601211C206B46FFF70CFF23
:1053400008B39DF801309DF80020042143EA0222B1
:1053500042F38D0292FBF1F29DF8023022809DF81B
:10536000032042EA032242F38D0292FBF1F29DF800
:10537000043062809DF8052042EA032343F38D0345
:1053800093FBF1F3A38002B010BD13B506220446CF
:10539000022118206B46FFF7DFFEB8B19DF8003000
:1053A0009DF801209B0803EB022323809DF8023027
:1053B0009DF803209B0803EB022363809DF80430D3
:1053C0009DF805209B0803EB0223A38002B010BDCB
:1053D000314B2DE9F3411B780546002B3BD00024CF
:1053E00026462746A04601345320322108226B4628
:1053F000E4B2FFF7B1FE08B9002049E09DF80120B2
:105400009DF80030202C03EB02231BB29DF80320F3
:1054100098449DF8023003EB02231BB21F449DF811
:1054200005209DF8043003EB02231BB21E449DF8B7
:10543000073003F07F0301D0002BD4D198FBF4F8A0
:1054400097FBF4F796FBF4F6144BA5F800806F80F9
:10545000AE809C761CE05320322106226B46FFF77B
:105460007BFE0028C8D09DF801209DF8003003EB9A
:1054700002232B809DF803209DF8023003EB0223CA
:105480006B809DF805209DF8043003EB0223AB8070
:1054900002B0BDE8F08100BF4E030020C41100201F
:1054A00013B502AB03F8012D4000214AC0B21070C1
:1054B000204A00201170204901220A701F490870FB
:1054C0001F490B601F490B601F4B20491A700A705F
:1054D0001F4B204A187010681A4630B383889C0509
:1054E00015D40388DB050DD447F230530488A40596
:1054F00002D5013BFAD112E08BB103889BB243F491
:105500008073038083889BB243F44073838047F2A7
:105510003053087810B1013BFBD100E013B9FFF71D
:1055200095FC02E0107880F0010002B010BD00BFD1
:10553000CE200020CC200020D4200020CA20002033
:10554000D8200020D0200020CD200020DC2000200A
:10555000DD200020C42000207620F42131229FE7A6
:105560007720482101229BE777205821012297E7E5
:10557000064B002193F82020054B92013432197616
:105580007720F42102F0FC028AE700BF64030020C8
:10559000C4110020034B00221A767720F4212E221A
:1055A0007EE700BFC411002003460A466820194662
:1055B00076E713B500222A211C20FFF771FF0E2188
:1055C00002221C20FFF76CFF0F2103221C20FFF793
:1055D00067FF2B2112221C20FFF762FF164A0224CC
:1055E0009369164843F0040393612023ADF8043017
:1055F00004230DEB03018DF806308DF8074002F00F
:10560000D0FD22462C211C20FFF74AFF2D2101222C
:105610001C20FFF745FF2E2100221C20FFF740FF32
:105620002A2105221C20FFF73BFF054B4FF4807217
:105630001A8002B010BD00BF0010024000080140F7
:105640000400002008B50F2108221820FFF728FFCA
:105650000E2218201021FFF723FF024B4FF4805237
:105660001A8008BD0400002008B5134B53201B7896
:105670002D2108227BB1FFF713FF31210A2253208D
:10568000FFF70EFF2C210C225320FFF709FF5320B8
:105690003821902209E0FFF703FF31210A2253202D
:1056A000FFF7FEFE53202C210A22FFF7F9FE40F2FD
:1056B0000912024B1A8008BD4E030020040000208E
:1056C00003F00CBB03F030BC03F008BB03F02CBCB0
:1056D000084BDA68D10709D4DA68520708D4DB68C6
:1056E00013F0100F14BF03200420704701207047EF
:1056F000022070470020024003788B4286BF024B95
:1057000033F8110000207047F011002000221346EA
:1057100070B5234914180C44247E83EA042308241A
:1057200013F4004F4FEA430318BF83F4815304F18D
:10573000FF3418BF83F0010314F0FF049BB2EFD1D4
:105740000132192AE5D100F1190200F11A050A44C3
:105750000D44167E2A7E02EB062292B29A421ED198
:105760000F4B93F83950E2B2AA4215D2431C03EB17
:105770004203DBB2CA1801330B44127E1B7E03EBDB
:1057800002239BB24FF4AF6253431B1303F54873DC
:1057900021F814300134E6E7012381F83A3070BD76
:1057A000F0110020007888428CBF4FF47770002001
:1057B0007047002070470020704708B5074B03EB87
:1057C0008101C86B08F08AFC054908F0DFFC054937
:1057D00008F0D4FB08F0C6FE80B208BDF01100202E
:1057E0000000203F00005C4400207047024B03EBA8
:1057F0004101B1F884007047F0110020024B03EB27
:105800004101B1F884007047F011002010B5044642
:1058100002F004F941F288310E4BE4B2D3F89C2037
:10582000C3F89C00821A8A42C3F8A02084BF0022D9
:1058300083F8A42093F8A42006490F2A134418BF24
:10584000013283F8A54012BF81F8A420012381F81A
:10585000B53010BDF011002070B5054602F0DEF83D
:10586000314CD4F8B830C4F8B800C31AB3F5FA5FB5
:10587000C4F8BC3082BF002384F8C03084F8C13043
:1058800094F8C0302BB9A12D02BF274A012182F81C
:10589000C11094F8C110244A29B1D118EDB20133D6
:1058A0000D7682F8C03094F8C05094F8C230AB4204
:1058B00039D11D4B93F8C330052B02D0062B03D0F2
:1058C0002CE00020FFF722FF637E1E2B26D1002054
:1058D0000246C1B26B1E994219DA21440B7E08219F
:1058E000DBB283EA0206F60744BF83F01803C3F372
:1058F000460301F1FF3154BF5B0843F0800311F010
:10590000FF01C2F34702ECD101301A46E1E723441C
:105910001B7E9A4202D10320FFF7F8FE002384F891
:10592000C13084F8C03070BDF011002010B50446BD
:1059300002F074F841F288310E4BD3F8C420C3F85A
:10594000C400821A8A42C3F8C82084BF002283F8A8
:10595000CC2093F8CC200749142A134418BF0132F5
:1059600083F8CD4012BF81F8CC20012381F8E230CA
:1059700010BD00BFF011002038B5044602F04EF80B
:10598000274A2749D2F8E430C2F8E400C31AB3F535
:105990007A6F84BF002382F8E83092F8E83033B998
:1059A000A82C3BD181F8E930A1F8EA3006E0022BBF
:1059B00002D181F8EC4001E0242B02D8D11881F803
:1059C000ED4092F8EC1001330231DBB249008B421A
:1059D000134D82F8E83018DAB5F8EA30E0B283EA1D
:1059E0000020082310F4004F4FEA400018BF80F455
:1059F000815003F1FF3318BF80F0010013F0FF0363
:105A000080B2EFD1A2F8EA0038BD01318B4201BF6C
:105A1000002385F8E830012385F8E93038BD00BF60
:105A2000F011002010B5044601F0F8FF40F6AC512B
:105A30000F4AD2F81431C31A8B42C4BF002382F834
:105A4000183192F81831D11881F8194123B90F2C67
:105A50000DD10749C1F814010133DBB2192B0449F8
:105A600082F818310CBF0123002381F8323110BDB8
:105A7000F0110020F8B5564B064693F836370C4621
:105A8000012B15461BD1114608F034FC4FF07E5116
:105A900008F072FA0546014608F078FB294608F03E
:105AA00075FB294608F072FB4FF07E5108F064FA4E
:105AB00004F100440146204608F068FB58E0022B40
:105AC0004FD110464FF07C5108F060FB0146304644
:105AD00008F010FC4FF07E51054608F0F5FCE8B1E7
